:100000000C94E3010C9414020C9414020C9414024A
:100010000C9414020C9414020C9414020C94140208
:100020000C9414020C9414020C9414020C941402F8
:100030000C9414020C9414020C9414020C941402E8
:100040000C9414020C9414020C9414020C941402D8
:100050000C9419090C9414020C9414020C947D2D28
:100060000C9414020C94A8310C94DE310C941402FC
:100070000C9414020C94EE080C9414020C941402C8
:100080000C9414020C9414020C9414020C945B044F
:100090000C9414020C9414020C9414020C940C0A88
:1000A0000C9414020C9414020C9414020C94140278
:1000B0000C9414020C9414020C9414020C94140268
:1000C0000C9414020C9414020C9414020C94140258
:1000D0000C9414020C9414020C9414020C94140248
:1000E0000C941402BA13C81340145014C314EF1420
:1000F000FD1419152915481558155D1A5D1A761540
:100100009B15B615EC153A167016C616D6161417AA
:100110002F17B819F819041AC419DA19211A331A41
:100120005D1A5D1A5D1A5D1A5D1A5D1A5D1A5D1A17
:100130005D1A5D1A5D1A5D1A5D1A5D1A5D1A5D1A07
:100140005D1A5D1A5D1A5D1A5D1A5D1A5D1A5D1AF7
:100150005D1A5D1A5D1A5D1A5D1A5D1A5D1A5D1AE7
:100160005D1A5D1A5D1A5D1A5D1A5D1A5D1A5D1AD7
:100170005D1A5D1A5D1A5D1A5D1A5D1A5D1A5D1AC7
:100180005D1A5D1A5D1A5D1A5D1A5D1A5C179A197F
:100190003D18921EBA1ED71EF41E371F191F551F79
:1001A0007E1FB41F991FF01FCC1FCC20A720EB206F
:1001B0008A2126211722DD21AF1E6B228D22A82243
:1001C000C922731FD822ED22092316234323522369
:1001D000A82EAD2EB22EBC2EC62E3F2FD02ED82E3E
:1001E000E02EEA2EF42EFE2E0D2F172F3F2F212F5B
:1001F0002B2F352F612F642F532F572F5D2F9B2FC0
:10020000682F6C2F722F762F7A2F802F842F882FB4
:100210009B2F8E2F922F962F08000000BE9224490C
:10022000123EABAAAA2ABECDCCCC4C3E0000008028
:10023000BEABAAAAAA3E00000000BF000000803F9B
:100240000000000000084178D3BB4387D1133D195B
:100250000E3CC3BD4282AD2B3E68EC8276BED98F88
:10026000E1A93E4C80EFFFBE01C4FF7F3F000000CC
:10027000000007634236B79BD8A71A39685618AEF4
:10028000BAAB558C1D3CB7CC5763BD6DEDFD753ECB
:10029000F6177231BF000000803F00000A0B020910
:1002A0000C0D0E0807030401000000000000000010
:1002B000000000000000000000000000000000003E
:1002C00000000000000012111000000000000000FB
:1002D000000000000000000000000000000000001E
:1002E0000102102020080810204010204080020148
:1002F000020108040201010204081020408080402D
:10030000201008040201800402018040201008042B
:1003100002010804020101020408102040800102C9
:100320000408102040800505050507050808080891
:10033000020202020A0A080804040404010101017D
:100340000101010103030303030303030407070778
:100350000C0C0C0C0C0C0C0C02020202060606061D
:10036000060606060B0B0B0B0B0B0B0B00002000FD
:100370002300260029002C002F003200000100007D
:1003800003010601090100002200250028002B00BE
:100390002E003100340002010000050108010B01AC
:1003A00000002100240027002A002D003000330027
:1003B00001010000040107010A014B02570423094F
:1003C000952812324F0211241FBECFEFD1E2DEBFBB
:1003D000CDBF00E00CBF14E0A0E0B2E0E2EBF9E733
:1003E00000E00BBF02C007900D92A03BB107D9F708
:1003F0002FE0A0EBB4E001C01D92AF32B207E1F7ED
:1004000013E0C4ECD3E000E006C022970109FE012E
:100410000BBF0E94583ACA3BD10780E00807A9F7F2
:100420000E94E8020C94C73C0C94000080910602E4
:100430009091070201969093070280930602089517
:10044000089580EB94E00E94B3238091060290917E
:10045000070269E170E00E94FE39892BD9F480918E
:10046000020D882389F08091030D81110BC0E0916A
:10047000B004F091B1040688F789E02D80EB94E098
:10048000199502C01092030D81E090E0909307024D
:1004900080930602089580EB94E00C946D0B80EB42
:1004A00094E00C947E0B80E1809391001092900078
:1004B00085E08093B90D86E998E99093BB0D809310
:1004C000BA0D909397008093960085E180939100F8
:1004D00086E192E09093B80D8093B70D81E0809310
:1004E000710080EB94E00E94670F69E072E08EE893
:1004F0009EE00E94A1326FEF71E2605072404AE0CC
:1005000050E08EE89EE00E946B336EE072E08EE871
:100510009EE00E94A13260EB74E0605072404AE0BD
:1005200050E08EE89EE00E946B3365E172E08EE859
:100530009EE00E94A1326FE27FE0605B74404AE07F
:1005400050E08EE89EE00E946B336BE172E08EE833
:100550009EE00E94A13260912B0F70912C0F6115CB
:10056000710519F06F527F4002C060E070E04AE010
:1005700050E08EE89EE00E946B3361E272E08EE80C
:100580009EE00E94A1328DB79EB76FEF71E2681BAB
:10059000790B4AE050E08EE89EE00E946B3368E2FF
:1005A00072E08EE89EE00E94A13280912B0F909124
:1005B0002C0F6DB77EB7009719F46F527F4002C0C1
:1005C000681B790B4AE050E08EE89EE00C946B3398
:1005D0000E941D2E0E9420020E945302C1E6D0E319
:1005E0000E9421022097E1F30E946130F9CFCF935E
:1005F000CFB7F8948091640D811127C0EBE5F3E04B
:100600008491E5E1F3E09491E82FF0E0EE0FFF1F15
:10061000E056FC4FA591B4918C91892321F461E0BF
:1006200085E30E94D52F61E085E30E949C2F8CB565
:1006300080618CBD8CB580648CBD61E084E30E94D8
:100640009C2F61E083E30E949C2F8091640D8F5F5B
:100650008093640DCFBFCF9108958091950D90E068
:100660002091960D821B910908952091960D8091FD
:10067000950D281750F4E22FF0E0E956F24F8081F3
:1006800090E02F5F2093960D08958FEF9FEF0895D0
:10069000E091960D8091950DE81730F4F0E0E95661
:1006A000F24F808190E008958FEF9FEF08950895B5
:1006B000CF92DF92EF92FF920F931F93CF93DF932E
:1006C0007C01CB018A012091710D222389F0EB017D
:1006D0006B01C40ED51ECC15DD0569F06991D701FB
:1006E000ED91FC910190F081E02DC7011995F3CFB8
:1006F000642F0E94E309C801DF91CF911F910F91F0
:10070000FF90EF90DF90CF900895CF93DF931F92EB
:10071000CDB7DEB769832091710D2223D1F02091EE
:10072000720D203240F021E030E0FC01338322835F
:1007300080E090E015C08091730DE82FF0E0EC5858
:10074000F24F998190838F5F8093730D8093720D28
:1007500005C061E0CE0101960E94E30981E090E0CE
:100760000F90DF91CF910895FC011382128248EE21
:1007700053E060E070E0448355836683778389E3C8
:1007800092E09183808308951092960D1092950DBA
:100790001092730D1092720D0C94260981E08093D3
:1007A000710D6093940D1092730D1092720D089557
:1007B0000C94CE030F93062F21E04091720D64E755
:1007C0007DE08091940D0E948C091092730D10921F
:1007D000720D1092710D0F9108958F929F92AF92AA
:1007E000BF92CF92DF92EF92FF920F931F93CF931E
:1007F000DF93EC01F62ED42E48015901EE2019F1B9
:100800000E94CE031E2D143008F013E01150B8F0F2
:10081000E881F98128E0129FB0011124A50194011B
:1008200004C056954795379527956A95D2F7CA0122
:10083000B9010190F081E02DCE011995E7CF60E07C
:10084000CE010E94DA034D2D413208F040E22C2DFA
:1008500067E97DE08F2D0E9444091092960D8093E8
:10086000950DDF91CF911F910F91FF90EF90DF9049
:10087000CF90BF90AF909F908F900895CF92EF92BE
:100880000F931F93C22EE12C00E010E098010E940C
:10089000ED031F910F91EF90CF90089521E00C94FC
:1008A0003E0421E00C943E0461E00C94DA0385E6FA
:1008B0009DE00C94B4031F920F920FB60F92112477
:1008C0000BB60F922F933F934F935F936F937F934A
:1008D0008F939F93AF93BF93EF93FF93E091B70DE7
:1008E000F091B80D1995FF91EF91BF91AF919F9144
:1008F0008F917F916F915F914F913F912F910F90C9
:100900000BBE0F900FBE0F901F901895FF920F9384
:100910001F93CF93DF93FC010081C181D281F894B2
:100920008981F02EF0948F21898378941DE71150EE
:1009300029F182E090E00E94122E88818023B9F391
:10094000F8948A818F218A838981802B8983789486
:1009500080EE91E00E94122EF89489818F21898384
:1009600086E490E00E94122E8881802311E009F035
:1009700010E078948AE991E00E94122E812FDF9195
:10098000CF911F910F91FF9008951F93CF93DF9305
:10099000FC011081C181D281912F909560FF12C01E
:1009A000F8948A8189238A838981812B89838AE0CB
:1009B00090E00E94122E8A81812B8A83789487E3AB
:1009C00090E011C0F8948A8189238A838981812BE0
:1009D000898381E490E00E94122E8A81812B8A8390
:1009E000789485E090E0DF91CF911F910C94122EC6
:1009F0000F931F93CF93DF93FC011081C181D281AC
:100A0000F8948981812B89838A81012F0095802325
:100A10008A8383E090E00E94122E8981802389835B
:100A20008AE090E00E94122EC881789485E390E0DD
:100A30000E94122E1C2381E009F480E0DF91CF9107
:100A40001F910F910895CF92DF92EF92FF920F9333
:100A50001F93CF93DF931F92CDB7DEB76C01E62EC5
:100A600008E010E0FF24F39461E09F2D9E2109F43B
:100A700060E0C60149830E94C504FF0C01501109C2
:100A800049810115110581F7411115C0F894D6016E
:100A90001196ED91FC91129791818C91809589230B
:100AA00081831196ED91FC91129792818C918095A2
:100AB0008923828378940F90DF91CF911F910F91BA
:100AC000FF90EF90DF90CF900895EF92FF920F93F9
:100AD0001F93CF93DF938C01C8E0D0E0F12CEE247C
:100AE000E394C8010E94F8048111FE28EE0C2197BE
:100AF000C1F78F2DDF91CF911F910F91FF90EF9054
:100B00000895CF92DF92FF920F931F93CF93DF93BD
:100B10001F92CDB7DEB78C01F62E40E065E57983F4
:100B20000E942305CF2C7981D72E88E0F82EF6017C
:100B300061916F0140E0C8010E942305FA94B9F762
:100B40000F90DF91CF911F910F91FF90DF90CF9089
:100B50000895FC0113861586148627E030E0DF0136
:100B6000A20FB31F13961C922115310519F02150C5
:100B70003109F5CF08951F93CF93DF93EC01162F22
:100B800060E0812F0E949C2F612F70E0FB01E052FA
:100B9000FD4FE491E883FB01EA5DFC4FE491F0E056
:100BA000EE0FFF1FE459FC4F859194919A8389833E
:100BB000CE01DF91CF911F910C94A905AF92BF9206
:100BC000CF92DF92EF92FF920F931F93CF93DF9319
:100BD0001F92CDB7DEB75C01D62EE72EFC018585CE
:100BE000811164C0C50149830E9486044981811135
:100BF00005C0F50113861586148671C0442319F0CB
:100C000040E060EF02C040E06CEEC5010E942305A9
:100C100001E0F12CC12C11E0C5010E94F804682FFD
:100C2000C50169830E94F8046981613019F481303B
:100C3000B9F433C02F2D30E068131BC0F501838554
:100C4000181730F4E20FF31F8381802349F402C0A8
:100C5000181731F060E0193058F4F501148708C016
:100C6000F501EF0DF11D8381802B838361E009C0C5
:100C7000C12EF501E20FF31F8381902F90958923F8
:100C80008383C5010E94C5041F5F000F11F4F39414
:100C900001E0F7E0FF1508F0BFCF113438F0F5019F
:100CA000C386C11009C081E0858706C0F50113869F
:100CB0001586148680E013C0F50183818823B1F383
:100CC000ED2DFE2D80E090E0D501A80FB91F139601
:100CD0002C912193019688309105B1F781E00F9016
:100CE000DF91CF911F910F91FF90EF90DF90CF9008
:100CF000BF90AF900895ECE7F0E090819F739083F0
:100D0000208130E4839FC0011124282B2083089583
:100D1000EAE7F0E09081987F90839081982B908310
:100D2000089580917A00877090E00895E1E8F0E0FE
:100D30008081887F808308950E94960610928500A6
:100D400010928400E1E8F0E080819091BC0D892B45
:100D500080830895882321F080917C00806203C005
:100D600080917C008F7D80937C000895EBE7F0E01C
:100D70009081987F90839081982B90830895CF9253
:100D8000DF92EF92FF92CF936B017C0180E1809321
:100D9000810010928000A701960160E074E284E770
:100DA00099E40E94683620E030E040E051E40E947F
:100DB0003C380E94D5366115710521E08207910506
:100DC00028F421E02093BC0DCB014CC061157105C6
:100DD00028E08207910568F422E02093BC0DDC0135
:100DE000CB0153E0B695A795979587955A95D1F77E
:100DF00039C06115710520E48207910568F423E08C
:100E00002093BC0DDC01CB0146E0B695A7959795E4
:100E100087954A95D1F726C061157105810521E0B6
:100E2000920740F424E02093BC0DBB27A92F982FF4
:100E3000872F18C061157105810524E0920768F4B9
:100E400025E02093BC0DDC01CB012AE0B695A795E7
:100E5000979587952A95D1F705C085E08093BC0DBD
:100E60008FEF9FEF9093870080938600C1E0C0933F
:100E70006F0086E00E94B606C093D20D80917A0082
:100E8000806280937A00C092C50DD092C60DE09228
:100E9000C70DF092C80DCF91FF90EF90DF90CF90EB
:100EA00008958093D20D882321F080917A0080628A
:100EB00003C080917A008F7D80937A000895EAE7DD
:100EC000F0E08081806480830895CF93DF93D09198
:100ED0007800C09179004091D50D5091D60D2091A8
:100EE000D30D3091D40D42175307A8F58091D20D40
:100EF000811102C00E945F078D2F90E09C2B2091F2
:100F00007C0025FF13C0E091D90DF091DA0D2091FE
:100F1000D50D3091D60DA9014F5F5F4F5093D60D7F
:100F20004093D50DE20FF31F908315C0E091D70DCC
:100F3000F091D80D2091D50D3091D60DA9014F5FBC
:100F40005F4F5093D60D4093D50D220F331FE20F04
:100F5000F31F91838083DF91CF9108951092D60D76
:100F60001092D50D8091D20D0E9451070E94C72D7D
:100F70006093BD0D7093BE0D8093BF0D9093C00D17
:100F800080917A00886C80937A0080917B008770D2
:100F9000863011F40C949C0608958F929F92AF9224
:100FA000BF92CF92DF92EF92FF920E94C72D4B012A
:100FB0005C0180917A00877D80937A0080917B002C
:100FC0008770863011F40E9496066091D30D70915F
:100FD000D40D80E090E00E94013720E034E244E745
:100FE00059E40E943C386B017C018091BD0D9091C9
:100FF000BE0DA091BF0DB091C00DA5019401281B9D
:10100000390B4A0B5B0BCA01B9010E9401379B01E6
:10101000AC01C701B6010E9468366093C10D7093A0
:10102000C20D8093C30D9093C40DFF90EF90DF909D
:10103000CF90BF90AF909F908F9008958093CF0DE9
:1010400090917C00907F90937C0020917C00982F61
:101050009770922B90937C00883020F080917B00D9
:10106000886003C080917B00877F80937B00089518
:1010700091E09093CE0D1092D10D1092D00D109260
:10108000CD0D25E637E03093CC0D2093CB0D0C949D
:101090001E088091CD0D8F5F8093CD0D9091CE0D68
:1010A000891302C01092CD0D8091CD0DE091D00D2D
:1010B000F091D10DE80FF11D80810E941E080C9463
:1010C00065071F93CF93DF93C091CD0D9091CE0D07
:1010D0009230A0F081E08C0F891719F08093CD0D2C
:1010E00002C01092CD0D8091CD0DE091D00DF09108
:1010F000D10DE80FF11D80810E941E08109178002B
:10110000D09179004091D50D5091D60D2091D30DFD
:101110003091D40D42175307F0F48091D20D811114
:1011200002C00E945F07612F70E07D2B80917C00E0
:1011300085FF02C0672F7727E091C90DF091CA0D96
:101140008C2F19958091D50D9091D60D0196909385
:10115000D60D8093D50DDF91CF911F910895CF9338
:10116000DF93D0917C00C0917B0080917C00807ED9
:1011700080937C0080917C008E6180937C008091C4
:101180007B00877F80937B0063E070E080E090E0ED
:101190000E94EA2D80917A00806480937A00809189
:1011A0007A0086FDFCCF6091780080917900D09321
:1011B0007C00C0937B0070E0782B882777FD8095BA
:1011C000982F0E9403379B01AC0160E070E889E82A
:1011D00094E40E946836DF91CF9108951F920F9298
:1011E0000FB60F9211240BB60F922F933F934F938C
:1011F0005F936F937F938F939F93AF93BF93EF937F
:10120000FF93E091CB0DF091CC0D1995FF91EF91EB
:10121000BF91AF919F918F917F916F915F914F910E
:101220003F912F910F900BBE0F900FBE0F901F900C
:1012300018951F920F920FB60F9211240F900FBEA8
:101240000F901F90189581E00C947B061092480E29
:1012500081E08093460E1092450E61E084E10E9489
:10126000D52F61E085E10E94D52FE9EBF0E0808188
:101270008E7F808380818D7F808388E48093B80017
:1012800085E48093BC000895413208F043C09091FA
:10129000480E9111FCCF91E09093480E2093460E9A
:1012A0002FEF2093DB0D1092200E240F20931F0EA2
:1012B0009093470E9091470E880F892B8093470E8D
:1012C0008091450E813061F41092450E8091470E59
:1012D0008093BB008091BC0083FDF8CF85EC01C0FA
:1012E00085EE8093BC008091480E8130E1F38091BF
:1012F000200E841710F44091200E21E23EE0FB0105
:10130000D9018A2F821B841718F48D918193F9CF0C
:10131000842F089580E008950F93413208F04AC069
:101320009091480E9111FCCF92E09093480E00935B
:10133000460E9FEF9093DB0D1092200E40931F0EF0
:10134000FB0161E27EE0DB019A2F961B941718F4F3
:1013500091919D93F9CF1092470E9091470E880F6F
:10136000892B8093470E8091450E813061F4109255
:10137000450E8091470E8093BB008091BC0083FD99
:10138000F8CF85EC01C085EE8093BC00222321F0CC
:101390008091480E8230E1F38091DB0D8F3F61F048
:1013A0008091DB0D803251F08091DB0D803341F470
:1013B00083E007C081E005C080E003C082E001C097
:1013C00084E00F910895613298F42091480E243002
:1013D00089F46093FD0DFC018FEF9DE0DC012A2F65
:1013E000281B261718F421912D93F9CF80E008953A
:1013F00081E0089582E0089585ED8093BC0080919E
:10140000BC0084FDFCCF1092480E089585EC8093BB
:10141000BC001092480E08951F920F920FB60F92C3
:1014200011240BB60F922F933F934F935F936F93BB
:101430007F938F939F93AF93BF93EF93FF9380918D
:10144000B900887F803609F49EC078F5883209F4A7
:101450005DC090F4803109F456C038F4882309F453
:10146000F5C0883009F44FC0F5C0883109F44EC08A
:10147000803209F45FC0EEC0803409F46AC058F4C9
:10148000803309F457C0883309F0E4C08093DB0D42
:101490000E94060ADFC0803509F44FC0883509F480
:1014A0005DC0883409F0D6C0D3C0883909F4C4C0FF
:1014B000A8F4883709F467C038F4883609F463C0A3
:1014C000803709F460C0C6C0883809F4B5C08039D7
:1014D00009F45FC0803809F0BDC05BC0803B09F4EF
:1014E00083C038F4803A09F466C0883A09F47CC0B5
:1014F000B1C0803C09F4A4C0883C09F4A1C0883B79
:1015000009F487C0A7C08091470E10C09091200EAB
:1015100080911F0E981770F5E091200E81E08E0FDC
:101520008093200EF0E0EF5DF14F80818093BB004F
:1015300085EC83C08093DB0D8BC0E091200E81E0B1
:101540008E0F8093200E8091BB00F0E0EF5DF14F95
:1015500080839091200E80911F0E6BC0E091200E31
:1015600081E08E0F8093200E8091BB00F0E0EF5D54
:10157000F14F80838091460E81116AC081E0809393
:10158000450E84EA5EC083E08093480E1092DC0D25
:10159000CFCF8091DC0D803208F04EC0E091DC0DA1
:1015A00081E08E0F8093DC0D8091BB00F0E0E35270
:1015B000F24F8083BDCF0E94060A8091DC0D8032FD
:1015C00030F4E091DC0DF0E0E352F24F10826091D4
:1015D000DC0D70E0E091410EF091420E8DED9DE04A
:1015E00019951092DC0D36C084E08093480E10925D
:1015F000FE0D1092FD0DE091430EF091440E1995F1
:101600008091FD0D811105C081E08093FD0D109248
:10161000FF0DE091FE0D81E08E0F8093FE0DF0E056
:10162000E150F24F80818093BB009091FE0D80913C
:10163000FD0D981708F47CCF85E88093BC000AC0A4
:1016400085EC8093BC001092480E04C01092DB0D14
:101650000E94FC09FF91EF91BF91AF919F918F91F3
:101660007F916F915F914F913F912F910F900BBEA2
:101670000F900FBE0F901F90189586E294E008958A
:1016800082E294E008958BE094E0089581EF93E086
:1016900008958BEE93E0089588EB93E0089585E438
:1016A00092E00895CF93DF93EC0161E088E00E941F
:1016B000D52FCC5AD74F1882DF91CF910895DC01F6
:1016C000ED91FC910190F081E02D19948EBD000008
:1016D0000DB407FEFDCF8EB50895CF93DF93EC01D7
:1016E00061E00E94321B80EA93E099838883CE5A9E
:1016F000D74F18821982DF91CF91089520EA33E005
:10170000FC01318320830C94A21B1F93CF93DF93A2
:101710001F921F92CDB7DEB7162F60E0812F2A836C
:1017200049830E94D52F4981842F0E94660B2A810C
:10173000822F0E94660B61E0812F0F900F90DF9146
:10174000CF911F910C94D52F643040F4242F209515
:10175000462F65E30E94850B80E0089585E008959B
:10176000AF92BF92CF92DF92EF92FF920F931F93AF
:10177000CF93DF931F921F92CDB7DEB78C01D12C90
:101780007C018BEBE81A87EFF80A5801E4E9AE1AFE
:10179000E7EFBE0A2D2D30E0F801EB5AF74F8081BC
:1017A000918168E270E00E94FE3926173707E0F564
:1017B00088E0C82EC982F7012081318180E090E065
:1017C00040E0B801620F731FE42FF0E0DB01A80FC7
:1017D000B91FA259BF4F41E050E0AC91AA2311F0CC
:1017E00040E050E0082E02C0440F551F0A94E2F773
:1017F0004E0F5F1F01968830910531F74A83285FAD
:101800003F4FF70131832083F50160816D0D22E0A8
:10181000AE014F5F5F4FC8010E948523C394FDE076
:10182000CF12C8CFD394B6CF0F900F90DF91CF9146
:101830001F910F91FF90EF90DF90CF90BF90AF90EE
:1018400008958F929F92AF92BF92CF92DF92EF92C4
:10185000FF920F931F93CF93DF9300D0CDB7DEB7E6
:101860008C01912C7C018BEAE81A87EFF80A98E248
:10187000C92ED12C5801E4E9AE1AE7EFBE0A88243C
:101880008A94292D30E0F70180819181B6010E9470
:10189000FE3926173707A0F438E039838A82F5012C
:1018A0006081690D22E0AE014F5F5F4FC8013B834D
:1018B0000E9485233B813F5F3D3079F79394E1CFD0
:1018C0000F900F900F90DF91CF911F910F91FF908C
:1018D000EF90DF90CF90BF90AF909F908F90089542
:1018E000EF92FF920F931F93CF93DF938C017C01B4
:1018F0008BE9E81A87EFF80AC4E6D0E0F7014191D6
:101900007F01BE01C8010E942D1B2196C33BD1055A
:10191000A9F760E0C801DF91CF911F910F91FF906F
:10192000EF900C94930C7F928F929F92AF92BF9204
:10193000CF92DF92EF92FF920F931F93CF93DF939B
:10194000EC01762E7C012BE9E21A27EFF20A04E67D
:1019500010E04701E881F9810088F189E02DB801A4
:10196000CE011995F70181937F010F5F1F4F033B54
:10197000110581F7F401808191819E012959374F2A
:101980005901FE01E759F74F6F01285C3F4F79017C
:10199000892BE1F4F50180819181892BB9F4F6015D
:1019A00080819181892B91F4399780819181A281E5
:1019B000B381F90180839183A283B38381E090E0B6
:1019C000F60191838083CE010E94700CF401808126
:1019D0009181892BB9F4F50180819181892B91F452
:1019E000F60180819181019769F480E2FE01E4595A
:1019F000F74F808382E090E0F60191838083CE01EF
:101A00000E94700CF40180819181892BE9F4F50129
:101A100080819181892BC1F4F601808191810297A7
:101A200099F480E090E0A0EAB0E4FE01ED55F74FB4
:101A300080839183A283B38383E090E0F601918356
:101A40008083CE010E94700CF401808191818E010F
:101A50000955174F892BA1F4F50180819181892BBC
:101A600079F4F60180819181039751F4F801108295
:101A700084E090E0F60191838083CE010E94700C97
:101A8000F40180819181892B79F5F5018081918123
:101A9000892B51F5F60180819181049729F580E029
:101AA00090E0A8ECB2E4FE01E855F74F8083918303
:101AB000A283B38380E090E4ACE9B6E434968083FB
:101AC0009183A283B38380E090E0A8E4B3E43496EA
:101AD00080839183A283B38385E090E0F6019183B4
:101AE0008083CE010E94700CF40180819181892B4A
:101AF00069F4F50180819181892B41F4F60180819F
:101B00009181059719F4772009F4A8C0F401118296
:101B10001082F5011182108285E090E0F601918338
:101B200080838FEFFE01E559F74F80838CE7339672
:101B3000808380E73197808380E09CE7A2E9B8E466
:101B4000329680839183A283B38380E092E2A1EAFC
:101B5000B8E4349680839183A283B38380E090E0DD
:101B6000AAE7B4E43C9680839183A283B38380E0A8
:101B700090E4ACE1B6E4349680839183A283B3838E
:101B800080E090E5A3ECB7E4349680839183A28350
:101B9000B38380E094E2A4E7B9E434968083918330
:101BA000A283B383749710821182128213823496B7
:101BB00010821182128213824FEF56EE6BE57EE2A5
:101BC0007496408351836283738334964083518338
:101BD0006283738334964083518362837383349624
:101BE0004083518362837383FB9780819181A281BB
:101BF000B381F70180839183A283B38380E2FE01E6
:101C0000E459F74F808380E090E0A0EAB0E4F796D3
:101C100080839183A283B383F801108280E090E0F7
:101C2000A8ECB2E4FE01E855F74F80839183A283CC
:101C3000B38380E090E4ACE9B6E43496808391838A
:101C4000A283B38380E090E0A8E4B3E43496808379
:101C50009183A283B383CE010E94700CF701C080F0
:101C6000D180E280F38020E030E0A901C701B60115
:101C70000E946436FE01EC59F74F18161CF081E003
:101C8000808309C0DE01A05AB74FCD92DD92ED925C
:101C9000FC9213971082F8018081882311F042E0B2
:101CA00001C041E060E0CE01DF91CF911F910F9123
:101CB000FF90EF90DF90CF90BF90AF909F908F906C
:101CC0007F900C941E248F929F92AF92BF92CF92DE
:101CD000DF92EF92FF92CF93DF93EC016A017B01D9
:101CE000FC01E05AF74F80809180A280B38020E011
:101CF00030E0A901C701B6010E94643687FD45C0E6
:101D0000FE01E055F74F2081318142815381C701A7
:101D1000B6010E94F3371816C4F1A5019401C7015A
:101D2000B6010E9468369B01AC010E94ED3523EF9D
:101D300034E045EB5FE30E943C3820E030E040E8CF
:101D40005EE30E943C3820E030E04FE753E40E941D
:101D50003C384B015C0120E030E04FE753E40E9447
:101D6000F337181694F0FE01E85AF74FC082D1827B
:101D7000E282F382C501B4010E94D536462F63E0AA
:101D8000CE010E94A40B80E001C088E0DF91CF91DA
:101D9000FF90EF90DF90CF90BF90AF909F908F908B
:101DA0000895FC01E05AF74F4083518362837383A7
:101DB0003897408151816281738120E00C94630ED9
:101DC0005F926F927F928F929F92AF92BF92CF92CB
:101DD000DF92EF92FF920F931F93CF93DF931F92A7
:101DE0001F92CDB7DEB76C01CB01542E68E270E0D4
:101DF0000E94FE397B014C015C0123E0B694A7945C
:101E00002A95E1F73B01772486010459174FF80121
:101E10008081B301680F711D85E69DE00E94D803A3
:101E2000B501685F7F4F85E69DE00E945F0B85E608
:101E30009DE00E945404F8018081B301680F711D78
:101E400041E050E085E69DE00E94510485E69DE07A
:101E50000E942D03892B41F1F82DF7708F2E88E019
:101E60008A0D898385E69DE00E94350341E050E0BC
:101E700060E070E004C0440F551F661F771F8A940E
:101E8000D2F7511002C0482B02C0409548234A8324
:101E9000F80160816E0D22E0AE014F5F5F4FC60119
:101EA0000E94852380E001C081E00F900F90DF91B8
:101EB000CF911F910F91FF90EF90DF90CF90BF9047
:101EC000AF909F908F907F906F905F9008958F92CA
:101ED0009F92AF92BF92CF92DF92EF92FF920F93B9
:101EE0001F93CF93DF93CDB7DEB762970FB6F89409
:101EF000DEBF0FBECDBF8C010E949D1A61E088E05D
:101F00000E94D52F61E088E00E949C2F61E085E36C
:101F10000E949C2F61E089E00E949C2F60E089E094
:101F20000E94D52FF801E05AF74F80E090E0A6E933
:101F3000B3E480839183A283B38360E0C8010E94ED
:101F4000930C480185E9881A87EF980AD4014C91CF
:101F500060E0C8010E94A40B6801B2E9CB1AB7EF98
:101F6000DB0AF601408161E0C8010E94A40B580120
:101F7000F3E9AF1AF7EFBF0AD5014C9162E0C8014F
:101F80000E94A40B40E063E0C8010E94A40BD801AA
:101F9000ED91FC910680F781E02DC8011995BC01F7
:101FA0008EE89EE00E94A1326BE472E08EE89EE033
:101FB0000E94A132D801ED91FC910484F585E02DB9
:101FC000C8011995BC018EE89EE00E94AE326EE415
:101FD00072E08EE89EE00E94A132D801ED91FC9162
:101FE0000284F385E02DC8011995BC018EE89EE0BE
:101FF0000E94AE3261E672E08EE89EE00E94A1325D
:102000007801BBE9EB1AB7EFFB0AF7016081718138
:102010004AE050E08EE89EE00E94AE336AE973E049
:102020008EE89EE00E94A132F801E959F74F6081E5
:1020300071814AE050E08EE89EE00E94AE336AE98A
:1020400073E08EE89EE00E94A132F801E759F74F55
:10205000608171814AE050E08EE89EE00E94B433D6
:1020600068E772E08EE89EE00E94A1324AE050E00C
:10207000D4016C918EE89EE00E9497336EE772E087
:102080008EE89EE00E94A1324AE050E0F5016081B6
:102090008EE89EE00E9497336EE872E08EE89EE044
:1020A0000E94A1324AE050E0D6016C918EE89EE099
:1020B0000E949733B12CA12CF1E0BF1202C084E042
:1020C00001C082E0A81608F0B9C04AE06A2DCE012E
:1020D00001960E9465354AE06B2DCE010D960E9457
:1020E000653564E972E0CE0107960E943735BE017E
:1020F000635F7F4FCE0107960E94BE3566E972E0AE
:102100000E94D135BE016F5F7F4F0E94BE356AEAE3
:1021100072E00E94D135BC018EE89EE00E949332AD
:10212000CE0107960E94C934CE010D960E94C93493
:10213000CE0101960E94C934CA2CD12CB1E0F6011F
:10214000EE0FFF1FEE0FFF1FEE0DFF1DBB1629F058
:10215000428553856485758504C0428D538D648D99
:10216000758D22E030E08EE89EE00E94B7344AE0B0
:102170006A2DCE0101960E9465354AE06B2DCE0195
:102180000D960E94653564E972E0CE0107960E94C3
:102190003735BE01635F7F4FCE0107960E94BE3583
:1021A0006DEA72E00E94D135BE016F5F7F4F0E94E1
:1021B000BE356AEA72E00E94D135BC018EE89EE02D
:1021C0000E949332CE0107960E94C934CE010D962B
:1021D0000E94C934CE0101960E94C934E1E0BE16C6
:1021E00061F0F601EE0FFF1FEE0FFF1FEE0DFF1D5A
:1021F00062897389848995890BC0F601EE0FFF1FF0
:10220000EE0FFF1FEE0DFF1D62A573A584A595A51A
:1022100025EA34ED48E653E50E943C38AB01BC01A9
:1022200022E030E08EE89EE00E94B53462EC72E07D
:102230008EE89EE00E94AE32A3943ECFB39482E03B
:10224000B81239CF66EC72E08EE89EE00E94A132AF
:10225000F801E459F74F4AE050E060818EE89EE0D3
:102260000E9497336BE173E08EE89EE00E94A132FA
:10227000F801E156F74F408151816281738122E07C
:1022800030E08EE89EE00E94B73463EE72E08EE8A4
:102290009EE00E94A132F801ED55F74F4081518137
:1022A0006281738122E030E08EE89EE00E94B734C4
:1022B00066EF72E08EE89EE00E94A132F801E955D7
:1022C000F74F608170E04AE050E08EE89EE00E94A7
:1022D0006B336FE073E08EE89EE00E94A132F8015C
:1022E000EC59F74F608170E04AE050E08EE89EE0E4
:1022F0000E946B336BE273E08EE89EE00E94A13295
:10230000F801E855F74F408151816281738122E0E5
:1023100030E08EE89EE00E94B73463E473E08EE81C
:102320009EE00E94A132F801E455F74F40815181AF
:102330006281738122E030E08EE89EE00E94B73433
:102340006BE573E08EE89EE00E94A132F801E05553
:10235000F74F408151816281738122E030E08EE845
:102360009EE00E94B73462960FB6F894DEBF0FBEAF
:10237000CDBFDF91CF911F910F91FF90EF90DF9034
:10238000CF90BF90AF909F908F9008958F929F9223
:10239000AF92BF92CF92DF92EF92FF921F93CF93B3
:1023A000DF93EC016A017B01FC01E855F74F24EA59
:1023B00030E74DE75FE360817181828193810E9404
:1023C0003C389B01AC01C701B6010E94F33787FD81
:1023D000AFC02EEA37E441E85FE3FE01E455F74F72
:1023E00060817181828193810E943C389B01AC01A4
:1023F000C701B6010E94643618160CF499C020E09B
:1024000030E048E452E4C701B6010E943C384B0179
:102410005C0120E030E04AE754E40E94643687FD26
:1024200087C020E233EB41E85CE4C501B4010E94BF
:10243000F33718160CF47CC020E030EE41E854E489
:10244000C501B4010E9468360E94FC3726EA3BE9C8
:1024500044E550E40E943C382EE83DE543E150E479
:102460000E9468360E94D536162F70E0665F7F4F57
:10247000882777FD8095982F0E9403379B01AC0138
:1024800060E070E080E090E40E949F3820E030EE51
:1024900041E055E40E943C38A50194010E94683651
:1024A0009B01AC0160E070E080E095E40E94EC35B7
:1024B0004B015C0120E030E0A9010E94F33720E0ED
:1024C00030E040E05FE387FD05C0C501B4010E9434
:1024D000ED3504C0C501B4010E94EC350E94D03630
:1024E0005B01CB0166E0969587956A95E1F71295B9
:1024F000107F182B67E185E69DE00E94CE03612FD7
:1025000085E69DE00E9485036A2D660F660F626076
:1025100085E69DE00E94850385E69DE00E945404C7
:10252000C45AD74FC882D982EA82FB8280E001C0B8
:1025300088E0DF91CF911F91FF90EF90DF90CF90D7
:10254000BF90AF909F908F9008954F925F926F923F
:102550007F928F929F92AF92BF92CF92DF92EF9233
:10256000FF920F931F93CF93DF931F921F92CDB7CC
:10257000DEB78C01FC01EC5AF74F81E0808360E00C
:1025800088E00E94D52F64EF71E080E090E00E9427
:10259000EA2D48018BEA881A87EF980AF401118224
:1025A0001082E8E2AE2EB12CE12CF12CF8E16F2E76
:1025B00077247A946801F4E9CF1AF7EFDF0A4E2CFA
:1025C00069827A82F60160816E0D22E0AE014F5F72
:1025D0005F4FC8010E948523F60160816E0D21E0E6
:1025E000AE014F5F5F4FC8010E94411E89818F3F3E
:1025F00009F04BC078E1572E59821A82F6016081AA
:10260000640D22E0AE014F5F5F4FC8010E94852339
:10261000F6016081640D21E0AE014F5F5F4FC8019C
:102620000E94411E8981811130C080EF850D898310
:102630007A82F6016081640D22E0AE014F5F5F4F48
:10264000C8010E9485235394FDE15F12D5CF66E84F
:1026500073E08EE89EE00E94A1324AE050E0B701AC
:102660008EE89EE00E94633360E973E08EE89EE0AE
:102670000E94AE32F40120813181C501889728176C
:10268000390719F4F401B182A082FFEFEF1AFF0AB3
:1026900088E2A80EB11CE8E0EE16F10409F08FCF35
:1026A000F401608171814AE050E08EE89EE00E9472
:1026B000AE3361E773E08EE89EE00E94AE3240E008
:1026C00050E46CE176E4C8010E94C6110F900F90AF
:1026D000DF91CF911F910F91FF90EF90DF90CF90FE
:1026E000BF90AF909F908F907F906F905F904F9032
:1026F00008952F923F924F925F926F927F928F92A6
:102700009F92AF92BF92CF92DF92EF92FF920F9380
:102710001F93CF93DF93CDB7DEB7A9970FB6F89489
:10272000DEBF0FBECDBF2C016D8B2DB73EB73BA3D7
:102730002AA38C010D5A174F81E0D8018C93F20126
:10274000EC5AF74F8081811103C0C2010E94A5128B
:10275000ED898E2F90E0FC01E05AF109E735F10593
:1027600008F0ABC6EE58FF4F920124593F4F1901B4
:102770000C94343AF201E05CF74F80819181892B0F
:1027800009F098C642E050E0B2016B5A774FF5C0AD
:10279000F201E05CF74F80819181892B09F08AC6B4
:1027A000D9011C92912C92012B5A374F3A872987D5
:1027B000720134E9E31A37EFF30A88248394A92CD1
:1027C000B12CE985FA858081918168E270E00E94F0
:1027D000FE39A616B70608F070C608E010E0D7016B
:1027E0008C91B501680F711D85E69DE00E94D803AC
:1027F000B80185E69DE00E945F0B85E69DE00E94A2
:102800005404F7018081B501680F711D41E050E06B
:1028100085E69DE00E94510485E69DE00E942D031F
:10282000892B51F185E69DE00E9435036C01612CF6
:10283000712CDD24C601062C02C0959587950A945B
:10284000E2F781709927F1E08F27898341E050E01A
:10285000BE016F5F7F4FC2010E94A81B2FEF621A5B
:10286000720A38E06316710429F70F5F1F4F0D30AD
:10287000110509F0B4CF02C0D1018C9293949FCF7F
:10288000F201E05CF74F2081318175968081918162
:102890002817390709F00EC6C2010E94B00B07C6FF
:1028A000F201E05CF74F80819181029709F002C646
:1028B000D201AB5BB74F2D913C911197F901E259D1
:1028C000FF4FE40DF51D808191812E5F3F4F2D93C9
:1028D0003C93F201EB5AF74F208131818217930725
:1028E00008F07BC068E270E00E94FE398C016B0149
:1028F000DD247201F4E9EF1AF7EFFF0AD7018C919A
:10290000B601680F711D85E69DE00E94D803B801ED
:1029100013E0769567951A95E1F7685F7F4F85E636
:102920009DE00E945F0B85E69DE00E945404F70144
:102930008081B601680F711D41E050E085E69DE0A1
:102940000E94510485E69DE00E942D03892BC9F069
:1029500085E69DE00E9435039927077002C0959592
:1029600087950A95E2F781709927F1E08F2789838F
:1029700041E050E0BE016F5F7F4FC2010E94A81B83
:1029800096C581E098C5F201E05CF74F80819181A6
:10299000039709F08FC5D201AB5BB74F8D919C9126
:1029A0001197FC01E259FF4FE40DF51D6081718123
:1029B000F201E80FF91FE059FF4F408103968D9314
:1029C0009C93F201EB5AF74F808191816817790748
:1029D00020F4C2010E94E00E4DC385E06CC5F201F7
:1029E000E05CF74F80819181892B09F063C5D901A3
:1029F0001C9289E00E940B30D3C4F201E05CF74FD7
:102A000080819181019709F055C53596808191812A
:102A1000D201A80FB91FA259BF4F6C9101969183A3
:102A20008083623020F489E00E94D52FDEC488E0E4
:102A300021C3F201E05CF74F80819181892B09F07D
:102A400039C5F901108244E050E0B201685A774F6D
:102A5000ADC4F201E05CF74F80819181049709F0E9
:102A600029C5D201AB5BB74F8D919C911197FC01A9
:102A7000E259FF4FE40DF51D408151816281738160
:102A800004968D939C9321E0C2010E94630EF2C2D2
:102A9000F201E05CF74F80819181892B09F00AC532
:102AA000F901108244E050E0B201645A774F7EC4CD
:102AB000F201E05CF74F80819181049709F0FAC43C
:102AC000D201AB5BB74F8D919C911197FC01E259FC
:102AD000FF4FE40DF51D40815181628173810496A1
:102AE0008D939C93C2010E94C611C4C2F201E05CA6
:102AF000F74F80819181019709F0DCC4D201AB5B73
:102B0000B74F8D919C911197F201E80FF91FE2598F
:102B1000FF4FE08101968D939C93E23008F034C121
:102B2000BBE1EB9FF0011124E75BF14F81818983C9
:102B3000F901108236C4F201E05CF74F8081918187
:102B4000029709F0B7C4359620813181A201420F66
:102B5000531FDA01A259BF4F8C9111966C912E5FD1
:102B60003F4F318320830E94DA23A5C4F201E05C49
:102B7000F74F80819181019709F09CC4359680813F
:102B80009181D201A80FB91FA259BF4F2C91019674
:102B900091838083223008F0F7C0D1011C92BBE101
:102BA0002B9FF0011124E75BF14FE181C2018B59AA
:102BB000974FF0E0EE0FFF1FEE0FFF1FE80FF91F1A
:102BC000213029F082859385A485B5854BC2828DFD
:102BD000938DA48DB58D46C2F201E05CF74F8081E4
:102BE0009181059709F066C4359620813181D20123
:102BF000A20FB31FA259BF4F4C91C90101969183F7
:102C00008083D1011C924423E1F0413009F0BCC023
:102C10004091650ED901A159BF4FA40DB51D8D91ED
:102C20009D910D90BC91A02D2B5F3F4F3183208350
:102C3000F20134E0439FE00DF11D1124E158F74FFC
:102C40009BC040914A0ED901A159BF4FA40DB51D9B
:102C50008D919D910D90BC91A02D2B5F3F4F3183A5
:102C60002083F20124E0429FE00DF11D1124E1597F
:102C7000F74F82C0F201E05CF74F808191810197AC
:102C800009F018C4359680819181D201A80FB91F2F
:102C9000A259BF4F2C91019691838083223008F076
:102CA00073C0F10110823BE1239FF0011124E75B27
:102CB000F14FE181C2018B59974FF0E0EE0FFF1FFA
:102CC000EE0FFF1FE80FF91F213029F08289938949
:102CD000A489B589C7C182A593A5A4A5B5A5C2C17C
:102CE000F201E05CF74F80819181059709F0E2C322
:102CF000359620813181D201A20FB31FA259BF4F57
:102D00004C91C901019691838083D1011C92442387
:102D1000D9F04130C9F54091650ED901A159BF4F95
:102D2000A40DB51D8D919D910D90BC91A02D2B5F93
:102D30003F4F31832083F20134E0439FE00DF11DCA
:102D40001124E157F74F18C040914A0ED901A159FB
:102D5000BF4FA40DB51D8D919D910D90BC91A02DDF
:102D60002B5F3F4F31832083F20124E0429FE00D2F
:102D7000F11D1124E958F74F80839183A283B38317
:102D8000C2010E94700C99C385E074C1F201E05C3D
:102D9000F74F80819181892B09F08CC3F901108252
:102DA00044E050E0B201605A774F00C3F201E05CAA
:102DB000F74F80819181049709F07CC3D201AB5B0E
:102DC000B74F8D919C911197FC01E259FF4FE40D93
:102DD000F51DC080D180E280F38004968D939C9392
:102DE00020E030E0A901C701B6010E94F3371816B0
:102DF000CCF4F201EC59F74F8081882331F03497FD
:102E0000C082D182E282F38252C3D201A156B74F6F
:102E1000CD92DD92ED92FC9213971082C2010E9436
:102E2000700C45C388E047C3F201E05CF74F808136
:102E30009181892B09F03EC3D9011C9211E020E059
:102E400030E0A901E15AFF4F608171818281938155
:102E50000E94643618160CF410E01983A2C2F20125
:102E6000E05CF74F80819181019709F023C335968B
:102E700080819181D201A80FB91FA259BF4F2C9117
:102E8000019691838083E65AFF4F222329F0108216
:102E90001182128213820CC0D201A05AB74F8D91B9
:102EA0009D910D90BC91A02D80839183A283B383CB
:102EB000C2010E94700C99C2F201E05CF74F0081E0
:102EC00011810A30110508F4F5C23596808191818F
:102ED000DC01A259BF4FA40DB51D2D913D914D911F
:102EE0005C9129873A874B875C879C012C5F3F4F19
:102EF00031832083DC01AE58BF4FA40DB51D6D900A
:102F00007C90DC01AC58BF4FA40DB51D4D915D9177
:102F10006D917C91498B5A8B6B8B7C8BD201A80F66
:102F2000B91FA858BF4FFC900B96918380830B303C
:102F3000110541F07096808191810B960817190751
:102F400009F0B8C2FBE46F16F1E07F0608F091C00B
:102F500020E030E04AE754E469857A858B859C85DA
:102F60000E94683620E030E44CE157E40E943C388F
:102F700020E030E040E855E40E94643687FF79C0E5
:102F8000D1011C92F201EB5AF74F808191810B968F
:102F90000817190719F4C2010E94B00B0E94C72D2F
:102FA0006D877E878F87988B88248394F1FE812C90
:102FB000AA24A394F0FEA12CF201E45AF74FC0809A
:102FC000D180E280F38009891A892B893C89A30189
:102FD00069857A858B859C850E949A28F10180837A
:102FE00081116BC20E94C72D2D853E854F85588962
:102FF000621B730B840B950B0E9401376B017C01E4
:10300000B30180E090E00E94013720E030E04AE721
:1030100054E40E943C389B01AC01C701B6010E94F8
:1030200068366D837E838F83988744E050E0BE01CD
:103030006B5F7F4FC2010E94A81B44E050E060E636
:103040007EE0C2010E94A81B44E050E06BE77EE0F6
:10305000C2010E94A81BF201E05AF74F80819181C2
:10306000A281B38189839A83AB83BC8344E050E01F
:103070009AC181E0D1018C9320C2F201EB5AF74F43
:1030800020813181C9010B96759740815181481784
:10309000590709F00FC2EDB7FEB7F98FE88FD101DC
:1030A0001C92F201EB5BF74F80819181DC01A25908
:1030B000BF4FA40DB51D4D915D916D917C91498BD4
:1030C0005A8B6B8B7C8BAC014C5F5F4F5183408381
:1030D000DC01AE58BF4FA40DB51D6D907C90DC0196
:1030E000AC58BF4FA40DB51D4D915D916D917C9174
:1030F0004E8F5F8F68A379A3D201A80FB91FA8587C
:10310000BF4F1C910B96918380836DB77EB7621B76
:10311000730B0FB6F8947EBF0FBE6DBF8DB79EB711
:1031200001969A878987DC01280F391F80E090E09B
:103130007F01A217B307A1F0F70140815181B201CD
:10314000640F751F62597F4FFB0160814F5F5F4FB6
:10315000F701518340836D93662359F30196E9CFBC
:10316000869D9001879D300D969D300D11242B3446
:10317000314008F0D2C020E030E04AE754E46989E9
:103180007A898B899C890E94683620E030E44CE182
:1031900057E40E943C3820E030E040E855E40E94CB
:1031A000643687FFBAC0C2010E94210C0E94C72D5D
:1031B0006A8F7B8F8C8F9D8F212C312C92012B5A03
:1031C000374F3DA32CA3A20144595F4F5E874D8723
:1031D000812F8270682F70E07FA36EA311701E8B09
:1031E0001F8AC201845A974F99A788A7ACA1BDA195
:1031F0008D919C9128163906F0F5AD85BE858C9190
:10320000811135C0E985FA85E20DF31D808188239F
:1032100071F141E0B101C2010E94E00E8824839463
:10322000EEA1FFA11E161F060CF0812CAA24A39468
:103230002E893F89121613060CF0A12CA8A5B9A55A
:10324000CD90DD90ED90FC900E8D1F8D28A139A1C1
:10325000A30169897A898B899C890E949A28ED85C6
:10326000FE85808340E0B101C2010E94E00EFFEFC5
:103270002F1A3F0ABBCFED85FE858081811152C098
:103280000E94C72D2A8D3B8D4C8D5D8D621B730B6B
:10329000840B950B0E9401376B017C01B30180E028
:1032A00090E00E94013720E030E04AE754E40E94B9
:1032B0003C389B01AC01C701B6010E9468366D83A2
:1032C0007E838F83988744E050E0BE016B5F7F4F21
:1032D000C2010E94A81B44E050E060E67EE0C2010B
:1032E0000E94A81B44E050E06BE77EE0C2010E9410
:1032F000A81BF201E05AF74F80819181A281B3812E
:1033000089839A83AB83BC8344E050E0BE016F5F46
:103310007F4FC2010E94A81B05C081E0F201E45961
:10332000FF4F8083488D598D0FB6F8945EBF0FBE56
:103330004DBFC3C0F201E05CF74F808191810197DE
:1033400009F0B8C0D9011C92359680819181D201D3
:10335000A80FB91FA259BF4F2C910196918380836A
:1033600061E0211101C060E0C2010E94930CA5C080
:10337000F201E05CF74F80819181892B09F09AC0BE
:10338000F901108288E00CC0F201E05CF74F808107
:103390009181892B09F08EC0D9011C92729680818F
:1033A000898341E050E0BE016F5F7F4FC2010E9400
:1033B000A81B83C0F201E05CF74F808191810197E7
:1033C00009F078C0359680819181D201A80FB91F8C
:1033D000A259BF4F2C910196918380833D96222361
:1033E00019F081E0808301C01082F101108265C074
:1033F000F201E05CF74F80819181892B09F05AC07E
:10340000D9011C92F801CBCFF201E05CF74F80812B
:103410009181019709F04EC0359680819181D2014A
:10342000A80FB91FA259BF4F2C9101969183808399
:10343000222321F081E0D8018C9339C0F801108259
:1034400036C0F201E05CF74F80819181892B91F5C4
:10345000F901108288E00E940B3021E0892B09F0ED
:1034600020E029839ECFF201E05CF74F80819181BB
:10347000019701F5359680819181D201A80FB91F7E
:10348000A259BF4F2C91019691838083222359F03A
:1034900060E088E00E94D52F64EF71E080E090E06A
:1034A0000E94EA2D04C061E088E00E94D52FD1017E
:1034B0001C9203C086E0F10180836D89C2010E94E5
:1034C000681EF201E459FF4F80812AA13BA10FB68B
:1034D000F8943EBF0FBE2DBFA9960FB6F894DEBF7D
:1034E0000FBECDBFDF91CF911F910F91FF90EF9055
:1034F000DF90CF90BF90AF909F908F907F906F9014
:103500005F904F903F902F9008958627682F629587
:103510006827062E669566956025062E66956025B9
:103520006770082E892F669507946795902D8627DA
:1035300006946795902586270895CF92DF92EF92A3
:10354000FF920F931F93CF93DF9300D01F92CDB7BD
:10355000DEB78C01CE0101966C019FE0E92EF12CC3
:10356000D801ED91FC910088F189E02DB701C801E7
:103570001995F60181936F01FFEFEF1AFF0A23E11E
:10358000E216F10469F789819A81AB81BC818F3F92
:103590009F4FAF4FBF4FE1F149815A816B817C81D1
:1035A00026E08EE89EE00E94463185E69DE00E947E
:1035B000C4030E94F7020E94AF0808591F4FD801A8
:1035C0006D937D938D939C9313976BE374E08EE8DA
:1035D0009EE00E94A132F801408151816281738195
:1035E00022E030E08EE89EE00E94B5346DE474E0A5
:1035F0008EE89EE00F900F900F900F90DF91CF918B
:103600001F910F91FF90EF90DF90CF900C94AE320E
:1036100080E092ECA1E0B0E089839A83AB83BC8325
:10362000CE0101966C018FE0E82EF12CD6014D9170
:103630006D01D801ED91FC910288F389E02DB7016D
:10364000C8011995BFEFEB1AFB0AE3E1EE16F1048E
:1036500069F7A2CFCB010C94A13CCB01642F0C9451
:10366000A93C08958F929F92AF92BF92CF92DF9222
:10367000EF92FF920F931F93CF93DF932FE634E0E7
:10368000FC0131832083E45BF74F6083399711821B
:1036900010823696108239971182108235961182E7
:1036A00010823296118210823A961082E12CF12C0F
:1036B00000E010E0C8010E94A13CA82EC8010796B6
:1036C0000E94A13C8E2CC0E0D0E0B12CA094B0941C
:1036D000C82ED12CC094D094CE018E0D9F1DC697BC
:1036E000C4F4B5010C2E02C0759567950A94E2F7F3
:1036F00061709C2E980C892D0E949C2FB6010C2E77
:1037000002C0759567950A94E2F76170892D0E9451
:10371000D52F2196C830D105F9F60F5F1F4FE8E08D
:10372000EE0EF11C0730110529F6DF91CF911F91A4
:103730000F91FF90EF90DF90CF90BF90AF909F9050
:103740008F9008952FE634E0FC01318320830895A3
:103750001F93CF93DF93FB0120E030E0DC01A95BF6
:10376000B74F2417350781F01191BC01620F731F09
:10377000CD91DC9111976C0F7D1FEB01C259DF4F8A
:1037800018832F5F3F4FEDCF8D919C911197820F42
:10379000931F8D939C93DF91CF911F910895CF93A9
:1037A000DF93FC01E359FF4F6081DC01A459BF4F57
:1037B00067FF0EC020E8260F208322E02C93DC0157
:1037C000ED91FC910488F589E02DDF91CF9119945A
:1037D000FC01E05CF74F2081318121503109820FDB
:1037E000931FEC01C259DF4F88818C933183208372
:1037F000DF91CF9108956F927F928F929F92AF92B7
:10380000BF92CF92DF92EF92FF920F931F93CF93CD
:10381000DF93EC019C01275B374F59016D3721F491
:1038200081E0F9018083AEC0F90180819E012D5BAA
:10383000374F7901882309F49EC080E26827F70199
:10384000808191819E01245B374F4901FE01EE5B2F
:10385000F74F6F018E01005C174F009759F4E55D3B
:10386000F7406083F90180818823A9F18FEF9FEFF2
:1038700033961EC08130910581F467FF08C083E054
:103880008083862F8F77F8011082818324C082E0A5
:103890008083862F90E0F8010BC08230910559F4A7
:1038A0002081233041F4F80180819181860F911DA0
:1038B0009183808310C0F6012081821B9109F80159
:1038C000208131818217930730F48C0F9D1FFC01FA
:1038D000E259FF4F6083F4018081882369F03E0143
:1038E000F1EB6F1AF7EF7F0AF301808191810E945B
:1038F000851AF30191838083F701208131812F5F45
:103900003F4F31832083F4014081F6015081F8015B
:1039100080819181850F911D840F911D840F911DD0
:103920002817390711F5F70111821082FE01EB5BB0
:10393000F74F11821082329611821082442329F0AF
:10394000389680819181892B19F4CE010E94CF1B7A
:10395000FE01E55BF74F8081882339F0C359DF4FC3
:1039600080589881981301C01082F50180818823C6
:1039700049F0108207C06E3709F061CFF70111825C
:103980001082F3CFDF91CF911F910F91FF90EF90B5
:10399000DF90CF90BF90AF909F908F907F906F906F
:1039A0000895FF920F931F93CF93DF931F92CDB78C
:1039B000DEB78C01F62E88E0898369816837E8F5E7
:1039C00085E69DE00E94CE0385E69DE00E945404BA
:1039D000811130C0FF2041F041E050E0BE016F5F37
:1039E0007F4FC8010E94A81B60E574E08EE89EE04E
:1039F0000E94A1324AE050E069818EE89EE00E9478
:103A0000903364E674E08EE89EE00E94A13240E1CB
:103A100050E069818EE89EE00E94903369E674E090
:103A20008EE89EE00E94AE3261E070E080E090E0BF
:103A30000E94EA2D89818F5FBFCF0F90DF91CF91D8
:103A40001F910F91FF900895CF93C62F83E8860FA3
:103A5000823090F46DE78EE89EE00E94E130E091C4
:103A60008E0EF0918F0E60E26C270190F081E02DB8
:103A70008EE89EE0CF9119948EE89EE0CF910C9451
:103A8000E1308F929F92AF92BF92CF92DF92EF92EE
:103A9000FF920F931F93CF93DF93EC018C017C0176
:103AA00020ECE21A27EFF20A845B974F6C015E016B
:103AB00093EBA91A97EFB90AF701808191819801D8
:103AC0002C1B3D0BF60128173907C8F4808198019B
:103AD00022593F4F4901882351F0F9016081F501D6
:103AE000808191810E94851AF50191838083F40180
:103AF0006081CE010E94241D0F5F1F4FDDCF8081AA
:103B0000882369F08E01035B174FF8016081CE01B5
:103B10000E94241DF8016181CE010E94241DF7013D
:103B200011821082C95BD74F19821882DF91CF9121
:103B30001F910F91FF90EF90DF90CF90BF90AF90CB
:103B40009F908F900895BF92CF92DF92EF92FF9255
:103B50000F931F93CF93DF93EC01B62E8C01005C83
:103B6000174FFC01E95BF74F80819181F801918348
:103B700080836EE78EE89EE00E94E1307E01F4EBE8
:103B8000EF1AF7EFFF0AF7018081882381F08FEFAA
:103B90009FEF6E01F3EBCF1AF7EFDF0AF601918387
:103BA00080836B2D0E94851AF601918380836B2D93
:103BB000CE010E94241DF80160817181F70180818E
:103BC0006038710580F4882371F17E01F3EBEF1A00
:103BD000F7EFFF0AF701808191810E94851AF701B2
:103BE0009183808320C08823B1F07068672F7E01A5
:103BF000F3EBEF1AF7EFFF0AF701808191810E9442
:103C0000851AF70191838083F80160810E94851AEB
:103C1000F70191838083F801808191819068692FF9
:103C2000CE010E94241DF8016081CE01DF91CF9169
:103C30001F910F91FF90EF90DF90CF90BF900C9469
:103C4000241D0F931F93CF93DF931F92CDB7DEB741
:103C50008C01698341E050E0BE016F5F7F4F0E949D
:103C6000A81BF801E359FF4F6081C8010E94A31D02
:103C7000C8010E94411D0F90DF91CF911F910F91BC
:103C80000895FF920F931F93CF93DF938A01422FE2
:103C900085E69DE00E944E04C0E085E69DE00E941E
:103CA0002D03892B71F0FF24F394FC0EC8018C0FB7
:103CB000911DEC0185E69DE00E9435038883CF2DA0
:103CC000ECCF8C2FDF91CF911F910F91FF90089532
:103CD0006F927F928F929F92AF92BF92CF92DF921C
:103CE000EF92FF920F931F93CF93DF93CDB7DEB781
:103CF00069970FB6F894DEBF0FBECDBF8C018DB6AD
:103D00009EB6862F90E0FC01E058F109EF31F105F5
:103D100008F0D6C4E753FF4F9801205C374F790174
:103D20000C94343AD9018D919C91892BF1F4D801EE
:103D3000ED91FC910280F381E02DC8011995FC0101
:103D400001900020E9F7AF0141505109481B590B80
:103D5000D801ED91FC910280F381E02D62C0D90180
:103D60008D919C91019709F4A0C386E0F801E45974
:103D7000FF4F87C4F90180819181892BB1F7D80168
:103D8000ED91FC910480F581E02DC8011995FC01AD
:103D900001900020E9F7AF0141505109481B590B30
:103DA000D801ED91FC910480F581E02D3AC0F90134
:103DB00080819181892BC9F6D801ED91FC91068013
:103DC000F781E02DC8011995FC0101900020E9F769
:103DD000AF0141505109481B590BD801ED91FC919D
:103DE0000680F781E02D1DC0F90180819181892B2A
:103DF00009F0BBCFD801ED91FC910084F185E02D55
:103E0000C8011995FC0101900020E9F7AF0141506C
:103E10005109481B590BD801ED91FC910084F185A3
:103E2000E02DC801498F588F1995498D588DBC01D7
:103E300035C4F90180819181892B09F096CFD80191
:103E4000ED91FC910284F385E02DC8011995FC01E8
:103E500001900020E9F7AF0141505109481B590B6F
:103E6000D801ED91FC910284F385E02DDACFF901C0
:103E700080819181892B09F078CFD801ED91FC9157
:103E80000484F585E02DC8011995FC0101900020FE
:103E9000E9F7AF0141505109481B590BD801ED9189
:103EA000FC910484F585E02DBCCFF90180819181DE
:103EB000892B09F05ACFD801ED91FC910684F78542
:103EC000E02DC8011995FC0101900020E9F7AF0130
:103ED00041505109481B590BD801ED91FC910684C2
:103EE000F785E02D9ECFF90180819181892B09F022
:103EF0003CCF4AE050E065E874E0D0C3D9018D9131
:103F00009C91029709F031CFF801EB5BF74F2081CC
:103F10003181A801420F531FDA01A259BF4F8C9182
:103F200011966C912E5F3F4F318320830E949C2F0E
:103F3000C3C3F90180819181029709F016CFF8017E
:103F4000EB5BF74F20813181A801420F531FDA014B
:103F5000A259BF4F8C9111966C912E5F3F4F3183C8
:103F600020830E94D52FA8C3D9018D919C910197E0
:103F700009F0FBCEF801EB5BF74F20813181D801CE
:103F8000A20FB31FA259BF4F8C912F5F3F4F3183B8
:103F900020830E940B30F6C2F90180819181029743
:103FA00009F0E3CEF801EB5BF74F20813181D801B6
:103FB000A20FB31FA259BF4F8C91A9014F5F5F4F52
:103FC00051834083D901A159BF4FA00FB11F6D91FB
:103FD0007C912D5F3F4F318320830E94822E6CC3E2
:103FE000C80184599F4F26E0DC012C93F701208102
:103FF00031812230310508F463C3ADB6BEB6F80195
:10400000EB5BF74F40815181D801A40FB51FA25936
:10401000BF4F6C914F5F5F4F51834083462F50E0FD
:10402000ADB7BEB7A41BB50B0FB6F894BEBF0FBE9D
:10403000ADBF11966D012230310511F4613031F0C0
:104040004D5F5F4F2417350709F07BC07C2D36018B
:10405000262D271B261788F420813181A801420FC5
:10406000531F42595F4FDA014C912F5F3F4F31830D
:104070002083D3014D933D01EBCFD7012D913C918E
:1040800022303105B1F020813181D901A259BF4FD1
:10409000A00FB11FED90FC902E5F3F4F3183208326
:1040A000B9EEEB16B3E0FB0638F029E0FC01208303
:1040B00048C0EE24E394F12CDC011C92F092D40D64
:1040C000E092D30DC80182599F4F9093D80D8093F1
:1040D000D70D80E0688F0E94AA06688D613029F4B0
:1040E000F60180810E94380812C0D092D10DC09292
:1040F000D00D6093CE0D1092CD0D89E498E0909391
:10410000CC0D8093CB0DD6018C910E941E080E948D
:10411000AE078091D30D9091D40D2091D50D3091A3
:10412000D60D28173907C9F70E94CD07EE0CFF1CE2
:10413000F801E95BF74F80819181E80EF91EF18269
:10414000E0820FB6F894BEBE0FBEADBEB9C2F90193
:1041500080819181039709F008CED801AB5BB74FFE
:104160008D919C911197FC01E259FF4FE00FF11FD7
:1041700060817181F801E80FF91FE059FF4F40811C
:1041800003968D939C93D801ED91FC910288F3895D
:10419000E02DC801199590C2F901808191810297A3
:1041A00009F0E3CDD801AB5BB74F8D919C9111978E
:1041B000FC01E259FF4FE00FF11F6081718102960F
:1041C0008D939C93D801ED91FC910088F189E02DAD
:1041D000C8011995D7C1F90180819181029709F031
:1041E000C4CDF801EB5BF74F808191819801280FD6
:1041F000391FD901A259BF4F6C911196EC900296CC
:1042000091838083CE0101960E94BB05CE01019669
:104210000E94A905F12C41E0BE01615F7F4FCE01F4
:1042200001960E94DE05F394EF14A8F79801245933
:104230003F4F7901882309F422C248E050E0BE01D3
:10424000615F7F4FC8010E94A81B16C2D9018D91E2
:104250009C910B9709F089CDD801AB5BB74F2D919D
:104260003C911197A801420F531FFA01E259FF4FE9
:1042700060816901EFEFCE1ADE0A1196DC92CE92D0
:104280003E01FFE06F0E711C80E090E0B62CA72C81
:10429000C00ED11E7601E80EF91E7EE6E70EF11C77
:1042A000F701F080F301F1923F010196883091050A
:1042B00089F7FA01E958FF4FF0803196E080255FD9
:1042C0003F4F2D933C93CE0101960E94BB05CE013A
:1042D00001960E9486046B2D7A2DCE0101960E94D4
:1042E000810540E06F2DCE0101960E942305F12C3F
:1042F000FE1409F4E1C1CE0101960E9465058F8B81
:1043000041E050E0BE01695E7F4FC8010E94A81BDA
:10431000F394EECFD9018D919C910B9709F025CDA7
:10432000D801AB5BB74F2D913C911197A801420F7B
:10433000531FFA01E259FF4F60816901EFEFCE1A76
:10434000DE0A1196DC92CE923E01FFE06F0E711CE8
:1043500080E090E0B62CA72CC00ED11E7601E80EAE
:10436000F91E7EE6E70EF11CF701F080F301F192F1
:104370003F0101968830910589F7FA01E958FF4F0E
:10438000F08031964081255F3F4F2D933C93CE01C5
:104390000196498F0E94BB05CE0101960E948604BA
:1043A0006B2D7A2DCE0101960E948105498D6F2DCE
:1043B000CE0101960E9423057FC1D9018D919C9168
:1043C000029709F0D2CCF801EB5BF74F8081918125
:1043D0009801280F391FD901A259BF4F6C9111962E
:1043E000EC900296918380834E2D85E69DE00E949D
:1043F0004E04F12C85E69DE00E942D03892B79F077
:1044000085E69DE00E943503898341E050E0BE01CE
:104410006F5F7F4FC8010E94A81BF394EBCFF80198
:10442000E459FF4FFE1409F44AC181E02AC1F901A1
:1044300080819181892B09F498CC6801FBEBCF1A1C
:10444000F7EFDF0AD6018D919C911197F801E80FE3
:10445000F91FE259FF4F608101968D939C9385E689
:104460009DE00E94CE03B12C2B2D30E0F70180811E
:10447000918101972817390798F4F601808191817D
:10448000F801E80FF91FE259FF4F60810196D6014C
:104490008D939C9385E69DE00E948503B394E4CFC1
:1044A00085E69DE00E94540407C1F801EB5BF74FDD
:1044B00080819181D801A80FB91FA259BF4F2C91BB
:1044C0000196918380838CB5211102C0806201C066
:1044D0008F7D8CBDF1C0F90180819181019709F038
:1044E00044CCF801EB5BF74F80819181D801A80F94
:1044F000B91FA259BF4F2C910196918380839CB51F
:10450000822F83709C7F892B8CBD8DB522FB222747
:1045100020F98E7F822B8DBD18C0D9018D919C9181
:10452000019709F022CCF801EB5BF74F8081918174
:10453000D801A80FB91FA259BF4F2C9101969183A2
:1045400080838CB5837F282B2CBDE95DF740B7C0F5
:10455000F90180819181019709F007CCF801EB5BAB
:10456000F74F80819181D801A80FB91FA259BF4F81
:104570002C910196918380832EBD00000DB407FE1F
:10458000FDCF8EB5898341E050E0BE016F5F7F4F64
:1045900085C0D9018D919C91892B09F0E6CBF8015A
:1045A000EA59FF4F40815181B8016E5F7F4F76C05D
:1045B000F90180819181892B09F0D7CB8091C50DBC
:1045C0009091C60DA091C70DB091C80D89839A83B3
:1045D000AB83BC8344E050E0D8CFD9018D919C914E
:1045E000049709F0C2CBD801AB5BB74F2D913C913A
:1045F0001197F901E259FF4FE00FF11F60817181BE
:10460000828193812C5F3F4F2D933C930E94BF0684
:1046100053C0F90180819181892B09F0A6CB0E94BA
:1046200091069A83898342E050E0AFCFD9018D9102
:104630009C91029709F099CBD801AB5BB74F2D91B4
:104640003C911197F901E259FF4FE00FF11F808172
:1046500091812E5F3F4F2D933C939C012250310955
:10466000F801E459FF4F7F012630310540F40E94E4
:10467000880680E00E945107D7011C9221C085E086
:10468000F70180831DC0D9018D919C91892B09F080
:104690006CCB44E050E0B80168597F4FC8010E94DC
:1046A000A81B0AC0F90180819181892B09F05DCB9B
:1046B00061E0C8010E94D11CF801E459FF4F10824B
:1046C0007801FCE6EF0EF11CD7016C91C8010E9445
:1046D000211EF70180810FB6F8949EBE0FBE8DBEDD
:1046E00069960FB6F894DEBF0FBECDBFDF91CF91B4
:1046F0001F910F91FF90EF90DF90CF90BF90AF9000
:104700009F908F907F906F900895EF92FF920F93FC
:104710001F93CF93DF931F921F92CDB7DEB7122F57
:1047200085E69DE049835A830E94CE034981042F88
:10473000E42E5A81F52E8E2D801B811740F4F7014F
:1047400061917F0185E69DE00E948503F4CF85E6B7
:104750009DE00F900F90DF91CF911F910F91FF90EF
:10476000EF900C945404CF93DF93EC018EE89EE01D
:104770000E943430181619064CF48EE89EE00E9410
:104780004D30682FCE010E94FB1BF0CFDF91CF91FF
:1047900008952091D50D3091D60D8091D30D909133
:1047A000D40D2817390721F40E94CD0781E0089520
:1047B00080E00895CF93DF93D82FC62F811109C0D1
:1047C000662321F06130B1F560E001C061E08DE069
:1047D0001DC0813079F5613049F030F0623061F010
:1047E000633041F560E01DC061E01BC060E08CE01B
:1047F0000E94D52F61E019C060E08CE00E94D52FA7
:1048000060E08BE00E94D52F61E08AE00E94D52F06
:104810008BE1D89FF0011124E75BF14FC18380E069
:104820000AC08CE00E94D52F60E08BE00E94D52F5B
:1048300060E0EBCF85E0DF91CF9108959093820EF9
:104840008093810E6093490E4093640E60E078EB94
:1048500088E097E40E94BF0680E00E947F2E61E01E
:104860008DE00E949C2F61E08CE00E949C2F61E013
:104870008BE00E949C2F61E08AE00E949C2F83E0E5
:104880000E94880660914A0E80E00E94DA236091BF
:10489000650E81E00E94DA2320E032E030935F0E63
:1048A00020935E0E80E090E0A0E0B4E48093600E80
:1048B0009093610EA093620EB093630E41E040931B
:1048C000590E30937A0E2093790E80937B0E90933D
:1048D0007C0EA0937D0EB0937E0E4093740E0895CF
:1048E0000F931F93CF93DF93AB019BE1899FE0016F
:1048F0001124C75BD14F9B01235331092A3933401F
:10490000B0F09B81911110C09A819F5F9A83698159
:10491000662321F061500E94DA2303C081E0809376
:104920007F0E83E08B8337C091509B8334C080918E
:10493000800E882309F18D899E89DB01A81BB90BA4
:104940009D010E943A3A09891A892B893C89060FF0
:10495000171F281F391F098B1A8B2B8B3C8B8885BF
:104960009985AA85BB85840F951FA11DB11D8887D8
:104970009987AA87BB870FC08C819D81861797076F
:1049800018F47D836C8307C08E819F816817790737
:1049900010F47F836E83DF91CF911F910F91089563
:1049A00080E00C94702481E00C9470242F923F924C
:1049B0004F925F926F927F928F929F92AF92BF922F
:1049C000CF92DF92EF92FF920F931F93CF93DF93DB
:1049D000CDB7DEB764970FB6F894DEBF0FBECDBF7C
:1049E00029013A01E986FA860B871C871601BA8AE3
:1049F000A98A0E943C3820E030E04AE754E40E9453
:104A000068369B01AC010E94ED356B017C0120E012
:104A100030E0A9010E94F33720E030E040E05FE39E
:104A200087FD05C0C701B6010E94ED3504C0C7016E
:104A3000B6010E94EC350E94D0360E94033720E078
:104A400030E040E05FE30E943C386D837E838F83DB
:104A50009887A30192016D817E818F8198850E9444
:104A6000683629853A854B855C850E943C380E94D2
:104A700051360E94D5368B010230110508F42DC342
:104A8000B80180E090E00E9401372D813E814F8186
:104A900058850E946836A30192010E943C386983C0
:104AA0007A838B839C83D1016D937D938D939C93AB
:104AB000139729853A854B855C850E94F337181634
:104AC0000CF408C3A301920169817A818B819C81D6
:104AD0000E9468366B017C019B01AC0160E070E0D4
:104AE00080E090E40E9468364B015C0120E030E0F9
:104AF000A9010E94F33720E030E040E05FE387FD4A
:104B000005C0C501B4010E94ED3504C0C501B40162
:104B10000E94EC350E94D0360E940337A70196010F
:104B20000E943C389B01AC0160E070E080E090E4C2
:104B30000E94EC3520E030E0A9010E94F33720E02C
:104B400030E0A901181664F5C501B4010E94F337DD
:104B500020E030E040E05FE387FD05C0C501B4011F
:104B60000E94ED3504C0C501B4010E94EC350E94DD
:104B7000D0360E940337A70196010E943C389B0162
:104B8000AC0160E070E080E090E40E94EC352DEC38
:104B90003CEC4CEC5DE30E94643687FD9BC22CC06C
:104BA000C501B4010E94F33720E030E040E05FE34C
:104BB00087FD05C0C501B4010E94ED3504C0C501E3
:104BC000B4010E94EC350E94D0360E940337A70141
:104BD00096010E943C389B01AC0160E070E080E0EF
:104BE00090E40E94EC352DEC3CEC4CEC5DEB0E942B
:104BF000F33718160CF46EC2A3019201C301B2017F
:104C00000E94ED359B01AC0169817A818B819C8189
:104C10000E94643687FF61C129813A814B815C81A2
:104C2000C301B2010E9468366D877E878F87988B9B
:104C30001C8A1B8AEB89FC89BF0180E090E00E94FE
:104C400001374B015C019B01AC016D857E858F8531
:104C500098890E94EC3520E030E040E05FE30E945C
:104C6000643618163CF42B893C892F5F3F4F3C8BF0
:104C70002B8BE0CF29813A814B815C81C501B40146
:104C80000E943C389B01AC01C301B2010E94EC358B
:104C90004B015C0120E030E0A9010E94F3371816B7
:104CA00024F0B7FAB094B7F8B094A50194016981E3
:104CB0007A818B819C810E94683669837A838B8399
:104CC0009C839B01AC0160E070E080E090E40E9476
:104CD00068364B015C0120E030E0A9010E94F33707
:104CE00020E030E040E05FE387FD05C0C501B4018E
:104CF0000E94ED3504C0C501B4010E94EC350E944C
:104D0000D0360E94033729813A814B815C810E9411
:104D10003C389B01AC0160E070E080E090E40E94D0
:104D2000EC3520E030E0A9010E94F33720E030E0CC
:104D3000A901181674F5C501B4010E94F33720E0EB
:104D400030E040E05FE387FD05C0C501B4010E948B
:104D5000ED3504C0C501B4010E94EC350E94D03687
:104D60000E94033729813A814B815C810E943C3843
:104D70009B01AC0160E070E080E090E40E94EC35C3
:104D80002DEC3CEC4CEC5DE30E94643687FF2FC0B9
:104D9000A1C1C501B4010E94F33720E030E040E03A
:104DA0005FE387FD05C0C501B4010E94ED3504C075
:104DB000C501B4010E94EC350E94D0360E94033731
:104DC00029813A814B815C810E943C389B01AC0176
:104DD00060E070E080E090E40E94EC352DEC3CEC6B
:104DE0004CEC5DEB0E94F33718160CF473C120E015
:104DF00030E0A901C701B6010E94F33720E030E09E
:104E000040E05FE387FD05C0C701B6010E94ED35B4
:104E100004C0C701B6010E94EC350E94D0360E9442
:104E200003379B01AC01C701B6010E94EC3520E0BD
:104E300030E0A9010E94F33720E030E0A901181604
:104E400034F5C701B6010E94F33720E030E040E0BE
:104E50005FE387FD05C0C701B6010E94ED3504C0C0
:104E6000C701B6010E94EC350E94D0360E9403377C
:104E70009B01AC01C701B6010E94EC3527E137EB7D
:104E800041ED58E30E94643687FF27C023C1C70164
:104E9000B6010E94F33720E030E040E05FE387FD99
:104EA00005C0C701B6010E94ED3504C0C701B601B7
:104EB0000E94EC350E94D0360E9403379B01AC0162
:104EC000C701B6010E94EC3527E137EB41ED58EB05
:104ED0000E94F33718160CF4FDC020E030E040E2E9
:104EE00051E4C701B6010E94643687FF76C020E016
:104EF00030E0A901C701B6010E94F33720E030E09D
:104F000040E05FE387FD05C0C701B6010E94ED35B3
:104F100004C0C701B6010E94EC350E94D0360E9441
:104F200003379B01AC01C701B6010E94EC3520E0BC
:104F300030E0A9010E94F33720E030E0A901181603
:104F400034F5C701B6010E94F33720E030E040E0BD
:104F50005FE387FD05C0C701B6010E94ED3504C0BF
:104F6000C701B6010E94EC350E94D0360E9403377B
:104F70009B01AC01C701B6010E94EC3527E137EB7C
:104F800041ED58E30E94643687FF27C0A3C0C701E4
:104F9000B6010E94F33720E030E040E05FE387FD98
:104FA00005C0C701B6010E94ED3504C0C701B601B6
:104FB0000E94EC350E94D0360E9403379B01AC0161
:104FC000C701B6010E94EC3527E137EB41ED58EB04
:104FD0000E94F33718160CF47DC02D813E814F815D
:104FE0005885C701B6010E943C386B017C0120E066
:104FF00030E0A9010E94F33720E030E040E05FE3B9
:1050000087FD05C0C701B6010E94ED3504C0C70188
:10501000B6010E94EC350E94D0360E9403379B01F6
:10502000AC01C701B6010E94EC3520E030E0A901D7
:105030000E94F33720E030E0A901181634F5C701CB
:10504000B6010E94F33720E030E040E05FE387FDE7
:1050500005C0C701B6010E94ED3504C0C701B60105
:105060000E94EC350E94D0360E9403379B01AC01B0
:10507000C701B6010E94EC3527E137EB41ED58E35B
:105080000E94643687FF26C033C0C701B6010E9464
:10509000F33720E030E040E05FE387FD05C0C70163
:1050A000B6010E94ED3504C0C701B6010E94EC357F
:1050B0000E94D0360E9403379B01AC01C701B601A4
:1050C0000E94EC3527E137EB41ED58EB0E94F337B6
:1050D000181674F001501109CFCC20E030E040E008
:1050E0005FE36D817E818F8198850E94ED35ADCC27
:1050F000A989BA890D931C9364960FB6F894DEBF04
:105100000FBECDBFDF91CF911F910F91FF90EF9018
:10511000DF90CF90BF90AF909F908F907F906F90D7
:105120005F904F903F902F90089510924A0E1092EA
:10513000650E08952F923F924F925F926F927F92E9
:105140008F929F92AF92BF92CF92DF92EF92FF9297
:105150000F931F93CF93DF93CDB7DEB7C85CD10910
:105160000FB6F894DEBF0FBECDBFC154DF4F5983D9
:105170004883CF5BD040CF53DF4F088319832A8306
:105180003B83C15CD04026013701CD54DF4FA8825C
:10519000C35BD0408092800EAA2031F1A3E8AA2EF2
:1051A000AEE0BA2EAE0149555F4F6A01E12C10E422
:1051B000F12E0CE916E4A30192010E94D624C955F0
:1051C000DF4F688179818A819B81C75AD0409B01DA
:1051D000AC010E94ED35C955DF4F688379838A831E
:1051E0009B83C75AD04017C020E030E040E05FE327
:1051F0000E943C38E3E8AE2EEEE0BE2EDE01A9555B
:10520000BF4F6D01E12C10E4F12E0CE117E4A30176
:1052100092010E94D6248091830E9091840E880F73
:10522000991F9093840E8093830EC955DF4F688138
:1052300079818A819B81C75AD0400E94BF06B09174
:105240004A0EC354DF4FB883CD5BD04081E0C355D5
:10525000DF4F8883CD5AD04061E080E00E94DA239E
:10526000E091650EC254DF4FE883CE5BD04083E00F
:10527000C255DF4F8883CE5AD04063E081E00E9460
:10528000DA238091490EFE01E555FF4F808390910E
:10529000640E91832091830E3091840ECD54DF4FA4
:1052A0004881C35BD040442311F13093D40D209347
:1052B000D30DF093D10DE093D00D92E09093CE0DED
:1052C0001092CD0D29E438E03093CC0D2093CB0D16
:1052D0000E941E0881E698E09093CC0D8093CB0D40
:1052E00080E794E29093CA0D8093C90D06C036956D
:1052F00027953093D40D2093D30DE090810EF0903C
:10530000820EF701E859FF4F20E030EC4FE754E4FC
:1053100060817181828193810E946836C754DF4F1A
:10532000688379838A839B83C95BD0401E015FE9D0
:10533000250E311C3E0183E1680E711CCE01805B9D
:105340009F4F2C01AAE04A0E511CF1013896C1551D
:10535000DF4FF983E883CF5AD040CC54DF4F8883A6
:10536000C45BD040C854DF4F9883C85BD0408701EE
:105370000B59174F9701245A374FCF54DF4F3983BA
:105380002883C15BD0408091490EF801CC54DF4F97
:10539000A881C45BD040C854DF4FB881C85BD040FF
:1053A0009FE401900D929A95E1F7882341F08130B6
:1053B00061F4F201208931894289538909C0D201FF
:1053C0002D913D914D915C9103C020E030E0A90109
:1053D000F801DE0111969FE401900D929A95E1F794
:1053E000882341F0813061F4F301C08CD18CE28CD0
:1053F000F38C09C0D301CD90DD90ED90FC9003C0FB
:10540000C12CD12C760160E876E988E19BE40E940A
:10541000683620E030E040E85FE30E94ED354B0164
:105420005C0120E836E948E15BE4C701B6010E946F
:105430003C389B01AC010E94ED352BED3FE049E487
:1054400050E40E943C38CF54DF4FA881B981C15B42
:10545000D0402D913D914D915C910E943C386B0163
:105460007C01A5019401C501B4010E943C384B01A7
:105470005C01A7019601C701B6010E943C389B015F
:10548000AC01C501B4010E94ED350E94EF389B01CB
:10549000AC01C754DF4F688179818A819B81C95BE8
:1054A000D0400E943C38F1016193719381939193B4
:1054B0001F01F4E06F0E711C24E0420E511CC15517
:1054C000DF4F48815981CF5AD0402416350609F064
:1054D0005ACF10927F0ECF54DF4F19821882C15BD2
:1054E000D040CF54DF4F88819981C15BD040C154F7
:1054F000DF4FA881B981CF5BD0408A179B0709F4A1
:10550000D1C28091800E10924B0E10924C0E8111E0
:105510000BC0EFEFF3E0F093500EE0934F0E1092BC
:105520004E0E10924D0E10C01092510E1092520E4F
:105530001092530E1092540E10925A0E10925B0E4F
:1055400010925C0E10925D0E1092660E1092670E15
:10555000882389F010926C0E10926D0E10926E0ED0
:1055600010926F0E1092750E1092760E1092770EAA
:105570001092780E0AC08FEF93E090936B0E809399
:105580006A0E1092690E1092680ECD54DF4F98810A
:10559000C35BD0409923E1F10E94AE070E94C9236A
:1055A0008823E1F30E94C72DCC54DF4F68837983B1
:1055B0008A839B83C45BD040A091800EC854DF4F88
:1055C000A883C85BD0408091830E9091840EFE0129
:1055D000E355FF4FC155DF4FF983E883CF5AD040E1
:1055E00009E41EE09E012F5F3F4F2901AE01405BA1
:1055F0005F4F1A01612C712C9C0140E050E0CB53AD
:10560000DF4F288339834A835B83C55CD0409AC0CF
:105610008091490E0E94380841E658E05093CC0D25
:105620004093CB0D80ED94E29093CA0D8093C90D09
:105630000E94AE070E94C9238823E1F38091640E83
:105640000E943808A1E6B8E0B093CC0DA093CB0D32
:10565000E3EDF4E2F093CA0DE093C90D0E94AE07AA
:105660000E94C9238823E1F39DCFCB53DF4F68818C
:1056700079818A819B81C55CD0400E9401376B0192
:105680007C01D80151966D917D918D919C9154979B
:105690000E9401379B01AC010E94ED35A7019601E4
:1056A0000E9468360E94EF38F20160837183828322
:1056B000938320E030E040E852E40E943C389B01B4
:1056C000AC010E94ED3523EF34E045EB5FE30E942F
:1056D0003C380E94D536D1016D937C93F301E75B92
:1056E000F14F82818823B9F1F301E75BF14F8281A9
:1056F000882309F4B3C08195C155DF4FA881B981D2
:10570000CF5AD0408C93B1E0B08BC155DF4FE881C8
:10571000F981CF5AD0403196C155DF4FF983E883E4
:10572000CF5AD040FBE16F0E711C055E1F4F22E087
:10573000220E311C34E0430E511C46E36416710402
:1057400009F496C0C854DF4FF881C85BD040FF23EE
:1057500009F45AC08ACF80898111C6CFF8018084AC
:105760009184A284B3846485758586859785680D48
:10577000791D8A1D9B1D0E9401372AE037ED43E207
:105780005CE30E943C38A70196010E9468366B01D9
:105790007C0124EA30E74DE75FE3D80157966D912D
:1057A0007D918D919C915A970E943C389B01AC0150
:1057B000C701B6010E94ED356B017C01F801678BD2
:1057C000708F818F928F20E030E0A9010E94F33723
:1057D00020E030E040E05FE387FD05C0C701B6018F
:1057E0000E94ED3504C0C701B6010E94EC350E944D
:1057F000D036D80156967C936E935597F8018486DF
:105800009586A686B78670CFD80114966D917C9147
:10581000159716968D919C911797681B790B96E0BA
:10582000660F771F9A95E1F7F1017183608380E03D
:1058300090E00E94013723EF34E045EB5FE30E94E4
:10584000683620E030E040E05CE30E943C38D20162
:105850006D937D938D939C93139746CF8181C15512
:10586000DF4FA881B981CF5AD0408C93108A4DCF99
:105870000091810E1091820EF801EC59F74F808152
:10588000882309F470C080914B0E81116CC03C9745
:10589000C080D180E280F38020E030E0A901C70120
:1058A000B6010E94F33718160CF05DC0C355DF4FE8
:1058B0008881CD5AD040EFE9F0E0EC0FFD1F24E0E5
:1058C0008202E00DF11D112420813181428153813A
:1058D00069817A818B819C810E943C384B015C01FB
:1058E0008091660E8111B5C02D813E814F81588512
:1058F000C754DF4F688179818A819B81C95BD04021
:105900000E943C389B01AC01C701B6010E94ED35F5
:105910002B013C019B01AC01C501B4010E94EC3597
:105920006B017C0120E030E0A9010E94F3371816DA
:1059300024F0F7FAF094F7F8F09420E030E040E03B
:105940005FE3F801ED55F74F6081718182819381AA
:105950000E943C389B01AC01C701B6010E94F3379D
:1059600018160CF47AC00AE41EE0CE01805B9F4F4B
:105970006C01E12CF12CD6018D919C91893C9C40CD
:1059800030F4F80160816F5F8E2D0E94DA2342E0CF
:1059900050E0B6018091810E9091820E0E94A81B6A
:1059A0006DEA70E06C0F7D1F6E0D7F1D41E050E0D1
:1059B0008091810E9091820E0E94A81BFFEFEF1A3A
:1059C000FF0A22E0C20ED11C055E1F4F32E0E31633
:1059D000F10489F68EE89EE00E943430181619060C
:1059E0000CF460C00E94C72DCC54DF4F2881398150
:1059F0004A815B81C45BD040621B730B840B950BA7
:105A00000E9401376B017C0120E030E04AE754E45A
:105A1000CF53DF4F688179818A819B81C15CD040FF
:105A20000E943C389B01AC01C701B6010E9464365C
:105A300087FDD8CFCF54DF4F48815981C15BD0401B
:105A40004F5F5F4FCF54DF4F59834883C15BD040D6
:105A500048CD20E030E0A90157CFF801E05AF74FD8
:105A60002081318142815381C501B4010E943C38BB
:105A7000A30192010E9468366B017C0120E030E0B6
:105A800040E85FE30E94643687FF06C0C12CD12C3A
:105A900080E8E82E8FE3F82EB701A601C8010E9426
:105AA000D10E61CFC354DF4F6881CD5BD04080E021
:105AB0000E94DA23C254DF4F6881CE5BD04081E080
:105AC0000E94DA2380E0C853DF4F0FB6F894DEBFA0
:105AD0000FBECDBFDF91CF911F910F91FF90EF903F
