:100000000C94BD000C94E5000C94E5000C94E50004
:100010000C94E5000C94E5000C94E5000C94E500CC
:100020000C94E5000C94E5000C94E5000C94E500BC
:100030000C94E5000C94E5000C94E5000C94E500AC
:100040000C948C110C94E5000C94F7140C94291565
:100050000C94E5000C94E5000C94E5000C94E5008C
:100060000C94340D0C94E5009E0FB20FC80FE40FF2
:100070000810361055108C10330FC6105D0F800F0E
:10008000E7100111880F8C0FA60FBC0FD80FF60FC9
:100090002A1049107111A510BA10C610740FDB1088
:1000A0000C11687474703A2F2F6769746875622E2A
:1000B000636F6D2F776865656C65722D6D6963720E
:1000C0006F666C7569646963732F626173655F6ED7
:1000D0006F64655F7270632E67697400302E31360D
:1000E0002E706F73743300576865656C6572204CB1
:1000F000616200626173652D6E6F64652D7270635D
:1001000000626173652D6E6F64652D7270630030DF
:100110002E31362E706F7374330000000008000219
:1001200001000003040700000000000000000102BD
:100130000408102040800102040810200102040875
:100140001020040404040404040402020202020253
:10015000030303030303000000002300260029001B
:1001600000000000250028002B00000000002400F3
:1001700027002A0093023C0C591511241FBECFEF13
:10018000D8E0DEBFCDBF11E0A0E0B1E0ECE6FCE2DC
:1001900002C005900D92A436B107D9F724E0A4E679
:1001A000B1E001C01D92AF35B207E1F711E0CAE737
:1001B000D1E004C02297FE010E94E915C437D1079F
:1001C000C9F70E94820A0C9434160C940000CF9355
:1001D000DF9300D000D000D0CDB7DEB720E8298370
:1001E0001A821B821C82855F9E4F9E838D8330E026
:1001F00040E050E0682F7E8180E090E026960FB6C8
:10020000F894DEBF0FBECDBFDF91CF910895029766
:100210000C94E70004970C94E700E0916C02F091D5
:100220006D020280F381E02DBC018CE692E009941E
:10023000FC01828193810C947A0ECF93DF93EC01C1
:100240000E9418011C82DF91CF910895EF92FF92D6
:100250000F931F93CF93DF9300D000D000D0CDB782
:10026000DEB78C01F62EE72EBC018F2D9E2D0E944D
:10027000F215C8010E94F915AC0160E070E04983F5
:100280005A836B837C83FD82EE82282F3A818B8197
:100290005C816F2D7E2D482F80E090E026960FB672
:1002A000F894DEBF0FBECDBFDF91CF911F910F91AC
:1002B000FF90EF90089508950F931F93CF93DF93CE
:1002C000EC011A86198600E010E02B813C818985BB
:1002D0009A850217130760F4EF81F885E00FF11F8C
:1002E00060810E94610E9A8789870F5F1F4FEDCF53
:1002F0000E94790E9A878987DF91CF911F910F9184
:10030000089526E040E052EC61E070E08EEB93E06F
:100310000E9495148CE08093B8006DE071E081EF4D
:1003200092E00C94370CDC01ED91FC910280F3819A
:10033000E02D41E050E009940F931F93CF93DF939A
:10034000EC018B01E881F9816F5F7F4F0280F381BF
:10035000E02D41E050E00995E881F9810280F381C8
:10036000E02D41E050E0B801CE01DF91CF911F9127
:100370000F910994FC01E158FF4F0190F081E02DAD
:100380002189222359F083589F4FDC01ED91FC9184
:100390000190F081E02D099580E00895808908950D
:1003A000FC01E158FF4F0190F081E02D21892223CB
:1003B00031F083589F4F0E941D0180E0089580898D
:1003C00008950F931F93CF93DF93EC018B01E88186
:1003D000F9816F5F7F4F0280F381E02D41E050E0B3
:1003E0000995E881F9810280F381E02D41E050E038
:1003F000B801CE01DF91CF911F910F910994CF9257
:10040000DF92EF92FF920F93CF93DF93CDB7DEB7DA
:1004100068970FB6F894DEBF0FBECDBF6C012A8B74
:100420003B8B4C8B5D8B6E8B7F8B088F4A895B89F6
:100430006C897D898FEF9FEF9B878A87FA82E9829B
:100440000B838E899F895F834E83998788875D831D
:100450004C83CE0101960E945C018CE79CE7ACE7DF
:10046000B0E08C879D87AE87BF87D6018D919C9128
:10047000DC01ED91FC910280F381E02D43E050E03E
:10048000BE01645F7F4F0995BE016F5F7F4FF6012C
:10049000808191810E94E101D6018D919C91DC01C6
:1004A000ED91FC910280F381E02D41E050E0BE012E
:1004B000685E7F4F09958B81843611F0833729F56B
:1004C0008C819D81998B888BBE01605F7F4FD601A7
:1004D0008D919C910E94E1014C815D8141155105F6
:1004E00061F0F60180819181DC01ED91FC916885DC
:1004F00079850280F381E02D0995BE01665F7F4F0B
:10050000F601808191810E94E10168960FB6F8940E
:10051000DEBF0FBECDBFDF91CF910F91FF90EF9067
:10052000DF90CF9008954F925F926F927F928F925B
:100530009F92AF92BF92CF92DF92EF92FF920F9372
:100540001F93CF93DF93C6E6D1E08BE091E09983D0
:10055000888388E6E82E81E0F82E81E191E0D701DA
:100560008D939C930AE611E087E191E0F801918375
:100570008083ECEBF1E0118210821092BE011092A8
:10058000C0011092BF0144244A94542C5092C601D9
:100590004092C50120E5622E712C7092C2016092DA
:1005A000C1018CE691E09093C4018093C30137ECC4
:1005B000A32E31E0B32ED5011C921092C8011092E7
:1005C000D4011092D3011092D6011092D50110924D
:1005D000DA011092D9011092E8011092E701F0932C
:1005E000DC01E093DB01C5010E947A0E49EEC42EC6
:1005F00041E0D42E5DE1852E51E0952EF6019182E9
:100600008082B092EC01A092EB01C6010E94180119
:1006100085E291E0D6018D939C938EEB93E09093CD
:10062000EE018093ED01EFE3F2E01182108210926F
:1006300041021092430210924202509249024092AB
:10064000480270924502609244028FEE91E09093CE
:100650004702809346026AE4A62E62E0B62ED501D8
:100660001C9210924B021092570210925602109256
:1006700059021092580210925D0210925C02109280
:100680006B0210926A02F0935F02E0935E02C50172
:100690000E947A0E7CE6C72E72E0D72EF601918278
:1006A0008082B0926F02A0926E02C6010E94180171
:1006B0008DE291E0D6018D939C9310927002C60159
:1006C0000E941D0185E391E0998388838BE391E08B
:1006D000F7019183808381E491E0D8018D939C930D
:1006E000D0936501C0936401DF91CF911F910F9169
:1006F000FF90EF90DF90CF90BF90AF909F908F9042
:100700007F906F905F904F900895CF93DF93E0912B
:10071000E901F091EA01C281D3818EEB93E00E945E
:10072000B213BC0189EE91E0FE01DF91CF910994F3
:10073000BF92CF92DF92EF92FF920F931F93CF93CE
:10074000DF931F92CDB7DEB78C017B0181EF92E082
:100750000E94C50AB82E81E0E81AF108F8018481E8
:10076000811101C0B482C12CD12CCE14DF04A4F4B9
:1007700081EF92E00E94C50A8983F8018481B81252
:1007800007C0BE016F5F7F4F828193810E94990EE7
:10079000FFEFCF1ADF0AE9CF0F90DF91CF911F91C2
:1007A0000F91FF90EF90DF90CF90BF900895EF9260
:1007B000FF920F931F93CF93DF93CDB7DEB7699767
:1007C0000FB6F894DEBF0FBECDBF7C012B8B3C8BE8
:1007D0004D8B5E8B6F8B788F098F4B895C896D8910
:1007E0007E891A8219828FEF9FEF9B878A870B83FE
:1007F0008F89988D5F834E83998788875D834C832B
:10080000CE0101960E945C018CE79CE7ACE7B0E06A
:100810008C879D87AE87BF878091BA0086958A8B2B
:10082000F701608181EF92E00E94B30BBE016E5E22
:100830007F4F81EF92E00E94930143E050E0BE01C0
:10084000645F7F4F81EF92E00E94170BBE016F5FE4
:100850007F4F81EF92E00E949C01BE01675E7F4F57
:1008600081EF92E00E9493018C819D81998B888B0E
:10087000BE01605F7F4F81EF92E00E949C0181EF9B
:1008800092E00E94340C0C811D810115110551F17B
:100890000032110510F00FE110E0F701608181EFE7
:1008A00092E00E94B30BBE016E5E7F4F81EF92E03B
:1008B0000E94930168857985A80181EF92E00E94EA
:1008C000170B81EF92E00E94340C88859985800F88
:1008D000911F998788878C819D81801B910B9D83B7
:1008E0008C83D1CFF701608181EF92E00E94B30B3E
:1008F000BE016E5E7F4F81EF92E00E949301BE01C8
:10090000665F7F4F81EF92E00E949C0181EF92E051
:100910000E94340C69960FB6F894DEBF0FBECDBFAF
:10092000DF91CF911F910F91FF90EF9008954F921B
:100930005F926F927F928F929F92AF92BF92CF926F
:10094000DF92EF92FF920F931F93CF93DF93CDB778
:10095000DEB7C059D1090FB6F894DEBF0FBECDBFC8
:10096000DC01CB57DF4F2883C558D040CA57DF4F33
:100970003883C658D040C957DF4F4883C758D04046
:10098000C857DF4F5883C858D040C757DF4F6883D8
:10099000C958D040C657DF4F7883CA58D040C55792
:1009A000DF4FC882CB58D040C457DF4FD882CC58D5
:1009B000D040C357DF4FE882CD58D040C257DF4FF9
:1009C000F882CE58D040C157DF4F0883CF58D0406F
:1009D000C057DF4F1883C059D040C757DF4FE88159
:1009E000F981C958D040C157DF4F08811981CF58CC
:1009F000D040808191818F3F21E0920709F4C6C2E7
:100A000008F0C2C08A30910509F465C208F04CC0F4
:100A10008430910509F402C258F58130910509F43A
:100A20009BC108F465C18230910509F4C9C10397DF
:100A300009F008C48D919C91DC01ED91FC9101902D
:100A4000F081E02D09956BAF7CAF6BAD7CAD87EE8F
:100A500090E00E94260129AB3AAB4BAB5CAB6DAB8F
:100A60007EABC9A8DAA8EBA8FCA80DA91EA90CC4E6
:100A70008730910509F40EC278F48530910509F4A8
:100A8000EBC1069709F0DEC30E94E211F801608312
:100A900071838283938306C28830910509F408C26A
:100AA000099709F40DC2CEC38F30910509F434C201
:100AB00088F48C30910509F426C208F41FC28D30E9
:100AC000910509F424C20E9709F0BCC382810E94EB
:100AD000731289C28231910509F430C2B0F58031B8
:100AE000910509F41FC2419709F0ACC39F012E5F25
:100AF0003F4F86819781820F931F9783868386E07D
:100B0000F901DE01A758BF4F01900D928A95E1F7D8
:100B100086E0FE01E758FF4FDE01AD58BF4F019060
:100B20000D928A95E1F7E9960EAD1FADE997E7962C
:100B3000CCACDDACEEACFFACE79792E0CC0CDD1CAE
:100B4000EE1CFF1C9A95D1F79FC38F3F910509F4C6
:100B5000E6C28E3F914009F075C3CF01029622850F
:100B60003385280F391F33872287628173818481FF
:100B70009581C680D780E084F184F894A601C901EC
:100B80000E941216789465C3863023E0920709F418
:100B9000A4C208F05AC0811523E0920709F421C2CB
:100BA000E0F48D3FA2E09A0709F40CC248F48115E5
:100BB000924009F047C38FEF93E0A0E0B0E026C376
:100BC0008E3F22E0920709F406C28F3F924009F05F
:100BD00039C38091BA00869564C2833023E09207BE
:100BE00009F452C270F48130E3E09E0709F4FFC1BA
:100BF0008230934009F026C381EF92E00E94BD0A43
:100C00003AC2843023E0920709F445C2853093400C
:100C100009F018C3D380F2808D919C91DC01149669
:100C2000ED91FC9115970190F081E02D04960995C6
:100C30006B877C870B851C854D2D6F2D81EF92E096
:100C40000E94310CB02E780136C28B3F24E092070F
:100C500009F4B8C218F58C3F23E0920709F45FC28B
:100C600068F48730A3E09A0709F453C288309340B0
:100C700009F0E8C28091BA008E7F4EC28D3F23E01A
:100C8000920709F451C28E3F934009F0DBC28D9167
:100C90009C918A5F9E4F0E941D01DBC28E3F24E023
:100CA000920709F4A9C270F48C3FA4E09A0709F4F2
:100CB00092C28D3F944009F0C5C28CB5837F92816A
:100CC000892B98C28A3FE5E09E0709F4A5C28B3FB5
:100CD000954009F0B7C226E040E052EC61E070E0D8
:100CE0008EEB93E00E9495148CE08093B800B1C223
:100CF0008D919C91DC01ED91FC910190F081E02DB2
:100D00000995A0966FAFA097A1967FAFA197A196E6
:100D10006EAD7FADA1978FE091E00E9426016696AF
:100D20002FAF669767963FAF679768964FAF689704
:100D300069965FAF69976A966FAF6A976B967FAF58
:100D40006B976996CCACDDACEEACFFAC69976B965B
:100D50000EAD1FAD6B9798C28D919C91DC01ED910A
:100D6000FC910190F081E02D099564966FAF649736
:100D700065967FAF659765966EAD7FAD659781E0AF
:100D800091E00E9426012A962FAF2A972B963FAF1B
:100D90002B972C964FAF2C972D965FAF2D972E96B5
:100DA0006FAF2E972F967FAF2F972D96CCACDDACE3
:100DB000EEACFFAC2D972F960EAD1FAD2F9764C2F2
:100DC0008D919C91DC01ED91FC910190F081E02DE1
:100DD000099528966FAF289729967FAF299729966E
:100DE0006EAD7FAD299783EF90E00E9426012DAF75
:100DF0003EAF4FAF21965FAF219722966FAF2297FC
:100E000023967FAF23972196CCACDDACEEACFFAC44
:100E1000219723960EAD1FAD239736C28D919C91DD
:100E2000DC01ED91FC910190F081E02D09956FA717
:100E300078AB6FA578A98CED90E00E9426012DA3D8
:100E40003EA34FA358A769A77AA7CDA0DEA0EFA025
:100E5000F8A409A51AA518C28D919C91DC01ED9109
:100E6000FC910190F081E02D09956BA37CA36BA10F
:100E70007CA182EA90E00E942601298F3A8F4B8F55
:100E80005C8F6D8F7E8FC98CDA8CEB8CFC8C0D8D1A
:100E90001E8DFAC10E94D611D8016D937D938D935A
:100EA0009C93139724E0C22ED12CE12CF12CECC1A1
:100EB00082819381009709F4CCC10E942D12C9C18F
:100EC000628173816115710509F4C3C180E090E00E
:100ED0000E940512BEC120915B0430915C048DB765
:100EE0009EB72115310519F48F55944002C0821B1D
:100EF000930BAA2797FDA095BA2F88C163818281A1
:100F00000E941813A6C182810E948713CAC0638100
:100F100082810E9451139DC1638170E082810E9491
:100F2000901297C19F012E5F3F4F86819781820F5C
:100F3000931F97838683828193819DC09F012E5F3B
:100F40003F4F86819781820F931F9783868386E028
:100F5000F901DE01A359BF4F01900D928A95E1F787
:100F600086E0FE01E359FF4FDE01A959BF4F019012
:100F70000D928A95E1F7AB96CCACDDACEEACFFAC54
:100F8000AB97AD960EAD1FADAD977EC1C680D78035
:100F900082809380A480B5808D919C91DC01129613
:100FA000ED91FC9113970190F081E02D0296099547
:100FB0006F8B788F0F89188DA601B401C8010E942C
:100FC000021688C0428153816481758181EF92E06D
:100FD0000E94A00B3EC1628181EF92E00E948D0BC6
:100FE00038C180E290E0F8019183808347C08D9101
:100FF0009C91DC011496ED91FC9115970190F08184
:10100000E02D049609952D873E874F87588B698B75
:101010007A8B8D849E84AF84B88809891A8988E088
:10102000782EC12CD12CC601A0E0B0E0881599051E
:10103000AA05BB0508F04EC0672D81EF92E00E9423
:10104000B30B81EF92E00E94340C81110FC0760146
:10105000BFEFEB1AFB0AF801EC0DFD1D708261E099
:1010600070E080E090E00E94051267017394E8E769
:101070007E12D9CF2FC0D8018D939C93B2E0CB2E96
:10108000D12CE12CF12C00C181EF92E00E94C50A25
:10109000F801808308C04381628181EF92E00E9461
:1010A000310CD8018C93C12CD12C7601C394ECC0A7
:1010B000F70181937F01CE2CCB1881EF92E00E9443
:1010C000BD0A892B31F081EF92E00E94C50ACD1450
:1010D00078F3D12CE12CF12CD7C0CF010296A78058
:1010E000B084A80EB91EB086A782C380D480E580E4
:1010F000F680628181EF92E00E94B30BA601B501F8
:1011000081EF92E00E94170B81EF92E00E94340C75
:10111000A0C08091BA0081608093BA009AC089E42F
:1011200090E0A0E0B0E072C09F012E5F3F4F87814A
:101130009085820F931F908787831281ED90FC909A
:1011400086E03396DE01AF59BF4F01900D928A952C
:10115000E1F786E0FE01EF59FF4FDE0111960190A5
:101160000D928A95E1F75701FAEFAF1AFEEFBF0A29
:10117000C5010E941D01C701865F9E4FDC011C93C3
:1011800004E629813A814B815C816D817E810E94D8
:10119000D7030E94D6112B013C01870107571F4F2F
:1011A0000E94D61164197509860997096838734138
:1011B0008105910508F051C0C8010E94D00181113C
:1011C0004CC0EECF8281811103C08CB5806212C009
:1011D0008CB58F7D0FC022819CB5822F83709C7F40
:1011E000892B8CBD8DB522FB222720F98E7F822B87
:1011F0008DBD2FC08CBD2DC082818EBD00000DB471
:1012000007FEFDCF8EB590E0A0E0B0E0F80180834E
:101210009183A283B38346CE8D919C91DC01ED91A5
:10122000FC910190F081E02D099529833A834B834D
:101230005C836D837E83C980DA80EB80FC800D81C6
:101240001E8122C000E010E0CC24CA94DC2C760180
:101250001BC0C12CD12C760117C0F701E752FF4FFC
:1012600007811085C380D480E12CF12CB8E4CB1623
:10127000D104E104F10428F0E7E4CE2ED12CE12CD6
:10128000F12CC5010E941D01C158DF4FC882D982CF
:10129000EA82FB82CF57D040CD57DF4F19830883B6
:1012A000C358D0402C2DC058DF4F3881C058D04093
:1012B000CF57DF4F4881C158D040CE57DF4F5881BC
:1012C000C258D040602FCC57DF4F7881C458D040EF
:1012D00080E090E0C057DF4F0FB6F894DEBF0FBE3E
:1012E000CDBFDF91CF911F910F91FF90EF90DF90D5
:1012F000CF90BF90AF909F908F907F906F905F90B6
:101300004F9008958F929F92AF92BF92CF92DF92AB
:10131000EF92FF920F931F93CF93DF93CDB7DEB77A
:1013200062970FB6F894DEBF0FBECDBFFC01CB01B4
:10133000438154812281243619F44115510539F431
:1013400060E080E02FEF4FEF30E090E02CC037817D
:10135000A085032F3D83AE8385809680A12CB12C80
:10136000C82C89829A82AB82BC8260E070E0242F14
:101370004F83588769877A87632F3B87AC87DA80EA
:10138000EB80FC801A2F388549855A857A2F0E9478
:1013900097042D873E874F87588B698B7A8B432F15
:1013A0003F85952F872F29834A833B839C836D83B9
:1013B0008E83342F4B81592F782F80E090E06296F6
:1013C0000FB6F894DEBF0FBECDBFDF91CF911F9156
:1013D0000F91FF90EF90DF90CF90BF90AF909F90D4
:1013E0008F900895EF92FF920F93CF93DF93CDB735
:1013F000DEB72C970FB6F894DEBF0FBECDBF8CE6DC
:1014000091E00E94BA01882389F18CE691E00E9464
:10141000BA01882359F164E671E08CEB91E00E94F7
:10142000820938875A876B877C87322F6885542FCB
:101430004A858B859C85892B21F430E060E050E063
:1014400040E0232F3F83688759874A87E12CF12C9E
:1014500004E6362F452F5A856B857C858DEE91E00D
:101460000E94FF0189EE91E00E9418018FEE91E049
:101470000E94D0018823D1F18FEE91E00E94D0012B
:101480008823A1F164E671E08FE392E00E94820973
:101490003A835C836D837E83322F6A81542F4C8123
:1014A0008D819E81892B21F430E060E050E040E0A6
:1014B000232F39836A835B834C8304E6362F452FC1
:1014C0005C816D817E8180E792E00E94D7038CE68B
:1014D00092E02C960FB6F894DEBF0FBECDBFDF9121
:1014E000CF910F91FF90EF900C941D012C960FB6A9
:1014F000F894DEBF0FBECDBFDF91CF910F91FF906B
:10150000EF9008950E9438120E945B010E948101B1
:10151000CFEDD3E10E94F2092097E1F30E94DF139F
:10152000F9CFCF92DF92EF92FF920F931F93CF9359
:10153000DF931F92CDB7DEB77C016B0100E010E0B6
:101540000C151D0584F48EEB93E00E94CB13898368
:10155000BE016F5F7F4FF701828193810E94990ED8
:101560000F5F1F4FEDCF0F90DF91CF911F910F9124
:10157000FF90EF90DF90CF9008958091250390E049
:1015800020912603821B91090895209126038091C2
:101590002503281750F4E22FF0E0E95DFC4F80812D
:1015A00090E02F5F2093260308958FEF9FEF08951B
:1015B000E091260380912503E81730F4F0E0E95D1F
:1015C000FC4F808190E008958FEF9FEF089508957C
:1015D000E091FD02F091FE023097E1F03091260398
:1015E000209125033217B0F040E0242F30E0261779
:1015F000370754F4DC01A20FB31F5C91D901A95D38
:10160000BC4F5C934F5FF1CF10922603609325038C
:10161000CB0109940895E091FF02F0910003309707
:1016200029F0109203031092020309940895CF92B7
:10163000DF92EF92FF920F931F93CF93DF937C0182
:10164000CB018A0120910103222389F0EB016B0178
:10165000C40ED51ECC15DD0569F06991D701ED9159
:10166000FC910190F081E02DC7010995F3CF642F23
:101670000E94010DC801DF91CF911F910F91FF9042
:10168000EF90DF90CF900895CF93DF931F92CDB767
:10169000DEB76983209101032223D1F02091020358
:1016A000203240F021E030E0FC013383228380E0EF
:1016B00090E015C080910303E82FF0E0EC5FFC4F51
:1016C000998190838F5F809303038093020305C009
:1016D00061E0CE0101960E94010D81E090E00F9043
:1016E000DF91CF910895FC011382128248EE53E0FE
:1016F00060E070E0448355836683778387E491E0FC
:1017000091838083089510922603109225031092EE
:101710000303109202030C94400CCF93DF93EC016F
:10172000862F0E945E0C8BE09BE00E941F0D88EECE
:101730009AE00E941A0DCE01DF91CF910C94830B99
:101740009A01AB0160E074E284EF90E00E94C5155D
:1017500020513109410951095695479537952795EB
:101760002093B800089581E08093010360932403DF
:10177000109203031092020308950F93062F21E0A5
:101780004091020364E073E0809124030E94AA0C5C
:101790001092030310920203109201030F91089517
:1017A0008F929F92AF92BF92CF92DF92EF92FF9271
:1017B0000F931F93CF93DF93EC01F62ED42E4801A5
:1017C0005901EE2019F10E94B30B1E2D143008F0C0
:1017D00013E01150B8F0E881F98128E0129FB001C0
:1017E0001124A501940104C0569547953795279576
:1017F0006A95D2F7CA01B9010190F081E02DCE01BE
:101800000995E7CF60E0CE010E94BD0B4D2D41321E
:1018100008F040E22C2D67E273E08F2D0E94620CED
:101820001092260380932503DF91CF911F910F9192
:10183000FF90EF90DF90CF90BF90AF909F908F90F0
:101840000895CF92EF920F931F93C22EE12C00E0E8
:1018500010E098010E94D00B1F910F91EF90CF9054
:10186000089521E00C94210C61E00C94BD0B709361
:10187000FE026093FD02089581EF92E00C94730BD9
:101880001092B40381E08093B2031092B10361E03F
:1018900082E10E94511361E083E10E945113E9EB60
:1018A000F0E080818E7F808380818D7F808388E4DB
:1018B0008093B80085E48093BC000895880F8093DE
:1018C000BA000895413208F043C09091B4039111D9
:1018D000FCCF91E09093B4032093B2032FEF2093B9
:1018E000470310928C03240F20938B039093B30330
:1018F0009091B303880F892B8093B3038091B10338
:10190000813061F41092B1038091B3038093BB00E6
:101910008091BC0083FDF8CF85EC01C085EE8093FB
:10192000BC008091B4038130E1F380918C03841773
:1019300010F440918C032DE833E0FB01D9018A2F8C
:10194000821B841718F48D918193F9CF842F089509
:1019500080E008950F93413208F04AC09091B4039B
:101960009111FCCF92E09093B4030093B2039FEFE8
:101970009093470310928C0340938B03FB016DE817
:1019800073E0DB019A2F961B941718F491919D93A5
:10199000F9CF1092B3039091B303880F892B8093F2
:1019A000B3038091B103813061F41092B10380914F
:1019B000B3038093BB008091BC0083FDF8CF85EC1E
:1019C00001C085EE8093BC00222321F08091B403F6
:1019D0008230E1F3809147038F3F61F080914703AC
:1019E000803251F080914703803341F483E007C097
:1019F00081E005C080E003C082E001C084E00F9177
:101A00000895613298F42091B403243089F46093EE
:101A10006903FC018BE693E0DC012A2F281B2617C3
:101A200018F421912D93F9CF80E0089581E0089575
:101A300082E008959093AE038093AD030895909350
:101A4000B0038093AF03089585ED8093BC0080912F
:101A5000BC0084FDFCCF1092B403089585EC809304
:101A6000BC001092B40308951F920F920FB60F920C
:101A700011242F933F934F935F936F937F938F9393
:101A80009F93AF93BF93EF93FF938091B900887FAB
:101A9000803609F49EC078F5883209F45DC090F470
:101AA000803109F456C038F4882309F4F5C0883031
:101AB00009F44FC0F5C0883109F44EC0803209F4F2
:101AC0005FC0EEC0803409F46AC058F4803309F472
:101AD00057C0883309F0E4C0809347030E942E0D5D
:101AE000DFC0803509F44FC0883509F45DC0883403
:101AF00009F0D6C0D3C0883909F4C4C0A8F4883727
:101B000009F467C038F4883609F463C0803709F4F3
:101B100060C0C6C0883809F4B5C0803909F45FC018
:101B2000803809F0BDC05BC0803B09F483C038F445
:101B3000803A09F466C0883A09F47CC0B1C0803CA0
:101B400009F4A4C0883C09F4A1C0883B09F487C00B
:101B5000A7C08091B30310C090918C0380918B0338
:101B6000981770F5E0918C0381E08E0F80938C03C1
:101B7000F0E0E357FC4F80818093BB0085EC83C08D
:101B8000809347038BC0E0918C0381E08E0F80939C
:101B90008C038091BB00F0E0E357FC4F8083909171
:101BA0008C0380918B036BC0E0918C0381E08E0FDE
:101BB00080938C038091BB00F0E0E357FC4F80835F
:101BC0008091B20381116AC081E08093B10384EAFD
:101BD0005EC083E08093B40310924803CFCF80911E
:101BE0004803803208F04EC0E091480381E08E0F38
:101BF000809348038091BB00F0E0E75BFC4F80835B
:101C0000BDCF0E942E0D80914803803230F4E091C8
:101C10004803F0E0E75BFC4F10826091480370E0FE
:101C2000E091AD03F091AE0389E493E00995109241
:101C3000480336C084E08093B40310926A03109284
:101C40006903E091AF03F091B003099580916903B6
:101C5000811105C081E08093690310926B03E091CC
:101C60006A0381E08E0F80936A03F0E0E559FC4F30
:101C700080818093BB0090916A03809169039817DB
:101C800008F47CCF85E88093BC000AC085EC809383
:101C9000BC001092B40304C0109247030E94240DAC
:101CA000FF91EF91BF91AF919F918F917F916F9134
:101CB0005F914F913F912F910F900FBE0F901F900A
:101CC00018958627682F62956827062E6695669573
:101CD0006025062E669560256770082E892F66950B
:101CE00007946795902D86270694679590258627FB
:101CF00008950895FC01A489B58912961C92129743
:101D000014961C921E9213978FEF9FEF1A969C9336
:101D10008E931997138A128A108A118A178616864B
:101D200011A210A28CE090E093838283178E168E0E
:101D30000895AF92BF92CF92DF92EF92FF920F93EE
:101D40001F93CF93DF931F92CDB7DEB78C01611540
:101D5000710581F4CE010196D80115969C938E935E
:101D6000149717969C938E93169719969C938E931F
:101D7000189707C0FC01758364836F5F7F4F77837B
:101D80006683D80114962D913C91159716968D91E6
:101D90009C9117972817390709F057C071C26081C5
:101DA00080E090E00E94610EF801938B828B0488A2
:101DB000F589E02D0780F085E02DD8011E968D91E4
:101DC0009C911F979C012F5F3F4F1F963C932E9332
:101DD0001E9714962D913C911597D9012C91E80FDF
:101DE000F91F2083F8012685378584859585281776
:101DF000390709F011C2068CF78DE02DCF0101974C
:101E0000D8015F969C938E935E973A96EE0FFF1FD4
:101E1000E00FF11F8081918113969C938E9312970E
:101E2000D8011296ED91FC911397EF30F10508F46B
:101E300054C2F8018481958101969583848326811B
:101E400037818217930709F41BC2D8011296ED91CE
:101E5000FC9113973197EE30F10508F0EBC1EC5C83
:101E6000FF4F0C94E715D8015496ED91FC915597CE
:101E7000F184E12CF286E18614968D919C91159760
:101E8000DC018C919701280F311DC9013287218710
:101E9000D80152962D913C9153978217930749F49C
:101EA00081E050968C9350971E968D919C911F9730
:101EB00019C081E0F801818B17C0D8011C968D9163
:101EC0009C911D975496ED91FC91559725813681F3
:101ED0002817390718F421E051962C9321E0D801F6
:101EE00050962C9394838383F80184819581019685
:101EF00095838483268137818217930709F49AC1D9
:101F0000D8011496ED91FC91159780818C3721F0C2
:101F1000F80113821282F4C1D80114968D919C911C
:101F20001597019615969C938E93149716962D915E
:101F30003C9117978217930709F47FC1D801149633
:101F4000ED91FC91159780818C3711F7F801848110
:101F50009581019695838483268137818217930723
:101F600009F46EC1D8011496ED91FC91159780810A
:101F70008C3771F650961C92F801848195810196F8
:101F800095838483268137818217930709F460C182
:101F9000D8015496ED91FC915597118210821496B8
:101FA0008D919C911597DC018C9190E091838083B9
:101FB000F8018481958101969583848326813781F8
:101FC0008217930709F447C1D8015496ED91FC910B
:101FD000559714968D919C911597DC018C91B0804A
:101FE000A12C9501282BC90191838083D8011496D7
:101FF0008D919C911597019615969C938E931497AD
:1020000016962D913C9117978217930709F426C1D4
:10201000D8011496ED91FC91159780818436A1F03A
:1020200068F4813609F074CFD8015496ED91FC9193
:102030005597828381E050968C9356CF8E3609F463
:1020400093C0833709F064CFD8015496ED91FC9189
:1020500055978283F80184819581019695838483C5
:10206000268137818217930709F4FBC0D801919626
:102070001C921E9290971D961C921E921C9714966D
:10208000ED91FC911597808190E01D969C938E9325
:102090001C97F8018481958101969583848326811C
:1020A00037818217930709F4DFC0D8011C96DC90B2
:1020B0001C97C12C1D96DC92CE921C971496ED9124
:1020C000FC9115978081F601E80FF11DCF011D9657
:1020D000FC93EE931C975496ED91FC9155972581B6
:1020E00036812817390718F481E051968C93D8016E
:1020F0005E96ED91FC915F97CF0101965F969C9360
:102100008E935E973B96EE0FFF1FE00FF11F88E066
:1021100090E0918380834FC0D80152968D919C911D
:1021200053970E94790EF801938B828B0488F5896E
:10213000E02D12861186D80114968D919C911597E9
:10214000DC018C9190E092878187F80184819581F0
:10215000019695838483268137818217930709F03E
:1021600082CE89E090E089C0D8015496ED91FC912F
:1021700055978283F80184819581019695838483A4
:10218000268137818217930709F471C0D80114960C
:102190008D919C911597019615969C938E9314970B
:1021A00016962D913C9117978217930709F085CECB
:1021B0008BE090E062C0F80184819581019695835F
:1021C0008483268137818217930709F453C0D8018D
:1021D0001F961C921E921E9753961C921E92529707
:1021E0001C968D919C911D971496ED91FC911597DD
:1021F000892B09F0D4CD31971596FC93EE93149763
:1022000065C0D8011496ED91FC91159760815296A6
:102210008D919C915397C6CDF8018481958101964B
:1022200095838483268137818217930751F78EE047
:1022300090E023C08CE090E005C081E090E01DC0FC
:1022400082E090E0D80113969C938E93129718C069
:1022500083E090E012C084E090E0F4CF85E090E06D
:102260000CC086E090E0EECF87E090E006C08AE008
:1022700090E0E8CF8DE090E0E5CFF8019383828392
:10228000D80114968D919C91159718962D913C919B
:10229000199782179307A1F512962D913C911397E8
:1022A0002D30310569F51F961C921E921E9753968C
:1022B0001C921E9252971C962D913C911D97232B98
:1022C000F9F4019715969C938E9314975E96ED9171
:1022D000FC915F97CF01019794CDEE5BFF4F0C947B
:1022E000E715F80184819581019695838483268181
:1022F00037818217930709F00FCF88E090E0A2CFD3
:102300000F90DF91CF911F910F91FF90EF90DF9091
:10231000CF90BF90AF9008951F920F920FB60F927B
:1023200011242F933F938F939F93AF93BF938091EB
:10233000B6039091B703A091B803B091B90330915F
:10234000B50323E0230F2D3720F40196A11DB11D05
:1023500005C026E8230F0296A11DB11D2093B503E9
:102360008093B6039093B703A093B803B093B903D7
:102370008091BA039091BB03A091BC03B091BD03BF
:102380000196A11DB11D8093BA039093BB03A09346
:10239000BC03B093BD03BF91AF919F918F913F91CB
:1023A0002F910F900FBE0F901F9018952FB7F89494
:1023B0006091B6037091B7038091B8039091B9030F
:1023C0002FBF08953FB7F8948091BA039091BB0353
:1023D000A091BC03B091BD0326B5A89B05C02F3FBB
:1023E00019F00196A11DB11D3FBF6627782F892FD7
:1023F0009A2F620F711D811D911D42E0660F771F9C
:10240000881F991F4A95D1F70895CF92DF92EF92D6
:10241000FF92CF93DF936B017C010E94E211EB01ED
:10242000C114D104E104F10489F00E94C4150E9492
:10243000E2116C1B7D0B683E734090F381E0C81A7B
:10244000D108E108F108C851DC4FEACFDF91CF9104
:10245000FF90EF90DF90CF9008958230910538F093
:10246000880F991F880F991F05970197F1F7089515
:10247000789484B5826084BD84B5816084BD85B55F
:10248000826085BD85B5816085BDEEE6F0E0808126
:1024900081608083E1E8F0E0108280818260808347
:1024A000808181608083E0E8F0E0808181608083CA
:1024B000E1EBF0E0808184608083E0EBF0E08081FC
:1024C00081608083EAE7F0E080818460808380819E
:1024D0008260808380818160808380818068808346
:1024E0001092C10008958E3008F08E5087702091B0
:1024F000060190E4299F90011124822B80937C0097
:1025000080917A00806480937A0080917A0086FDC1
:10251000FCCF809178002091790090E0922B089573
:102520001F93CF93DF93182FEB0161E00E941813E4
:10253000209711F460E004C0CF3FD10539F461E089
:10254000812FDF91CF911F910C945113E12FF0E077
:10255000E65EFE4FE491E330F9F048F4E130B9F083
:10256000E230A1F584B5806284BDC8BD34C0E730D7
:10257000E9F0E83019F1E43049F58091800080629B
:1025800080938000D0938B00C0938A0024C084B5D0
:10259000806884BDC7BD1FC0809180008068809323
:1025A0008000D0938900C093880015C08091B0004E
:1025B00080688093B000C093B3000DC08091B000DC
:1025C00080628093B000C093B40005C0C038D105CC
:1025D0000CF0B5CFAFCFDF91CF911F91089583302D
:1025E00081F028F4813099F08230A1F0089587308D
:1025F000A9F08830B9F08430D1F4809180008F7DCB
:1026000003C0809180008F7780938000089584B507
:102610008F7702C084B58F7D84BD08958091B0000E
:102620008F7703C08091B0008F7D8093B0000895B4
:10263000CF93DF9390E0FC01E25DFE4F2491FC011B
:10264000EE5BFE4F8491882349F190E0880F991F3B
:10265000FC01E659FE4FA591B491805A9E4FFC01B2
:10266000C591D4919FB7611108C0F8948C912095C1
:1026700082238C93888182230AC0623051F4F894BB
:102680008C91322F309583238C938881822B888381
:1026900004C0F8948C91822B8C939FBFDF91CF91D3
:1026A00008950F931F93CF93DF931F92CDB7DEB79B
:1026B000282F30E0F901E65EFE4F8491F901E25DDA
:1026C000FE4F1491F901EE5BFE4F04910023C9F017
:1026D000882321F069830E94EF126981E02FF0E0E6
:1026E000EE0FFF1FE05AFE4FA591B4919FB7F894EB
:1026F0008C91611103C01095812301C0812B8C93B3
:102700009FBF0F90DF91CF911F910F910895CF93AD
:10271000DF93282F30E0F901E65EFE4F8491F90146
:10272000E25DFE4FD491F901EE5BFE4FC491CC23E4
:1027300091F081110E94EF12EC2FF0E0EE0FFF1FDD
:10274000EA5AFE4FA591B4912C912D2381E090E09F
:1027500021F480E002C080E090E0DF91CF91089505
:102760000E94ED15FC01818D228D90E0805C9F4FD1
:10277000821B91098F7399270895FC01918D828D99
:10278000981731F0828DE80FF11D858D90E0089546
:102790008FEF9FEF0895FC01918D828D981761F066
:1027A000828DDF01A80FB11D5D968C91928D9F5F88
:1027B0009F73928F90E008958FEF9FEF08958FE4BD
:1027C00095E1892B49F085E893E0892B29F00E9457
:1027D0004F1581110C9485030895FC01848DDF0150
:1027E000A80FB11DA35ABF4F2C91848D90E0019684
:1027F0008F739927848FA689B7892C93A089B18973
:102800008C9180648C93938D848D981306C002887C
:10281000F389E02D80818F7D80830895CF93DF93AE
:10282000EC01888D8823C9F0EA89FB89808185FDC8
:1028300005C0A889B9898C9186FD0FC00FB607FC29
:10284000F5CF808185FFF2CFA889B9898C9185FF6A
:10285000EDCFCE010E94ED13E7CFDF91CF91089528
:10286000CF92DF92FF920F931F93CF93DF931F922C
:10287000CDB7DEB76C0181E0D60158968C9358979E
:102880005B969C915B975C968C915C97981307C0C4
:102890005096ED91FC915197808185FD2EC0F601F7
:1028A000038D10E00F5F1F4F0F731127F02EF601FD
:1028B000848DF81211C00FB607FCF9CFD6015096DF
:1028C000ED91FC915197808185FFF1CFC60169831D
:1028D0000E94ED136981EBCF838DE80FF11DE35A60
:1028E000FF4F6083D6015B960C935B975296ED91F8
:1028F000FC915397808180620CC0D6015696ED9171
:10290000FC91579760835096ED91FC91519780818F
:102910008064808381E090E00F90DF91CF911F91E0
:102920000F91FF90DF90CF900895BF92CF92DF92EA
:10293000EF92FF92CF93DF93EC016A017B01B22EFD
:10294000E889F98982E08083411581EE58076105A5
:102950007105A1F060E079E08DE390E0A7019601B8
:102960000E94C515215031094109510956954795D5
:1029700037952795211580E1380798F0E889F9897E
:10298000108260E874E88EE190E0A70196010E9451
:10299000C51521503109410951095695479537957B
:1029A0002795EC85FD853083EE85FF852083188E85
:1029B000EC89FD89B082EA89FB898081806180830E
:1029C000EA89FB89808188608083EA89FB8980812C
:1029D00080688083EA89FB8980818F7D8083DF9195
:1029E000CF91FF90EF90DF90CF90BF9008951F920E
:1029F0000F920FB60F9211242F938F939F93EF9303
:102A0000FF93E091CE03F091CF038081E091D40356
:102A1000F091D50382FD12C090818091D7038F5F22
:102A20008F732091D803821751F0E091D703F0E023
:102A3000E254FC4F958F8093D70301C08081FF91B2
:102A4000EF919F918F912F910F900FBE0F901F903C
:102A500018951F920F920FB60F9211242F933F9348
:102A60004F935F936F937F938F939F93AF93BF9396
:102A7000EF93FF938EEB93E00E94ED13FF91EF91A4
:102A8000BF91AF919F918F917F916F915F914F9186
:102A90003F912F910F900FBE0F901F9018958EEBC6
:102AA00093E00E94B21321E0892B09F420E0822FE9
:102AB00008951092C1031092C00388EE93E0A0E045
:102AC000B0E08093C2039093C303A093C403B09378
:102AD000C50387E591E09093BF038093BE0385EC27
:102AE00090E09093CB038093CA0384EC90E09093A2
:102AF000CD038093CC0380EC90E09093CF03809340
:102B0000CE0381EC90E09093D1038093D00382ECCC
:102B100090E09093D3038093D20386EC90E090935F
:102B2000D5038093D4031092D7031092D803109248
:102B3000D9031092DA030895CF92DF92EF92FF92B9
:102B40000F931F93CF93DF937C016A01EB0100E0A9
:102B500010E00C151D0571F06991D701ED91FC9104
:102B60000190F081E02DC7010995892B19F00F5FC5
:102B70001F4FEFCFC801DF91CF911F910F91FF90B1
:102B8000EF90DF90CF9008950895A1E21A2EAA1B2E
:102B9000BB1BFD010DC0AA1FBB1FEE1FFF1FA2170D
:102BA000B307E407F50720F0A21BB30BE40BF50B0A
:102BB000661F771F881F991F1A9469F76095709593
:102BC000809590959B01AC01BD01CF010895EE0F5A
:102BD000FF1F0590F491E02D099481E090E0F894B6
:102BE0000C943416FB01DC0105900D920020E1F7F6
:102BF0000895FC0105900020E9F7809590958E0FCF
:102C00009F1F0895DC01CB01FC01F999FECF06C09E
:102C1000F2BDE1BDF89A319600B40D92415050409A
:102C2000B8F70895DC01A40FB51F4150504048F09B
:102C3000CB01840F951F2E910E94231641505040C6
:102C4000D0F70895262FF999FECF92BD81BDF89A4D
:102C5000019700B4021639F01FBA20BD0FB6F894E0
:0C2C6000FA9AF99A0FBE0895F894FFCF7D
:102C6C0000005F0480000100000000B013000000B1
:102C7C0000B01300000000B013000000001801B0F9
:102C8C0013000000001801910A000000001D0198BB
:102C9C000300000000E700FEFF00000701FCFF003E
:102CAC00000A0100000000440B170BBD0AC50AD82E
:102CBC000AE70A0000000030149C15B213CB13BDB8
:042CCC00130E1400CF
:00000001FF
