:100000000C94A2010C94D3010C94D3010C94D30151
:100010000C94D3010C94D3010C94D3010C94D30110
:100020000C94D3010C94D3010C94D3010C94D30100
:100030000C94D3010C94D3010C94D3010C94D301F0
:100040000C94D3010C94D3010C94D3010C94D301E0
:100050000C94A2080C94D3010C94D3010C94C82CDA
:100060000C94D3010C94F0300C9426310C94D301F1
:100070000C94D3010C9477080C94D3010C94D30105
:100080000C94D3010C94D3010C94D3010C94E4038D
:100090000C94D3010C94D3010C94D3010C94CB0990
:1000A0000C94D3010C94D3010C94D3010C94D30180
:1000B0000C94D3010C94D3010C94D3010C94D30170
:1000C0000C94D3010C94D3010C94D3010C94D30160
:1000D0000C94D3010C94D3010C94D3010C94D30150
:1000E0000C94D301B610C4103C114C11BF1157171A
:1000F0005717EB11FB111A1263125717571781127A
:10010000A612C112EB1239137313C913D9131714A2
:1001100032144116771685164D165916A216BD16BD
:10012000571757175717571757175717571757175F
:10013000571757175717571757175717571757174F
:10014000571757175717571757175717571757173F
:10015000571757175717571757175717571757172F
:10016000571757175717571757175717571757171F
:10017000571757175717571757175717571757170F
:100180005717571757175717571757175F1423162F
:10019000C614911DB91DD61DF31D361E181E541E02
:1001A0007D1EB31E981EEF1ECB1ECB1FA61FEA1F7F
:1001B000892025201621DC20AE1D6A218C21A72153
:1001C000C821721ED721EC21082215224222512279
:1001D000F02DF52DFA2D042E0E2E872E182E202E02
:1001E000282E322E3C2E462E552E5F2E872E692E1F
:1001F000732E7D2EA92EAC2E9B2E9F2EA52EE32E88
:10020000B02EB42EBA2EBE2EC22EC82ECC2ED02E7C
:10021000E32ED62EDA2EDE2E00000A0B02090C0D7C
:100220000E080703040100000000000000000000A9
:1002300000000000000000000000000000000000BE
:10024000000000001211100000000000000000007B
:10025000000000000000000000000000000001029B
:1002600010202008081020401020408002010201C8
:100270000804020101020408102040808040201080
:1002800008040201800402018040201008040201D9
:100290000804020101020408102040800102040841
:1002A000102040800505050507050808080802021A
:1002B00002020A0A08080404040401010101010100
:1002C00001010303030303030303040707070C0CE3
:1002D0000C0C0C0C0C0C02020202060606060606AA
:1002E00006060B0B0B0B0B0B0B0B00002000230067
:1002F000260029002C002F0032000001000003011D
:100300000601090100002200250028002B002E0014
:100310003100340002010000050108010B0100005A
:100320002100240027002A002D00300033000101A5
:100330000000040107010A010A02E003AC08D42707
:100340005A310E0211241FBECFEFD1E2DEBFCDBF66
:1003500000E00CBF14E0A0E0B2E0E4E9F5E700E063
:100360000BBF02C007900D92A63BB107D9F72FE053
:10037000A6EBB4E001C01D92A334B207E1F713E08D
:10038000C2E4D3E000E006C022970109FE010BBFE2
:100390000E944938C833D10780E00807A9F70E94B6
:1003A000A7020C94B83A0C94000080910602909138
:1003B000070201969093070280930602089508951C
:1003C00086EB94E00E94C922809106029091070278
:1003D00069E170E00E94EF37892BD9F48091080D14
:1003E000882389F08091090D81110BC0E091B6043A
:1003F000F091B7040688F789E02D86EB94E0199513
:1004000002C01092090D81E090E090930702809362
:100410000602089586EB94E00C94250B86EB94E09D
:100420000C94360B80E1809391001092900085E04F
:100430008093CC0D86E998E99093CE0D8093CD0DF5
:10044000909397008093960085E18093910085EDCD
:1004500091E09093CB0D8093CA0D81E08093710061
:1004600086EB94E00E947F1768E072E082EA9EE0EB
:100470000E94E9316FEF71E2605072404AE050E053
:1004800082EA9EE00E94B3326DE072E082EA9EE072
:100490000E94E93166EB74E0605072404AE050E03F
:1004A00082EA9EE00E94B33264E172E082EA9EE05A
:1004B0000E94E93163E47FE0665B74404AE050E00B
:1004C00082EA9EE00E94B3326AE172E082EA9EE034
:1004D0000E94E93160913F0F7091400F61157105E5
:1004E00019F063547F4002C060E070E04AE050E0E1
:1004F00082EA9EE00E94B33260E272E082EA9EE00D
:100500000E94E9318DB79EB76FEF71E2681B790BDE
:100510004AE050E082EA9EE00E94B33267E272E075
:1005200082EA9EE00E94E93180913F0F9091400F56
:100530006DB77EB7009719F463547F4002C0681B03
:10054000790B4AE050E082EA9EE00C94B3320E94BC
:10055000682D0E94DF010E941202C9EADFE20E94B8
:10056000E0012097E1F30E94A92FF9CF8091A80D17
:1005700090E02091A90D821B910908952091A90D69
:100580008091A80D281750F4E22FF0E0E655F24FC5
:10059000808190E02F5F2093A90D08958FEF9FEF4A
:1005A0000895E091A90D8091A80DE81730F4F0E0CE
:1005B000E655F24F808190E008958FEF9FEF089508
:1005C0000895CF92DF92EF92FF920F931F93CF93F4
:1005D000DF937C01CB018A012091840D222389F0D5
:1005E000EB016B01C40ED51ECC15DD0569F06991D8
:1005F000D701ED91FC910190F081E02DC701199593
:10060000F3CF642F0E94A209C801DF91CF911F91FF
:100610000F91FF90EF90DF90CF900895CF93DF93ED
:100620001F92CDB7DEB769832091840D2223D1F0CC
:100630002091850D203240F021E030E0FC01338331
:10064000228380E090E015C08091860DE82FF0E0D5
:10065000E957F24F998190838F5F8093860D809345
:10066000850D05C061E0CE0101960E94A20981E0DE
:1006700090E00F90DF91CF910895FC0113821282D8
:1006800048EE53E060E070E04483558366837783EF
:1006900088E392E09183808308951092A90D1092CF
:1006A000A80D1092860D1092850D0C94E50881E03E
:1006B0008093840D6093A70D1092860D1092850D86
:1006C00008950C9457030F93062F21E04091850D58
:1006D00067E87DE08091A70D0E944B091092860D7E
:1006E0001092850D1092840D0F9108958F929F9214
:1006F000AF92BF92CF92DF92EF92FF920F931F9330
:10070000CF93DF93EC01F62ED42E48015901EE2051
:1007100019F10E9457031E2D143008F013E01150F8
:10072000B8F0E881F98128E0129FB0011124A501F9
:10073000940104C056954795379527956A95D2F749
:10074000CA01B9010190F081E02DCE011995E7CFE2
:1007500060E0CE010E9463034D2D413208F040E27B
:100760002C2D6AEA7DE08F2D0E9403091092A90DBD
:100770008093A80DDF91CF911F910F91FF90EF9083
:10078000DF90CF90BF90AF909F908F900895CF92C1
:10079000EF920F931F93C22EE12C00E010E098011E
:1007A0000E9476031F910F91EF90CF90089521E062
:1007B0000C94C70321E00C94C70361E00C9463031D
:1007C00088E79DE00C943D031F920F920FB60F92A5
:1007D00011240BB60F922F933F934F935F936F9318
:1007E0007F938F939F93AF93BF93EF93FF93E0918A
:1007F000CA0DF091CB0D1995FF91EF91BF91AF917B
:100800009F918F917F916F915F914F913F912F9128
:100810000F900BBE0F900FBE0F901F901895FF9278
:100820000F931F93CF93DF93FC010081C181D2818D
:10083000F8948981F02EF0948F21898378941DE7B4
:10084000115029F182E090E00E945D2D8881802383
:10085000B9F3F8948A818F218A838981802B8983D7
:10086000789480EE91E00E945D2DF89489818F212B
:10087000898386E490E00E945D2D8881802311E0C9
:1008800009F010E078948AE991E00E945D2D812FB3
:10089000DF91CF911F910F91FF9008951F93CF93F8
:1008A000DF93FC011081C181D281912F909560FF6F
:1008B00012C0F8948A8189238A838981812B898354
:1008C0008AE090E00E945D2D8A81812B8A83789452
:1008D00087E390E011C0F8948A8189238A83898113
:1008E000812B898381E490E00E945D2D8A81812B98
:1008F0008A83789485E090E0DF91CF911F910C94EA
:100900005D2D0F931F93CF93DF93FC011081C18165
:10091000D281F8948981812B89838A81012F009566
:1009200080238A8383E090E00E945D2D898180236B
:1009300089838AE090E00E945D2DC881789485E3E8
:1009400090E00E945D2D1C2381E009F480E0DF919E
:10095000CF911F910F910895CF92DF92EF92FF9266
:100960000F931F93CF93DF931F92CDB7DEB76C0128
:10097000E62E08E010E0FF24F39461E09F2D9E2115
:1009800009F460E0C60149830E944E04FF0C015047
:10099000110949810115110581F7411115C0F8941C
:1009A000D6011196ED91FC91129791818C918095D1
:1009B000892381831196ED91FC91129792818C91FC
:1009C00080958923828378940F90DF91CF911F9136
:1009D0000F91FF90EF90DF90CF900895EF92FF92EC
:1009E0000F931F93CF93DF938C01C8E0D0E0F12CDD
:1009F000EE24E394C8010E9481048111FE28EE0CCC
:100A00002197C1F78F2DDF91CF911F910F91FF900B
:100A1000EF900895CF92DF92FF920F931F93CF93A1
:100A2000DF931F92CDB7DEB78C01F62E40E065E56F
:100A300079830E94AC04CF2C7981D72E88E0F82EE0
:100A4000F60161916F0140E0C8010E94AC04FA9484
:100A5000B9F70F90DF91CF911F910F91FF90DF9029
:100A6000CF900895FC0113861586148627E030E0A8
:100A7000DF01A20FB31F13961C922115310519F047
:100A800021503109F5CF08951F93CF93DF93EC01E7
:100A9000162F60E0812F0E94E42E612F70E0FB0191
:100AA000E25AFD4FE491E883FB01EC55FD4FE491E0
:100AB000F0E0EE0FFF1FE651FD4F859194919A8370
:100AC0008983CE01DF91CF911F910C943205AF92B3
:100AD000BF92CF92DF92EF92FF920F931F93CF932B
:100AE000DF931F92CDB7DEB75C01D62EE72EFC0157
:100AF0008585811164C0C50149830E940F04498125
:100B0000811105C0F50113861586148671C0442332
:100B100019F040E060EF02C040E06CEEC5010E94B9
:100B2000AC0401E0F12CC12C11E0C5010E9481044C
:100B3000682FC50169830E9481046981613019F4BD
:100B40008130B9F433C02F2D30E068131BC0F5019C
:100B50008385181730F4E20FF31F8381802349F453
:100B600002C0181731F060E0193058F4F50114870D
:100B700008C0F501EF0DF11D8381802B838361E0B7
:100B800009C0C12EF501E20FF31F8381902F9095CC
:100B900089238383C5010E944E041F5F000F11F457
:100BA000F39401E0F7E0FF1508F0BFCF113438F0FF
:100BB000F501C386C11009C081E0858706C0F50133
:100BC00013861586148680E013C0F501838188237F
:100BD000B1F3ED2DFE2D80E090E0D501A80FB91FF7
:100BE00013962C912193019688309105B1F781E0FD
:100BF0000F90DF91CF911F910F91FF90EF90DF90B9
:100C0000CF90BF90AF900895ECE7F0E090819F7394
:100C10009083208130E4839FC0011124282B2083FE
:100C20000895EAE7F0E09081987F90839081982B77
:100C30009083089580917A00877090E00895E1E8AC
:100C4000F0E08081887F808308950E941F061092C3
:100C5000850010928400E1E8F0E080819091CF0D52
:100C6000892B80830895882321F080917C00806205
:100C700003C080917C008F7D80937C000895EBE71A
:100C8000F0E09081987F90839081982B90830895D5
:100C9000CF92DF92EF92FF92CF936B017C0180E1C4
:100CA0008093810010928000A701960160E074E2B9
:100CB00084E799E40E94B03520E030E040E051E460
:100CC0000E943F370E941D366115710521E08207A1
:100CD000910528F421E02093CF0DCB014CC0611584
:100CE000710528E08207910568F422E02093CF0D7A
:100CF000DC01CB0153E0B695A795979587955A955A
:100D0000D1F739C06115710520E48207910568F4B7
:100D100023E02093CF0DDC01CB0146E0B695A795EB
:100D2000979587954A95D1F726C06115710581057C
:100D300021E0920740F424E02093CF0DBB27A92F98
:100D4000982F872F18C061157105810524E092073F
:100D500068F425E02093CF0DDC01CB012AE0B695A5
:100D6000A795979587952A95D1F705C085E080933B
:100D7000CF0D8FEF9FEF9093870080938600C1E0A7
:100D8000C0936F0086E00E943F06C093E50D8091FE
:100D90007A00806280937A00C092D80DD092D90DEB
:100DA000E092DA0DF092DB0DCF91FF90EF90DF90A3
:100DB000CF9008958093E50D882321F080917A00EB
:100DC000806203C080917A008F7D80937A000895BD
:100DD000EAE7F0E08081806480830895CF93DF9319
:100DE000D0917800C09179004091E80D5091E90DC3
:100DF0002091E60D3091E70D42175307A8F5809139
:100E0000E50D811102C00E94E8068D2F90E09C2B19
:100E100020917C0025FF13C0E091EC0DF091ED0DC9
:100E20002091E80D3091E90DA9014F5F5F4F50937C
:100E3000E90D4093E80DE20FF31F908315C0E09198
:100E4000EA0DF091EB0D2091E80D3091E90DA9012B
:100E50004F5F5F4F5093E90D4093E80D220F331F12
:100E6000E20FF31F91838083DF91CF910895109259
:100E7000E90D1092E80D8091E50D0E94DA060E94BE
:100E8000122D6093D00D7093D10D8093D20D90935D
:100E9000D30D80917A00886C80937A0080917B00DA
:100EA0008770863011F40C94250608958F929F92D6
:100EB000AF92BF92CF92DF92EF92FF920E94122DDB
:100EC0004B015C0180917A00877D80937A0080914C
:100ED0007B008770863011F40E941F066091E60D3A
:100EE0007091E70D80E090E00E94493620E034E206
:100EF00044E759E40E943F376B017C018091D00D9B
:100F00009091D10DA091D20DB091D30DA501940176
:100F1000281B390B4A0B5B0BCA01B9010E944936E9
:100F20009B01AC01C701B6010E94B0356093D40D9E
:100F30007093D50D8093D60D9093D70DFF90EF90C1
:100F4000DF90CF90BF90AF909F908F900895809347
:100F5000E20D90917C00907F90937C0020917C002A
:100F6000982F9770922B90937C00883020F080917E
:100F70007B00886003C080917B00877F80937B002B
:100F8000089591E09093E10D1092E40D1092E30D1D
:100F90001092E00D2EEE36E03093DF0D2093DE0D43
:100FA0000C94A7078091E00D8F5F8093E00D9091E6
:100FB000E10D891302C01092E00D8091E00DE091E7
:100FC000E30DF091E40DE80FF11D80810E94A70769
:100FD0000C94EE061F93CF93DF93C091E00D909198
:100FE000E10D9230A0F081E08C0F891719F0809309
:100FF000E00D02C01092E00D8091E00DE091E30D54
:10100000F091E40DE80FF11D80810E94A707109177
:101010007800D09179004091E80D5091E90D209130
:10102000E60D3091E70D42175307F0F48091E50D7E
:10103000811102C00E94E806612F70E07D2B809133
:101040007C0085FF02C0672F7727E091DC0DF091CF
:10105000DD0D8C2F19958091E80D9091E90D019689
:101060009093E90D8093E80DDF91CF911F91089542
:10107000CF93DF93D0917C00C0917B0080917C0066
:10108000807E80937C0080917C008E6180937C00C8
:1010900080917B00877F80937B0063E070E080E03D
:1010A00090E00E94352D80917A00806480937A00D0
:1010B00080917A0086FDFCCF609178008091790064
:1010C000D0937C00C0937B0070E0782B882777FD5D
:1010D0008095982F0E944B369B01AC0160E070E830
:1010E00089E894E40E94B035DF91CF9108951F9272
:1010F0000F920FB60F9211240BB60F922F933F93BE
:101100004F935F936F937F938F939F93AF93BF930F
:10111000EF93FF93E091DE0DF091DF0D1995FF91B4
:10112000EF91BF91AF919F918F917F916F915F915F
:101130004F913F912F910F900BBE0F900FBE0F90CC
:101140001F9018951F920F920FB60F9211240F90B7
:101150000FBE0F901F90189581E00C940406CF935A
:10116000CFB7F8948091EE0D811127C0E9EDF2E040
:101170008491E3E9F2E09491E82FF0E0EE0FFF1F95
:10118000E25EFC4FA591B4918C91892321F461E03A
:1011900085E30E941D2F61E085E30E94E42E8CB55B
:1011A00080618CBD8CB580648CBD61E084E30E945D
:1011B000E42E61E083E30E94E42E8091EE0D8F5FC8
:1011C0008093EE0DCFBFCF91089510925C0E81E019
:1011D00080935A0E1092590E61E084E10E941D2FF7
:1011E00061E085E10E941D2FE9EBF0E080818E7FB8
:1011F000808380818D7F808388E48093B80085E43C
:101200008093BC000895413208F043C090915C0E79
:101210009111FCCF91E090935C0E20935A0E2FEF2A
:101220002093EF0D1092340E240F2093330E9093E1
:101230005B0E90915B0E880F892B80935B0E8091E3
:10124000590E813061F41092590E80915B0E80939B
:10125000BB008091BC0083FDF8CF85EC01C085EE1A
:101260008093BC0080915C0E8130E1F38091340E5C
:10127000841710F44091340E25E33EE0FB01D901C0
:101280008A2F821B841718F48D918193F9CF842FB4
:10129000089580E008950F93413208F04AC090917C
:1012A0005C0E9111FCCF92E090935C0E00935A0E6D
:1012B0009FEF9093EF0D1092340E4093330EFB018D
:1012C00065E37EE0DB019A2F961B941718F4919149
:1012D0009D93F9CF10925B0E90915B0E880F892B36
:1012E00080935B0E8091590E813061F41092590EFB
:1012F00080915B0E8093BB008091BC0083FDF8CF92
:1013000085EC01C085EE8093BC00222321F0809102
:101310005C0E8230E1F38091EF0D8F3F61F08091A0
:10132000EF0D803251F08091EF0D803341F483E076
:1013300007C081E005C080E003C082E001C084E016
:101340000F910895613298F420915C0E243089F455
:101350006093110EFC0183E19EE0DC012A2F281B23
:10136000261718F421912D93F9CF80E0089581E09C
:10137000089582E0089585ED8093BC008091BC00C3
:1013800084FDFCCF10925C0E089585EC8093BC0028
:1013900010925C0E08951F920F920FB60F921124B7
:1013A0000BB60F922F933F934F935F936F937F935F
:1013B0008F939F93AF93BF93EF93FF938091B90067
:1013C000887F803609F49EC078F5883209F45DC0C4
:1013D00090F4803109F456C038F4882309F4F5C03C
:1013E000883009F44FC0F5C0883109F44EC080320E
:1013F00009F45FC0EEC0803409F46AC058F4803349
:1014000009F457C0883309F0E4C08093EF0D0E94BF
:10141000C509DFC0803509F44FC0883509F45DC0C7
:10142000883409F0D6C0D3C0883909F4C4C0A8F400
:10143000883709F467C038F4883609F463C0803708
:1014400009F460C0C6C0883809F4B5C0803909F411
:101450005FC0803809F0BDC05BC0803B09F483C029
:1014600038F4803A09F466C0883A09F47CC0B1C007
:10147000803C09F4A4C0883C09F4A1C0883B09F46D
:1014800087C0A7C080915B0E10C09091340E8091F0
:10149000330E981770F5E091340E81E08E0F809333
:1014A000340EF0E0EB5CF14F80818093BB0085EC63
:1014B00083C08093EF0D8BC0E091340E81E08E0FDE
:1014C0008093340E8091BB00F0E0EB5CF14F8083A1
:1014D0009091340E8091330E6BC0E091340E81E018
:1014E0008E0F8093340E8091BB00F0E0EB5CF14FE7
:1014F000808380915A0E81116AC081E08093590ED9
:1015000084EA5EC083E080935C0E1092F00DCFCF32
:101510008091F00D803208F04EC0E091F00D81E036
:101520008E0F8093F00D8091BB00F0E0EF50F24FF2
:101530008083BDCF0E94C5098091F00D803230F4C8
:10154000E091F00DF0E0EF50F24F10826091F00D5D
:1015500070E0E091550EF091560E81EF9DE01995E7
:101560001092F00D36C084E080935C0E1092120E43
:101570001092110EE091570EF091580E199580912E
:10158000110E811105C081E08093110E1092130E8F
:10159000E091120E81E08E0F8093120EF0E0ED5E6E
:1015A000F14F80818093BB009091120E8091110EBB
:1015B000981708F47CCF85E88093BC000AC085ECBE
:1015C0008093BC0010925C0E04C01092EF0D0E943C
:1015D000BB09FF91EF91BF91AF919F918F917F9147
:1015E0006F915F914F913F912F910F900BBE0F9094
:1015F0000FBE0F901F9018958DE294E0089589E238
:1016000094E0089582E194E0089588EF93E00895CE
:1016100082EF93E008958FEB93E0089584E492E0E5
:101620000895CF93DF93EC0161E082E00E941D2FCB
:10163000CC5AD74F1882DF91CF910895DC01ED91FC
:10164000FC910190F081E02D1994CF93DF93EC0190
:1016500061E00E94311A87EA93E099838883CE5A29
:10166000D74F18821982DF91CF91089527EA33E08E
:10167000FC01318320830C94A11AAF92BF92CF92C8
:10168000DF92EF92FF920F931F93CF93DF931F92FE
:101690001F92CDB7DEB78C01D12C7C018BEBE81A01
:1016A00087EFF80A5801E5E9AE1AE7EFBE0A2D2DDB
:1016B00030E0F801EB5AF74F8081918168E270E0E9
:1016C0000E94EF3726173707E0F588E0C82EC98259
:1016D000F7012081318180E090E040E0B801620FA5
:1016E000731FE42FF0E0DB01A80FB91FA259BF4F11
:1016F00041E050E0AC91AA2311F040E050E0082E08
:1017000002C0440F551F0A94E2F74E0F5F1F019667
:101710008830910531F74A83285F3F4FF7013183C5
:101720002083F50160816D0D22E0AE014F5F5F4FB8
:10173000C8010E949B22C394FDE0CF12C8CFD3946E
:10174000B6CF0F900F90DF91CF911F910F91FF9027
:10175000EF90DF90CF90BF90AF9008958F929F92BF
:10176000AF92BF92CF92DF92EF92FF920F931F93AF
:10177000CF93DF9300D0CDB7DEB78C01912C7C01E5
:101780008BEAE81A87EFF80A98E2C92ED12C5801A3
:10179000E5E9AE1AE7EFBE0A88248A94292D30E0E5
:1017A000F70180819181B6010E94EF372617370734
:1017B000A0F438E039838A82F5016081690D22E066
:1017C000AE014F5F5F4FC8013B830E949B223B816C
:1017D0003F5F3D3079F79394E1CF0F900F900F90DA
:1017E000DF91CF911F910F91FF90EF90DF90CF90FD
:1017F000BF90AF909F908F900895EF92FF920F93BC
:101800001F93CF93DF938C017C018BE9E81A87EF5C
:10181000F80AC4E6D0E0F70141917F01BE01C8019A
:101820000E942C1A2196C13CD105A9F760E0C8019D
:10183000DF91CF911F910F91FF90EF900C94200CAE
:101840008F929F92AF92BF92CF92DF92EF92FF92D0
:101850000F931F93CF93DF93EC01B62E7C012BE9FE
:10186000E21A27EFF20A04E610E06701E881F98145
:101870000088F189E02DB801CE011995F701819317
:101880007F010F5F1F4F013C110581F7F601808139
:1018900091819E012959374F79018E010759174FC0
:1018A000892BE9F4F90180819181892BC1F4F80138
:1018B00080819181892B99F4399780819181A281CE
:1018C000B381E35BFF4F80839183A283B38381E085
:1018D00090E0F80191838083CE010E94FD0BF60118
:1018E00080819181892BB9F4F70180819181892BC5
:1018F00091F4F80180819181019769F480E2FE0101
:10190000E559F74F808382E090E0F801918380836E
:10191000CE010E94FD0BF60180819181892BE9F4B3
:10192000F70180819181892BC1F4F8018081918137
:10193000029799F480E090E0A0EAB0E4FE01EF5451
:10194000F74F80839183A283B38383E090E0F80113
:1019500091838083CE010E94FD0BF60180819181ED
:10196000892BB1F4F70180819181892B89F4F801E9
:1019700080819181039761F4FE01EB54F74F10824F
:1019800084E090E0F80191838083CE010E94FD0BFA
:10199000F60180819181892B79F5F7018081918110
:1019A000892B51F5F80180819181049729F580E018
:1019B00090E0A8ECB2E4FE01EA54F74F80839183F3
:1019C000A283B38380E090E4ACE9B6E434968083EC
:1019D0009183A283B38380E090E0A8E4B3E43496DB
:1019E00080839183A283B38385E090E0F8019183A3
:1019F0008083CE010E94FD0BF60180819181892BAD
:101A000069F4F70180819181892B41F4F80180818B
:101A10009181059719F4BB2009F4B2C0F601118237
:101A20001082F7011182108285E090E0F801918325
:101A3000808300E010E42CE936E4FE01E359F74F1F
:101A4000008311832283338380E090E5A3E4B8E42C
:101A5000349680839183A283B38340E054E264EFA1
:101A600079E4349640835183628373830F2EC12CB3
:101A7000D12CF8E4EF2EF3E4FF2EF02D7096C08207
:101A8000D182E282F3820F2E812C912CFAEFAF2EBD
:101A9000F4E4BF2EF02D349680829182A282B3822C
:101AA0003496008311832283338334968083918319
:101AB000A283B383349640835183628373834FEF51
:101AC00056EE6BE57EE274974083518362837383A5
:101AD000B89640835183628373838AE0FD97808345
:101AE0003D961082118212821382349610821182E6
:101AF000128213827C96408351836283738334966F
:101B0000408351836283738334964083518362831D
:101B1000738334964083518362837383E554F10960
:101B200080819181A281B381E35BFF4F80839183A8
:101B3000A283B38380E2E254F109808380E090E0E5
:101B4000A0EAB0E4EA5BFF4F80839183A283B38372
:101B50003496108280E090E0A8ECB2E43196808365
:101B60009183A283B38334960083118322833383CA
:101B70003496C082D182E282F382CE010E94FD0BB4
:101B8000FE01E355F74FC080D180E280F38020E072
:101B900030E0A901C701B6010E94AC35FE01EC5945
:101BA000F74F18161CF081E0808309C0DE01A05AAF
:101BB000B74FCD92DD92ED92FC9213971082FE0109
:101BC000EB54F74F8081882311F042E001C041E0DF
:101BD00060E0CE01DF91CF911F910F91FF90EF90C8
:101BE000DF90CF90BF90AF909F908F900C94582330
:101BF0005F926F927F928F929F92AF92BF92CF929D
:101C0000DF92EF92FF920F931F93CF93DF931F9278
:101C10001F92CDB7DEB76C01CB01542E68E270E0A5
:101C20000E94EF377B014C015C0183E0B694A794DE
:101C30008A95E1F73B01772486010559174FF80192
:101C40008081B301680F711D88E79DE00E946103E8
:101C5000B501685F7F4F88E79DE00E941E0B88E713
:101C60009DE00E94DD03F8018081B301680F711DC2
:101C700041E050E088E79DE00E94DA0388E79DE0BC
:101C80000E94B602892B41F1F82DF7708F2E88E063
:101C90008A0D898388E79DE00E94BE0241E050E002
:101CA00060E070E004C0440F551F661F771F8A94E0
:101CB000D2F7511002C0482B02C0409548234A83F6
:101CC000F80160816E0D22E0AE014F5F5F4FC601EB
:101CD0000E949B2280E001C081E00F900F90DF9175
:101CE000CF911F910F91FF90EF90DF90CF90BF9019
:101CF000AF909F908F907F906F905F9008959F928C
:101D0000AF92BF92CF92DF92EF92FF920F931F9309
:101D1000CF93DF9300D000D0CDB7DEB78C016A013E
:101D20007B01922E1E82FC01E254F74F208131810B
:101D300042815381C701B6010E94AC3518160CF4DC
:101D400044C0F801E05AF74F20813181428153812C
:101D5000C701B6010E94B03528EA29836A837B83D4
:101D60008C839D83580184E9A81A87EFB80A25E07F
:101D7000AE014F5F5F4FF5016081C8010E949B2259
:101D8000992029F164E670E080E090E00E94352D12
:101D900041E0F501608188E79DE00E94D70388E774
:101DA0009DE00E94B602892B91F088E79DE00E9499
:101DB000BE02813061F421E0AE014A5F5F4FF50160
:101DC0006081C8010E94401D02C088E08E838E8120
:101DD000811107C0F801E85AF74FC082D182E28230
:101DE000F38226960FB6F894DEBF0FBECDBFDF910B
:101DF000CF911F910F91FF90EF90DF90CF90BF9008
:101E0000AF909F900895FC01E05AF74F40835183B3
:101E1000628373833897408151816281738120E0AE
:101E20000C947F0EAF92BF92CF92DF92EF92FF920F
:101E30000F931F93CF93DF9300D000D0CDB7DEB7C1
:101E40008C016A017B01FC01EA54F74F24EA30E778
:101E50004DE75FE360817181828193810E943F370A
:101E60009B01AC01C701B6010E943B3787FD4CC006
:101E70002EEA37E441E85FE3F801E654F74F60816A
:101E80007181828193810E943F379B01AC01C70120
:101E9000B6010E94AC351816BCF18AEA8983CA8261
:101EA000DB82EC82FD82580184E9A81A87EFB80A28
:101EB00025E0AE014F5F5F4FF5016081C8010E94D0
:101EC0009B2264E670E080E090E00E94352D41E0C6
:101ED000F501608188E79DE00E94D70388E79DE0D7
:101EE0000E94B602892B91F088E79DE00E94BE0215
:101EF000813061F421E0AE014A5F5F4FF5016081FE
:101F0000C8010E94401D02C088E08E838E8181112D
:101F100007C0F801E45AF74FC082D182E282F3820F
:101F200026960FB6F894DEBF0FBECDBFDF91CF91DE
:101F30001F910F91FF90EF90DF90CF90BF90AF90E7
:101F400008954F925F926F927F928F929F92AF927D
:101F5000BF92CF92DF92EF92FF920F931F93CF9396
:101F6000DF931F921F92CDB7DEB78C01FC01EC5AB4
:101F7000F74F81E0808360E082E00E941D2F64EFD4
:101F800071E080E090E00E94352D48018BEA881ACC
:101F900087EF980AF4011182108228E2A22EB12C58
:101FA000E12CF12C38E1632E77247A946801F5E96D
:101FB000CF1AF7EFDF0A4E2C69827A82F601608130
:101FC0006E0D22E0AE014F5F5F4FC8010E949B2261
:101FD000F60160816E0D21E0AE014F5F5F4FC801D9
:101FE0000E94401D89818F3F09F04BC098E1592E16
:101FF00059821A82F6016081640D22E0AE014F5FC2
:102000005F4FC8010E949B22F6016081640D21E0B0
:10201000AE014F5F5F4FC8010E94401D8981811151
:1020200030C080EF850D89837A82F6016081640D6E
:1020300022E0AE014F5F5F4FC8010E949B22539484
:10204000FDE15F12D5CF6FE572E082EA9EE00E946B
:10205000E9314AE050E0B70182EA9EE00E94AB32EB
:1020600069E672E082EA9EE00E94F631F401208186
:102070003181C50188972817390719F4F401B18215
:10208000A082FFEFEF1AFF0A88E2A80EB11CE8E079
:10209000EE16F10409F08FCFF401608171814AE0FE
:1020A00050E082EA9EE00E94F6326AE472E082EA40
:1020B0009EE00E94F63140E050E46CE176E4C80115
:1020C0000E94120F0F900F90DF91CF911F910F91EF
:1020D000FF90EF90DF90CF90BF90AF909F908F9048
:1020E0007F906F905F904F9008952F923F924F9204
:1020F0005F926F927F928F929F92AF92BF92CF9298
:10210000DF92EF92FF920F931F93CF93DF93CDB7A0
:10211000DEB7AA970FB6F894DEBF0FBECDBF2C0175
:102120006E8B2DB73EB73CA32BA38C010D5A174FD6
:1021300081E0D8018C93F201EC5AF74F8081811134
:1021400003C0C2010E94A10FEE898E2F90E0FC0116
:10215000E05AF109E735F10508F0A9C6EE58FF4F3E
:10216000920124593F4F19010C942538F201E05C8B
:10217000F74F80819181892B09F096C642E050E0AB
:10218000B2016B5A774FF5C0F201E05CF74F8081E6
:102190009181892B09F088C6D9011C92912C92015A
:1021A0002B5A374F3B872A87720135E9E31A37EFFD
:1021B000F30A88248394A92CB12CEA85FB858081BD
:1021C000918168E270E00E94EF37A616B70608F02A
:1021D0006EC608E010E0D7018C91B501680F711D43
:1021E00088E79DE00E946103B80188E79DE00E94B6
:1021F0001E0B88E79DE00E94DD03F7018081B50199
:10220000680F711D41E050E088E79DE00E94DA030D
:1022100088E79DE00E94B602892B51F188E79DE096
:102220000E94BE026C01612C712CDD24C601062CBB
:1022300002C0959587950A94E2F781709927F1E09D
:102240008F27898341E050E0BE016F5F7F4FC2015D
:102250000E94A71A2FEF621A720A38E063167104FF
:1022600029F70F5F1F4F0D30110509F0B4CF02C0E1
:10227000D1018C9293949FCFF201E05CF74F2081C3
:1022800031817596808191812817390709F00CC634
:10229000C2010E943D0B96C5F201E05CF74F8081C0
:1022A0009181029709F000C6D201AB5BB74F2D9127
:1022B0003C911197F901E259FF4FE40DF51D808122
:1022C00091812E5F3F4F2D933C93F201EB5AF74FD4
:1022D000208131818217930708F07BC068E270E0AB
:1022E0000E94EF378C016B01DD247201F5E9EF1AD2
:1022F000F7EFFF0AD7018C91B601680F711D88E7CF
:102300009DE00E946103B80153E0769567955A9568
:10231000E1F7685F7F4F88E79DE00E941E0B88E72A
:102320009DE00E94DD03F7018081B601680F711DF9
:1023300041E050E088E79DE00E94DA0388E79DE0F5
:102340000E94B602892BC9F088E79DE00E94BE0278
:102350009927077002C0959587950A95E2F78170D5
:102360009927F1E08F27898341E050E0BE016F5F3C
:102370007F4FC2010E94A71A25C581E096C5F201D0
:10238000E05CF74F80819181039709F08DC5D20100
:10239000AB5BB74F8D919C911197FC01E259FF4FB8
:1023A000E40DF51D60817181F201E80FF91FE0591C
:1023B000FF4F408103968D939C93F201EB5AF74FA8
:1023C000808191816817790720F4C2010E94F80D7D
:1023D000DAC285E06AC5F201E05CF74F8081918145
:1023E000892B09F061C5D9011C9244E050E0B2018B
:1023F000685A774FBEC4F201E05CF74F808191814B
:10240000049709F051C5D201AB5BB74F8D919C91F8
:102410001197FC01E259FF4FE40DF51D40815181F8
:102420006281738104968D939C9321E0C2010E9486
:102430007F0E3BC5F201E05CF74F80819181892BD3
:1024400009F032C582010459174F49EAD8016C914D
:10245000C2010E94842264E670E080E090E00E9465
:10246000352D41E0F801608188E79DE00E94D703A7
:1024700088E79DE00E94B602892B09F418C588E719
:102480009DE00E94BE02853009F011C525E0AE0135
:102490004F5F5F4FD8016C91C2010E94401D8D813A
:1024A000F1018083811103C589819A81AB81BC814F
:1024B000B201645A774FFB0180839183A283B38377
:1024C00044E050E056C4F201E05CF74F8081918116
:1024D000049709F0E9C4D201AB5BB74F8D919C9191
:1024E0001197FC01E259FF4FE40DF51D4081518128
:1024F0006281738104968D939C93C2010E94120F96
:1025000042C2F201E05CF74F80819181019709F0AE
:10251000CBC4D201AB5BB74F8D919C911197F20167
:10252000E80FF91FE259FF4FE08101968D939C93CC
:10253000E23008F02CC1BBE1EB9FF0011124E35A1B
:10254000F14F81818983F90110820EC4F201E05CB0
:10255000F74F80819181029709F0A6C435962081BA
:102560003181A201420F531FDA01A259BF4F8C9152
:1025700011966C912E5F3F4F318320830E94F02291
:1025800094C4F201E05CF74F80819181019709F0DA
:102590008BC4359680819181D201A80FB91FA259B1
:1025A000BF4F2C91019691838083223008F0EFC0B9
:1025B000D1011C92BBE12B9FF0011124E35AF14F92
:1025C000E181C2018B59974FF0E0213011F0329632
:1025D00079C0389677C0F201E05CF74F8081918135
:1025E000059709F061C4359620813181D201A20F8F
:1025F000B31FA259BF4F4C91C901019691838083AB
:10260000D1011C924423E1F0413009F0C0C0409157
:10261000790ED901A159BF4FA40DB51D8D919D9182
:102620000D90BC91A02D2B5F3F4F31832083F20191
:1026300034E0439FE00DF11D1124EB57F74F9FC08D
:1026400040915E0ED901A159BF4FA40DB51D8D91CA
:102650009D910D90BC91A02D2B5F3F4F3183208326
:10266000F20124E0429FE00DF11D1124E359F74FE0
:1026700086C0F201E05CF74F80819181019709F0FB
:1026800013C4359680819181D201A80FB91FA25938
:10269000BF4F2C91019691838083223008F077C040
:1026A000F10110823BE1239FF0011124E35AF14F25
:1026B000E181C2018B59974FF0E0213011F035963E
:1026C00001C03D96EE0FFF1FEE0FFF1FE80FF91F31
:1026D00080819181A281B38189839A83AB83BC83FA
:1026E00044E050E043C3F201E05CF74F8081918108
:1026F000059709F0D9C3359620813181D201A20F07
:10270000B31FA259BF4F4C91C90101969183808399
:10271000D1011C924423D9F04130C9F54091790E82
:10272000D901A159BF4FA40DB51D8D919D910D905B
:10273000BC91A02D2B5F3F4F31832083F20134E009
:10274000439FE00DF11D1124E756F74F18C040914B
:102750005E0ED901A159BF4FA40DB51D8D919D915C
:102760000D90BC91A02D2B5F3F4F31832083F20150
:1027700024E0429FE00DF11D1124E758F74F8083BC
:102780009183A283B383C2010E94FD0B90C385E0B5
:10279000FAC0F201E05CF74F80819181892B09F04A
:1027A00083C3F901108244E050E0B201605A774FD0
:1027B000E0C2F201E05CF74F80819181049709F05B
:1027C00073C3D201AB5BB74F8D919C911197FC0104
:1027D000E259FF4FE40DF51DC080D180E280F38007
:1027E00004968D939C9320E030E0A901C701B601C7
:1027F0000E943B371816CCF4F201EC59F74F808158
:10280000882331F03497C082D182E282F382DAC227
:10281000D201A355B74FCD92DD92ED92FC92139762
:102820001082C2010E94FD0BCDC288E03EC3F201BE
:10283000E05CF74F80819181892B09F035C3D90184
:102840001C9211E020E030E0A901E359FF4F6081C4
:102850007181828193810E94AC3518160CF410E0CE
:10286000198382C2F201E05CF74F80819181019768
:1028700009F01AC3359680819181D201A80FB91F42
:10288000A259BF4F2C91019691838083E859FF4F45
:10289000222329F010821182128213820CC0D201ED
:1028A000A05AB74F8D919D910D90BC91A02D808322
:1028B0009183A283B383C2010E94FD0B15C2F20172
:1028C000E05CF74F008111810A30110508F4ECC279
:1028D000359680819181DC01A259BF4FA40DB51DB1
:1028E0002D913D914D915C912A873B874C875D8767
:1028F0009C012C5F3F4F31832083DC01AE58BF4FDA
:10290000A40DB51D6D907C90DC01AC58BF4FA40D9B
:10291000B51D4D915D916D917C914A8B5B8B6C8B5C
:102920007D8BD201A80FB91FA858BF4FFC900B9602
:10293000918380830B30110541F0709680819181E5
:102940000B960817190709F0AFC2BBE46B16B1E08C
:102950007B06C0F420E030E04AE754E46A857B85DA
:102960008C859D850E94B03520E030E44CE157E431
:102970000E943F3720E030E040E855E40E94AC354B
:1029800087FD23C281E0D1018C9391C2F201EB5A01
:10299000F74F20813181C9010B9675974081518194
:1029A0004817590709F080C2EDB7FEB7FA8FE98FD3
:1029B000D1011C92F201EB5BF74F80819181DC0128
:1029C000A259BF4FA40DB51D4D915D916D917C91A4
:1029D0004A8B5B8B6C8B7D8BAC014C5F5F4F518363
:1029E0004083DC01AE58BF4FA40DB51D6D907C90A7
:1029F000DC01AC58BF4FA40DB51D4D915D916D919B
:102A00007C914F8F58A369A37AA3D201A80FB91F55
:102A1000A858BF4F1C910B96918380836DB77EB7EA
:102A2000621B730B0FB6F8947EBF0FBE6DBF8DB7E0
:102A30009EB701969B878A87DC01280F391F80E0AB
:102A400090E07F01A217B307A1F0F7014081518107
:102A5000B201640F751F62597F4FFB0160814F5FA8
:102A60005F4FF701518340836D93662359F30196BD
:102A7000E9CF869D9001879D300D969D300D1124E4
:102A80002B34314008F0D2C020E030E04AE754E473
:102A90006A897B898C899D890E94B03520E030E469
:102AA0004CE157E40E943F3720E030E040E855E435
:102AB0000E94AC3587FFBAC0C2010E94AE0B0E94D3
:102AC000122D6B8F7C8F8D8F9E8F212C312C92013C
:102AD0002B5A374F3EA32DA3A20144595F4F5F8766
:102AE0004E87812F8270682F70E078A76FA31170D6
:102AF0001F8B188EC201845A974F9AA789A7ADA140
:102B0000BEA18D919C9128163906F0F5AE85BF8542
:102B10008C91811135C0EA85FB85E20DF31D808122
:102B2000882371F141E0B101C2010E94F80D8824AF
:102B30008394EFA1F8A51E161F060CF0812CAA2481
:102B4000A3942F89388D121613060CF0A12CA9A579
:102B5000BAA5CD90DD90ED90FC900F8D18A129A124
:102B60003AA1A3016A897B898C899D890E94D92712
:102B7000EE85FF85808340E0B101C2010E94F80D1F
:102B8000FFEF2F1A3F0ABBCFEE85FF8580818111B1
:102B900052C00E94122D2B8D3C8D4D8D5E8D621B7F
:102BA000730B840B950B0E9449366B017C01B301BA
:102BB00080E090E00E94493620E030E04AE754E4AB
:102BC0000E943F379B01AC01C701B6010E94B0359E
:102BD0006E837F838887998744E050E0BE016A5FF7
:102BE0007F4FC2010E94A71A44E050E064E77EE0F4
:102BF000C2010E94A71A44E050E06FE87EE0C201E3
:102C00000E94A71AF201E05AF74F80819181A281B8
:102C1000B38189839A83AB83BC8344E050E0BE01D7
:102C20006F5F7F4FC2010E94A71A05C081E0F201C9
:102C3000E459FF4F8083498D5A8D0FB6F8945EBFDB
:102C40000FBE4DBF34C1F201E05CF74F808191812E
:102C5000019709F029C1D9011C9235968081918193
:102C6000D201A80FB91FA259BF4F2C910196918391
:102C7000808361E0211101C060E0C2010E94200C4C
:102C800016C1F201E05CF74F80819181892B09F038
:102C90000BC1F901108282E036C0F201E05CF74F0F
:102CA00080819181892B09F0FFC0D9011C92729615
:102CB00029C0F201E05CF74F80819181019709F012
:102CC000F3C0359680819181D201A80FB91FA25916
:102CD000BF4F2C910196918380833D96222319F05A
:102CE00081E0808301C01082F1011082E0C0F20116
:102CF000E05CF74F80819181892B09F0D5C0D90123
:102D00001C92F801808189832FC0F201E05CF74FAB
:102D100080819181019709F0C7C0359680819181AA
:102D2000D201A80FB91FA259BF4F2C9101969183D0
:102D30008083222321F081E0D8018C9343C0F801E5
:102D4000108240C0F201E05CF74F80819181892BB5
:102D500009F0AAC0F901108282E00E94532F21E0FD
:102D6000892B09F020E0298341E050E0BE016F5F2C
:102D70007F4FC2010E94A71A9AC0F201E05CF74F90
:102D800080819181019709F08FC035968081918172
:102D9000D201A80FB91FA259BF4F2C910196918360
:102DA0008083222359F060E082E00E941D2F64EFAF
:102DB00071E080E090E00E94352D04C061E082E087
:102DC0000E941D2FD1011C9272C0D1011C92F201F0
:102DD000EB5AF74F808191810B960817190719F468
:102DE000C2010E943D0B0E94122D6E877F87888B47
:102DF000998B88248394F1FE812CAA24A394F0FE5D
:102E0000A12CF201E45AF74FC080D180E280F38018
:102E10000A891B892C893D89A3016A857B858C855C
:102E20009D850E94D927F1018083811140C00E94B5
:102E3000122D2E853F8548895989621B730B840B9F
:102E4000950B0E9449366B017C01B30180E090E054
:102E50000E94493620E030E04AE754E40E943F37C0
:102E60009B01AC01C701B6010E94B0356E837F8320
:102E70008887998744E050E0BE016A5F7F4FC201B6
:102E80000E94A71A44E050E064E77EE0C2010E947D
:102E9000A71A44E050E06FE87EE0C2010E94A71A42
:102EA000F201E05AF74F14CC86E0F10180836E897D
:102EB000C2010E94671DF201E459FF4F80812BA1DE
:102EC0003CA10FB6F8943EBF0FBE2DBFAA960FB619
:102ED000F894DEBF0FBECDBFDF91CF911F910F9150
:102EE000FF90EF90DF90CF90BF90AF909F908F902A
:102EF0007F906F905F904F903F902F900895AF928A
:102F0000BF92CF92DF92EF92FF920F931F93CF93D6
:102F1000DF93CDB7DEB762970FB6F894DEBF0FBE72
:102F2000CDBF8C010E949C1961E082E00E941D2FA0
:102F300061E082E00E94E42EF801E05AF74F80E061
:102F400090E0A6E9B3E480839183A283B38360E039
:102F5000C8010E94200CD801ED91FC910680F781F8
:102F6000E02DC8011995BC0182EA9EE00E94E9317A
:102F700065E772E082EA9EE00E94E931D801ED91B6
:102F8000FC910484F585E02DC8011995BC0182EA05
:102F90009EE00E94F63168E772E082EA9EE00E94BD
:102FA000E931D801ED91FC910284F385E02DC8014F
:102FB0001995BC0182EA9EE00E94F6316BE872E04E
:102FC00082EA9EE00E94E9317801BBE9EB1AB7EF93
:102FD000FB0AF701608171814AE050E082EA9EE0DD
:102FE0000E94F63263E772E082EA9EE00E94E931D5
:102FF000F801E959F74F608171814AE050E082EAB7
:103000009EE00E94F63263E772E082EA9EE00E9450
:10301000E931F801E759F74F608171814AE050E0EA
:1030200082EA9EE00E94FC3262EA72E082EA9EE05E
:103030000E94E931F801E459F74F4AE050E060811D
:1030400082EA9EE00E94DF32B12CA12CA1E0BA12EC
:1030500002C085E001C083E0A81608F0AFC04AE0D6
:103060006A2DCE0101960E94AD344AE06B2DCE014F
:103070000D960E94AD3466EC72E0CE0107960E9478
:103080007F34BE01635F7F4FCE0107960E940635F5
:1030900068EC72E00E941935BE016F5F7F4F0E949D
:1030A00006356CED72E00E941935BC0182EA9EE0A3
:1030B0000E94DB31CE0107960E941134CE010D969D
:1030C0000E941134CE0101960E941134CA2CD12CD9
:1030D000F1E0BF1619F0F601329602C0F6013896FB
:1030E000EE0FFF1FEE0FFF1FEE0DFF1D4081518100
:1030F0006281738122E030E082EA9EE00E94FF3329
:103100004AE06A2DCE0101960E94AD344AE06B2D53
:10311000CE010D960E94AD3466EC72E0CE010796AA
:103120000E947F34BE01635F7F4FCE0107960E94ED
:1031300006356FED72E00E941935BE016F5F7F4F5B
:103140000E9406356CED72E00E941935BC0182EADE
:103150009EE00E94DB31CE0107960E941134CE0121
:103160000D960E941134CE0101960E94113481E027
:10317000F601B81611F0359601C03D96EE0FFF1F0F
:10318000EE0FFF1FEE0DFF1D608171818281938123
:1031900025EA34ED48E653E50E943F37AB01BC0118
:1031A00022E030E082EA9EE00E94FD3364EF72E0AC
:1031B00082EA9EE00E94F631A39448CFB394B2E035
:1031C000BB1243CF68EF72E082EA9EE00E94E931D1
:1031D000F801E559F74F4AE050E0608182EA9EE04D
:1031E0000E94DF326DE473E082EA9EE00E94E931E2
:1031F000F801E355F74F408151816281738122E0EC
:1032000030E082EA9EE00E94FF3365E173E082EAEB
:103210009EE00E94E931F801EF54F74F408151815F
:103220006281738122E030E082EA9EE00E94FF33F7
:1032300068E273E082EA9EE00E94E931F801EB5413
:10324000F74F608170E04AE050E082EA9EE00E9421
:10325000B33261E473E082EA9EE00E94E931F80152
:10326000EC59F74F608170E04AE050E082EA9EE05E
:103270000E94B3326DE573E082EA9EE00E94E9317C
:10328000F801EA54F74F408151816281738122E055
:1032900030E082EA9EE00E94FF3365E773E082EA55
:1032A0009EE00E94E931F801E654F74F40815181D8
:1032B0006281738122E030E082EA9EE00E94FF3367
:1032C0006DE873E082EA9EE00E94E931F801E25481
:1032D000F74F408151816281738122E030E082EAC0
:1032E0009EE00E94FF3362960FB6F894DEBF0FBED9
:1032F000CDBFDF91CF911F910F91FF90EF90DF90A5
:10330000CF90BF90AF9008958627682F6295682769
:10331000062E669566956025062E66956025677073
:10332000082E892F669507946795902D8627069419
:103330006795902586270895CF92DF92EF92FF92AE
:103340000F931F93CF93DF9300D01F92CDB7DEB7BB
:103350008C01CE0101966C019FE0E92EF12CD80181
:10336000ED91FC910088F189E02DB701C801199514
:10337000F60181936F01FFEFEF1AFF0A23E1E216D6
:10338000F10469F789819A81AB81BC818F3F9F4F9E
:10339000AF4FBF4FE1F149815A816B817C8126E0BB
:1033A00082EA9EE00E948E3088E79DE00E944D03F5
:1033B0000E94AF080E94380808591F4FD8016D932A
:1033C0007D938D939C93139762E474E082EA9EE070
:1033D0000E94E931F801408151816281738122E0CC
:1033E00030E082EA9EE00E94FD3364E574E082EA08
:1033F0009EE00F900F900F900F90DF91CF911F9153
:103400000F91FF90EF90DF90CF900C94F63180E019
:1034100092ECA1E0B0E089839A83AB83BC83CE01B8
:1034200001966C018FE0E82EF12CD6014D916D01D3
:10343000D801ED91FC910288F389E02DB701C80114
:103440001995BFEFEB1AFB0AE3E1EE16F10469F7F9
:10345000A2CFCB010C94923ACB01642F0C949A3AF0
:1034600008958F929F92AF92BF92CF92DF92EF9288
:10347000FF920F931F93CF93DF9326E734E0FC0175
:1034800031832083E45BF74F608339971182108288
:1034900036961082399711821082359611821082E9
:1034A0003296118210823A961082E12CF12C00E0C3
:1034B00010E0C8010E94923AA82EC80107960E9407
:1034C000923A8E2CC0E0D0E0B12CA094B094C82EDB
:1034D000D12CC094D094CE018E0D9F1DC697C4F4FC
:1034E000B5010C2E02C0759567950A94E2F76170DC
:1034F0009C2E980C892D0E94E42EB6010C2E02C041
:10350000759567950A94E2F76170892D0E941D2FC9
:103510002196C830D105F9F60F5F1F4FE8E0EE0E97
:10352000F11C0730110529F6DF91CF911F910F9102
:10353000FF90EF90DF90CF90BF90AF909F908F90D3
:10354000089526E734E0FC013183208308951F931A
:10355000CF93DF93FB0120E030E0DC01A95BB74FA4
:103560002417350781F01191BC01620F731FCD91B3
:10357000DC9111976C0F7D1FEB01C259DF4F18834F
:103580002F5F3F4FEDCF8D919C911197820F931F2D
:103590008D939C93DF91CF911F910895CF93DF93EB
:1035A000FC01E359FF4F6081DC01A459BF4F67FF65
:1035B0000EC020E8260F208322E02C93DC01ED9141
:1035C000FC910488F589E02DDF91CF911994FC01DD
:1035D000E05CF74F2081318121503109820F931F28
:1035E000EC01C259DF4F88818C9331832083DF91B6
:1035F000CF9108956F927F928F929F92AF92BF92D8
:10360000CF92DF92EF92FF920F931F93CF93DF93AE
:10361000EC019C01275B374F59016D3721F481E0A4
:10362000F9018083AEC0F90180819E012D5B374F87
:103630007901882309F49EC080E26827F701808120
:1036400091819E01245B374F4901FE01EE5BF74FEC
:103650006F018E01005C174F009759F4E55DF7404C
:103660006083F90180818823A9F18FEF9FEF339662
:103670001EC08130910581F467FF08C083E080831C
:10368000862F8F77F8011082818324C082E08083A7
:10369000862F90E0F8010BC08230910559F420810B
:1036A000233041F4F80180819181860F911D91832F
:1036B000808310C0F6012081821B9109F8012081CE
:1036C00031818217930730F48C0F9D1FFC01E25962
:1036D000FF4F6083F4018081882369F03E01F1EBA4
:1036E0006F1AF7EF7F0AF301808191810E9484199C
:1036F000F30191838083F701208131812F5F3F4F58
:1037000031832083F4014081F6015081F8018081EA
:103710009181850F911D840F911D840F911D281794
:10372000390711F5F70111821082FE01EB5BF74FAB
:1037300011821082329611821082442329F0389629
:1037400080819181892B19F4CE010E94CE1AFE014D
:10375000E55BF74F8081882339F0C359DF4F8058EC
:103760009881981301C01082F5018081882349F067
:10377000108207C06E3709F061CFF7011182108205
:10378000F3CFDF91CF911F910F91FF90EF90DF90DA
:10379000CF90BF90AF909F908F907F906F90089543
:1037A000FF920F931F93CF93DF931F92CDB7DEB796
:1037B0008C01F62E88E0898369816837E8F588E70F
:1037C0009DE00E94570388E79DE00E94DD03811180
:1037D00030C0FF2041F041E050E0BE016F5F7F4FFD
:1037E000C8010E94A71A67E574E082EA9EE00E9481
:1037F000E9314AE050E0698182EA9EE00E94D832D5
:103800006BE674E082EA9EE00E94E93140E150E01C
:10381000698182EA9EE00E94D83260E774E082EA21
:103820009EE00E94F63161E070E080E090E00E944E
:10383000352D89818F5FBFCF0F90DF91CF911F9181
:103840000F91FF900895CF93C62F83E8860F8230A3
:1038500090F46DE782EA9EE00E942930E091A20E8A
:10386000F091A30E60E26C270190F081E02D82EAD6
:103870009EE0CF91199482EA9EE0CF910C9429307A
:103880008F929F92AF92BF92CF92DF92EF92FF9270
:103890000F931F93CF93DF93EC018C017C0120ECFD
:1038A000E21A27EFF20A845B974F6C015E0193EBFB
:1038B000A91A97EFB90AF7018081918198012C1B11
:1038C0003D0BF60128173907C8F480819801225969
:1038D0003F4F4901882351F0F9016081F501808152
:1038E00091810E948419F50191838083F4016081A4
:1038F000CE010E94231C0F5F1F4FDDCF80818823E4
:1039000069F08E01035B174FF8016081CE010E94C0
:10391000231CF8016181CE010E94231CF701118252
:103920001082C95BD74F19821882DF91CF911F9106
:103930000F91FF90EF90DF90CF90BF90AF909F904E
:103940008F900895BF92CF92DF92EF92FF920F93E4
:103950001F93CF93DF93EC01B62E8C01005C174FC1
:10396000FC01E95BF74F80819181F80191838083AD
:103970006EE782EA9EE00E9429307E01F4EBEF1AA6
:10398000F7EFFF0AF7018081882381F08FEF9FEF27
:103990006E01F3EBCF1AF7EFDF0AF6019183808314
:1039A0006B2D0E948419F601918380836B2DCE01CB
:1039B0000E94231CF80160817181F70180816038C9
:1039C000710580F4882371F17E01F3EBEF1AF7EFB4
:1039D000FF0AF701808191810E948419F701918388
:1039E000808320C08823B1F07068672F7E01F3EBDD
:1039F000EF1AF7EFFF0AF701808191810E94841985
:103A0000F70191838083F80160810E948419F70196
:103A100091838083F801808191819068692FCE0124
:103A20000E94231CF8016081CE01DF91CF911F918C
:103A30000F91FF90EF90DF90CF90BF900C94231CDC
:103A40000F931F93CF93DF931F92CDB7DEB78C01F7
:103A5000698341E050E0BE016F5F7F4F0E94A71A6B
:103A6000F801E359FF4F6081C8010E94A21CC80100
:103A70000E94401C0F90DF91CF911F910F910895EC
:103A8000FF920F931F93CF93DF938A01422F88E712
:103A90009DE00E94D703C0E088E79DE00E94B60247
:103AA000892B71F0FF24F394FC0EC8018C0F911D3B
:103AB000EC0188E79DE00E94BE028883CF2DECCF09
:103AC0008C2FDF91CF911F910F91FF9008956F92EE
:103AD0007F928F929F92AF92BF92CF92DF92EF929E
:103AE000FF920F931F93CF93DF93CDB7DEB7699704
:103AF0000FB6F894DEBF0FBECDBF8C018DB69EB65B
:103B0000862F90E0FC01E058F109EF31F10508F053
:103B1000D6C4E753FF4F9801205C374F79010C94CE
:103B20002538D9018D919C91892BF1F4D801ED9123
:103B3000FC910280F381E02DC8011995FC010190F0
:103B40000020E9F7AF0141505109481B590BD8013A
:103B5000ED91FC910280F381E02D62C0D9018D913D
:103B60009C91019709F4A0C386E0F801E459FF4F46
:103B700087C4F90180819181892BB1F7D801ED913A
:103B8000FC910480F581E02DC8011995FC0101909C
:103B90000020E9F7AF0141505109481B590BD801EA
:103BA000ED91FC910480F581E02D3AC0F90180810E
:103BB0009181892BC9F6D801ED91FC910680F7819E
:103BC000E02DC8011995FC0101900020E9F7AF0133
:103BD00041505109481B590BD801ED91FC910680C9
:103BE000F781E02D1DC0F90180819181892B09F0B9
:103BF000BBCFD801ED91FC910084F185E02DC80187
:103C00001995FC0101900020E9F7AF0141505109DD
:103C1000481B590BD801ED91FC910084F185E02DF2
:103C2000C801498F588F1995498D588DBC0135C4ED
:103C3000F90180819181892B09F096CFD801ED910E
:103C4000FC910284F385E02DC8011995FC010190D7
:103C50000020E9F7AF0141505109481B590BD80129
:103C6000ED91FC910284F385E02DDACFF90180819A
:103C70009181892B09F078CFD801ED91FC910484D2
:103C8000F585E02DC8011995FC0101900020E9F7A8
:103C9000AF0141505109481B590BD801ED91FC91DE
:103CA0000484F585E02DBCCFF90180819181892BB9
:103CB00009F05ACFD801ED91FC910684F785E02DEB
:103CC000C8011995FC0101900020E9F7AF014150AE
:103CD0005109481B590BD801ED91FC910684F785D9
:103CE000E02D9ECFF90180819181892B09F03CCF95
:103CF0004AE050E06CE874E0D0C3D9018D919C910A
:103D0000029709F031CFF801EB5BF74F2081318149
:103D1000A801420F531FDA01A259BF4F8C9111968F
:103D20006C912E5F3F4F318320830E94E42EC3C3EA
:103D3000F90180819181029709F016CFF801EB5BC0
:103D4000F74F20813181A801420F531FDA01A25998
:103D5000BF4F8C9111966C912E5F3F4F3183208322
:103D60000E941D2FA8C3D9018D919C91019709F044
:103D7000FBCEF801EB5BF74F20813181D801A20F18
:103D8000B31FA259BF4F8C912F5F3F4F31832083C8
:103D90000E94532FF6C2F90180819181029709F0A8
:103DA000E3CEF801EB5BF74F20813181D801A20F00
:103DB000B31FA259BF4F8C91A9014F5F5F4F518331
:103DC0004083D901A159BF4FA00FB11F6D917C91C4
:103DD0002D5F3F4F318320830E94CA2D6CC3C801E1
:103DE00084599F4F26E0DC012C93F701208131811B
:103DF0002230310508F463C3ADB6BEB6F801EB5B03
:103E0000F74F40815181D801A40FB51FA259BF4F70
:103E10006C914F5F5F4F51834083462F50E0ADB7A9
:103E2000BEB7A41BB50B0FB6F894BEBF0FBEADBF97
:103E300011966D012230310511F4613031F04D5F82
:103E40005F4F2417350709F07BC07C2D3601262DE6
:103E5000271B261788F420813181A801420F531FA8
:103E600042595F4FDA014C912F5F3F4F31832083DE
:103E7000D3014D933D01EBCFD7012D913C912230E1
:103E80003105B1F020813181D901A259BF4FA00F76
:103E9000B11FED90FC902E5F3F4F31832083B9EE30
:103EA000EB16B3E0FB0638F029E0FC01208348C0A4
:103EB000EE24E394F12CDC011C92F092E70DE092E9
:103EC000E60DC80182599F4F9093EB0D8093EA0D48
:103ED00080E0688F0E943306688D613029F4F60116
:103EE00080810E94C10712C0D092E40DC092E30D00
:103EF0006093E10D1092E00D82ED97E09093DF0D5D
:103F00008093DE0DD6018C910E94A7070E9437078F
:103F10008091E60D9091E70D2091E80D3091E90D2B
:103F200028173907C9F70E945607EE0CFF1CF80145
:103F3000E95BF74F80819181E80EF91EF182E08202
:103F40000FB6F894BEBE0FBEADBEB9C2F9018081F6
:103F50009181039709F008CED801AB5BB74F8D91E3
:103F60009C911197FC01E259FF4FE00FF11F608116
:103F70007181F801E80FF91FE059FF4F4081039666
:103F80008D939C93D801ED91FC910288F389E02DEB
:103F9000C801199590C2F90180819181029709F0B9
:103FA000E3CDD801AB5BB74F8D919C911197FC018C
:103FB000E259FF4FE00FF11F6081718102968D93EE
:103FC0009C93D801ED91FC910088F189E02DC80106
:103FD0001995D7C1F90180819181029709F0C4CD6B
:103FE000F801EB5BF74F808191819801280F391F11
:103FF000D901A259BF4F6C911196EC900296918312
:104000008083CE0101960E944405CE0101960E9454
:104010003205F12C41E0BE01615F7F4FCE01019678
:104020000E946705F394EF14A8F7980124593F4FB5
:104030007901882309F422C248E050E0BE01615FA3
:104040007F4FC8010E94A71A16C2D9018D919C9179
:104050000B9709F089CDD801AB5BB74F2D913C91FF
:104060001197A801420F531FFA01E259FF4F6081D7
:104070006901EFEFCE1ADE0A1196DC92CE923E0174
:10408000FFE06F0E711C80E090E0B62CA72CC00EF4
:10409000D11E7601E80EF91E7EE6E70EF11CF7014F
:1040A000F080F301F1923F0101968830910589F784
:1040B000FA01E958FF4FF0803196E080255F3F4FCD
:1040C0002D933C93CE0101960E944405CE010196AA
:1040D0000E940F046B2D7A2DCE0101960E940A05D5
:1040E00040E06F2DCE0101960E94AC04F12CFE142D
:1040F00009F4E1C1CE0101960E94EE048F8B41E0EC
:1041000050E0BE01695E7F4FC8010E94A71AF39478
:10411000EECFD9018D919C910B9709F025CDD80157
:10412000AB5BB74F2D913C911197A801420F531FE4
:10413000FA01E259FF4F60816901EFEFCE1ADE0A02
:104140001196DC92CE923E01FFE06F0E711C80E072
:1041500090E0B62CA72CC00ED11E7601E80EF91EF9
:104160007EE6E70EF11CF701F080F301F1923F01CA
:1041700001968830910589F7FA01E958FF4FF080E0
:1041800031964081255F3F4F2D933C93CE010196A0
:10419000498F0E944405CE0101960E940F046B2DA9
:1041A0007A2DCE0101960E940A05498D6F2DCE0110
:1041B00001960E94AC047FC1D9018D919C91029718
:1041C00009F0D2CCF801EB5BF74F80819181980127
:1041D000280F391FD901A259BF4F6C911196EC904D
:1041E0000296918380834E2D88E79DE00E94D7033D
:1041F000F12C88E79DE00E94B602892B79F088E7D0
:104200009DE00E94BE02898341E050E0BE016F5FE5
:104210007F4FC8010E94A71AF394EBCFF801E4592D
:10422000FF4FFE1409F44AC181E02AC1F9018081DF
:104230009181892B09F498CC6801FBEBCF1AF7EF39
:10424000DF0AD6018D919C911197F801E80FF91FB3
:10425000E259FF4F608101968D939C9388E79DE022
:104260000E945703B12C2B2D30E0F7018081918102
:1042700001972817390798F4F60180819181F80198
:10428000E80FF91FE259FF4F60810196D6018D9327
:104290009C9388E79DE00E940E03B394E4CF88E7E7
:1042A0009DE00E94DD0307C1F801EB5BF74F8081C1
:1042B0009181D801A80FB91FA259BF4F2C91019627
:1042C000918380838CB5211102C0806201C08F7DF3
:1042D0008CBDF1C0F90180819181019709F044CC36
:1042E000F801EB5BF74F80819181D801A80FB91FCE
:1042F000A259BF4F2C910196918380839CB5822F48
:1043000083709C7F892B8CBD8DB522FB222720F9E1
:104310008E7F822B8DBD18C0D9018D919C91019704
:1043200009F022CCF801EB5BF74F80819181D80135
:10433000A80FB91FA259BF4F2C910196918380837A
:104340008CB5837F282B2CBDE95DF740B7C0F90100
:1043500080819181019709F007CCF801EB5BF74F61
:1043600080819181D801A80FB91FA259BF4F2C910C
:104370000196918380832EBD00000DB407FEFDCF12
:104380008EB5898341E050E0BE016F5F7F4F85C0ED
:10439000D9018D919C91892B09F0E6CBF801EA595E
:1043A000FF4F40815181B8016E5F7F4F76C0F901A8
:1043B00080819181892B09F0D7CB8091D80D909184
:1043C000D90DA091DA0DB091DB0D89839A83AB836F
:1043D000BC8344E050E0D8CFD9018D919C910497E3
:1043E00009F0C2CBD801AB5BB74F2D913C9111972F
:1043F000F901E259FF4FE00FF11F60817181828165
:1044000093812C5F3F4F2D933C930E94480653C0ED
:10441000F90180819181892B09F0A6CB0E941A06AF
:104420009A83898342E050E0AFCFD9018D919C916E
:10443000029709F099CBD801AB5BB74F2D913C9116
:104440001197F901E259FF4FE00FF11F808191812F
:104450002E5F3F4F2D933C939C0122503109F80170
:10446000E459FF4F7F012630310540F40E941106C8
:1044700080E00E94DA06D7011C9221C085E0F70196
:1044800080831DC0D9018D919C91892B09F06CCB43
:1044900044E050E0B80168597F4FC8010E94A71A54
:1044A0000AC0F90180819181892B09F05DCB61E01F
:1044B000C8010E94D01BF801E459FF4F1082780117
:1044C000FCE6EF0EF11CD7016C91C8010E94201D83
:1044D000F70180810FB6F8949EBE0FBE8DBE69961F
:1044E0000FB6F894DEBF0FBECDBFDF91CF911F9105
:1044F0000F91FF90EF90DF90CF90BF90AF909F9083
:104500008F907F906F900895CF93DF931F92CDB7D8
:10451000DEB788E79DE049830E9457034981642FF5
:1045200088E79DE00E940E0388E79DE00F90DF91F1
:10453000CF910C94DD03EF92FF920F931F93CF93D3
:10454000DF931F921F92CDB7DEB7122F88E79DE051
:1045500049835A830E9457034981042FE42E5A81CC
:10456000F52E8E2D801B811740F4F70161917F019C
:1045700088E79DE00E940E03F4CF88E79DE00F904E
:104580000F90DF91CF911F910F91FF90EF900C94BE
:10459000DD03CF93DF93EC0182EA9EE00E947C2F43
:1045A000181619064CF482EA9EE00E94952F682F97
:1045B000CE010E94FA1AF0CFDF91CF910895209199
:1045C000E80D3091E90D8091E60D9091E70D2817E7
:1045D000390721F40E94560781E0089580E008958C
:1045E000CF93DF93D82FC62F811116C0613041F0D1
:1045F00028F0623009F058C060E009C061E007C0EF
:1046000060E084E00E941D2F61E085E02BC084E023
:104610000E941D2F60E0F9CF813009F045C0623063
:1046200099F050F4662371F06130F1F560E086E0B6
:104630000E941D2F61E033C06330F9F06430A1F5B2
:1046400060E029C061E027C060E086E00E941D2F85
:1046500060E087E00E941D2F61E088E00E941D2F2E
:1046600060E089E00E941D2F8BE1D89FF0011124AA
:10467000E35AF14FC18380E018C060E086E00E94F9
:104680001D2F60E087E00E941D2F60E088E00E94FF
:104690001D2F61E0E6CF86E00E941D2F60E087E0DD
:1046A0000E941D2F60E0D9CF85E0DF91CF91089562
:1046B0009093960E8093950E60935D0E4093780EC6
:1046C00060E078EB88E097E40E94480661E084E0CF
:1046D0000E94E42E61E085E00E94E42E61E086E025
:1046E0000E94E42E61E087E00E94E42E61E088E011
:1046F0000E94E42E61E089E00E94E42E83E00E94A3
:10470000110660915E0E80E00E94F0226091790EA9
:1047100081E00E94F02220E032E03093730E20937B
:10472000720E80E090E0A0E0B4E48093740E909369
:10473000750EA093760EB093770E41E040936D0E08
:1047400030938E0E20938D0E80938F0E9093900E4B
:10475000A093910EB093920E4093880E08950F93FC
:104760001F93CF93DF93AB019BE1899FE00111245D
:10477000C35AD14F9B01235331092A393340B0F03A
:104780009B81911110C09A819F5F9A8369816623F2
:1047900021F061500E94F02203C081E08093930ECB
:1047A00083E08B8337C091509B8334C08091940EFB
:1047B000882309F18D899E89DB01A81BB90B9D0116
:1047C0000E942B3809891A892B893C89060F171FEB
:1047D000281F391F098B1A8B2B8B3C8B8885998559
:1047E000AA85BB85840F951FA11DB11D8887998758
:1047F000AA87BB870FC08C819D818617970718F405
:104800007D836C8307C08E819F816817790710F4C0
:104810007F836E83DF91CF911F910F91089580E088
:104820000C94AF2381E00C94AF232F923F924F92D0
:104830005F926F927F928F929F92AF92BF92CF9230
:10484000DF92EF92FF920F931F93CF93DF93CDB739
:10485000DEB764970FB6F894DEBF0FBECDBF290157
:104860003A01E986FA860B871C871601BA8AA98A5B
:104870000E943F3720E030E04AE754E40E94B03520
:104880009B01AC010E9435356B017C0120E030E0DA
:10489000A9010E943B3720E030E040E05FE387FD64
:1048A00005C0C701B6010E94353504C0C701B60175
:1048B0000E9434350E9418360E944B3620E030E0CA
:1048C00040E05FE30E943F376D837E838F8398874C
:1048D000A30192016D817E818F8198850E94B03500
:1048E00029853A854B855C850E943F370E94993522
:1048F0000E941D368B010230110508F42DC3B8014A
:1049000080E090E00E9449362D813E814F8158859C
:104910000E94B035A30192010E943F3769837A83D8
:104920008B839C83D1016D937D938D939C9313977F
:1049300029853A854B855C850E943B3718160CF417
:1049400008C3A301920169817A818B819C810E94B5
:10495000B0356B017C019B01AC0160E070E080E050
:1049600090E40E94B0354B015C0120E030E0A901E9
:104970000E943B3720E030E040E05FE387FD05C068
:10498000C501B4010E94353504C0C501B4010E94BF
:1049900034350E9418360E944B36A70196010E94BA
:1049A0003F379B01AC0160E070E080E090E40E9442
:1049B000343520E030E0A9010E943B3720E030E0B0
:1049C000A901181664F5C501B4010E943B3720E027
:1049D00030E040E05FE387FD05C0C501B4010E94FF
:1049E000353504C0C501B4010E9434350E94183623
:1049F0000E944B36A70196010E943F379B01AC01F4
:104A000060E070E080E090E40E9434352DEC3CECF6
:104A10004CEC5DE30E94AC3587FD9BC22CC0C50108
:104A2000B4010E943B3720E030E040E05FE387FDC7
:104A300005C0C501B4010E94353504C0C501B401EB
:104A40000E9434350E9418360E944B36A701960109
:104A50000E943F379B01AC0160E070E080E090E491
:104A60000E9434352DEC3CEC4CEC5DEB0E943B3766
:104A700018160CF46EC2A3019201C301B2010E9488
:104A800035359B01AC0169817A818B819C810E94C3
:104A9000AC3587FF61C129813A814B815C81C301BB
:104AA000B2010E94B0356D877E878F87988B1C8AF4
:104AB0001B8AEB89FC89BF0180E090E00E944936A7
:104AC0004B015C019B01AC016D857E858F859889CA
:104AD0000E94343520E030E040E05FE30E94AC35D6
:104AE00018163CF42B893C892F5F3F4F3C8B2B8B56
:104AF000E0CF29813A814B815C81C501B4010E94DC
:104B00003F379B01AC01C301B2010E9434354B0118
:104B10005C0120E030E0A9010E943B37181624F028
:104B2000B7FAB094B7F8B094A501940169817A817D
:104B30008B819C810E94B03569837A838B839C83AF
:104B40009B01AC0160E070E080E090E40E94B03531
:104B50004B015C0120E030E0A9010E943B3720E0DE
:104B600030E040E05FE387FD05C0C501B4010E946D
:104B7000353504C0C501B4010E9434350E94183691
:104B80000E944B3629813A814B815C810E943F37DC
:104B90009B01AC0160E070E080E090E40E9434355D
:104BA00020E030E0A9010E943B3720E030E0A9017D
:104BB000181674F5C501B4010E943B3720E030E0BF
:104BC00040E05FE387FD05C0C501B4010E943535B3
:104BD00004C0C501B4010E9434350E9418360E94F9
:104BE0004B3629813A814B815C810E943F379B0182
:104BF000AC0160E070E080E090E40E9434352DEC80
:104C00003CEC4CEC5DE30E94AC3587FF2FC0A1C1AA
:104C1000C501B4010E943B3720E030E040E05FE393
:104C200087FD05C0C501B4010E94353504C0C5012A
:104C3000B4010E9434350E9418360E944B362981F7
:104C40003A814B815C810E943F379B01AC0160E05F
:104C500070E080E090E40E9434352DEC3CEC4CECAC
:104C60005DEB0E943B3718160CF473C120E030E076
:104C7000A901C701B6010E943B3720E030E040E0C7
:104C80005FE387FD05C0C701B6010E94353504C04A
:104C9000C701B6010E9434350E9418360E944B3677
:104CA0009B01AC01C701B6010E94343520E030E021
:104CB000A9010E943B3720E030E0A901181634F525
:104CC000C701B6010E943B3720E030E040E05FE3DF
:104CD00087FD05C0C701B6010E94353504C0C70174
:104CE000B6010E9434350E9418360E944B369B0153
:104CF000AC01C701B6010E94343527E137EB41ED25
:104D000058E30E94AC3587FF27C023C1C701B60115
:104D10000E943B3720E030E040E05FE387FD05C0C4
:104D2000C701B6010E94353504C0C701B6010E9413
:104D300034350E9418360E944B369B01AC01C701E6
:104D4000B6010E94343527E137EB41ED58EB0E9464
:104D50003B3718160CF4FDC020E030E040E251E48F
:104D6000C701B6010E94AC3587FF76C020E030E075
:104D7000A901C701B6010E943B3720E030E040E0C6
:104D80005FE387FD05C0C701B6010E94353504C049
:104D9000C701B6010E9434350E9418360E944B3676
:104DA0009B01AC01C701B6010E94343520E030E020
:104DB000A9010E943B3720E030E0A901181634F524
:104DC000C701B6010E943B3720E030E040E05FE3DE
:104DD00087FD05C0C701B6010E94353504C0C70173
:104DE000B6010E9434350E9418360E944B369B0152
:104DF000AC01C701B6010E94343527E137EB41ED24
:104E000058E30E94AC3587FF27C0A3C0C701B60195
:104E10000E943B3720E030E040E05FE387FD05C0C3
:104E2000C701B6010E94353504C0C701B6010E9412
:104E300034350E9418360E944B369B01AC01C701E5
:104E4000B6010E94343527E137EB41ED58EB0E9463
:104E50003B3718160CF47DC02D813E814F8158855B
:104E6000C701B6010E943F376B017C0120E030E0B2
:104E7000A9010E943B3720E030E040E05FE387FD7E
:104E800005C0C701B6010E94353504C0C701B6018F
:104E90000E9434350E9418360E944B369B01AC01AB
:104EA000C701B6010E94343520E030E0A9010E941C
:104EB0003B3720E030E0A901181634F5C701B601F0
:104EC0000E943B3720E030E040E05FE387FD05C013
:104ED000C701B6010E94353504C0C701B6010E9462
:104EE00034350E9418360E944B369B01AC01C70135
:104EF000B6010E94343527E137EB41ED58E30E94BB
:104F0000AC3587FF26C033C0C701B6010E943B37CE
:104F100020E030E040E05FE387FD05C0C701B60157
:104F20000E94353504C0C701B6010E9434350E9485
:104F300018360E944B369B01AC01C701B6010E9496
:104F4000343527E137EB41ED58EB0E943B3718161B
:104F500074F001501109CFCC20E030E040E05FE375
:104F60006D817E818F8198850E943535ADCCA98970
:104F7000BA890D931C9364960FB6F894DEBF0FBEEA
:104F8000CDBFDF91CF911F910F91FF90EF90DF90F8
:104F9000CF90BF90AF909F908F907F906F905F90D9
:104FA0004F903F902F90089510925E0E1092790EC0
:104FB00008952F923F924F925F926F927F928F92BD
:104FC0009F92AF92BF92CF92DF92EF92FF920F9398
:104FD0001F93CF93DF93CDB7DEB7C65ED1090FB66F
:104FE000F894DEBF0FBECDBFC052DF4F5983488358
:104FF000C05ED040CE51DF4F088319832A833B83A4
:10500000C25ED04026013701CD52DF4FA882C35D7A
:10501000D0408092940EAA2031F1A7E9AA2EAEE0EA
:10502000BA2EAE0149535F4F6A01E12C10E4F12E14
:105030000CE916E4A30192010E941524C953DF4F25
:10504000688179818A819B81C75CD0409B01AC01DA
:105050000E943535C953DF4F688379838A839B83E8
:10506000C75CD04017C020E030E040E05FE30E9422
:105070003F37E7E9AE2EEEE0BE2EDE01A953BF4F6B
:105080006D01E12C10E4F12E0CE117E4A301920173
:105090000E9415248091970E9091980E880F991F69
:1050A0009093980E8093970EC953DF4F6881798152
:1050B0008A819B81C75CD0400E944806B0915E0EF9
:1050C000C252DF4FB883CE5DD04012E0C353DF4FF2
:1050D0001883CD5CD04062E080E00E94F022E09135
:1050E000790EC152DF4FE883CF5DD04084E0C253D8
:1050F000DF4F8883CE5CD04064E081E00E94F022E4
:1051000080915D0EFE01E553FF4F80839091780EF4
:1051100091832091970E3091980ECD52DF4F4881A8
:10512000C35DD040442309F13093E70D2093E60D91
:10513000F093E40DE093E30D1093E10D1092E00D78
:1051400022ED37E03093DF0D2093DE0D0E94A7079C
:105150008AEE97E09093DF0D8093DE0D8FEA93E265
:105160009093DD0D8093DC0D06C036952795309326
:10517000E70D2093E60DE090950EF090960EF70166
:10518000E859FF4F20E030EC4FE754E46081718133
:10519000828193810E94B0352B013C018E01055420
:1051A0001F4F1E0155E1250E311CCE01825A9F4F23
:1051B000DC011896C153DF4FB983A883CF5CD04080
:1051C000F8013C96CC52DF4FF983E883C45DD040B0
:1051D000C652DF4F8883CA5DD040CA51DF4F9883E3
:1051E000C65ED04097012B59374FCF52DF4F3983DE
:1051F0002883C15DD040A701445A574FC852DF4FA2
:1052000059834883C85DD04080915D0ECF52DF4FF7
:10521000E881F981C15DD040C652DF4FA881CA5DE7
:10522000D040CA51DF4FB881C65ED0409DE50190A5
:105230000D929A95E1F7882369F08130B1F4C1535A
:10524000DF4FE881F981CF5CD040208D318D428DD8
:10525000538D0EC0C153DF4FA881B981CF5CD040C0
:105260002D913D914D915C9103C020E030E0A9016A
:10527000CF52DF4FE881F981C15DD040DE01119648
:105280009DE501900D929A95E1F7882341F08130D8
:1052900061F4F101C0A0D1A0E2A0F3A009C0D10146
:1052A000CD90DD90ED90FC9003C0C12CD12C760107
:1052B00060E876E988E19BE40E94B0354B015C012F
:1052C00020E836E948E15BE4C701B6010E943F37B8
:1052D0009B01AC010E9435352BED3FE049E450E4E1
:1052E0000E943F37C852DF4FA881B981C85DD040C6
:1052F0002D913D914D915C910E943F376B017C0156
:10530000A5019401C501B4010E943F374B015C0126
:10531000A7019601C701B6010E943F379B01AC016E
:10532000C501B4010E9435350E94A6379B01AC012E
:10533000C301B2010E943F37F801619371938193D9
:1053400091938F01F4E02F0E311CC153DF4F288160
:105350003981CF5CD0402C5F3F4FC153DF4F398341
:105360002883CF5CD040CC52DF4F48815981C45D47
:10537000D0400417150709F047CF1092930ECF5273
:10538000DF4F19821882C15DD040CF52DF4F888134
:105390009981C15DD040C052DF4FA881B981C05E04
:1053A000D0408A179B0791F4C252DF4F6881CE5DCF
:1053B000D04080E00E94F022C152DF4F6881CF5D73
:1053C000D04081E00E94F02280E0C8C28091940E1B
:1053D00010925F0E1092600E81110BC0EFEFF3E0A0
:1053E000F093640EE093630E1092620E1092610EC1
:1053F00010C01092650E1092660E1092670E1092F9
:10540000680E10926E0E10926F0E1092700E109227
:10541000710E10927A0E10927B0E882389F01092F2
:10542000800E1092810E1092820E1092830E1092B6
:10543000890E10928A0E10928B0E10928C0E0AC05A
:105440008FEF93E090937F0E80937E0E10927D0EEF
:1054500010927C0ECD52DF4F9881C35DD0409923CE
:1054600009F440C00E9437070E94DF228823E1F33D
:105470000E94122DCC52DF4F688379838A839B83ED
:10548000C45DD040A091940EC852DF4FA883C85D80
:10549000D0402091970E3091980EFE01E353FF4FBC
:1054A000C153DF4FF983E883CF5CD0400DE51EE0A8
:1054B000AE014F5F5F4F2A018091930E81113FC073
:1054C000CE01825A9F4F1C01612C712CC901A0E0B2
:1054D000B0E0C652DF4F88839983AA83BB83CA5D3D
:1054E000D040ACC080915D0E0E94C107AAEEB7E02B
:1054F000B093DF0DA093DE0DEFE0F4E2F093DD0D4D
:10550000E093DC0D0E9437070E94DF228823E1F33D
:105510008091780E0E94C1072AEE37E03093DF0DAC
:105520002093DE0D42E154E25093DD0D4093DC0DFB
:105530000E9437070E94DF228823E1F399CF8091F0
:10554000950E9091960E0E94AE0B20E040E050E048
:10555000BA018091950E9091960E0E947F0E80E286
:10556000FDC1C652DF4F688179818A819B81CA5D06
:10557000D0400E9449366B017C01D80151966D9153
:105580007D918D919C9154970E9449369B01AC016D
:105590000E943535A70196010E94B0350E94A637BA
:1055A000F201608371838283938320E030E040E8DE
:1055B00052E40E943F379B01AC010E94353523EF36
:1055C00034E045EB5FE30E943F370E941D36D10176
:1055D0006D937C93F301E35AF14F82818823B9F1F3
:1055E000F301E35AF14F8281882309F4B3C0819516
:1055F000C153DF4FA881B981CF5CD0408C93B1E01B
:10560000B08BC153DF4FE881F981CF5CD040319638
:10561000C153DF4FF983E883CF5CD040FBE16F0ECD
:10562000711C055E1F4F22E0220E311C34E0430E38
:10563000511C46E36416710409F496C0C852DF4F4A
:105640005881C85DD040552309F45AC08ACF80895B
:105650008111C6CFF80180849184A284B3846485CB
:10566000758586859785680D791D8A1D9B1D0E940D
:1056700049362AE037ED43E25CE30E943F37A70159
:1056800096010E94B0356B017C0124EA30E74DE7BA
:105690005FE3D80157966D917D918D919C915A97BA
:1056A0000E943F379B01AC01C701B6010E9435350E
:1056B0006B017C01F801678B708F818F928F20E0E6
:1056C00030E0A9010E943B3720E030E040E05FE39A
:1056D00087FD05C0C701B6010E94353504C0C7016A
:1056E000B6010E9434350E941836D80156967C9334
:1056F0006E935597F80184869586A686B78670CFF7
:10570000D80114966D917C91159716968D919C9168
:105710001797681B790B96E0660F771F9A95E1F74C
:10572000F1017183608380E090E00E94493623EFAD
:1057300034E045EB5FE30E94B03520E030E040E02C
:105740005CE30E943F37D2016D937D938D939C93D0
:10575000139746CF8181C153DF4FA881B981CF5CB8
:10576000D0408C93108A4DCF0091950E1091960EDB
:10577000F801EC59F74F8081882309F454C08091D7
:105780005F0E811150C03C97C080D180E280F380D1
:1057900020E030E0A901C701B6010E943B3718168E
:1057A0000CF041C0C353DF4F8881CD5CD040EBEBA0
:1057B000F0E0EC0FFD1F24E08202E00DF11D11244A
:1057C000208131814281538169817A818B819C81E1
:1057D0000E943F372B013C01A70196010E943435FE
:1057E0004B015C0120E030E0A9010E943B37181614
:1057F00024F0B7FAB094B7F8B09420E030E040E07D
:105800005FE3F801EF54F74F6081718182819381EA
:105810000E943F379B01AC01C501B4010E943B3798
:1058200018160CF476C00EE51EE0CE01825A9F4F8A
:105830006C01E12CF12CD6018D919C91893C9C400E
:1058400030F4F80160816F5F8E2D0E94F02242E0FB
:1058500050E0B6018091950E9091960E0E94A71A85
:105860006DEC70E06C0F7D1F6E0D7F1D41E050E010
:105870008091950E9091960E0E94A71AFFEFEF1A55
:10588000FF0A22E0C20ED11C055E1F4F32E0E31674
:10589000F10489F682EA9EE00E947C2F1816190610
:1058A0000CF482CD0E94122DCC52DF4F2881398119
:1058B0004A815B81C45DD040621B730B840B950BE6
:1058C0000E9449366B017C0120E030E04AE754E455
:1058D000CE51DF4F688179818A819B81C25ED04041
:1058E0000E943F379B01AC01C701B6010E94AC3555
:1058F00087FDD8CFCF52DF4F48815981C15DD0405D
:105900004F5F5F4FCF52DF4F59834883C15DD04017
:105910003CCDF801E05AF74F20813181428153811B
:10592000C301B2010E943F37A70196010E94B03522
:105930006B017C0120E030E040E85FE30E94AC3581
:1059400087FF06C0C12CD12C80E8E82E8FE3F82E0B
:10595000B701A601C8010E94030F65CFCA51DF4FEE
:105960000FB6F894DEBF0FBECDBFDF91CF911F9170
:105970000F91FF90EF90DF90CF90BF90AF909F90EE
:105980008F907F906F905F904F903F902F900895F1
:105990001F920F920FB60F9211242F933F938F9364
:1059A0009F93AF93BF9380919A0E90919B0EA0917D
:1059B0009C0EB0919D0E3091990E23E0230F2D3750
:1059C00020F40196A11DB11D05C026E8230F029603
:1059D000A11DB11D2093990E80939A0E90939B0E5A
:1059E000A0939C0EB0939D0E80919E0E90919F0E61
:1059F000A091A00EB091A10E0196A11DB11D8093A2
:105A00009E0E90939F0EA093A00EB093A10EBF91F7
:105A1000AF919F918F913F912F910F900FBE0F905B
:105A20001F9018953FB7F89480919E0E90919F0E0D
:105A3000A091A00EB091A10E26B5A89B05C02F3F46
:105A400019F00196A11DB11D3FBF6627782F892F40
:105A50009A2F620F711D811D911D42E0660F771F05
:105A6000881F991F4A95D1F70895CF92DF92EF9240
:105A7000FF92CF93DF936B017C010E94122DEB010B
:105A8000C114D104E104F10489F00E9433350E946D
:105A9000122D6C1B7D0B683E734090F381E0C81A99
:105AA000D108E108F108C851DC4FEACFDF91CF916E
:105AB000FF90EF90DF90CF9008958230910538F0FD
:105AC000880F991F880F991F05970197F1F708957F
:105AD000789484B5826084BD84B5816084BD85B5C9
