:100000000C94C0000C94E8000C94E8000C94E800F8
:100010000C94E8000C94E8000C94E8000C94E800C0
:100020000C94E8000C94E8000C94E8000C94E800B0
:100030000C94E8000C944A2A0C94E8000C94E80014
:100040000C94712A0C94E8000C94DC2D0C940E2E68
:100050000C94E8000C94E8000C94E8000C94E80080
:100060000C947A130C94E8007C179017A617C2170B
:10007000E617141833186A181117A4183B175E17DF
:10008000C518DF1866176A1784179A17B617D4179A
:10009000081827184F1983189818A4185217B91858
:1000A000EA18687474703A2F2F6769746875622E45
:1000B000636F6D2F7363692D626F74732F73746533
:1000C000707065722D6D6F746F722D636F6E7472C8
:1000D0006F6C6C65722E67697400302E320053634A
:1000E000692D426F747320496E632E0073746570BE
:1000F0007065722D6D6F746F722D636F6E74726F99
:100100006C6C657200737465707065722D6D6F74C0
:100110006F722D636F6E74726F6C6C65720000008D
:1001200000000800020100000304070000000000B6
:1001300000000001020408102040800102040810A1
:10014000200102040810200404040404040404022E
:100150000202020202030303030303000000002360
:10016000002600290000000000250028002B0000C8
:10017000000000240027002A00007E0682123E2E86
:1001800011241FBECFEFD8E0DEBFCDBF13E0A0E04B
:10019000B1E0E8EBF0E602C005900D92A835B1079A
:1001A000D9F726E0A8E5B3E001C01D92A53BB20750
:1001B000E1F711E0C0E8D1E004C02297FE010E94FF
:1001C000B32FCA37D107C9F70E94C8100C945A3010
:1001D0000C940000CF93DF9300D000D000D0CDB7B7
:1001E000DEB720E829831A821B821C8289599E4F20
:1001F0009E838D8330E040E050E0682F7E8180E078
:1002000090E026960FB6F894DEBF0FBECDBFDF910B
:10021000CF91089502970C94EA0004970C94EA0099
:10022000E091BC04F091BD040280F381E02DBC019B
:100230008CEB94E00994FC018789908D892B39F02F
:10024000818D928D892B79F481E090E002C080E06D
:1002500090E0DC01AA0FBB1FAE0FBF1F58967C9326
:100260006E93579708958FEF0895DB011296ED91E5
:10027000FC91139781818F70873019F081E04111D3
:1002800001C080E008958FEF08957F928F929F9232
:10029000AF92BF92CF92DF92EF92FF920F931F9394
:1002A000CF93DF937C01EB01942E8C016C0184E0F1
:1002B000C80ED11C712C812C5701A2E0AA0EB11CD2
:1002C0009920A1F0F8018789908D009779F0DC01E1
:1002D000ED91FC91D70156964C9150E00480F58148
:1002E000E02D9E01B5010995811113C00E5F1F4FCE
:1002F0000C151D0529F7711023C0EA81FB8181814E
:100300008F708730E9F088248394911019C0812C74
:1003100017C0F8018789908DDC01ED91FC91AA81CD
:10032000BB8114962C9130E04C895D896885798574
:100330000280F381E02D0995882E77247394D6CF1F
:10034000882DDF91CF911F910F91FF90EF90DF905B
:10035000CF90BF90AF909F908F907F900895623024
:1003600030F4FC01E60FF11D428380E008958FEF29
:100370000895FC01828193810C945816CF93DF93EA
:10038000EC010E94B9011C82DF91CF9108952430C5
:10039000310561F4DC01ED91FC91DA012D913D9183
:1003A0004D915C910680F781E02D099480E00895DD
:1003B000CF93DF93FC01452B39F4E901AA81BB817E
:1003C00081E022819C91291380E0DF91CF910895F3
:1003D000EF92FF920F931F93CF93DF9300D000D043
:1003E00000D0CDB7DEB78C01F62EE72EBC018F2DE5
:1003F0009E2D0E940830C8010E940F30AC0160E0C1
:1004000070E049835A836B837C83FD82EE82282FC0
:100410003A818B815C816F2D7E2D482F80E090E0AA
:1004200026960FB6F894DEBF0FBECDBFDF91CF91F9
:100430001F910F91FF90EF90089561307105810534
:10044000910551F460E085E00E94362C60E086E082
:100450000E94362C60E00EC0603171058105910567
:1004600071F461E085E00E94362C61E086E00E9434
:10047000362C61E087E00E94362C81E0089580E010
:100480000895FC0183819481892B39F0FB016081FF
:100490007181828193810C941D0280E008950F93F5
:1004A0001F93FC0183819481892BC1F0FB01608142
:1004B0007181828193818B019C010850110921096E
:1004C000310981E495E0003711052105310520F45B
:1004D0000E94D31181E003C00E94C91180E01F91E6
:1004E0000F91089508950F931F93CF93DF93EC011D
:1004F0001A86198600E010E02B813C8189859A8557
:100500000217130760F4EF81F885E00FF11F608197
:100510000E943F169A8789870F5F1F4FEDCF0E9479
:1005200057169A878987DF91CF911F910F91089570
:100530000F931F93CF93DF9300D000D0CDB7DEB7DA
:100540008B0180E18093810081E08093050661E06A
:10055000101611060CF060E084E029833A834B8387
:100560005C830E94362CB80129813A814B815C81E1
:1005700017FF03C071956195710970930706609329
:10058000060660E074E284E799E40E94AA2E0E94C5
:10059000122FE3E0660F771F881F991FEA95D1F7A6
:1005A0006115710521E08207910540F421E0209357
:1005B000080670930A066093090650C0611571051C
:1005C000E8E08E07910568F422E020930806DC013C
:1005D000CB0153E0B695A795979587955A95D1F796
:1005E00039C061157105F0E48F07910568F423E0C7
:1005F00020930806DC01CB0146E0B695A7959795B8
:1006000087954A95D1F726C061157105810521E0CE
:10061000920740F424E020930806BB27A92F982FC7
:10062000872F18C0611571058105E4E09E0768F405
:1006300025E020930806DC01CB012AE0B695A795BA
:10064000979587952A95D1F705C085E08093080690
:100650008FEF9FEF90930A06809309068091090619
:1006600090910A06909387008093860080910806F7
:100670008061809381001092810010928500109219
:100680008400809108068061809381000F900F9014
:100690000F900F90DF91CF911F910F9108958AE5F0
:1006A00093E00E94951560E171E081E495E00C947F
:1006B0007D12DC01ED91FC910280F381E02D41E09F
:1006C00050E009940F931F93CF93DF93EC018B01BC
:1006D000E881F9816F5F7F4F0280F381E02D41E077
:1006E00050E00995E881F9810280F381E02D41E035
:1006F00050E0B801CE01DF91CF911F910F91099485
:10070000FC01E158FF4F0190F081E02D2189222367
:1007100059F083589F4FDC01ED91FC910190F081DD
:10072000E02D099580E0089580890895FC01E15845
:10073000FF4F0190F081E02D2189222331F0835871
:100740009F4F0E94BE0180E00895808908950F9315
:100750001F93CF93DF93EC018B01E881F9816F5FE9
:100760007F4F0280F381E02D41E050E00995E88160
:10077000F9810280F381E02D41E050E0B801CE0123
:10078000DF91CF911F910F910994CF92DF92EF9259
:10079000FF920F93CF93DF93CDB7DEB768970FB675
:1007A000F894DEBF0FBECDBF6C012A8B3B8B4C8B08
:1007B0005D8B6E8B7F8B088F4A895B896C897D8905
:1007C0008FEF9FEF9B878A87FA82E9820B838E895E
:1007D0009F895F834E83998788875D834C83CE0191
:1007E00001960E9473028CE79CE7ACE7B0E08C872F
:1007F0009D87AE87BF87D6018D919C91DC01ED91DD
:10080000FC910280F381E02D43E050E0BE01645F83
:100810007F4F0995BE016F5F7F4FF6018081918107
:100820000E94A703D6018D919C91DC01ED91FC9172
:100830000280F381E02D41E050E0BE01685E7F4F11
:1008400009958B81843611F0833729F58C819D8140
:10085000998B888BBE01605F7F4FD6018D919C91F3
:100860000E94A7034C815D814115510561F0F6019D
:1008700080819181DC01ED91FC9168857985028010
:10088000F381E02D0995BE01665F7F4FF6018081FF
:1008900091810E94A70368960FB6F894DEBF0FBE41
:1008A000CDBFDF91CF910F91FF90EF90DF90CF9070
:1008B0000895CF93DF93EC011E8A188E1F8A1A8E3B
:1008C000198E8BE491E09983888383E391E09C8F78
:1008D0008B8F1F8E1E8E83E08D8F8FE391E099A307
:1008E00088A31CA21BA283E38AA3BE01655E7F4F7F
:1008F000CE010E941B01E881F981BE01605E7F4F3D
:100900000280F381E02DCE01DF91CF910994EF9227
:10091000FF920F931F93CF93DF93CDB7DEB76D9701
:100920000FB6F894DEBF0FBECDBF8C01FC01E2AC68
:10093000F3AC60E070E08C8D9D8D0E94DB1C288BF9
:10094000398B4A8B5B8B6C8B7D8B8E8B9F8BAE0137
:100950004F5F5F4FB701CE0140960E94EB228FE0C0
:10096000FE013196D80101900D928A95E1F76D96BE
:100970000FB6F894DEBF0FBECDBFDF91CF911F91B0
:100980000F91FF90EF900895EF92FF920F931F93B6
:10099000CF93DF93CDB7DEB72A970FB6F894DEBFBB
:1009A0000FBECDBF8C01FC01F0ACE1AC44A955A950
:1009B0006F2D7E2DCE0101960E94C924F80162ADF3
:1009C00073ADA801CE0101960E94B328882329F0B7
:1009D0008F819885A0E0B0E005C0F12CE12C80E08B
:1009E00090E0DC0189839A83AB83BC83FD82EE8235
:1009F000282F3A814B815C816F2D7E2D80E090E025
:100A00002A960FB6F894DEBF0FBECDBFDF91CF910F
:100A10001F910F91FF90EF900895CF92DF92EF9288
:100A2000FF920F931F93CF93DF93CDB7DEB76997F4
:100A30000FB6F894DEBF0FBECDBF8C017B016901FC
:100A4000CE0101960E946A19882309F4ADC0A6015F
:100A5000B701CE010D960E946A19882309F4A4C03B
:100A6000EB81FC812181822F807C09F092C0207370
:100A7000203131F4EB85FC858081882339F00CC06E
:100A8000203221F4EB85FC85C08008C0CC24C394BF
:100A9000222321F0C12C02C0CC24C394D801ED91B3
:100AA000FC910190F081E02D4C2DBE016F5F7F4FD6
:100AB000C801298F09958823D9F0EB81FC814481F5
:100AC00050E069857A858D899E890E941830298D2C
:100AD000203131F4EB85FC858081EF89F88D07C0EA
:100AE000203231F4EF89F88DAB85BC858C91808301
:100AF000CC2009F44EC0AB81BC8111968C9111972A
:100B00008F70873009F045C0EB85FC858081EF89C7
:100B1000F88D8083F8012689822F90E0FC013196C0
:100B2000EE0FFF1FEE0FFF1FE00FF11FB183A08339
:100B3000FC01EE0FFF1FEE0FFF1FE00FF11F898179
:100B40009A81938382832F5FD80156962C93E12C50
:100B5000F12CD12CEC14FD04C4F4EB81FC818481D4
:100B60008E9D802D112490E02D893E89280F391FFC
:100B700049855A85480F591F66817781C8010E94AF
:100B80000D05BFEFEB1AFB0AE5CFF801868981500E
:100B9000868BCE0101960E948A19882329F0CE0106
:100BA0000D960E948A1959CF69960FB6F894DEBF48
:100BB0000FBECDBFDF91CF911F910F91FF90EF90AE
:100BC000DF90CF9008958F929F92AF92BF92EF9255
:100BD000FF920F931F93CF93DF93CDB7DEB7A39709
:100BE0000FB6F894DEBF0FBECDBF8C0186E0F801D2
:100BF000F496DE015E9601900D928A95E1F78E8C57
:100C00009F8CA8A0B9A0EAA0FBA042E050E060E061
:100C100070E0CE0101960E94283049815A81CA01B4
:100C2000A0E0B0E088169906AA06BB0640F062E094
:100C300070E0C7010E94283069817A8105C0E12CEB
:100C4000F12C60E070E0CB01E114F10421F4C80163
:100C50000E94870415C0C7010E94DB1C29833A83C8
:100C60004B835C836D837E838F839887F80162ADAD
:100C700073ADA801CE0101960E946721882339F344
:100C8000F801E0ACF1ACA2ACB3AC60E070E08C8DEC
:100C90009D8D0E94DB1C288B398B4A8B5B8B6C8B68
:100CA0007D8B8E8B9F8BAE014F5F5F4FB501CE0169
:100CB00040960E94EB228FE0FE013196D701019011
:100CC0000D928A95E1F7F80162AD73AD15A2970117
:100CD000A801C8010F960E940D05A3960FB6F894BF
:100CE000DEBF0FBECDBFDF91CF911F910F91FF905F
:100CF000EF90BF90AF909F908F9008954F925F922A
:100D00006F927F928F929F92AF92BF92CF92DF921B
:100D1000EF92FF920F931F93CF93DF93CAE5D3E037
:100D200081E191E0998388835CE5E52E53E0F52E1F
:100D300087E191E0D7018D939C930EE513E08DE15F
:100D400091E0F801918380838FE693E00E9459043B
:100D500081E891E090939B0380939A031092B303F0
:100D600083E591E090939E0380939D0389EA91E04F
:100D70009093BB038093BA03ECE0F4E011821082FD
:100D800010920E041092100410920F0444244A94FE
:100D9000542C509216044092150470E5672E712C65
:100DA00070921204609211048CEB93E090931404FF
:100DB00080931304A7E1AA2EA4E0BA2ED5011C92B9
:100DC0001092180410922404109223041092260406
:100DD0001092250410922A041092290410923804CB
:100DE00010923704F0932C04E0932B04C5010E9469
:100DF0005816B9E3CB2EB4E0DB2E83E2882E81E0D7
:100E0000982EF60191828082B0923C04A0923B041D
:100E1000C6010E94B9018BE291E0D6018D939C93AB
:100E200084E196E090933E0480933D04EFE8F4E083
:100E300011821082109291041092930410929204E5
:100E40005092990440929804709295046092940490
:100E50008FE394E090939704809396049AE9A92EE7
:100E600094E0B92ED5011C9210929B041092A70415
:100E70001092A6041092A9041092A8041092AD0436
:100E80001092AC041092BB041092BA04F093AF0419
:100E9000E093AE04C5010E9458162CEBC22E24E04C
:100EA000D22EF60191828082B092BF04A092BE043D
:100EB000C6010E94B9018BE591E0D6018D939C9308
:100EC0001092C004C6010E94BE0183E691E099839E
:100ED000888389E691E0F701918380838FE691E032
:100EE000D8018D939C93D0935903C0935803DF91FD
:100EF000CF911F910F91FF90EF90DF90CF90BF9017
:100F0000AF909F908F907F906F905F904F900895DB
:100F1000CF93DF93E0913904F0913A04C281D381F9
:100F200084E196E00E94972CBC0189E394E0FE01E5
:100F3000DF91CF910994BF92CF92DF92EF92FF920F
:100F40000F931F93CF93DF931F92CDB7DEB78C0122
:100F50007B0181E495E00E940B11B82E81E0E81A34
:100F6000F108F8018481811101C0B482C12CD12C17
:100F7000CE14DF04A4F481E495E00E940B11898370
:100F8000F8018481B81207C0BE016F5F7F4F828174
:100F900093810E947716FFEFCF1ADF0AE9CF0F90F7
:100FA000DF91CF911F910F91FF90EF90DF90CF9045
:100FB000BF900895EF92FF920F931F93CF93DF930B
:100FC000CDB7DEB769970FB6F894DEBF0FBECDBFC1
:100FD0007C012B8B3C8B4D8B5E8B6F8B788F098FBD
:100FE0004B895C896D897E891A8219828FEF9FEF08
:100FF0009B878A870B838F89988D5F834E83998720
:1010000088875D834C83CE0101960E9473028CE732
:101010009CE7ACE7B0E08C879D87AE87BF87809167
:10102000BA0086958A8BF701608181E495E00E9481
:10103000F911BE016E5E7F4F81E495E00E94590375
:1010400043E050E0BE01645F7F4F81E495E00E9481
:101050005D11BE016F5F7F4F81E495E00E946203E6
:10106000BE01675E7F4F81E495E00E9459038C8149
:101070009D81998B888BBE01605F7F4F81E495E0F5
:101080000E94620381E495E00E947A120C811D8126
:101090000115110551F10032110510F00FE110E0BA
:1010A000F701608181E495E00E94F911BE016E5E56
:1010B0007F4F81E495E00E94590368857985A801F6
:1010C00081E495E00E945D1181E495E00E947A122E
:1010D00088859985800F911F998788878C819D814C
:1010E000801B910B9D838C83D1CFF701608181E4BC
:1010F00095E00E94F911BE016E5E7F4F81E495E09C
:101100000E945903BE01665F7F4F81E495E00E9413
:10111000620381E495E00E947A1269960FB6F89412
:10112000DEBF0FBECDBFDF91CF911F910F91FF901A
:10113000EF9008954F925F926F927F928F929F925D
:10114000AF92BF92CF92DF92EF92FF920F931F93D5
:10115000CF93DF93CDB7DEB7CE5BD1090FB6F8944E
:10116000DEBF0FBECDBFDC01CD54DF4F2883C35B94
:10117000D040CC54DF4F3883C45BD040CB54DF4FDA
:101180004883C55BD040CA54DF4F5883C65BD0400C
:10119000C954DF4F6883C75BD040C854DF4F7883A2
:1011A000C85BD040C754DF4FC882C95BD040C6542B
:1011B000DF4FD882CA5BD040C554DF4FE882CB5B9B
:1011C000D040C454DF4FF882CC5BD040C354DF4FD3
:1011D0000883CD5BD040C254DF4F1883CE5BD04034
:1011E000C954DF4FE881F981C75BD040C354DF4F5A
:1011F00008811981CD5BD04020813181243083E08A
:10120000380709F4B2C308F03CC12E30310509F4A7
:10121000F8C208F0A0C02630310509F4B1C208F0C8
:101220007BC02230310509F425C2E0F521153105D6
:1012300009F4ECC12130310509F04AC68D919C9129
:10124000DC01ED91FC910190F081E02D0995E09693
:101250006FAFE097E1967FAFE197E1966EAD7FAD1E
:10126000E19785E091E00E94E801A6962FAFA6974E
:10127000A7963FAFA797A8964FAFA897A9965FAF3D
:10128000A997AA966FAFAA97AB967FAFAB97A9968F
:10129000CCACDDACEEACFFACA997AB960EAD1FAD00
:1012A000AB9738C68D919C912430310509F416C254
:1012B00008F046C2DC01ED91FC910190F081E02D37
:1012C000099568966FAF689769967FAF6997699639
:1012D0006EAD7FAD69978EED90E00E94E8012E968D
:1012E0002FAF2E972F963FAF2F9760964FAF6097F7
:1012F00061965FAF619762966FAF629763967FAFBB
:1013000063976196CCACDDACEEACFFAC61976396B5
:101310000EAD1FAD6397FEC52A30310509F438C202
:1013200078F42830310509F44DC208F053C20E9408
:10133000BB2AD8016D937D938D939C9313973CC2E8
:101340002C30310509F454C208F056C26381828101
:101350000E94FD2BC4C52F3F81E0380709F4A2C2CB
:1013600008F052C02131310509F455C2A0F42F30E4
:10137000310509F44AC22031310509F0A9C59F01A0
:101380002E5F3F4F86819781820F931F97838683BD
:1013900082819381DFC22F3F310509F421C32E3FA3
:1013A000A1E03A0709F46AC22231310509F090C57B
:1013B0009F012E5F3F4F86819781820F931F9783F6
:1013C000868386E0F901DE01A556BF4F01900D929C
:1013D0008A95E1F786E0FE01E556FF4FDE01AB5648
:1013E000BF4F01900D928A95E1F7CB56DF4FC88031
:1013F000D980EA80FB80C559D040C756DF4F0881AD
:101400001981C959D04086C5211583E0380709F4F0
:1014100072C298F42D3FA2E03A0709F45FC22F3F51
:10142000B2E03B0709F463C22115324009F050C510
:101430008FEF93E0A0E0B0E0BAC12230F3E03F07C5
:1014400009F484C208F08AC28D919C91DC01149643
:10145000ED91FC9115970190F081E02D049609958E
:1014600029A73AA74BA75CA76DA77EA789A49AA432
:10147000ABA4BCA40DA51EA578E0772EC12CD12C61
:101480005CC2223085E0380709F41CC408F05FC054
:101490002E3F83E0380709F4F6C2D0F5273083E009
:1014A000380709F497C228F5253083E0380709F496
:1014B00063C22630334009F00BC5CF010296A780E6
:1014C000B084A80EB91EB086A782C380D480E58000
:1014D000F680628181E495E00E94F911A601B501D0
:1014E00081E495E00E945D1181E495E00E947A120A
:1014F000F6C42C3F83E0380709F472C208F075C2C5
:101500002830334009F0E4C48091BA008E7F65C270
:101510002E3F84E0380709F4EFC288F42C3FE4E062
:101520003E0709F4B7C208F0E1C22B3F344009F08E
:10153000CFC48D919C9106960E94E305D0C42115DD
:1015400085E0380709F454C308F408C35EC32C3F90
:1015500086E0380709F452C088F52C3F85E038074B
:1015600009F412C450F42A3FE5E03E0709F4C5C36C
:101570002B3F354009F4E3C3ABC42A3F86E038076C
:1015800009F452C408F055C4293F364009F0A0C4FC
:101590008D919C91DC01ED91FC910190F081E02D09
:1015A000099529833A834B835C836D837E83C9804D
:1015B000DA80EB80FC800D811E81ACC4211587E0B0
:1015C000380709F463C440F42E3FB6E03B0709F442
:1015D0004DC408F434C450C4223087E0380709F4FD
:1015E00063C408F45EC42330374009F071C46281DB
:1015F0007381848195810E941D0263C409E011E01A
:10160000A3E0CA2ED12CE12CF12C84C48D919C91A5
:10161000DC01ED91FC910190F081E02D0995EC96B3
:101620006FAFEC97ED967FAFED97ED966EAD7FAD1A
:10163000ED978EE191E00E94E801E2962FAFE297EC
:10164000E3963FAFE397E4964FAFE497E5965FAF3D
:10165000E597E6966FAFE697E7967FAFE797E59653
:10166000CCACDDACEEACFFACE597E7960EAD1FADB4
:10167000E79750C48D919C91DC01ED91FC91019014
:10168000F081E02D0995A4966FAFA497A5967FAF42
:10169000A597A5966EAD7FADA5978CEE90E00E94C4
:1016A000E8016A962FAF6A976B963FAF6B976C967F
:1016B0004FAF6C976D965FAF6D976E966FAF6E97ED
:1016C0006F967FAF6F976D96CCACDDACEEACFFAC98
:1016D0006D976F960EAD1FAD6F971CC4DC01ED9139
:1016E000FC910190F081E02D09952C966FAF2C971D
:1016F0002D967FAF2D972D966EAD7FAD2D978AEDF0
:1017000090E00E94E80122962FAF229723963FAFE8
:10171000239724964FAF249725965FAF259726965B
:101720006FAF269727967FAF27972596CCACDDAC79
:10173000EEACFFAC259727960EAD1FAD2797EAC3F9
:10174000DC01ED91FC910190F081E02D09956FAFE6
:1017500021967FAF219721966EAD7FAD219782EACA
:1017600090E00E94E8012DAB3EAB4FAB58AF69AFA4
:101770007AAFCDA8DEA8EFA8F8AC09AD1AADCAC300
:101780000E94C72AF801608371838283938314C007
:101790002091B1063091B2068DB79EB72115310563
:1017A00021F5855B9640AA2797FDA095BA2FF801F1
:1017B00080839183A283B383F4E0CF2ED12CE12CDC
:1017C000F12CA8C382819381009709F488C30E94F9
:1017D000122B85C3628173816115710509F47FC382
:1017E00080E090E00E94EA2A7AC3821B930BDBCF51
:1017F00082810E946C2C65C3638182810E94362C99
:101800006EC382810E94582B53C3638170E0828132
:101810000E94752B64C39F012E5F3F4F8681978185
:10182000820F931F9783868386E0F901DE01A95515
:10183000BF4F01900D928A95E1F786E0FE01E955D0
:10184000FF4FDE01AF55BF4F01900D928A95E1F732
:10185000CB55DF4F08811981C55AD040CF55DF4F96
:10186000C880D980EA80FB80C15AD040E2E0CC0C2D
:10187000DD1CEE1CFF1CEA95D1F74CC3CF0102968C
:1018800022853385280F391F338722876281738130
:1018900084819581C680D780E084F184F894A60184
:1018A000C90120C1C680D78082809380A480B58082
:1018B0008D919C91DC011296ED91FC911397019012
:1018C000F081E02D029609956BAB7CAB0BA91CA9AE
:1018D000A601B401C8010E94283050C24281538140
:1018E0006481758181E495E00E94E611F8C28091DF
:1018F000BA008695E6C280E290E0DAC2672D81E404
:1019000095E00E94F91181E495E00E947A1281111C
:101910000FC07601BFEFEB1AFB0AF801EC0DFD1DBD
:10192000708261E070E080E090E00E94EA2A670146
:101930007394E8E77E1609F421C2C601A0E0B0E086
:1019400088159905AA05BB05C8F218C281E495E07F
:101950000E940311D8018D939C93ADC281E495E060
:101960000E940B11F8018083AEC24381628181E441
:1019700095E00E947712A5C2D380F2808D919C9150
:10198000DC011496ED91FC9115970190F081E02D0A
:10199000049609956FA378A70FA118A54D2D6F2D5B
:1019A00081E495E00E947712B02E7801CE2CCB18FE
:1019B00081E495E00E940311892B31F081E495E0E8
:1019C0000E940B11CD1410F0D12CD8C1F7018193D6
:1019D0007F01ECCF8091BA0081608093BA007FC212
:1019E00089E490E0A0E0B0E0E2CE9F012E5F3F4F9F
:1019F00087819085820F931F908787831281ED9056
:101A0000FC9086E03396DE01A157BF4F01900D9206
:101A10008A95E1F786E0FE01E157FF4FDE015D9612
:101A200001900D928A95E1F75701FEE9AF1AFEEF9A
:101A3000BF0AC5010E94BE01C7018A599E4FDC0141
:101A40001C9304E62D8D3E8D4F8D58A169A17AA17E
:101A50000E94DA070E94BB2A2B013C0187010B512F
:101A60001F4F0E94BB2A64197509860997096838B7
:101A700073418105910508F036C2C8010E949603A2
:101A8000811131C2EECF8D919C918E599E4F0E9453
:101A9000BE0125C28D919C9106960E94C4042B879D
:101AA0003C874D875E876F87788B8F859889892BD8
:101AB00009F415C286E0FE013B96DE011196019005
:101AC0000D928A95E1F7F89442E050E060E070E012
:101AD000CE0101960E94383049815A8162E070E05F
:101AE0008D819E810E9438307894F9C18D919C91AE
:101AF00006960E948704F3C18D919C9106960E94E0
:101B0000C404C757DF4F2883C958D040C657DF4F9A
:101B10003883CA58D040C557DF4F4883CB58D04090
:101B2000C457DF4F5883CC58D040C357DF4F68832A
:101B3000CD58D040C257DF4F7883CE58D040C757DA
:101B4000DF4FC880D980EA80FB80C958D040C35796
:101B5000DF4F08811981CD58D040DCC19F012E5F35
:101B60003F4F86819781820F931F97838683ED90E5
:101B7000FC9046E0F901DE01AD57BF4F01900D9298
:101B80004A95E1F726E0FE01ED57FF4FDE0157963B
:101B900001900D922A95E1F7F701C6ACD7AC6F8999
:101BA000788D0E94DB1C29833A834B835C836D8391
:101BB0007E838F8398875701F0E4AF0EB11CD50167
:101BC0006D917C91A601CE0101960E94EB22982E88
:101BD000882309F426C1F50160817181D7019B96A4
:101BE0001C9297012A5F3F4FA601C701459617C176
:101BF00021E082819381A481B581892B8A2B8B2B53
:101C000009F420E0D8012C935EC182819381A481E4
:101C1000B5818034E8E39E07A105B10509F467C0EA
:101C200058F5803B24E09207A105B10509F45FC097
:101C300070F48C32F1E09F07A105B10509F457C09B
:101C400088359240A105B10509F055C050C0803CCF
:101C5000E2E19E07A105B10509F449C08038F5E22B
:101C60009F07A105B10509F442C080369940A1053E
:101C7000B10509F040C03BC08231EAE79E07A105EB
:101C8000B105A9F160F481152BE49207A105B10516
:101C900071F180389047A105B10569F528C081151B
:101CA000F1EE9F07A105B10511F1811522EC920714
:101CB00021E0A207B105D9F081159649A105B1052A
:101CC000D1F415C062817381848195816B017C019F
:101CD000B8E0CB1AD108E108F10881E495E0E0E72B
:101CE000CE16D104E104F10420F40E94D31181E066
:101CF000E8C00E94C91180E0E4C0ED90FC90B2E41D
:101D0000EB0EF11CF701C68CD78C60E070E08D897A
:101D10009E890E94DB1C29833A834B835C836D83FD
:101D20007E838F839887AE01455F5F4FB601CE01FA
:101D300001960E94EB228B85D7018C93D0C0ED9049
:101D4000FC90F701E25AFF4F0081118134974081E6
:101D50005181B801CE0101960E94C924A7014E5BB2
:101D60005F4FF701E05AFF4F60817181CE0101960C
:101D70000E94B328882329F0CF80D884E12CF12C4D
:101D8000C9C000E010E0ABC09F012E5F3F4F8681CD
:101D90009781820F931F97838683CD90DC9046E0D6
:101DA000F901DE01A358BF4F01900D924A95E1F76A
:101DB00026E0FE01E358FF4FDE011B9601900D92D5
:101DC0002A95E1F77601B2E4EB0EF11CF701A48C41
:101DD000B58C6B857C850E94DB1C29833A834B8301
:101DE0005C836D837E838F839887F601E05AFF4F73
:101DF00060817181A501CE0101960E94EB22982E8F
:101E0000882379F0D7015E966D917C915F97F601FA
:101E1000E75AFF4F10829701A501C70101960E9462
:101E20000D05F80190824FC08D919C910E949515EF
:101E300056C062818D919C910E94C41450C08091C3
:101E40000606909107060197909307068093060671
:101E500061E083E00E94362C60E083E00E94362C33
:101E60008091060690910706892BC9F51092050608
:101E700080E18093810033C084E00E946C2C21E0DB
:101E8000892B09F420E0F80120831DC024813581CD
:101E900046815781628173818D919C910E94980245
:101EA0001EC0809105060DC0809106069091070620
:101EB000F8019183808362E0C62ED12CE12CF12CB5
:101EC00029C0D8018C93C12CD12C7601C39422C097
:101ED00000E010E0CC24CA94DC2C76011BC0C12C9D
:101EE000D12C760117C0F701EB5CFE4F07811085FE
:101EF000C380D480E12CF12CB8E4CB16D104E104EA
:101F0000F10428F037E4C32ED12CE12CF12CC501CB
:101F10000E94BE01C355DF4FC882D982EA82FB828C
:101F2000CD5AD040CF54DF4F19830883C15BD040D6
:101F30002C2DC255DF4F3881CE5AD040C155DF4FCE
:101F40004881CF5AD040C055DF4F5881C05BD04048
:101F5000602FCE54DF4F7881C25BD04080E090E0AC
:101F6000C254DF4F0FB6F894DEBF0FBECDBFDF9176
:101F7000CF911F910F91FF90EF90DF90CF90BF9086
:101F8000AF909F908F907F906F905F904F9008954B
:101F90008F929F92AF92BF92CF92DF92EF92FF9279
:101FA0000F931F93CF93DF93CDB7DEB762970FB632
:101FB000F894DEBF0FBECDBFFC01CB01438154813D
:101FC0002281243619F44115510539F460E080E08E
:101FD0002FEF4FEF30E090E02CC03781A085032F2A
:101FE0003D83AE8385809680A12CB12CC82C89823C
:101FF0009A82AB82BC8260E070E0242F4F835887C6
:1020000069877A87632F3B87AC87DA80EB80FC8017
:102010001A2F388549855A857A2F0E949A082D876C
:102020003E874F87588B698B7A8B432F3F85952F3F
:10203000872F29834A833B839C836D838E83342F30
:102040004B81592F782F80E090E062960FB6F8947C
:10205000DEBF0FBECDBFDF91CF911F910F91FF90DB
:10206000EF90DF90CF90BF90AF909F908F900895AA
:10207000EF92FF920F93CF93DF93CDB7DEB72C97FC
:102080000FB6F894DEBF0FBECDBF8CEB93E00E947D
:102090008003882389F18CEB93E00E9480038823DE
:1020A00059F168E573E08CE094E00E94C80F38872E
:1020B0005A876B877C87322F6885542F4A858B859A
:1020C0009C85892B21F430E060E050E040E0232F34
:1020D0003F83688759874A87E12CF12C04E6362F25
:1020E000452F5A856B857C858DE394E00E94C5035E
:1020F00089E394E00E94B9018FE394E00E94960383
:102100008823D1F18FE394E00E9496038823A1F104
:1021100068E573E08FE894E00E94C80F3A835C831F
:102120006D837E83322F6A81542F4C818D819E81F5
:10213000892B21F430E060E050E040E0232F398328
:102140006A835B834C8304E6362F452F5C816D8167
:102150007E8180EC94E00E94DA078CEB94E02C9670
:102160000FB6F894DEBF0FBECDBFDF91CF910F91B8
:10217000FF90EF900C94BE012C960FB6F894DEBF42
:102180000FBECDBFDF91CF910F91FF90EF900895DB
:102190000E941D2B0E9472020E944F03C4ECDCE2DD
:1021A0000E9438102097E1F30E94C42CF9CFCF92FF
:1021B000DF92EF92FF920F931F93CF93DF931F92C3
:1021C000CDB7DEB77C016B0100E010E00C151D05FA
:1021D00084F484E196E00E94B02C8983BE016F5F95
:1021E0007F4FF701828193810E9477160F5F1F4F07
:1021F000EDCF0F90DF91CF911F910F91FF90EF9056
:10220000DF90CF9008958091750590E0209176053C
:10221000821B9109089520917605809175052817F4
:1022200050F4E22FF0E0E958FA4F808190E02F5F00
:102230002093760508958FEF9FEF0895E09176053E
:1022400080917505E81730F4F0E0E958FA4F808185
:1022500090E008958FEF9FEF08950895E0914D0568
:10226000F0914E053097E1F030917605209175059B
:102270003217B0F040E0242F30E02617370754F42F
:10228000DC01A20FB31F5C91D901A958BA4F5C932E
:102290004F5FF1CF1092760560937505CB010994DD
:1022A0000895E0914F05F0915005309729F0109274
:1022B00053051092520509940895CF92DF92EF9240
:1022C000FF920F931F93CF93DF937C01CB018A0181
:1022D00020915105222389F0EB016B01C40ED51E1C
:1022E000CC15DD0569F06991D701ED91FC91019064
:1022F000F081E02DC7010995F3CF642F0E944713A9
:10230000C801DF91CF911F910F91FF90EF90DF9067
:10231000CF900895CF93DF931F92CDB7DEB7698337
:10232000209151052223D1F020915205203240F016
:1023300021E030E0FC013383228380E090E015C08F
:1023400080915305E82FF0E0EC5AFA4F9981908381
:102350008F5F809353058093520505C061E0CE01E5
:1023600001960E94471381E090E00F90DF91CF919A
:102370000895FC011382128248EE53E060E070E0A1
:10238000448355836683778385E791E091838083D7
:1023900008951092760510927505109253051092CB
:1023A00052050C948612CF93DF93EC01862F0E9486
:1023B000A41281E591E10E9465138EE291E10E94F1
:1023C0006013CE01DF91CF910C94C9119A01AB013A
:1023D00060E074E284EF90E00E948F2F2051310979
:1023E0004109510956954795379527952093B8008F
:1023F000089581E080935105609374051092530510
:102400001092520508950F93062F21E04091520536
:1024100064E575E0809174050E94F01210925305F6
:1024200010925205109251050F9108958F929F922C
:10243000AF92BF92CF92DF92EF92FF920F931F93D2
:10244000CF93DF93EC01F62ED42E48015901EE20F4
:1024500019F10E94F9111E2D143008F013E01150EB
:10246000B8F0E881F98128E0129FB0011124A5019C
:10247000940104C056954795379527956A95D2F7EC
:10248000CA01B9010190F081E02DCE010995E7CF95
:1024900060E0CE010E9403124D2D413208F040E26F
:1024A0002C2D67E775E08F2D0E94A81210927605FB
:1024B00080937505DF91CF911F910F91FF90EF9061
:1024C000DF90CF90BF90AF909F908F900895CF9264
:1024D000EF920F931F93C22EE12C00E010E09801C1
:1024E0000E9416121F910F91EF90CF90089521E056
:1024F0000C94671261E00C94031270934E05609384
:102500004D05089581E495E00C94B91110920406EC
:1025100081E0809302061092010661E082E10E9450
:10252000362C61E083E10E94362CE9EBF0E08081FB
:102530008E7F808380818D7F808388E48093B80044
:1025400085E48093BC000895880F8093BA000895B5
:10255000413208F043C0909104069111FCCF91E004
:1025600090930406209302062FEF20939705109274
:10257000DC05240F2093DB0590930306909103065E
:10258000880F892B8093030680910106813061F4C6
:1025900010920106809103068093BB008091BC00DD
:1025A00083FDF8CF85EC01C085EE8093BC0080915F
:1025B00004068130E1F38091DC05841710F440912A
:1025C000DC052DED35E0FB01D9018A2F821B841734
:1025D00018F48D918193F9CF842F089580E00895A8
:1025E0000F93413208F04AC0909104069111FCCF3C
:1025F00092E090930406009302069FEF9093970554
:102600001092DC054093DB05FB016DED75E0DB010D
:102610009A2F961B941718F491919D93F9CF1092CD
:10262000030690910306880F892B809303068091FF
:102630000106813061F410920106809103068093B7
:10264000BB008091BC0083FDF8CF85EC01C085EE16
:102650008093BC00222321F0809104068230E1F3B4
:10266000809197058F3F61F080919705803251F0FE
:1026700080919705803341F483E007C081E005C075
:1026800080E003C082E001C084E00F9108956132D0
:1026900098F420910406243089F46093B905FC0174
:1026A0008BEB95E0DC012A2F281B261718F42191CB
:1026B0002D93F9CF80E0089581E0089582E0089598
:1026C0009093FE058093FD050895909300068093F6
:1026D000FF05089585ED8093BC008091BC0084FDCA
:1026E000FCCF10920406089585EC8093BC001092F4
:1026F000040608951F920F920FB60F9211242F9384
:102700003F934F935F936F937F938F939F93AF9379
:10271000BF93EF93FF938091B900887F803609F4CF
:102720009EC078F5883209F45DC090F4803109F4D8
:1027300056C038F4882309F4F5C0883009F44FC036
:10274000F5C0883109F44EC0803209F45FC0EEC094
:10275000803409F46AC058F4803309F457C08833D0
:1027600009F0E4C0809397050E947413DFC08035A0
:1027700009F44FC0883509F45DC0883409F0D6C02B
:10278000D3C0883909F4C4C0A8F4883709F467C0F5
:1027900038F4883609F463C0803709F460C0C6C0D5
:1027A000883809F4B5C0803909F45FC0803809F071
:1027B000BDC05BC0803B09F483C038F4803A09F4A3
:1027C00066C0883A09F47CC0B1C0803C09F4A4C05A
:1027D000883C09F4A1C0883B09F487C0A7C0809158
:1027E000030610C09091DC058091DB05981770F509
:1027F000E091DC0581E08E0F8093DC05F0E0E35290
:10280000FA4F80818093BB0085EC83C0809397054D
:102810008BC0E091DC0581E08E0F8093DC05809118
:10282000BB00F0E0E352FA4F80839091DC05809189
:10283000DB056BC0E091DC0581E08E0F8093DC0549
:102840008091BB00F0E0E352FA4F80838091020652
:1028500081116AC081E08093010684EA5EC083E052
:102860008093040610929805CFCF8091980580320E
:1028700008F04EC0E091980581E08E0F8093980596
:102880008091BB00F0E0E756FA4F8083BDCF0E94F5
:10289000741380919805803230F4E0919805F0E04F
:1028A000E756FA4F10826091980570E0E091FD05BF
:1028B000F091FE0589E995E009951092980536C0DA
:1028C00084E0809304061092BA051092B905E09155
:1028D000FF05F091000609958091B905811105C0A9
:1028E00081E08093B9051092BB05E091BA0581E0C3
:1028F0008E0F8093BA05F0E0E554FA4F8081809303
:10290000BB009091BA058091B905981708F47CCF67
:1029100085E88093BC000AC085EC8093BC001092CF
:10292000040604C0109297050E946A13FF91EF916C
:10293000BF91AF919F918F917F916F915F914F91D7
:102940003F912F910F900FBE0F901F90189580917F
:102950000606909107060197909307068093060656
:1029600061E083E00E94362C60E083E00E94362C18
:102970008091060690910706892B29F4109205068E
:1029800080E1809381000895CF92DF92EF92FF92D1
:10299000CF93DF93EC01262FC62ED12CE12CF12C06
:1029A0008BA99CA9892BA9F0B701A6014850510910
:1029B00061097109403751056105710530F4622FD5
:1029C00081E495E00E94D31104C081E495E00E9467
:1029D000C911CF82D886E986FA86DF91CF91FF9020
:1029E000EF90DF90CF9008958F929F92AF92BF9219
:1029F000CF92DF92EF92FF920F931F93CF93DF93CB
:102A0000CDB7DEB7A3970FB6F894DEBF0FBECDBF2C
:102A10008C01C62ED12C86E0F801F496DE015E967C
:102A200001900D928A95E1F78E8C9F8CA8A0B9A099
:102A3000EAA0FBA042E050E0B601CE0101960E9460
:102A4000283049815A81CA01A0E0B0E08816990671
:102A5000AA06BB0648F0B6016E5F7F4FC7010E9411
:102A6000283069817A8105C0E12CF12C60E070E0AA
:102A7000CB01E114F10421F4C8010E94870415C0C0
:102A8000C7010E94DB1C29833A834B835C836D83DF
:102A90007E838F839887F80162AD73ADA801CE0164
:102AA00001960E946721882339F3F801E0ACF1AC6C
:102AB000C2ACD3AC60E070E08C8D9D8D0E94DB1CBD
:102AC000288B398B4A8B5B8B6C8B7D8B8E8B9F8B92
:102AD000AE014F5F5F4FB601CE0140960E94EB22E0
:102AE0008FE0FE013196D70101900D928A95E1F7B2
:102AF000F80162AD73AD15A29701A801C8010F9648
:102B00000E940D05A3960FB6F894DEBF0FBECDBF91
:102B1000DF91CF911F910F91FF90EF90DF90CF90B9
:102B2000BF90AF909F908F900895EF92FF920F9378
:102B30001F93CF93DF93CDB7DEB768970FB6F894A6
:102B4000DEBF0FBECDBF8C01DC01ED91FC91019089
:102B5000F081E02D09952B8B3C8B4D8B5E8B6F8B21
:102B6000788F86E0FE017396DE01179601900D9234
:102B70008A95E1F786E0FE013796D801DA96019052
:102B80000D928A95E1F7F80114AB03AB11AF00AFDA
:102B90007801F6E0EF0EF11CC7010E94870460E0A7
:102BA000C7010E94F414D801ED91FC910190F081CD
:102BB000E02DC80109952D873E874F87588B698B7B
:102BC0007A8B86E0FE013D96DE01119601900D9212
:102BD0008A95E1F786E0FE013196D801A65ABF4FEB
:102BE00001900D928A95E1F726E040E052EC61E019
:102BF00070E084E196E00E947A2D8CE08093B8002A
:102C000061E084E00E94FD2B61E083E00E94FD2BE7
:102C100061E085E00E94FD2B61E086E00E94FD2BD3
:102C200061E087E00E94FD2BE1E8F0E030E13083D5
:102C30001092800021E02093080680E49FE19093A9
:102C40000A0680930906909387008093860081E1AD
:102C50008083308387EA94E1909307018093060193
:102C600020936F0068960FB6F894DEBF0FBECDBFFD
:102C7000DF91CF911F910F91FF90EF9008958627DC
:102C8000682F62956827062E669566956025062E44
:102C9000669560256770082E892F6695079467955D
:102CA000902D862706946795902586270895089588
:102CB000FC01A489B58912961C92129714961C9255
:102CC0001E9213978FEF9FEF1A969C938E931997EE
:102CD000138A128A108A118A1786168611A210A2E8
:102CE0008CE090E093838283178E168E0895AF92C6
:102CF000BF92CF92DF92EF92FF920F931F93CF93E9
:102D0000DF931F92CDB7DEB78C016115710581F499
:102D1000CE010196D80115969C938E931497179621
:102D20009C938E93169719969C938E93189707C031
:102D3000FC01758364836F5F7F4F77836683D8015F
:102D400014962D913C91159716968D919C911797FD
:102D50002817390709F057C071C2608180E090E000
:102D60000E943F16F801938B828B0488F589E02D31
:102D70000780F085E02DD8011E968D919C911F97BC
:102D80009C012F5F3F4F1F963C932E931E971496E6
:102D90002D913C911597D9012C91E80FF91F2083B3
:102DA000F80126853785848595852817390709F028
:102DB00011C2068CF78DE02DCF010197D8015F96E7
:102DC0009C938E935E973A96EE0FFF1FE00FF11FD4
:102DD0008081918113969C938E931297D8011296BD
:102DE000ED91FC911397EF30F10508F454C2F8010E
:102DF000848195810196958384832681378182170A
:102E0000930709F41BC2D8011296ED91FC91139718
:102E10003197EE30F10508F0EBC1EC5CFF4F0C94FC
:102E2000B12FD8015496ED91FC915597F184E12C86
:102E3000F286E18614968D919C911597DC018C9118
:102E40009701280F311DC90132872187D801529679
:102E50002D913C9153978217930749F481E0509646
:102E60008C9350971E968D919C911F9719C081E06D
:102E7000F801818B17C0D8011C968D919C911D97EC
:102E80005496ED91FC915597258136812817390785
:102E900018F421E051962C9321E0D80150962C9300
:102EA00094838383F801848195810196958384833B
:102EB000268137818217930709F49AC1D8011496A5
:102EC000ED91FC91159780818C3721F0F8011382E8
:102ED0001282F4C1D80114968D919C911597019698
:102EE00015969C938E93149716962D913C91179757
:102EF0008217930709F47FC1D8011496ED91FC91D4
:102F0000159780818C3711F7F8018481958101969E
:102F100095838483268137818217930709F46EC1D4
:102F2000D8011496ED91FC91159780818C3771F63C
:102F300050961C92F8018481958101969583848333
:102F4000268137818217930709F460C1D80154960E
:102F5000ED91FC9155971182108214968D919C9160
:102F60001597DC018C9190E091838083F801848136
:102F700095810196958384832681378182179307F3
:102F800009F447C1D8015496ED91FC9155971496D8
:102F90008D919C911597DC018C91B080A12C9501AD
:102FA000282BC90191838083D80114968D919C911F
:102FB0001597019615969C938E93149716962D91BE
:102FC0003C9117978217930709F426C1D8011496EC
:102FD000ED91FC91159780818436A1F068F48136DB
:102FE00009F074CFD8015496ED91FC9155978283E6
:102FF00081E050968C9356CF8E3609F493C0833778
:1030000009F064CFD8015496ED91FC9155978283D5
:10301000F801848195810196958384832681378187
:103020008217930709F4FBC0D80191961C921E9257
:1030300090971D961C921E921C971496ED91FC91F0
:103040001597808190E01D969C938E931C97F801B4
:1030500084819581019695838483268137818217A7
:10306000930709F4DFC0D8011C96DC901C97C12C93
:103070001D96DC92CE921C971496ED91FC911597BB
:103080008081F601E80FF11DCF011D96FC93EE93B0
:103090001C975496ED91FC91559725813681281700
:1030A000390718F481E051968C93D8015E96ED9122
:1030B000FC915F97CF0101965F969C938E935E97EC
:1030C0003B96EE0FFF1FE00FF11F88E090E0918329
:1030D00080834FC0D80152968D919C9153970E9446
:1030E0005716F801938B828B0488F589E02D1286A0
:1030F0001186D80114968D919C911597DC018C91C5
:1031000090E092878187F80184819581019695836B
:103110008483268137818217930709F082CE89E064
:1031200090E089C0D8015496ED91FC915597828327
:10313000F801848195810196958384832681378166
:103140008217930709F471C0D80114968D919C9150
:103150001597019615969C938E93149716962D911C
:103160003C9117978217930709F085CE8BE090E08A
:1031700062C0F801848195810196958384832681BC
:1031800037818217930709F453C0D8011F961C9208
:103190001E921E9753961C921E9252971C968D91CA
:1031A0009C911D971496ED91FC911597892B09F030
:1031B000D4CD31971596FC93EE93149765C0D80142
:1031C0001496ED91FC911597608152968D919C918A
:1031D0005397C6CDF80184819581019695838483A8
:1031E000268137818217930751F78EE090E023C044
:1031F0008CE090E005C081E090E01DC082E090E0AE
:10320000D80113969C938E93129718C083E090E098
:1032100012C084E090E0F4CF85E090E00CC086E03E
:1032200090E0EECF87E090E006C08AE090E0E8CF43
:103230008DE090E0E5CFF80193838283D801149666
:103240008D919C91159718962D913C911997821705
:103250009307A1F512962D913C9113972D303105CE
:1032600069F51F961C921E921E9753961C921E92F1
:1032700052971C962D913C911D97232BF9F40197A1
:1032800015969C938E9314975E96ED91FC915F97A3
:10329000CF01019794CDEE5BFF4F0C94B12FF80155
:1032A0008481958101969583848326813781821755
:1032B000930709F00FCF88E090E0A2CF0F90DF9145
:1032C000CF911F910F91FF90EF90DF90CF90BF9023
:1032D000AF900895FC01DB01718360837383628387
:1032E000158214825783468312968C911297480F49
:1032F000511D5187408713968C911397480F511D8C
:1033000087FD5A955387428781E09C91911101C0B6
:1033100080E00895FC01A281B3818C91882309F497
:1033200060C0CD0108969383828318968C9118977C
:10333000811108C04681578160817181CF010E944F
:103340006A194FC014963C911497832F90E0119600
:103350005C911197452F4073403391F419962C914D
:1033600019972073203361F412962C91129780855F
:103370009185821B91099187808780E090E010C041
:10338000252F207C49F4403259F415968C911597DD
:10339000839FC001112404C0203811F482E090E022
:1033A00011962C911197207331F4248135812F5F70
:1033B0003F4F358324831A962C911A97AC01420F04
:1033C000511D80859185840F951F918780871B965D
:1033D0002C91820F911D27FD9A959387828781E01A
:1033E000089580E00895EF92FF920F931F93CF937B
:1033F000DF9300D000D0CDB7DEB77C01DC011296A0
:103400000D911C911397D7011296ED91FC91139792
:10341000808190E0A0E0B0E084179507A607B70789
:1034200021F481818F70883099F4C70149835A83D0
:103430006B837C830E948A19F70182819381498181
:103440005A816B817C8180179107E9F680E001C089
:1034500081E00F900F900F900F90DF91CF911F910F
:103460000F91FF90EF900895DC011296ED91FC9181
:1034700013974E0F5F1F13965C934E93129761152F
:10348000710539F0DB01E417F50719F081918D938F
:10349000FACF81E00895CF93DF93EC018C819D8179
:1034A000892B51F48E819F81009711F481EB91E07B
:1034B0009F838E8380E018C0E881F98141E050E06D
:1034C000CE01099581110AC02E813F812115310558
:1034D00011F42FEB31E03F832E8306C02C813D8118
:1034E000215031093D832C83DF91CF9108957F9244
:1034F0008F929F92AF92BF92CF92DF92EF92FF9204
:103500000F931F93CF93DF931F92CDB7DEB78C013C
:103510004B01BE016F5F7F4F0E944B1A782E8823AC
:10352000E9F1898187FD05C0C82ED12CE12CF12C51
:1035300037C08F77C82ED12CE12CF12C87E0A82E34
:10354000B12CBE016F5F7F4FC8010E944B1A8823C8
:1035500029F18981482F4F7750E060E070E00A2C14
:1035600004C0440F551F661F771F0A94D2F7C42A60
:10357000D52AE62AF72A87FF13C087E0A80EB11CD8
:10358000E3E2AE16B104E9F6F8018681978100976F
:1035900011F488EC91E0F80197838683712C05C0C3
:1035A000F401C082D182E282F382872D0F90DF91F5
:1035B000CF911F910F91FF90EF90DF90CF90BF9030
:1035C000AF909F908F907F900895EF92FF920F930E
:1035D0001F93CF93DF93CDB7DEB72C970FB6F89438
:1035E000DEBF0FBECDBFFC0162817381DB0111968E
:1035F0008C91982F9F709830A9F50084F185E02D6B
:10360000008111810115110509F468C0F8011682C5
:103610000190F081E02DE480F580D80112964D9163
:103620005C911397B701CE0101960E946A19F801C7
:10363000828193819A878987C80106969C878B87A8
:10364000D70111968C91807C803821F4C8010296B4
:103650009A878987CE0101960E94E51AF8010481B4
:103660001581D0CF982F907C61F4982F9073903172
:1036700029F482859385DC011C9210C085FF0EC061
:1036800008C0903859F5A085B1851D921C9285FF20
:1036900025C00284F385E02D108220C0DB01119645
:1036A0004C9111974F708085918516962D913C9184
:1036B0001797473029F4BC01C9010E947B1B0EC03B
:1036C000FB01448150E02115310521F0B9010E9430
:1036D000183004C060E070E00E9421302C960FB6D4
:1036E000F894DEBF0FBECDBFDF91CF911F910F9138
:1036F000FF90EF900895CF93DF93CDB7DEB72C976F
:103700000FB6F894DEBF0FBECDBFAB01BC01CE013A
:1037100001960E946A19882349F0CE0101960E9401
:10372000E51ACE0101960E948A19F5CF2C960FB6A4
:10373000F894DEBF0FBECDBFDF91CF910895EF9219
:10374000FF920F931F93CF93DF93CDB7DEB76097B0
:103750000FB6F894DEBF0FBECDBF8C017A016115A4
:10376000710501F5DC018D919C9184539A41D1F052
:10377000F1E1EF16F10470F040E150E0BE016F5F3F
:103780007F4FC8010E949F1B8823E9F1E0E1EE1AF8
:10379000F108EECFA701BE016F5F7F4FC8010E9405
:1037A0009F1B31C0D80114968D919C9115978E1551
:1037B0009F0568F416968D919C911797009711F4C8
:1037C00081EB91E0F8019783868380E01CC0D801EB
:1037D000ED91FC91A701C8010995F80181110DC077
:1037E000268137812115310511F42FEB31E0D80105
:1037F00017963C932E93169706C0248135812E1977
:103800003F093583248360960FB6F894DEBF0FBE60
:10381000CDBFDF91CF911F910F91FF90EF90089551
:10382000CF92DF92EF92FF920F931F93CF93DF938C
:1038300000D000D0CDB7DEB78C016B017A01BE019C
:103840006F5F7F4F0E94771A882309F43FC0498138
:103850005A816B817C819A012F5F3F4FC901A0E0A3
:10386000B0E084179507A607B70740F4F8018681F2
:1038700097810097E9F488ED91E01AC0F601818103
:10388000807C803841F4F80186819781009781F42B
:1038900087EE91E00DC0F601848190E082179307D6
:1038A00060F4F80186819781009711F489EF91E027
:1038B000F8019783868380E009C0B701C8010E94A0
:1038C0009F1BE981FA81EE0DFF1D10820F900F9072
:1038D0000F900F90DF91CF911F910F91FF90EF907C
:1038E000DF90CF900895CF92DF92EF92FF920F93E7
:1038F0001F93CF93DF9300D000D0CDB7DEB78C01FC
:103900007B01D42EC52EBE016F5F7F4F0E94771AB8
:10391000882309F443C049815A816B817C814F3FE0
:1039200051056105710509F030F59A012F5F3F4F90
:10393000C901A0E0B0E084179507A607B70740F4D7
:10394000F801868197810097E9F488ED91E01AC02B
:10395000F7018181807C803841F4F801868197816C
:10396000009781F487EE91E00DC0F701848190E02B
:103970008217930760F4F80186819781009711F40C
:1039800089E092E0F8019783868380E007C0ED2DFF
:10399000FC2D4193BF01C8010E949F1B0F900F9007
:1039A0000F900F90DF91CF911F910F91FF90EF90AB
:1039B000DF90CF900895CF93DF93CDB7DEB72897F0
:1039C0000FB6F894DEBF0FBECDBF24E33AE13A83D1
:1039D00029838B839C836D837E8318861F823A8123
:1039E000AC0180E0988528960FB6F894DEBF0FBE34
:1039F000CDBFDF91CF9108953F924F925F926F922A
:103A00007F928F929F92AF92BF92CF92DF92EF926E
:103A1000FF920F931F93CF93DF931F92CDB7DEB723
:103A20005C017B01C12CD12C312C412C512C612CFF
:103A3000712C812C912C10E0BE016F5F7F4FC5016E
:103A40000E944B1AE82F882309F442C0F9812F2FD6
:103A50002F7730E040E050E060E070E080E090E000
:103A60000C2D0E94B72F322A432A542A652A762A1F
:103A7000872A982A192BF7FF15C087E0C80ED11C9A
:103A8000A6E4CA16D104C1F6F50186819781009794
:103A900011F488EC91E0D50117969C938E931697BC
:103AA000E0E016C0D7013C9211964C921197129605
:103AB0005C92129713966C92139714967C921497BB
:103AC00015968C92159716969C92169717961C939E
:103AD0008E2F0F90DF91CF911F910F91FF90EF905C
:103AE000DF90CF90BF90AF909F908F907F906F901E
:103AF0005F904F903F9008958F929F92AF92BF92A8
:103B0000CF92DF92EF92FF920F931F93CF93DF93A9
:103B1000CDB7DEB728970FB6F894DEBF0FBECDBF86
:103B20004C017B018A01BE016F5F7F4F0E94FC1C2C
:103B3000F82F882309F46DC0D70114968C91823038
:103B400061F140F4813009F044C02981D8012C93FF
:103B500030E029C0843051F18830D9F529813A818B
:103B60004B815C816D817E818F819885D8012C93FA
:103B700011963C93119712964C93129713965C935F
:103B8000139714966C93149715967C931597169625
:103B90008C93169717969C9324C029813A81D8015B
:103BA0002C9311963C9340E050E00EC029813A815D
:103BB0004B815C81D8012C9311963C9311971296FE
:103BC0004C93129713965C9360E070E080E090E075
:103BD00008C0F401868197810097A9F488E192E0FA
:103BE00012C0A980BA80CB80DC80ED80FE800F817E
:103BF00018850E94EE2F69F0F40186819781009765
:103C000011F48AE292E0D40117969C938E93169752
:103C1000F0E08F2F28960FB6F894DEBF0FBECDBF11
:103C2000DF91CF911F910F91FF90EF90DF90CF9098
:103C3000BF90AF909F908F9008954F925F926F9238
:103C40007F928F929F92AF92BF92CF92DF92EF922C
:103C5000FF920F931F93CF93DF93CDB7DEB72897D3
:103C60000FB6F894DEBF0FBECDBF4C018B017A01B9
:103C7000BE016F5F7F4F0E94FC1CE82F882309F470
:103C800074C0D80114964C9189819A815B81DC8043
:103C90004830D9F4D7018C9311969C9311971296C2
:103CA0005C9312971396DC9213978D8114968C93E4
:103CB00014978E8115968C9315978F8116968C93F9
:103CC0001697888517968C9350C08C01252F3D2D13
:103CD0005801C52E28013901770C4408542C3201B3
:103CE000423089F04430F1F0413019F5D7018C931E
:103CF000282F382F330F330B432F532F632F732F5E
:103D0000832F932F1EC0D7018C9311969C93282F3D
:103D1000392F492F440F440B542F642F742F842FB5
:103D2000942F0FC0D7010D931D932D933C931397A0
:103D30001CC0F40186819781009789F488E192E0A4
:103D40000EC0E42CF42C042D142D0E94EE2F69F0EB
:103D5000F40186819781009711F48AE292E0D40100
:103D600017969C938E931697E0E08E2F28960FB6A9
:103D7000F894DEBF0FBECDBFDF91CF911F910F91A1
:103D8000FF90EF90DF90CF90BF90AF909F908F907B
:103D90007F906F905F904F900895AF92BF92CF92B7
:103DA000DF92EF92FF920F931F93CF93DF9300D098
:103DB00000D0CDB7DEB78C017B016A015901F90152
:103DC0001082FB011082FA0110821182128213828A
:103DD000BE016F5F7F4F0E94771A81110AC0F80100
:103DE00024813581232BF9F481E0F501808380E083
:103DF0001AC009811A812B813C8101151105210509
:103E0000310591F3B901A801E3E0769567955795DF
:103E10004795EA95D1F7F601408351836283738316
:103E20000770F70100830F900F900F900F90DF91B4
:103E3000CF911F910F91FF90EF90DF90CF90BF90A7
:103E4000AF9008950F931F93CF93DF9300D000D0CE
:103E5000CDB7DEB78C016130B1F050F06230B1F017
:103E6000653019F544E050E01AC0998197FF28C0E9
:103E700041E050E0BE016F5F7F4FC8010E949F1B71
:103E80008111F3CF1DC048E050E009C0BE016F5F53
:103E90007F4F0E94771A882399F049815A8160E008
:103EA00070E0C8010E949F1B0BC0FC0186819781B6
:103EB000009711F48CE392E0F8019783868380E009
:103EC0000F900F900F900F90DF91CF911F910F9156
:103ED00008958F929F92AF92BF92EF92FF920F93AD
:103EE0001F93CF93DF9300D000D0CDB7DEB78C0106
:103EF0007B01BE016F5F7F4F0E94771A882359F1C3
:103F000098E0F801D70101900D929A95E1F7498167
:103F10005A816B817C81F70184809580A12CB12C22
:103F200084169506A606B70660F4F8018681978187
:103F3000009711F48EE492E0F8019783868380E085
:103F40000AC0F70155834483F80124813581241B7D
:103F5000350B358324830F900F900F900F90DF91D6
:103F6000CF911F910F91FF90EF90BF90AF909F90D6
:103F70008F9008954F925F926F927F928F929F924F
:103F8000AF92BF92CF92DF92EF92FF920F931F9367
:103F9000CF93DF93CDB7DEB762970FB6F894DEBF4D
:103FA0000FBECDBF8C017A01FA01A281B3811196B7
:103FB0002C911197822F807C803409F4BDC0803809
:103FC00009F4AFC081115FC1822F8F7090E0FC01B6
:103FD000EE0FFF1FE853FD4FC080D18020732031CA
:103FE00091F018F42223A9F091C02032C9F02033B7
:103FF00009F08CC0FA01228533858C91D9018C930C
:104000004085518580C0FA012285338581E0F90120
:104010008083F70140855185BD01C801F60131C19A
:10402000FA01A284B384623009F04EC005970CF007
:104030004BC0BE016F5F7F4FC8010E94691F88237C
:1040400009F42EC18D819E81892B11F1F5018081AA
:10405000D70112966D917C911397FB019581891779
:10406000B8F4DB0114969C91F70140855185989F27
:10407000400D511D1124CE010196F60109958823AA
:1040800029F0D5018C918F5F8C93DCCF80E001C04B
:1040900081E02B813C81D80113963C932E9312979B
:1040A0002F81388517963C932E9316974D815E810C
:1040B000452B09F4F5C02115310511F426E632E04F
:1040C000F80137832683EBC0F701408551851496AC
:1040D0009C911497F501808115962C91821758F0C8
:1040E000D80116968D919C911797009709F0ADC055
:1040F00086E692E0AAC021E0280F2083989F400D19
:10410000511D1124F7016281738187CFD801169662
:104110008D919C911797009709F097C085E792E0E1
:1041200094C0D80116968D919C911797009709F02D
:104130008CC087EE91E089C0408451845201B2E086
:10414000AB0EB11CF20180819181892B21F4C80151
:104150000E94221FA5C0623099F5BE016F5F7F4F9C
:10416000C8010E94691F882309F49AC0D7011296DA
:104170006D917C911397D201ED91FC91A501CE0137
:104180000196099581110EC0F8012681378121150C
:10419000310511F428E832E0D80117963C932E93AC
:1041A00016977EC02D813E81232B01F72B813C8108
:1041B000F801338322832F8138853783268370C0AB
:1041C000613071F170F06530B9F544E050E0BE0146
:1041D0006F5F7F4FC8010E949F1BF4E0CF2ED12C50
:1041E00038C0CE0101963C01C12CD12C43019FEF78
:1041F000C91AD90AABE0CA16D10409F450C041E08B
:1042000050E0B301C8010E949F1B882309F447C0F6
:10421000BFEF6B1A7B0AF401808187FDE7CF1BC0DB
:1042200048E050E0BE016F5F7F4FC8010E949F1BB6
:10423000A8E0CA2ED12C0DC0D80116968D919C9164
:104240001797009711F48CE392E0F8019783868327
:1042500026C0882329F184E39AE19C878B87CE01CD
:1042600001969E878D87D88ACF861A8A198AD701A8
:1042700012966D917C911397D201ED91FC91A5015D
:104280000A9609950DC0F80186819781009711F46F
:1042900085E792E0D80117969C938E93169780E05D
:1042A00062960FB6F894DEBF0FBECDBFDF91CF91FF
:1042B0001F910F91FF90EF90DF90CF90BF90AF9044
:1042C0009F908F907F906F905F904F9008952F9266
:1042D0003F924F925F926F927F928F929F92AF9296
:1042E000BF92CF92DF92EF92FF920F931F93CF93E3
:1042F000DF93CDB7DEB7AB970FB6F894DEBF0FBE36
:10430000CDBF7C015E0129E1A20EB11C88E0D50180
:104310001D928A95E9F7CE010D960E946A19412CEB
:10432000512C320122242394312CD70114968D91E3
:104330009C911597892B09F4E4C09E012B5D3F4F9A
:10434000AE014F5D5F4FBE016A5D7F4FC7010E94A6
:10435000CD1E811104C08DA18111D3C0D0C049A14F
:104360005AA16BA17CA1CE010D960E94F319811177
:104370009FC089A19AA1ABA1BCA184159505A605F2
:10438000B70508F490C0CF84D888EF85F88981817B
:104390008F70883009F401C1CE010D960E948A19F0
:1043A0008F8598898C159D0581F744244A94542C57
:1043B000320129A13AA14BA15CA12FA338A749A79B
:1043C0005AA7241535054605570508F46CC0D701D2
:1043D00014968D909C901597BEA1BBA7ED89FE8980
:1043E000C080D180F70184819581C114D10409F482
:1043F00056C08816990609F052C0F601A081B18115
:10440000ED91FC911197309749F00BA52FA138A59C
:1044100049A55AA5B601C701099539C014960D9151
:104420001C911597D8018C9190E0A0E0B0E02FA1ED
:1044300038A549A55AA582179307A407B50749F5DA
:10444000D60112964D915C911397B801CE01019659
:104450000E946A19F601828193819A878987C60131
:1044600006969C878B87D80111968C91807C80382A
:1044700021F4C60102969A87898721E0F6012683F6
:10448000AE014F5F5F4F6BA5C7010E94BA1F882323
:10449000B1F1D6011496CD90DC901597A3CF881674
:1044A000990609F042CF6EA1C7010E94221F25C0C4
:1044B000EF85F88981818073C9F489899A8980346C
:1044C0009105A0F4FC0153E0F695E7955A95E1F7C4
:1044D000EA0DFB1D87709927910102C0220F331F3F
:1044E0008A95E2F7C9019081982B9083AE01435FD2
:1044F0005F4F6EA1C7010E94BA1F811116CF80E0E5
:1045000051C0C988DA88EF85F8891181CE010D96EE
:104510000E948A198111F5CF107341F4EF85F88953
:104520009081992319F0BFEFCB1ADB0A960143E083
:10453000369527954A95E1F7F501A501420F531FDE
:10454000E417F50721F091919F3FD1F316C0F501D3
:10455000E20FF31F608170E0B7E0CB22DD2448E07A
:1045600050E04C195D092FEF30E002C035952795DA
:104570004A95E2F76217730771F0F70126813781D8
:104580002115310511F428E932E0D70117963C9343
:104590002E93169707C081E005C04080512C612CF6
:1045A000712C07CFAB960FB6F894DEBF0FBECDBF10
:1045B000DF91CF911F910F91FF90EF90DF90CF90FF
:1045C000BF90AF909F908F907F906F905F904F9033
:1045D0003F902F900895EF92FF920F931F93CF93E8
:1045E000DF9300D0CDB7DEB78C017B01BA01C701E4
:1045F00049835A830E947B1B49815A81B701C801B4
:104600000F900F90DF91CF911F910F91FF90EF903E
:104610000C946721CF92DF92EF92FF920F931F933A
:10462000CF93DF93CDB7DEB72A970FB6F894DEBFEE
:104630000FBECDBF8C017B01FB01C680D780BE01C0
:104640006F5F7F4F49875A870E94691F49855A8546
:10465000882349F1F70186819781892B61F4F8015C
:1046600086819781009711F48FEA92E0F801978391
:10467000868380E018C0F70181818073B6018032A3
:1046800029F4CE0101960E94EB2204C0CE010196CE
:104690000E9467212B813C81F801338322832F8183
:1046A0003885378326832A960FB6F894DEBF0FBE6F
:1046B000CDBFDF91CF911F910F91FF90EF90DF90D1
:1046C000CF900895AF92BF92CF92DF92EF92FF9278
:1046D0000F931F93CF93DF93CDB7DEB728970FB615
:1046E000F894DEBF0FBECDBF7B01BE016F5F7F4F71
:1046F0000E94FC1CF82F882309F45EC0E981AA807F
:10470000BB80CC80DD800E811F81B8852E2F21706B
:1047100030E040E050E060E070E080E090E0A0E059
:104720000E94F72F41F12E2F3A2D4B2D5C2D6D2D30
:10473000702F812F9B2F01E00E94D22F2095D7014F
:104740002C93309511963C931197409512964C936B
:104750001297509513965C931397609514966C93EB
:104760001497709515967C931597809516968C9353
:10477000169790951FC02E2F3A2D4B2D5C2D6D2D29
:10478000702F812F9B2F01E00E94D22FD7012C93F5
:1047900011963C93119712964C93129713965C9333
:1047A000139714966C93149715967C9315971696F9
:1047B0008C93169717969C938F2F28960FB6F89484
:1047C000DEBF0FBECDBFDF91CF911F910F91FF9044
:1047D000EF90DF90CF90BF90AF9008957F928F922F
:1047E0009F92AF92BF92CF92DF92EF92FF920F9380
:1047F0001F93CF93DF93CDB7DEB728970FB6F8940A
:10480000DEBF0FBECDBF4C018B017A01BE016F5FD1
:104810007F4F0E946223F82F882309F484C0D801B7
:1048200014968C918230B1F188F4813009F058C02F
:104830008981D7018C93782EE82FEE0FEE0B4E2F47
:104840005E2F6E2F7E2F8E2F9E2F52C0843091F1BF
:10485000883009F045C07980EA814B815C816D81A7
:104860007E818F819885D7017C921196EC93119768
:1048700012964C93129713965C93139714966C931D
:10488000149715967C93159716968C9316971796F2
:104890009C932EC08981EA81D7018C931196EC9369
:1048A000782E4E2F440F440B542F642F742F842FD7
:1048B000942F1EC009811A812B813C81D7010D9351
:1048C0001D932D933C931397702EE12FA901330F65
:1048D000000B102F9801602F702F802F902F08C091
:1048E000F401868197810097C1F488E192E015C0B8
:1048F000A980BA80CB80DC80ED80FE80BF811885E6
:10490000272D3E2F0B2F0E94EE2F69F0F401868198
:104910009781009711F48AE292E0D40117969C9354
:104920008E931697F0E08F2F28960FB6F894DEBF7F
:104930000FBECDBFDF91CF911F910F91FF90EF90F0
:10494000DF90CF90BF90AF909F908F907F90089511
:1049500044E050E00C949F1BBA010C94A82448E05A
:1049600050E00C949F1BBA010C94AF24FC01A2816F
:10497000B3819D01240F351F33832283FB01460F32
:10498000571FE417F50719F081918D93FACF81E055
:104990000895FC0186EB94E29183808373836283A4
:1049A000558344831782168211861086CF0108959D
:1049B0000F931F93CF93DF93EC018A01E881F98174
:1049C000309709F12E813F81240F351F8C819D8105
:1049D0008217930750F488859985009711F48AED22
:1049E00092E09987888780E015C0CE0109958111F2
:1049F0000AC0288539852115310511F42FEB31E0E6
:104A00003987288707C08E819F81800F911F9F83E0
:104A10008E8381E0DF91CF911F910F9108955F9276
:104A20006F927F928F929F92AF92BF92CF92DF92BE
:104A3000EF92FF920F931F93CF93DF93CDB7DEB723
:104A400062970FB6F894DEBF0FBECDBF6C01802F0A
:104A50000B87912F1C87522E2D87632E3E87742E35
:104A60004F87852E588B962E698BB72F7A8B8C01AA
:104A70009801452D562D672D782D892D9B2FA0E06F
:104A80000E94F72F21F0FE0131967F0106C041E020
:104A900050E0BE01655F7F4F34C05F01AE18BF08B4
:104AA0009801452D562D672D782D892D9B2FA0E03F
:104AB0000E94F72FA9F0802F806881939801452DDF
:104AC000562D672D782D892D9B2F07E00E94D22F20
:104AD0008901542E652E762E872E982EB92FDDCF84
:104AE0001B861C861D861E861F86188A198A1A8AAE
:104AF000F5013197EE0DFF1D80818F778083A50131
:104B0000B701C6010E94D82462960FB6F894DEBFA2
:104B10000FBECDBFDF91CF911F910F91FF90EF900E
:104B2000DF90CF90BF90AF909F908F907F906F90CD
:104B30005F9008958F929F92AF92BF92CF92DF9233
:104B4000EF92FF920F931F93FA01DB0114962C91C1
:104B5000223099F028F42130E9F48080912C0FC0A4
:104B6000243081F02830B1F480809180A280B3801D
:104B7000C480D580E680F7801CC080809180A12C05
:104B8000B12C04C080809180A280B380C12CD12C34
:104B900076010FC0FC01208531852115310511F406
:104BA00028E132E0DC0119963C932E93189780E0BF
:104BB00006C084019501A601B7010E940F251F912F
:104BC0000F91FF90EF90DF90CF90BF90AF909F90AC
:104BD0008F9008950F931F93CF93FA01DB011496E2
:104BE0002C912230D9F068F4213091F50081102FFA
:104BF000110F110B212F312FC12FB12FA12F712F89
:104C000036C02430B1F0283019F50081118122819D
:104C10003381C481B581A681778129C0118100814A
:104C2000212F220F220B322FC22FB22FA22F722F31
:104C30001EC040815181628173818A019B01770F7F
:104C4000440B542FBA01C42FB42FA42F742F0FC0BC
:104C5000FC01208531852115310511F428E132E070
:104C6000DC0119963C932E93189780E005C04C2FD9
:104C70005B2F6A2F0E940F25CF911F910F910895EE
:104C8000DF92EF92FF920F931F93CF93DF93FC017C
:104C9000D22EE32EF42ED52FC62FB72F98014D2DEF
:104CA0005E2D6F2D7D2F8C2F9B2FA0E00E94F72F64
:104CB00064F401E00E94B72F2095309540955095FF
:104CC00060957095809590950AC098014D2D5E2D48
:104CD0006F2D7D2F8C2F9B2F01E00E94B72F890114
:104CE0009A01AB01BC01CF010E940F25DF91CF914A
:104CF0001F910F91FF90EF90DF9008950F931F93F6
:104D0000CF93FA01DB0114962C912230D9F068F48C
:104D1000213091F50081102F110F110B212F312F10
:104D2000C12FB12FA12F712F36C02430B1F0283000
:104D300019F50081118122813381C481B581A68159
:104D4000778129C011810081212F220F220B322F60
:104D5000C22FB22FA22F722F1EC0408151816281BB
:104D600073818A019B01770F440B542FBA01C42F22
:104D7000B42FA42F742F0FC0FC012085318521157D
:104D8000310511F428E132E0DC0119963C932E93B1
:104D9000189780E005C04C2F5B2F6A2F0E94402699
:104DA000CF911F910F91089544E050E00C94D824C6
:104DB000BA010C94D42648E050E00C94D824BA01EF
:104DC0000C94DB268F929F92AF92BF92CF92DF928C
:104DD000EF92FF920F931F93FC01A62F49015A01F6
:104DE000A50160E070E080E090E003E00E94B72F52
:104DF000022F242F0A2B132F352FAB01BC01CF011B
:104E00000E940F251F910F91FF90EF90DF90CF90A0
:104E1000BF90AF909F908F900895FB0121812F70DC
:104E20002330A1F088F0243021F0283020F462E013
:104E30000EC061E00CC0FC012085318521153105D3
:104E400061F425E732E009C060E001C065E020813F
:104E500030E040E050E00C94E226FC0131872087EE
:104E600080E008952F923F924F925F926F927F92CF
:104E70008F929F92AF92BF92CF92DF92EF92FF926A
:104E80000F931F93CF93DF93CDB7DEB72B970FB65A
:104E9000F894DEBF0FBECDBF7C016B015A01DB0170
:104EA00011963C91232F207C203409F41CC120381A
:104EB00011F0211132C181E08B87832F8F7090E038
:104EC000FC01EE0FFF1FEB5CFC4F40805180F601B0
:104ED0004381442331F0F501E40FF11D47FDFA95BC
:104EE00002C0FE013B96203849F4D501AD90BC903C
:104EF00041E0A114B10409F440E04B873073303134
:104F0000B9F018F4332339F0E1C03032B1F0303366
:104F100009F4CBC0DBC0A114B10409F0CBC0F70188
:104F200080859185009709F0FFC088E992E0FCC078
:104F30008081882309F4DEC0BDC08080912C81145B
:104F4000910409F4D7C0203881F0D60115962C9130
:104F500030E02815390548F4F701808591850097E0
:104F600009F0E2C086EE92E0DFC005970CF072C057
:104F7000F601208130E040E050E062E0C7010E948D
:104F8000E226882309F4D5C0D60111968C918F7042
:104F9000833031F43401660C771C660C771C29C011
:104FA000843039F43401A3E0660C771CAA95E1F74C
:104FB00020C0FE0131961F018AE0DF011D928A9513
:104FC000E9F78501612C712CA801B601C101F2013C
:104FD0000995882309F4ADC0D60114968C91080F69
:104FE000111DBFEF6B1A7B0A6814790468F36F8098
:104FF0007884830120E030E040E050E060E070E041
:10500000C7010E940F25882309F493C0F70180810E
:105010009181892B51F4A30160E070E0C7010E94E7
:10502000D824882309F485C065C000E010E0A501FC
:10503000B601C701F2010995882309F47AC0D601A7
:1050400014968C91A80EB11C0F5F1F4F08151905FF
:1050500070F350C000E010E0B601C7010E940D27B8
:10506000882309F466C0F6018181982F907C9038DE
:10507000D1F48F7090E005970297A8F4D5014D9177
:105080005C91B601C701F2010995882309F451C06A
:10509000D60114968C91A80EB11C0F5F1F4F0815F6
:1050A0001905D0F227C0A501ECCF9081D6018C91D3
:1050B000981320C0B601C7010E940D278823C9F1AB
:1050C000A501B601C701F201099534C0D7011896B0
:1050D0008D919C911997009711F485E792E0F70163
:1050E0009187808726C04E5F5F4FD501ED91FC917F
:1050F000309711F481E01EC009958111FBCFF701B3
:10510000208531852115310511F42EEF32E0D701CC
:1051100019963C932E9318970DC0FC0180859185BC
:10512000009711F485E792E0D70119969C938E932E
:10513000189780E02B960FB6F894DEBF0FBECDBF58
:10514000DF91CF911F910F91FF90EF90DF90CF9063
:10515000BF90AF909F908F907F906F905F904F9097
:105160003F902F900895EF92FF920F931F93CF934C
:10517000DF93CDB7DEB72C970FB6F894DEBF0FBE26
:10518000CDBF7C01CE0101960E946A19811102C037
:1051900081E041C06B817C81FB0181818F704985F9
:1051A0005A85883071F5FA010081118101151105C8
:1051B00069F1F801A081B1811296ED91FC911397EC
:1051C000309721F0B801C701099513C014966D916D
:1051D0007C911597FB018181807C803821F4A801A6
:1051E0004E5F5F4F03C0F80142815381C7010E94A7
:1051F0003227811102C080E00EC0F80104811581C0
:10520000D5CFC7010E9432278823A9F3CE0101968A
:105210000E948A19BBCF2C960FB6F894DEBF0FBE42
:10522000CDBFDF91CF911F910F91FF90EF90089527
:10523000CF92DF92EF92FF920F931F93CF93DF9362
:10524000EC016B017A018A0120E030E040E050E09F
:1052500060E070E00E940F25882369F0A701B60185
:10526000CE01DF91CF911F910F91FF90EF90DF90D2
:10527000CF900C94D82480E0DF91CF911F910F91B3
:10528000FF90EF90DF90CF900895FB01BA01448129
:105290002181207C203811F050E002C04FEF5FEFF9
:1052A0006115710561F0FB0120E030E0241735073E
:1052B00041F0A191AA2329F02F5F3F4FF7CF20E0C3
:1052C00030E0A9010C941829FA01309729F440E044
:1052D00050E060E070E01FC0DB0111962C91119747
:1052E000207C4081211113C0242F30E02F5F3F4FDD
:1052F00014966C9170E06217730748F4FC012085E6
:1053000031852115310549F42DE033E006C050E028
:10531000BF016F5F7F4F0C941829DC0119963C93F5
:105320002E93189780E008956F927F928F929F92AC
:10533000AF92BF92CF92DF92EF92FF920F931F93A3
:10534000CF93DF93CDB7DEB72A970FB6F894DEBFC1
:105350000FBECDBF7C014B013A01CE0101965C012D
:105360008AE0F50111928A95E9F7C5010E94B328F8
:10537000811104C029853A85F70154C0CF80D884B3
:10538000860120E030E040E050E060E070E0C701DE
:105390000E940F25882309F451C0F7012081318133
:1053A0002115310539F4A60160E070E0C7010E94C3
:1053B000D82444C0F701868197818C0D9D1D4481BE
:1053C00055814817590750F480859185009711F44D
:1053D0008AED92E0F701918780872FC03A83298375
:1053E000F701828193819C838B83DE82CD82188634
:1053F0001F821A861986A301B401C5010E94B32831
:105400004F815885F70126813781240F351F378357
:1054100026832B813C813383228329853A854C1551
:105420005D0519F43187208709C02115310511F474
:1054300021E233E0F7013187208780E02A960FB61A
:10544000F894DEBF0FBECDBFDF91CF911F910F91BA
:10545000FF90EF90DF90CF90BF90AF909F908F9094
:105460007F906F900895FB016681778161157105CA
:1054700049F4FC01208531852115310529F42FEAF5
:1054800032E002C00C949429FC013187208780E02F
:10549000089508951F920F920FB60F9211242F9323
:1054A0003F934F935F936F937F938F939F93AF93AC
:1054B000BF93EF93FF93E0910601F09107010995E7
:1054C000FF91EF91BF91AF919F918F917F916F91DC
:1054D0005F914F913F912F910F900FBE0F901F90B2
:1054E00018951F920F920FB60F9211242F933F938E
:1054F0008F939F93AF93BF9380910C0690910D066D
:10550000A0910E06B0910F0630910B0623E0230FF9
:105510002D3720F40196A11DB11D05C026E8230FEB
:105520000296A11DB11D20930B0680930C0690934B
:105530000D06A0930E06B0930F0680911006909171
:105540001106A0911206B09113060196A11DB11D7E
:105550008093100690931106A0931206B093130641
:10556000BF91AF919F918F913F912F910F900FBE5F
:105570000F901F9018952FB7F89460910C067091BA
:105580000D0680910E0690910F062FBF08953FB72C
:10559000F8948091100690911106A0911206B09196
:1055A000130626B5A89B05C02F3F19F00196A11D33
:1055B000B11D3FBF6627782F892F9A2F620F711D6B
:1055C000811D911D42E0660F771F881F991F4A9524
:1055D000D1F70895CF92DF92EF92FF92CF93DF93AE
:1055E0006B017C010E94C72AEB01C114D104E104C4
:1055F000F10489F00E94A92E0E94C72A6C1B7D0B22
:10560000683E734090F381E0C81AD108E108F108C0
:10561000C851DC4FEACFDF91CF91FF90EF90DF9040
:10562000CF9008958230910538F0880F991F880F28
:10563000991F05970197F1F70895789484B58260D2
:1056400084BD84B5816084BD85B5826085BD85B526
:10565000816085BDEEE6F0E0808181608083E1E8D5
:10566000F0E010828081826080838081816080830D
:10567000E0E8F0E0808181608083E1EBF0E0808110
:1056800084608083E0EBF0E0808181608083EAE7E2
:10569000F0E080818460808380818260808380816B
:1056A000816080838081806880831092C10008952A
:1056B0008E3008F08E5087702091080190E4299F69
:1056C00090011124822B80937C0080917A00806469
:1056D00080937A0080917A0086FDFCCF80917800DB
:1056E0002091790090E0922B08951F93CF93DF9340
:1056F000182FEB0161E00E94FD2B209711F460E070
:1057000004C0CF3FD10539F461E0812FDF91CF9103
:105710001F910C94362CE12FF0E0E15EFE4FE491F6
:10572000E330F9F048F4E130B9F0E230A1F584B5A6
:10573000806284BDC8BD34C0E730E9F0E83019F1BB
:10574000E43049F580918000806280938000D0939E
:105750008B00C0938A0024C084B5806884BDC7BD17
:105760001FC080918000806880938000D093890062
:10577000C093880015C08091B00080688093B0000D
:10578000C093B3000DC08091B00080628093B000E0
:10579000C093B40005C0C038D1050CF0B5CFAFCF71
:1057A000DF91CF911F910895833081F028F48130EB
:1057B00099F08230A1F008958730A9F08830B9F0CF
:1057C0008430D1F4809180008F7D03C0809180006F
:1057D0008F7780938000089584B58F7702C084B559
:1057E0008F7D84BD08958091B0008F7703C0809134
:1057F000B0008F7D8093B0000895CF93DF9390E049
:10580000FC01ED5CFE4F2491FC01E95BFE4F8491AD
:10581000882349F190E0880F991FFC01E159FE4F60
:10582000A591B4918B599E4FFC01C591D4919FB71E
:10583000611108C0F8948C91209582238C93888103
:1058400082230AC0623051F4F8948C91322F309543
:1058500083238C938881822B888304C0F8948C9155
:10586000822B8C939FBFDF91CF9108950F931F934D
:10587000CF93DF931F92CDB7DEB7282F30E0F90129
:10588000E15EFE4F8491F901ED5CFE4F1491F90148
:10589000E95BFE4F04910023C9F0882321F069835E
:1058A0000E94D42B6981E02FF0E0EE0FFF1FEB592F
:1058B000FE4FA591B4919FB7F8948C91611103C0EC
:1058C0001095812301C0812B8C939FBF0F90DF9196
:1058D000CF911F910F910895CF93DF93282F30E040
:1058E000F901E15EFE4F8491F901ED5CFE4FD49128
:1058F000F901E95BFE4FC491CC2391F081110E9424
:10590000D42BEC2FF0E0EE0FFF1FE55AFE4FA591D0
:10591000B4912C912D2381E090E021F480E002C02D
:1059200080E090E0DF91CF9108950E940330FC0168
:10593000818D228D90E0805C9F4F821B91098F7337
:1059400099270895FC01918D828D981731F0828DF1
:10595000E80FF11D858D90E008958FEF9FEF08957A
:10596000FC01918D828D981761F0828DDF01A80F67
:10597000B11D5D968C91928D9F5F9F73928F90E089
:1059800008958FEF9FEF089584E39EE2892B49F0FD
:1059900088E897E0892B29F00E94342E81110C941D
:1059A00088070895FC01848DDF01A80FB11DA35A5B
:1059B000BF4F2C91848D90E001968F739927848F2F
:1059C000A689B7892C93A089B1898C9180648C9326
:1059D000938D848D981306C00288F389E02D808111
:1059E0008F7D80830895CF93DF93EC01888D88238A
:1059F000C9F0EA89FB89808185FD05C0A889B9893C
:105A00008C9186FD0FC00FB607FCF5CF808185FF16
:105A1000F2CFA889B9898C9185FFEDCFCE010E9484
:105A2000D22CE7CFDF91CF910895CF92DF92FF92F2
:105A30000F931F93CF93DF931F92CDB7DEB76C0107
:105A400081E0D60158968C9358975B969C915B9712
:105A50005C968C915C97981307C05096ED91FC91E1
:105A60005197808185FD2EC0F601038D10E00F5FF8
:105A70001F4F0F731127F02EF601848DF81211C0FD
:105A80000FB607FCF9CFD6015096ED91FC915197D6
:105A9000808185FFF1CFC60169830E94D22C698184
:105AA000EBCF838DE80FF11DE35AFF4F6083D601E2
:105AB0005B960C935B975296ED91FC915397808186
:105AC00080620CC0D6015696ED91FC915797608389
:105AD0005096ED91FC91519780818064808381E0A4
