:100000000C94A2010C94D3010C94D3010C94D30151
:100010000C94D3010C94D3010C94D3010C94D30110
:100020000C94D3010C94D3010C94D3010C94D30100
:100030000C94D3010C94D3010C94D3010C94D301F0
:100040000C94D3010C94D3010C94D3010C94D301E0
:100050000C948E0A0C94D3010C94D3010C94662C4E
:100060000C94D3010C948E300C94C4300C94D301B6
:100070000C94D3010C94630A0C94D3010C94D30117
:100080000C94D3010C94D3010C94D3010C948F07DE
:100090000C94D3010C94D3010C94D3010C945E0600
:1000A0000C94D3010C94D3010C94D3010C94D30180
:1000B0000C94D3010C94D3010C94D3010C94D30170
:1000C0000C94D3010C94D3010C94D3010C94D30160
:1000D0000C94D3010C94D3010C94D3010C94D30150
:1000E0000C94D30155106310DB10EB105E11F61663
:1000F000F6168A119A11B9110212F616F616201286
:10010000451260128A12D812121368137813B613AC
:10011000D113E01516162416EC15F81541165C16C9
:10012000F616F616F616F616F616F616F616F6166F
:10013000F616F616F616F616F616F616F616F6165F
:10014000F616F616F616F616F616F616F616F6164F
:10015000F616F616F616F616F616F616F616F6163F
:10016000F616F616F616F616F616F616F616F6162F
:10017000F616F616F616F616F616F616F616F6161F
:10018000F616F616F616F616F616F616FE13C2153F
:100190006514301D581D751D921DD51DB71DF31D0D
:1001A0001C1E521E371E8E1E6A1E6A1F451F891F87
:1001B0002720C31FB4207A204D1D08212A21452164
:1001C0006621111E75218A21A621B321E021EF218C
:1001D0008E2D932D982DA22DAC2D252EB62DBE2D16
:1001E000C62DD02DDA2DE42DF32DFD2D252E072E35
:1001F000112E1B2E472E4A2E392E3D2E432E812E98
:100200004E2E522E582E5C2E602E662E6A2E6E2E8C
:10021000812E742E782E7C2E00000A0B02090C0D04
:100220000E080703040100000000000000000000A9
:1002300000000000000000000000000000000000BE
:10024000000000001211100000000000000000007B
:10025000000000000000000000000000000001029B
:1002600010202008081020401020408002010201C8
:100270000804020101020408102040808040201080
:1002800008040201800402018040201008040201D9
:100290000804020101020408102040800102040841
:1002A000102040800505050507050808080802021A
:1002B00002020A0A08080404040401010101010100
:1002C00001010303030303030303040707070C0CE3
:1002D0000C0C0C0C0C0C02020202060606060606AA
:1002E00006060B0B0B0B0B0B0B0B00002000230067
:1002F000260029002C002F0032000001000003011D
:100300000601090100002200250028002B002E0014
:100310003100340002010000050108010B0100005A
:100320002100240027002A002D00300033000101A5
:100330000000040107010A010A027C05980A7227DD
:10034000F8300E0211241FBECFEFD1E2DEBFCDBFC9
:1003500000E00CBF14E0A0E0B2E0E0EDF4E700E064
:100360000BBF02C007900D92A63BB107D9F72FE053
:10037000A6EBB4E001C01D92A334B207E1F713E08D
:10038000C2E4D3E000E006C022970109FE010BBFE2
:100390000E94E737C833D10780E00807A9F70E9419
:1003A000A7020C94563A0C9400008091060290919A
:1003B000070201969093070280930602089508951C
:1003C00086EB94E00E9467228091060290910702DA
:1003D00069E170E00E948D37892BD9F48091080D76
:1003E000882389F08091090D81110BC0E091B6043A
:1003F000F091B7040688F789E02D86EB94E0199513
:1004000002C01092090D81E090E090930702809362
:100410000602089586EB94E00C94C40A86EB94E0FF
:100420000C94D50A80E1809391001092900085E0B1
:1004300080933A0E86E998E990933C0E80933B0EA8
:10044000909397008093960085E18093910085EDCD
:1004500091E09093390E8093380E81E08093710083
:1004600086EB94E00E941E1768E072E082EA9EE04C
:100470000E9487316FEF71E2605072404AE050E0B5
:1004800082EA9EE00E9451326DE072E082EA9EE0D4
:100490000E94873166EB74E0605072404AE050E0A1
:1004A00082EA9EE00E94513264E172E082EA9EE0BC
:1004B0000E94873163E47FE0665B74404AE050E06D
:1004C00082EA9EE00E9451326AE172E082EA9EE096
:1004D0000E94873160913F0F7091400F6115710547
:1004E00019F063547F4002C060E070E04AE050E0E1
:1004F00082EA9EE00E94513260E272E082EA9EE06F
:100500000E9487318DB79EB76FEF71E2681B790B40
:100510004AE050E082EA9EE00E94513267E272E0D7
:1005200082EA9EE00E94873180913F0F9091400FB8
:100530006DB77EB7009719F463547F4002C0681B03
:10054000790B4AE050E082EA9EE00C9451320E941E
:10055000062D0E94DF010E941202C7E4DFE20E9422
:10056000E0012097E1F30E94472FF9CFFF920F930C
:100570001F93CF93DF93FC010081C181D281F89456
:100580008981F02EF0948F21898378941DE7115092
:1005900029F182E090E00E94FB2C88818023B9F34E
:1005A000F8948A818F218A838981802B898378942A
:1005B00080EE91E00E94FB2CF89489818F21898341
:1005C00086E490E00E94FB2C8881802311E009F0F2
:1005D00010E078948AE991E00E94FB2C812FDF9152
:1005E000CF911F910F91FF9008951F93CF93DF93A9
:1005F000FC011081C181D281912F909560FF12C0C2
:10060000F8948A8189238A838981812B89838AE06E
:1006100090E00E94FB2C8A81812B8A83789487E367
:1006200090E011C0F8948A8189238A838981812B83
:10063000898381E490E00E94FB2C8A81812B8A834C
:10064000789485E090E0DF91CF911F910C94FB2C82
:100650000F931F93CF93DF93FC011081C181D2814F
:10066000F8948981812B89838A81012F00958023C9
:100670008A8383E090E00E94FB2C89818023898318
:100680008AE090E00E94FB2CC881789485E390E09A
:100690000E94FB2C1C2381E009F480E0DF91CF91C4
:1006A0001F910F910895CF92DF92EF92FF920F93D7
:1006B0001F93CF93DF931F92CDB7DEB76C01E62E69
:1006C00008E010E0FF24F39461E09F2D9E2109F4DF
:1006D00060E0C60149830E94F502FF0C0150110938
:1006E00049810115110581F7411115C0F894D60112
:1006F0001196ED91FC91129791818C9180958923AF
:1007000081831196ED91FC91129792818C91809545
:100710008923828378940F90DF91CF911F910F915D
:10072000FF90EF90DF90CF900895EF92FF920F939C
:100730001F93CF93DF938C01C8E0D0E0F12CEE241F
:10074000E394C8010E9428038111FE28EE0C219732
:10075000C1F78F2DDF91CF911F910F91FF90EF90F7
:100760000895CF92DF92FF920F931F93CF93DF9361
:100770001F92CDB7DEB78C01F62E40E065E5798398
:100780000E945303CF2C7981D72E88E0F82EF601F2
:1007900061916F0140E0C8010E945303FA94B9F7D8
:1007A0000F90DF91CF911F910F91FF90DF90CF902D
:1007B0000895FC0113861586148627E030E0DF01DA
:1007C000A20FB31F13961C922115310519F0215069
:1007D0003109F5CF08951F93CF93DF93EC01162FC6
:1007E00060E0812F0E94822E612F70E0FB01E25AAF
:1007F000FD4FE491E883FB01EC55FD4FE491F0E0FF
:10080000EE0FFF1FE651FD4F859194919A838983E6
:10081000CE01DF91CF911F910C94D903AF92BF927B
:10082000CF92DF92EF92FF920F931F93CF93DF93BC
:100830001F92CDB7DEB75C01E62ED72EFC01858571
:1008400081115DC0C5010E94B602811105C0F5018C
:100850001386158614866EC040E060EFC5010E94C5
:10086000530301E0F12CC12C11E0C5010E942803C3
:10087000682FC50169830E9428036981613019F4DA
:100880008130B9F433C02F2D30E068131BC0F5015F
:100890008385181730F4E20FF31F8381802349F416
:1008A00002C0181731F060E0193058F4F5011487D0
:1008B00008C0F501EF0DF11D8381802B838361E07A
:1008C00009C0C12EF501E20FF31F8381902F90958F
:1008D00089238383C5010E94F5021F5F000F11F475
:1008E000F39401E0F7E0FF1508F0BFCF113438F0C2
:1008F000F501C386C11018C081E0858715C0F501D8
:1009000013861586148680E0EE2DFD2D20E030E064
:10091000D501A20FB31F13969C9191932F5F3F4F68
:1009200028303105A9F706C0F5018381882339F302
:1009300081E0EACF0F90DF91CF911F910F91FF904F
:10094000EF90DF90CF90BF90AF9008958091A80D69
:1009500090E02091A90D821B910908952091A90D85
:100960008091A80D281750F4E22FF0E0E655F24FE1
:10097000808190E02F5F2093A90D08958FEF9FEF66
:100980000895E091A90D8091A80DE81730F4F0E0EA
:10099000E655F24F808190E008958FEF9FEF089524
:1009A0000895CF92DF92EF92FF920F931F93CF9310
:1009B000DF937C01CB018A012091840D222389F0F1
:1009C000EB016B01C40ED51ECC15DD0569F06991F4
:1009D000D701ED91FC910190F081E02DC7011995AF
:1009E000F3CF642F0E943506C801DF91CF911F918C
:1009F0000F91FF90EF90DF90CF900895CF93DF930A
:100A00001F92CDB7DEB769832091840D2223D1F0E8
:100A10002091850D203240F021E030E0FC0133834D
:100A2000228380E090E015C08091860DE82FF0E0F1
:100A3000E957F24F998190838F5F8093860D809361
:100A4000850D05C061E0CE0101960E94350681E06A
:100A500090E00F90DF91CF910895FC0113821282F4
:100A600048EE53E060E070E044835583668377830B
:100A700088E392E09183808308951092A90D1092EB
:100A8000A80D1092860D1092850D0C948005862F6E
:100A9000413208F040E26AEA7DE00E949E05109231
:100AA000A90D8093A80D089521E00C94470521E03D
:100AB0000C94470581E08093840D6093A70D1092FC
:100AC000860D1092850D08950C945A050F93062FEC
:100AD00021E04091850D67E87DE08091A70D0E949F
:100AE000E2051092860D1092850D1092840D0F91E3
:100AF000089561E00C94660588E79DE00C942D054F
:100B00001092370E81E08093350E1092340E61E022
:100B100084E10E94BB2E61E085E10E94BB2EE9EBDF
:100B2000F0E080818E7F808380818D7F808388E468
:100B30008093B80085E48093BC000895413208F0AA
:100B40003FC09091370E9111FCCF91E09093370EFA
:100B50002093350E2FEF2093CA0D10920F0E240F05
:100B600020930E0E9093360E9091360E880F892B9F
:100B70008093360E8091340E813041F41092340E01
:100B80008091360E8093BB0085EC01C085EE80938A
:100B9000BC008091370E8130E1F380910F0E8417F5
:100BA00010F440910F0E20E13EE0FB01D9018A2FA5
:100BB000821B841718F48D918193F9CF842F0895A7
:100BC00080E008950F93413208F046C09091370EAF
:100BD0009111FCCF92E09093370E0093350E9FEF6A
:100BE0009093CA0D10920F0E40930E0EFB0160E120
:100BF0007EE0DB019A2F961B941718F491919D9338
:100C0000F9CF1092360E9091360E880F892B809373
:100C1000360E8091340E813041F41092340E809162
:100C2000360E8093BB0085EC01C085EE8093BC003E
:100C3000222321F08091370E8230E1F38091CA0D9A
:100C40008F3F61F08091CA0D803251F08091CA0DC2
:100C5000803341F483E007C081E005C080E003C039
:100C600082E001C084E00F910895613298F42091F0
:100C7000370E243089F46093EC0DFC018EEE9DE07C
:100C8000DC012A2F281B261718F421912D93F9CF68
:100C900080E0089581E0089582E0089585ED8093D5
:100CA000BC008091BC0084FDFCCF1092370E0895EB
:100CB00085EC8093BC001092370E08951F920F921E
:100CC0000FB60F9211240BB60F922F933F934F93B1
:100CD0005F936F937F938F939F93AF93BF93EF93A4
:100CE000FF938091B900887F803609F49CC068F535
:100CF000883209F45BC090F4803109F454C038F4B0
:100D0000882309F4F5C0883009F44DC0F5C0883156
:100D100009F44CC0803209F45DC0EEC0803409F49F
:100D200068C048F4803309F455C0883309F0E4C042
:100D30008093CA0DA8C0803509F44FC0883509F4E6
:100D40005DC0883409F0D8C0D5C0883909F4C6C060
:100D5000A8F4883709F467C038F4883609F463C00A
:100D6000803709F460C0C8C0883809F4B7C080393A
:100D700009F45FC0803809F0BFC05BC0803B09F454
:100D800085C038F4803A09F466C0883A09F47EC018
:100D9000B3C0803C09F4A6C0883C09F4A3C0883BDA
:100DA00009F489C0A9C08091360E10C090910F0E31
:100DB00080910E0E981770F5E0910F0E81E08E0F66
:100DC00080930F0EF0E0E05FF14F80818093BB00D5
:100DD00085EC85C08093CA0D8DC0E0910F0E81E037
:100DE0008E0F80930F0E8091BB00F0E0E05FF14F1B
:100DF000808390910F0E80910E0E6DC0E0910F0ECA
:100E000081E08E0F80930F0E8091BB00F0E0E05FD9
:100E1000F14F80838091350E81116CC081E0809309
:100E2000340E84EA60C083E08093370E1092CB0DBD
:100E3000CFCF8091CB0D803208F050C0E091CB0D28
:100E400081E08E0F8093CB0D8091BB00F0E0E453E6
:100E5000F24F8083BDCF8091CB0D803230F4E09192
:100E6000CB0DF0E0E453F24F10820E944E066091E9
:100E7000CB0D70E0E091300EF091310E8CEC9DE0E6
:100E800019951092CB0D0E94580636C084E08093CD
:100E9000370E1092ED0D1092EC0DE091320EF091A4
:100EA000330E19958091EC0D811105C081E080937E
:100EB000EC0D1092EE0DE091ED0D81E08E0F809320
:100EC000ED0DF0E0E251F24F80818093BB009091F4
:100ED000ED0D8091EC0D981708F47ACF85E880939A
:100EE000BC000AC085EC8093BC001092370E04C091
:100EF0001092CA0D0E944E06FF91EF91BF91AF91E3
:100F00009F918F917F916F915F914F913F912F9121
:100F10000F900BBE0F900FBE0F901F9018951F9251
:100F20000F920FB60F9211240BB60F922F933F938F
:100F30004F935F936F937F938F939F93AF93BF93E1
:100F4000EF93FF93E091380EF091390E1995FF91D0
:100F5000EF91BF91AF919F918F917F916F915F9131
:100F60004F913F912F910F900BBE0F900FBE0F909E
:100F70001F901895CF93CFB7F89480913D0E8111B3
:100F800027C0E9EDF2E08491E3E9F2E09491E82FE3
:100F9000F0E0EE0FFF1FE25EFC4FA591B4918C9143
:100FA000892321F461E085E30E94BB2E61E085E3A3
:100FB0000E94822E8CB580618CBD8CB580648CBD06
:100FC00061E084E30E94822E61E083E30E94822E2E
:100FD00080913D0E8F5F80933D0ECFBFCF910895DE
:100FE000ECE7F0E090819F739083208130E4839F51
:100FF000C0011124282B20830895EAE7F0E09081B6
:10100000987F90839081982B9083089580917A00A7
:10101000877090E00895E1E8F0E08081887F808328
:1010200008950E940B081092850010928400E1E858
:10103000F0E0808190913E0E892B80830895882373
:1010400021F080917C00806203C080917C008F7DC4
:1010500080937C000895EBE7F0E09081987F908387
:101060009081982B90830895CF92DF92EF92FF9218
:10107000CF936B017C0180E180938100109280000E
:10108000A701960160E074E284E799E40E944E357E
:1010900020E030E040E051E40E94DD360E94BB35A4
:1010A0006115710521E08207910528F421E0209364
:1010B0003E0ECB014CC06115710528E082079105F9
:1010C00068F422E020933E0EDC01CB0153E0B6959C
:1010D000A795979587955A95D1F739C061157105F0
:1010E00020E48207910568F423E020933E0EDC01A2
:1010F000CB0146E0B695A795979587954A95D1F788
:1011000026C061157105810521E0920740F424E0B5
:1011100020933E0EBB27A92F982F872F18C061154B
:101120007105810524E0920768F425E020933E0EC6
:10113000DC01CB012AE0B695A795979587952A956E
:10114000D1F705C085E080933E0E8FEF9FEF90931F
:10115000870080938600C1E0C0936F0086E00E9404
:101160002B08C093540E80917A00806280937A009D
:10117000C092470ED092480EE092490EF0924A0E6D
:10118000CF91FF90EF90DF90CF9008958093540E11
:10119000882321F080917A00806203C080917A00D8
:1011A0008F7D80937A000895EAE7F0E08081806483
:1011B00080830895CF93DF93D0917800C091790018
:1011C0004091570E5091580E2091550E3091560E69
:1011D00042175307A8F58091540E811102C00E9456
:1011E000D4088D2F90E09C2B20917C0025FF13C00C
:1011F000E0915B0EF0915C0E2091570E3091580EED
:10120000A9014F5F5F4F5093580E4093570EE20F66
:10121000F31F908315C0E091590EF0915A0E209162
:10122000570E3091580EA9014F5F5F4F5093580EE3
:101230004093570E220F331FE20FF31F91838083D9
:10124000DF91CF9108951092580E1092570E809111
:10125000540E0E94C6080E94B02C60933F0E7093FB
:10126000400E8093410E9093420E80917A00886CDC
:1012700080937A0080917B008770863011F40C9403
:10128000110808958F929F92AF92BF92CF92DF92F2
:10129000EF92FF920E94B02C4B015C0180917A008A
:1012A000877D80937A0080917B008770863011F46F
:1012B0000E940B086091550E7091560E80E090E0F0
:1012C0000E94E73520E034E244E759E40E94DD362D
:1012D0006B017C0180913F0E9091400EA091410ED8
:1012E000B091420EA5019401281B390B4A0B5B0BF0
:1012F000CA01B9010E94E7359B01AC01C701B601E3
:101300000E944E356093430E7093440E8093450EB9
:101310009093460EFF90EF90DF90CF90BF90AF90EC
:101320009F908F9008958093510E90917C00907FB4
:1013300090937C0020917C00982F9770922B909333
:101340007C00883020F080917B00886003C0809111
:101350007B00877F80937B00089591E09093500EEF
:101360001092530E1092520E10924F0E2AED38E04A
:1013700030934E0E20934D0E0C94930980914F0E96
:101380008F5F80934F0E9091500E891302C0109280
:101390004F0E80914F0EE091520EF091530EE80FD8
:1013A000F11D80810E9493090C94DA081F93CF935A
:1013B000DF93C0914F0E9091500E9230A0F081E0DB
:1013C0008C0F891719F080934F0E02C010924F0EA8
:1013D00080914F0EE091520EF091530EE80FF11DE7
:1013E00080810E94930910917800D09179004091FA
:1013F000570E5091580E2091550E3091560E4217AF
:101400005307F0F48091540E811102C00E94D40859
:10141000612F70E07D2B80917C0085FF02C0672FDB
:101420007727E0914B0EF0914C0E8C2F19958091FF
:10143000570E9091580E01969093580E8093570E28
:10144000DF91CF911F910895CF93DF93D0917C00CE
:10145000C0917B0080917C00807E80937C00809195
:101460007C008E6180937C0080917B00877F8093DD
:101470007B0063E070E080E090E00E94D32C8091DC
:101480007A00806480937A0080917A0086FDFCCF98
:101490006091780080917900D0937C00C0937B00AC
:1014A00070E0782B882777FD8095982F0E94E9358A
:1014B0009B01AC0160E070E889E894E40E944E353D
:1014C000DF91CF9108951F920F920FB60F921124C2
:1014D0000BB60F922F933F934F935F936F937F932E
:1014E0008F939F93AF93BF93EF93FF93E0914D0E34
:1014F000F0914E0E1995FF91EF91BF91AF919F9191
:101500008F917F916F915F914F913F912F910F90AC
:101510000BBE0F900FBE0F901F9018951F920F9249
:101520000FB60F9211240F900FBE0F901F901895B9
:1015300081E00C94F0078DE294E0089589E294E054
:10154000089582E194E0089588EF93E0089582EF92
:1015500093E008958FEB93E0089584E492E008957A
:10156000CF93DF93EC0161E082E00E94BB2ECC5A66
:10157000D74F1882DF91CF910895DC01ED91FC9156
:101580000190F081E02D1994CF93DF93EC0161E09D
:101590000E94D01987EA93E099838883CE5AD74F67
:1015A00018821982DF91CF91089527EA33E0FC0178
:1015B000318320830C94401AAF92BF92CF92DF9276
:1015C000EF92FF920F931F93CF93DF931F921F927F
:1015D000CDB7DEB78C01D12C7C018BEBE81A87EFFD
:1015E000F80A5801E5E9AE1AE7EFBE0A2D2D30E002
:1015F000F801EB5AF74F8081918168E270E00E9418
:101600008D3726173707E0F588E0C82EC982F70125
:101610002081318180E090E040E0B801620F731FCB
:10162000E42FF0E0DB01A80FB91FA259BF4F41E042
:1016300050E0AC91AA2311F040E050E0082E02C027
:10164000440F551F0A94E2F74E0F5F1F0196883032
:10165000910531F74A83285F3F4FF701318320839B
:10166000F50160816D0D22E0AE014F5F5F4FC80153
:101670000E943922C394FDE0CF12C8CFD394B6CFD5
:101680000F900F90DF91CF911F910F91FF90EF90EE
:10169000DF90CF90BF90AF9008958F929F92AF92BE
:1016A000BF92CF92DF92EF92FF920F931F93CF934F
:1016B000DF9300D0CDB7DEB78C01912C7C018BEA93
:1016C000E81A87EFF80A98E2C92ED12C5801E5E90B
:1016D000AE1AE7EFBE0A88248A94292D30E0F7017C
:1016E00080819181B6010E948D3726173707A0F4BB
:1016F00038E039838A82F5016081690D22E0AE010C
:101700004F5F5F4FC8013B830E9439223B813F5F9F
:101710003D3079F79394E1CF0F900F900F90DF91C8
:10172000CF911F910F91FF90EF90DF90CF90BF90DE
:10173000AF909F908F900895EF92FF920F931F9319
:10174000CF93DF938C017C018BE9E81A87EFF80ACD
:10175000C4E6D0E0F70141917F01BE01C8010E94BB
:10176000CB192196C13CD105A9F760E0C801DF91F2
:10177000CF911F910F91FF90EF900C94BF0B8F9220
:101780009F92AF92BF92CF92DF92EF92FF920F9310
:101790001F93CF93DF93EC01B62E7C012BE9E21A65
:1017A00027EFF20A04E610E06701E881F98100887A
:1017B000F189E02DB801CE011995F70181937F01E0
:1017C0000F5F1F4F013C110581F7F6018081918168
:1017D0009E012959374F79018E010759174F892BDF
:1017E000E9F4F90180819181892BC1F4F8018081AC
:1017F0009181892B99F4399780819181A281B3815C
:10180000E35BFF4F80839183A283B38381E090E009
:10181000F80191838083CE010E949C0BF6018081A8
:101820009181892BB9F4F70180819181892B91F401
:10183000F80180819181019769F480E2FE01E55908
:10184000F74F808382E090E0F80191838083CE019E
:101850000E949C0BF60180819181892BE9F4F701AC
:1018600080819181892BC1F4F80180819181029757
:1018700099F480E090E0A0EAB0E4FE01EF54F74F65
:1018800080839183A283B38383E090E0F801918306
:101890008083CE010E949C0BF60180819181892B6F
:1018A000B1F4F70180819181892B89F4F80180815D
:1018B0009181039761F4FE01EB54F74F108284E0AD
:1018C00090E0F80191838083CE010E949C0BF60189
:1018D00080819181892B79F5F70180819181892B14
:1018E00051F5F80180819181049729F580E090E01D
:1018F000A8ECB2E4FE01EA54F74F80839183A283FF
:10190000B38380E090E4ACE9B6E4349680839183BD
:10191000A283B38380E090E0A8E4B3E434968083AC
:101920009183A283B38385E090E0F8019183808363
:10193000CE010E949C0BF60180819181892B69F474
:10194000F70180819181892B41F4F8018081918197
:10195000059719F4BB2009F4B2C0F6011182108278
:10196000F7011182108285E090E0F8019183808375
:1019700000E010E42CE936E4FE01E359F74F008360
:1019800011832283338380E090E5A3E4B8E43496A6
:1019900080839183A283B38340E054E264EF79E4CF
:1019A000349640835183628373830F2EC12CD12CD4
:1019B000F8E4EF2EF3E4FF2EF02D7096C082D18272
:1019C000E282F3820F2E812C912CFAEFAF2EF4E4F9
:1019D000BF2EF02D349680829182A282B3823496FB
:1019E0000083118322833383349680839183A2837F
:1019F000B383349640835183628373834FEF56EEF3
:101A00006BE57EE274974083518362837383B8965B
:101A100040835183628373838AE0FD9780833D9680
:101A200010821182128213823496108211821282E5
:101A300013827C9640835183628373833496408300
:101A400051836283738334964083518362837383AB
:101A500034964083518362837383E554F109808116
:101A60009181A281B381E35BFF4F80839183A28345
:101A7000B38380E2E254F109808380E090E0A0EA41
:101A8000B0E4EA5BFF4F80839183A283B3833496F3
:101A9000108280E090E0A8ECB2E4319680839183DC
:101AA000A283B383349600831183228333833496D5
:101AB000C082D182E282F382CE010E949C0BFE01A1
:101AC000E355F74FC080D180E280F38020E030E022
:101AD000A901C701B6010E944A35FE01EC59F74F32
:101AE00018161CF081E0808309C0DE01A05AB74FB0
:101AF000CD92DD92ED92FC9213971082FE01EB5491
:101B0000F74F8081882311F042E001C041E060E09E
:101B1000CE01DF91CF911F910F91FF90EF90DF9059
:101B2000CF90BF90AF909F908F900C94F6225F92D1
:101B30006F927F928F929F92AF92BF92CF92DF92DD
:101B4000EF92FF920F931F93CF93DF931F921F92F9
:101B5000CDB7DEB76C01CB01542E68E270E00E9475
:101B60008D377B014C015C0183E0B694A7948A9584
:101B7000E1F73B01772486010559174FF801808171
:101B8000B301680F711D88E79DE00E946405B501EF
:101B9000685F7F4F88E79DE00E94BD0A88E79DE06F
:101BA0000E947905F8018081B301680F711D41E041
:101BB00050E088E79DE00E94570588E79DE00E947D
:101BC000A604892B41F1F82DF7708F2E88E08A0D3D
:101BD000898388E79DE00E94AE0441E050E060E028
:101BE00070E004C0440F551F661F771F8A94D2F718
:101BF000511002C0482B02C0409548234A83F80187
:101C000060816E0D22E0AE014F5F5F4FC6010E9402
:101C1000392280E001C081E00F900F90DF91CF91D9
:101C20001F910F91FF90EF90DF90CF90BF90AF90FA
:101C30009F908F907F906F905F9008959F92AF924A
:101C4000BF92CF92DF92EF92FF920F931F93CF93A9
:101C5000DF9300D000D0CDB7DEB78C016A017B01E5
:101C6000922E1E82FC01E254F74F20813181428185
:101C70005381C701B6010E944A3518160CF444C0BE
:101C8000F801E05AF74F2081318142815381C70129
:101C9000B6010E944E3528EA29836A837B838C83B0
:101CA0009D83580184E9A81A87EFB80A25E0AE01A0
:101CB0004F5F5F4FF5016081C8010E943922992072
:101CC00029F164E670E080E090E00E94D32C41E0CE
:101CD000F501608188E79DE00E94540588E79DE05A
:101CE0000E94A604892B91F088E79DE00E94AE0433
:101CF000813061F421E0AE014A5F5F4FF501608100
:101D0000C8010E94DF1C02C088E08E838E81811191
:101D100007C0F801E85AF74FC082D182E282F3820D
:101D200026960FB6F894DEBF0FBECDBFDF91CF91E0
:101D30001F910F91FF90EF90DF90CF90BF90AF90E9
:101D40009F900895FC01E05AF74F408351836283CE
:101D500073833897408151816281738120E00C94B4
:101D60001E0EAF92BF92CF92DF92EF92FF920F932F
:101D70001F93CF93DF9300D000D0CDB7DEB78C0197
:101D80006A017B01FC01EA54F74F24EA30E74DE792
:101D90005FE360817181828193810E94DD369B01C6
:101DA000AC01C701B6010E94D93687FD4CC02EEAAE
:101DB00037E441E85FE3F801E654F74F6081718151
:101DC000828193810E94DD369B01AC01C701B6017F
:101DD0000E944A351816BCF18AEA8983CA82DB82DE
:101DE000EC82FD82580184E9A81A87EFB80A25E041
:101DF000AE014F5F5F4FF5016081C8010E9439223B
:101E000064E670E080E090E00E94D32C41E0F501B0
:101E1000608188E79DE00E94540588E79DE00E946C
:101E2000A604892B91F088E79DE00E94AE048130E2
:101E300061F421E0AE014A5F5F4FF5016081C801A6
:101E40000E94DF1C02C088E08E838E81811107C052
:101E5000F801E45AF74FC082D182E282F3822696DB
:101E60000FB6F894DEBF0FBECDBFDF91CF911F91AB
:101E70000F91FF90EF90DF90CF90BF90AF900895BB
:101E80004F925F926F927F928F929F92AF92BF928A
:101E9000CF92DF92EF92FF920F931F93CF93DF9336
:101EA0001F921F92CDB7DEB78C01FC01EC5AF74FA1
:101EB00081E0808360E082E00E94BB2E64EF71E0ED
:101EC00080E090E00E94D32C48018BEA881A87EFCB
:101ED000980AF4011182108228E2A22EB12CE12C82
:101EE000F12C38E1632E77247A946801F5E9CF1A52
:101EF000F7EFDF0A4E2C69827A82F60160816E0D5F
:101F000022E0AE014F5F5F4FC8010E943922F60107
:101F100060816E0D21E0AE014F5F5F4FC8010E94EE
:101F2000DF1C89818F3F09F04BC098E1592E5982FF
:101F30001A82F6016081640D22E0AE014F5F5F4FAF
:101F4000C8010E943922F6016081640D21E0AE01D2
:101F50004F5F5F4FC8010E94DF1C8981811130C033
:101F600080EF850D89837A82F6016081640D22E01D
:101F7000AE014F5F5F4FC8010E9439225394FDE1CB
:101F80005F12D5CF6FE572E082EA9EE00E94873152
:101F90004AE050E0B70182EA9EE00E94493269E6D9
:101FA00072E082EA9EE00E949431F4012081318146
:101FB000C50188972817390719F4F401B182A08266
:101FC000FFEFEF1AFF0A88E2A80EB11CE8E0EE1658
:101FD000F10409F08FCFF401608171814AE050E093
:101FE00082EA9EE00E9494326AE472E082EA9EE015
:101FF0000E94943140E050E46CE176E4C8010E9414
:10200000B10E0F900F90DF91CF911F910F91FF9024
:10201000EF90DF90CF90BF90AF909F908F907F9088
:102020006F905F904F9008952F923F924F925F92E2
:102030006F927F928F929F92AF92BF92CF92DF92D8
:10204000EF92FF920F931F93CF93DF93CDB7DEB73D
:10205000AA970FB6F894DEBF0FBECDBF2C016E8BD2
:102060002DB73EB73CA32BA38C010D5A174F81E02F
:10207000D8018C93F201EC5AF74F8081811103C093
:10208000C2010E94400FEE898E2F90E0FC01E05AC1
:10209000F109E735F10508F0A9C6EE58FF4F9201A6
:1020A00024593F4F19010C94C337F201E05CF74FFC
:1020B00080819181892B09F096C642E050E0B201FF
:1020C0006B5A774FF5C0F201E05CF74F8081918148
:1020D000892B09F088C6D9011C92912C92012B5AA8
:1020E000374F3B872A87720135E9E31A37EFF30A46
:1020F00088248394A92CB12CEA85FB858081918169
:1021000068E270E00E948D37A616B70608F06EC62A
:1021100008E010E0D7018C91B501680F711D88E7C8
:102120009DE00E946405B80188E79DE00E94BD0A19
:1021300088E79DE00E947905F7018081B501680F6D
:10214000711D41E050E088E79DE00E94570588E757
:102150009DE00E94A604892B51F188E79DE00E9432
:10216000AE046C01612C712CDD24C601062C02C06A
:10217000959587950A94E2F781709927F1E08F276A
:10218000898341E050E0BE016F5F7F4FC2010E9432
:10219000461A2FEF621A720A38E06316710429F7A3
:1021A0000F5F1F4F0D30110509F0B4CF02C0D101F0
:1021B0008C9293949FCFF201E05CF74F20813181A4
:1021C0007596808191812817390709F00CC6C201E4
:1021D0000E94DC0A96C5F201E05CF74F8081918194
:1021E000029709F000C6D201AB5BB74F2D913C912D
:1021F0001197F901E259FF4FE40DF51D808191819E
:102200002E5F3F4F2D933C93F201EB5AF74F208105
:1022100031818217930708F07BC068E270E00E946A
:102220008D378C016B01DD247201F5E9EF1AF7EFB0
:10223000FF0AD7018C91B601680F711D88E79DE0F8
:102240000E946405B80153E0769567955A95E1F7C9
:10225000685F7F4F88E79DE00E94BD0A88E79DE0A8
:102260000E947905F7018081B601680F711D41E078
:1022700050E088E79DE00E94570588E79DE00E94B6
:10228000A604892BC9F088E79DE00E94AE04992737
:10229000077002C0959587950A95E2F78170992796
:1022A000F1E08F27898341E050E0BE016F5F7F4FEF
:1022B000C2010E94461A25C581E096C5F201E05C84
:1022C000F74F80819181039709F08DC5D201AB5BF7
:1022D000B74F8D919C911197FC01E259FF4FE40D8E
:1022E000F51D60817181F201E80FF91FE059FF4F80
:1022F000408103968D939C93F201EB5AF74F8081B6
:1023000091816817790720F4C2010E94970DDAC203
:1023100085E06AC5F201E05CF74F80819181892BED
:1023200009F061C5D9011C9244E050E0B201685A3D
:10233000774FBEC4F201E05CF74F80819181049732
:1023400009F051C5D201AB5BB74F8D919C911197AC
:10235000FC01E259FF4FE40DF51D4081518162817E
:10236000738104968D939C9321E0C2010E941E0EFE
:102370003BC5F201E05CF74F80819181892B09F028
:1023800032C582010459174F49EAD8016C91C20144
:102390000E94222264E670E080E090E00E94D32C4C
:1023A00041E0F801608188E79DE00E94540588E7DC
:1023B0009DE00E94A604892B09F418C588E79DE0DA
:1023C0000E94AE04853009F011C525E0AE014F5FD3
:1023D0005F4FD8016C91C2010E94DF1C8D81F10119
:1023E0008083811103C589819A81AB81BC81B2014F
:1023F000645A774FFB0180839183A283B38344E0C7
:1024000050E056C4F201E05CF74F8081918104975F
:1024100009F0E9C4D201AB5BB74F8D919C91119744
:10242000FC01E259FF4FE40DF51D408151816281AD
:10243000738104968D939C93C2010E94B10E42C297
:10244000F201E05CF74F80819181019709F0CBC4E4
:10245000D201AB5BB74F8D919C911197F201E80FC0
:10246000F91FE259FF4FE08101968D939C93E23072
:1024700008F02CC1BBE1EB9FF0011124E35AF14FAE
:1024800081818983F90110820EC4F201E05CF74F6B
:1024900080819181029709F0A6C43596208131810F
:1024A000A201420F531FDA01A259BF4F8C9111961E
:1024B0006C912E5F3F4F318320830E948E2294C403
:1024C000F201E05CF74F80819181019709F08BC4A4
:1024D000359680819181D201A80FB91FA259BF4FB3
:1024E0002C91019691838083223008F0EFC0D101B6
:1024F0001C92BBE12B9FF0011124E35AF14FE181C3
:10250000C2018B59974FF0E0213011F0329679C01B
:10251000389677C0F201E05CF74F80819181059792
:1025200009F061C4359620813181D201A20FB31F19
:10253000A259BF4F4C91C901019691838083D1016B
:102540001C924423E1F0413009F0C0C04091790E63
:10255000D901A159BF4FA40DB51D8D919D910D902D
:10256000BC91A02D2B5F3F4F31832083F20134E0DB
:10257000439FE00DF11D1124EB57F74F9FC0409191
:102580005E0ED901A159BF4FA40DB51D8D919D912E
:102590000D90BC91A02D2B5F3F4F31832083F20122
:1025A00024E0429FE00DF11D1124E359F74F86C04E
:1025B000F201E05CF74F80819181019709F013C42B
:1025C000359680819181D201A80FB91FA259BF4FC2
:1025D0002C91019691838083223008F077C0F1011D
:1025E00010823BE1239FF0011124E35AF14FE18176
:1025F000C2018B59974FF0E0213011F0359601C0A0
:102600003D96EE0FFF1FEE0FFF1FE80FF91F8081B1
:102610009181A281B38189839A83AB83BC8344E097
:1026200050E043C3F201E05CF74F80819181059750
:1026300009F0D9C3359620813181D201A20FB31F91
:10264000A259BF4F4C91C901019691838083D1015A
:102650001C924423D9F04130C9F54091790ED9013B
:10266000A159BF4FA40DB51D8D919D910D90BC91A9
:10267000A02D2B5F3F4F31832083F20134E0439F35
:10268000E00DF11D1124E756F74F18C040915E0E82
:10269000D901A159BF4FA40DB51D8D919D910D90EC
:1026A000BC91A02D2B5F3F4F31832083F20124E0AA
:1026B000429FE00DF11D1124E758F74F808391836D
:1026C000A283B383C2010E949C0B90C385E0FAC031
:1026D000F201E05CF74F80819181892B09F083C37F
:1026E000F901108244E050E0B201605A774FE0C235
:1026F000F201E05CF74F80819181049709F073C388
:10270000D201AB5BB74F8D919C911197FC01E259BF
:10271000FF4FE40DF51DC080D180E280F380049668
:102720008D939C9320E030E0A901C701B6010E947F
:10273000D9361816CCF4F201EC59F74F8081882372
:1027400031F03497C082D182E282F382DAC2D201C0
:10275000A355B74FCD92DD92ED92FC921397108264
:10276000C2010E949C0BCDC288E03EC3F201E05C36
:10277000F74F80819181892B09F035C3D9011C92D3
:1027800011E020E030E0A901E359FF4F6081718141
:10279000828193810E944A3518160CF410E0198347
:1027A00082C2F201E05CF74F80819181019709F0CC
:1027B0001AC3359680819181D201A80FB91FA25901
:1027C000BF4F2C91019691838083E859FF4F2223BC
:1027D00029F010821182128213820CC0D201A05AF9
:1027E000B74F8D919D910D90BC91A02D80839183C9
:1027F000A283B383C2010E949C0B15C2F201E05C6C
:10280000F74F008111810A30110508F4ECC23596AA
:1028100080819181DC01A259BF4FA40DB51D2D917E
:102820003D914D915C912A873B874C875D879C0148
:102830002C5F3F4F31832083DC01AE58BF4FA40D86
:10284000B51D6D907C90DC01AC58BF4FA40DB51D3B
:102850004D915D916D917C914A8B5B8B6C8B7D8BE7
:10286000D201A80FB91FA858BF4FFC900B969183B7
:1028700080830B30110541F07096808191810B9619
:102880000817190709F0AFC2BBE46B16B1E07B066D
:10289000C0F420E030E04AE754E46A857B858C850B
:1028A0009D850E944E3520E030E44CE157E40E94C3
:1028B000DD3620E030E040E855E40E944A3587FDEF
:1028C00023C281E0D1018C9391C2F201EB5AF74F00
:1028D00020813181C9010B9675974081518148173C
:1028E000590709F080C2EDB7FEB7FA8FE98FD10121
:1028F0001C92F201EB5BF74F80819181DC01A259C0
:10290000BF4FA40DB51D4D915D916D917C914A8B8A
:102910005B8B6C8B7D8BAC014C5F5F4F5183408335
:10292000DC01AE58BF4FA40DB51D6D907C90DC014D
:10293000AC58BF4FA40DB51D4D915D916D917C912B
:102940004F8F58A369A37AA3D201A80FB91FA85823
:10295000BF4F1C910B96918380836DB77EB7621B2E
:10296000730B0FB6F8947EBF0FBE6DBF8DB79EB7C9
:1029700001969B878A87DC01280F391F80E090E051
:102980007F01A217B307A1F0F70140815181B20185
:10299000640F751F62597F4FFB0160814F5F5F4F6E
:1029A000F701518340836D93662359F30196E9CF74
:1029B000869D9001879D300D969D300D11242B34FE
:1029C000314008F0D2C020E030E04AE754E46A89A0
:1029D0007B898C899D890E944E3520E030E44CE152
:1029E00057E40E94DD3620E030E040E855E40E94E4
:1029F0004A3587FFBAC0C2010E944D0B0E94B02C1D
:102A00006B8F7C8F8D8F9E8F212C312C92012B5AB6
:102A1000374F3EA32DA3A20144595F4F5F874E87D6
:102A2000812F8270682F70E078A76FA311701F8BC1
:102A3000188EC201845A974F9AA789A7ADA1BEA14B
:102A40008D919C9128163906F0F5AE85BF858C9145
:102A5000811135C0EA85FB85E20DF31D8081882355
:102A600071F141E0B101C2010E94970D8824839465
:102A7000EFA1F8A51E161F060CF0812CAA24A39422
:102A80002F89388D121613060CF0A12CA9A5BAA512
:102A9000CD90DD90ED90FC900F8D18A129A13AA169
:102AA000A3016A897B898C899D890E947727EE859D
:102AB000FF85808340E0B101C2010E94970DFFEFC6
:102AC0002F1A3F0ABBCFEE85FF858081811152C04E
:102AD0000E94B02C2B8D3C8D4D8D5E8D621B730B37
:102AE000840B950B0E94E7356B017C01B30180E0FC
:102AF00090E00E94E73520E030E04AE754E40E948D
:102B0000DD369B01AC01C701B6010E944E356E83D4
:102B10007F838887998744E050E0BE016A5F7F4FDA
:102B2000C2010E94461A44E050E064E77EE0C20120
:102B30000E94461A44E050E06FE87EE0C2010E9425
:102B4000461AF201E05AF74F80819181A281B38148
:102B500089839A83AB83BC8344E050E0BE016F5FFE
:102B60007F4FC2010E94461A05C081E0F201E4597C
:102B7000FF4F8083498D5A8D0FB6F8945EBF0FBE0C
:102B80004DBF34C1F201E05CF74F80819181019724
:102B900009F029C1D9011C92359680819181D20119
:102BA000A80FB91FA259BF4F2C9101969183808322
:102BB00061E0211101C060E0C2010E94BF0B16C19B
:102BC000F201E05CF74F80819181892B09F00BC104
:102BD000F901108282E036C0F201E05CF74F80819B
:102BE0009181892B09F0FFC0D9011C92729629C0EE
:102BF000F201E05CF74F80819181019709F0F3C009
:102C0000359680819181D201A80FB91FA259BF4F7B
:102C10002C910196918380833D96222319F081E0C7
:102C2000808301C01082F1011082E0C0F201E05CFB
:102C3000F74F80819181892B09F0D5C0D9011C9271
:102C4000F801808189832FC0F201E05CF74F808119
:102C50009181019709F0C7C0359680819181D20199
:102C6000A80FB91FA259BF4F2C9101969183808361
:102C7000222321F081E0D8018C9343C0F801108217
:102C800040C0F201E05CF74F80819181892B09F00F
:102C9000AAC0F901108282E00E94F12E21E0892B66
:102CA00009F020E0298341E050E0BE016F5F7F4FD3
:102CB000C2010E94461A9AC0F201E05CF74F80817F
:102CC0009181019709F08FC0359680819181D20161
:102CD000A80FB91FA259BF4F2C91019691838083F1
:102CE000222359F060E082E00E94BB2E64EF71E085
:102CF00080E090E00E94D32C04C061E082E00E945A
:102D0000BB2ED1011C9272C0D1011C92F201EB5A70
:102D1000F74F808191810B960817190719F4C201AA
:102D20000E94DC0A0E94B02C6E877F87888B998B6B
:102D300088248394F1FE812CAA24A394F0FEA12C74
:102D4000F201E45AF74FC080D180E280F3800A8913
:102D50001B892C893D89A3016A857B858C859D858E
:102D60000E947727F1018083811140C00E94B02C1E
:102D70002E853F8548895989621B730B840B950BFF
:102D80000E94E7356B017C01B30180E090E00E9476
:102D9000E73520E030E04AE754E40E94DD369B014D
:102DA000AC01C701B6010E944E356E837F838887D0
:102DB000998744E050E0BE016A5F7F4FC2010E94E4
:102DC000461A44E050E064E77EE0C2010E94461AE1
:102DD00044E050E06FE87EE0C2010E94461AF20132
:102DE000E05AF74F14CC86E0F10180836E89C2016E
:102DF0000E94061DF201E459FF4F80812BA13CA1E6
:102E00000FB6F8943EBF0FBE2DBFAA960FB6F8942A
:102E1000DEBF0FBECDBFDF91CF911F910F91FF900D
:102E2000EF90DF90CF90BF90AF909F908F907F906A
:102E30006F905F904F903F902F900895AF92BF9208
:102E4000CF92DF92EF92FF920F931F93CF93DF9376
:102E5000CDB7DEB762970FB6F894DEBF0FBECDBF19
:102E60008C010E943B1961E082E00E94BB2E61E070
:102E700082E00E94822EF801E05AF74F80E090E055
:102E8000A6E9B3E480839183A283B38360E0C801A1
:102E90000E94BF0BD801ED91FC910680F781E02DD7
:102EA000C8011995BC0182EA9EE00E94873165E75E
:102EB00072E082EA9EE00E948731D801ED91FC9198
:102EC0000484F585E02DC8011995BC0182EA9EE0D5
:102ED0000E94943168E772E082EA9EE00E948731A6
:102EE000D801ED91FC910284F385E02DC80119957C
:102EF000BC0182EA9EE00E9494316BE872E082EAB3
:102F00009EE00E9487317801BBE9EB1AB7EFFB0A1C
:102F1000F701608171814AE050E082EA9EE00E9400
:102F2000943263E772E082EA9EE00E948731F80102
:102F3000E959F74F608171814AE050E082EA9EE0F2
:102F40000E94943263E772E082EA9EE00E94873139
:102F5000F801E759F74F608171814AE050E082EA59
:102F60009EE00E949A3262EA72E082EA9EE00E944B
:102F70008731F801E459F74F4AE050E0608182EA76
:102F80009EE00E947D32B12CA12CA1E0BA1202C0B9
:102F900085E001C083E0A81608F0AFC04AE06A2DC2
:102FA000CE0101960E944B344AE06B2DCE010D9666
:102FB0000E944B3466EC72E0CE0107960E941D34ED
:102FC000BE01635F7F4FCE0107960E94A43468EC78
:102FD00072E00E94B734BE016F5F7F4F0E94A4343D
:102FE0006CED72E00E94B734BC0182EA9EE00E9460
:102FF0007931CE0107960E94AF33CE010D960E9423
:10300000AF33CE0101960E94AF33CA2CD12CF1E030
:10301000BF1619F0F601329602C0F6013896EE0F8F
:10302000FF1FEE0FFF1FEE0DFF1D408151816281DA
:10303000738122E030E082EA9EE00E949D334AE004
:103040006A2DCE0101960E944B344AE06B2DCE01D1
:103050000D960E944B3466EC72E0CE0107960E94FA
:103060001D34BE01635F7F4FCE0107960E94A434DA
:103070006FED72E00E94B734BE016F5F7F4F0E9418
:10308000A4346CED72E00E94B734BC0182EA9EE089
:103090000E947931CE0107960E94AF33CE010D9682
:1030A0000E94AF33CE0101960E94AF3381E0F6015A
:1030B000B81611F0359601C03D96EE0FFF1FEE0FCA
:1030C000FF1FEE0DFF1D608171818281938125EAD2
:1030D00034ED48E653E50E94DD36AB01BC0122E049
:1030E00030E082EA9EE00E949B3364EF72E082EA65
:1030F0009EE00E949431A39448CFB394B2E0BB12F7
:1031000043CF68EF72E082EA9EE00E948731F801C7
:10311000E559F74F4AE050E0608182EA9EE00E9464
:103120007D326DE473E082EA9EE00E948731F8010F
:10313000E355F74F408151816281738122E030E095
:1031400082EA9EE00E949D3365E173E082EA9EE0A0
:103150000E948731F801EF54F74F4081518162811D
:10316000738122E030E082EA9EE00E949D3368E2B3
:1031700073E082EA9EE00E948731F801EB54F74F3A
:10318000608170E04AE050E082EA9EE00E945132A5
:1031900061E473E082EA9EE00E948731F801EC5915
:1031A000F74F608170E04AE050E082EA9EE00E94C2
:1031B00051326DE573E082EA9EE00E948731F801AA
:1031C000EA54F74F408151816281738122E030E0FF
:1031D00082EA9EE00E949D3365E773E082EA9EE00A
:1031E0000E948731F801E654F74F40815181628196
:1031F000738122E030E082EA9EE00E949D336DE818
:1032000073E082EA9EE00E948731F801E254F74FB2
:10321000408151816281738122E030E082EA9EE048
:103220000E949D3362960FB6F894DEBF0FBECDBFED
:10323000DF91CF911F910F91FF90EF90DF90CF9092
:10324000BF90AF9008958627682F62956827062E55
:10325000669566956025062E669560256770082E32
:10326000892F669507946795902D86270694679514
:10327000902586270895CF92DF92EF92FF920F93C9
:103280001F93CF93DF9300D01F92CDB7DEB78C0191
:10329000CE0101966C019FE0E92EF12CD801ED9151
:1032A000FC910088F189E02DB701C8011995F6015C
:1032B00081936F01FFEFEF1AFF0A23E1E216F10499
:1032C00069F789819A81AB81BC818F3F9F4FAF4F56
:1032D000BF4FE1F149815A816B817C8126E082EA0E
:1032E0009EE00E942C3088E79DE00E943D050E94F0
:1032F000BA070E94240A08591F4FD8016D937D9385
:103300008D939C93139762E474E082EA9EE00E949E
:103310008731F801408151816281738122E030E080
:1033200082EA9EE00E949B3364E574E082EA9EE0BC
:103330000F900F900F900F90DF91CF911F910F91F1
:10334000FF90EF90DF90CF900C94943180E092EC5E
:10335000A1E0B0E089839A83AB83BC83CE01019660
:103360006C018FE0E82EF12CD6014D916D01D80152
:10337000ED91FC910288F389E02DB701C801199500
:10338000BFEFEB1AFB0AE3E1EE16F10469F7A2CFF7
:10339000CB010C94303ACB01642F0C94383A089549
:1033A0008F929F92AF92BF92CF92DF92EF92FF9255
:1033B0000F931F93CF93DF9326E734E0FC01318313
:1033C0002083E45BF74F6083399711821082369631
:1033D00010823997118210823596118210823296AE
:1033E000118210823A961082E12CF12C00E010E05C
:1033F000C8010E94303AA82EC80107960E94303AB0
:103400008E2CC0E0D0E0B12CA094B094C82ED12C6A
:10341000C094D094CE018E0D9F1DC697C4F4B50103
:103420000C2E02C0759567950A94E2F761709C2E88
:10343000980C892D0E94822EB6010C2E02C0759523
:1034400067950A94E2F76170892D0E94BB2E219640
:10345000C830D105F9F60F5F1F4FE8E0EE0EF11C02
:103460000730110529F6DF91CF911F910F91FF9041
:10347000EF90DF90CF90BF90AF909F908F90089586
:1034800026E734E0FC013183208308951F93CF9316
:10349000DF93FB0120E030E0DC01A95BB74F24178C
:1034A000350781F01191BC01620F731FCD91DC9142
:1034B00011976C0F7D1FEB01C259DF4F18832F5FEF
:1034C0003F4FEDCF8D919C911197820F931F8D935C
:1034D0009C93DF91CF911F910895CF93DF93FC01CF
:1034E000E359FF4F6081DC01A459BF4F67FF0EC055
:1034F00020E8260F208322E02C93DC01ED91FC9143
:103500000488F589E02DDF91CF911994FC01E05CEE
:10351000F74F2081318121503109820F931FEC0137
:10352000C259DF4F88818C9331832083DF91CF9103
:1035300008956F927F928F929F92AF92BF92CF9297
:10354000DF92EF92FF920F931F93CF93DF93EC01E3
:103550009C01275B374F59016D3721F481E0F90158
:103560008083AEC0F90180819E012D5B374F7901C8
:10357000882309F49EC080E26827F7018081918149
:103580009E01245B374F4901FE01EE5BF74F6F014F
:103590008E01005C174F009759F4E55DF74060839A
:1035A000F90180818823A9F18FEF9FEF33961EC028
:1035B0008130910581F467FF08C083E08083862F06
:1035C0008F77F8011082818324C082E08083862F68
:1035D00090E0F8010BC08230910559F4208123302E
:1035E00041F4F80180819181860F911D9183808340
:1035F00010C0F6012081821B9109F80120813181E0
:103600008217930730F48C0F9D1FFC01E259FF4F86
:103610006083F4018081882369F03E01F1EB6F1A29
:10362000F7EF7F0AF301808191810E942319F30152
:1036300091838083F701208131812F5F3F4F318358
:103640002083F4014081F6015081F801808191814D
:10365000850F911D840F911D840F911D2817390727
:1036600011F5F70111821082FE01EB5BF74F118219
:103670001082329611821082442329F0389680817C
:103680009181892B19F4CE010E946D1AFE01E55B30
:10369000F74F8081882339F0C359DF4F80589881D4
:1036A000981301C01082F5018081882349F01082AF
:1036B00007C06E3709F061CFF70111821082F3CF96
:1036C000DF91CF911F910F91FF90EF90DF90CF90FE
:1036D000BF90AF909F908F907F906F900895FF92D2
:1036E0000F931F93CF93DF931F92CDB7DEB78C015B
:1036F000F62E88E0898369816837E8F588E79DE0E0
:103700000E945A0588E79DE00E947905811130C02A
:10371000FF2041F041E050E0BE016F5F7F4FC801E4
:103720000E94461A67E574E082EA9EE00E948731B3
:103730004AE050E0698182EA9EE00E9476326BE6C0
:1037400074E082EA9EE00E94873140E150E06981A6
:1037500082EA9EE00E94763260E774E082EA9EE0B0
:103760000E94943161E070E080E090E00E94D32CF0
:1037700089818F5FBFCF0F90DF91CF911F910F9104
:10378000FF900895CF93C62F83E8860F823090F480
:103790006DE782EA9EE00E94C72FE091A20EF091B1
:1037A000A30E60E26C270190F081E02D82EA9EE09A
:1037B000CF91199482EA9EE0CF910C94C72F8F92FB
:1037C0009F92AF92BF92CF92DF92EF92FF920F93B0
:1037D0001F93CF93DF93EC018C017C0120ECE21A64
:1037E00027EFF20A845B974F6C015E0193EBA91AF5
:1037F00097EFB90AF7018081918198012C1B3D0B4D
:10380000F60128173907C8F48081980122593F4FE3
:103810004901882351F0F9016081F501808191818E
:103820000E942319F50191838083F4016081CE0108
:103830000E94C21B0F5F1F4FDDCF8081882369F07C
:103840008E01035B174FF8016081CE010E94C21BFD
:10385000F8016181CE010E94C21BF7011182108222
:10386000C95BD74F19821882DF91CF911F910F91B9
:10387000FF90EF90DF90CF90BF90AF909F908F9090
:103880000895BF92CF92DF92EF92FF920F931F9312
:10389000CF93DF93EC01B62E8C01005C174FFC0137
:1038A000E95BF74F80819181F801918380836EE716
:1038B00082EA9EE00E94C72F7E01F4EBEF1AF7EF39
:1038C000FF0AF7018081882381F08FEF9FEF6E015F
:1038D000F3EBCF1AF7EFDF0AF601918380836B2DAC
:1038E0000E942319F601918380836B2DCE010E94E3
:1038F000C21BF80160817181F70180816038710518
:1039000080F4882371F17E01F3EBEF1AF7EFFF0AE1
:10391000F701808191810E942319F70191838083AF
:1039200020C08823B1F07068672F7E01F3EBEF1A97
:10393000F7EFFF0AF701808191810E942319F701B7
:1039400091838083F80160810E942319F70191839C
:103950008083F801808191819068692FCE010E9457
:10396000C21BF8016081CE01DF91CF911F910F91B1
:10397000FF90EF90DF90CF90BF900C94C21B0F93FD
:103980001F93CF93DF931F92CDB7DEB78C0169836E
:1039900041E050E0BE016F5F7F4F0E94461AF80180
:1039A000E359FF4F6081C8010E94411CC8010E9479
:1039B000DF1B0F90DF91CF911F910F910895FF9220
:1039C0000F931F93CF93DF938A01422F88E79DE0E7
:1039D0000E945405C0E088E79DE00E94A604892B60
:1039E00071F0FF24F394FC0EC8018C0F911DEC01C3
:1039F00088E79DE00E94AE048883CF2DECCF8C2F0A
:103A0000DF91CF911F910F91FF9008956F927F9258
:103A10008F929F92AF92BF92CF92DF92EF92FF92DE
:103A20000F931F93CF93DF93CDB7DEB769970FB690
:103A3000F894DEBF0FBECDBF8C018DB69EB6862F2B
:103A400090E0FC01E058F109EF31F10508F0D5C430
:103A5000E753FF4F9801205C374F79010C94C3372F
:103A6000D9018D919C91892BF1F4D801ED91FC91B4
:103A70000280F381E02DC8011995FC01019000201E
:103A8000E9F7AF0141505109481B590BD801ED919D
:103A9000FC910280F381E02D62C0D9018D919C914F
:103AA000019709F49FC386E0F801E459FF4F86C4EB
:103AB000F90180819181892BB1F7D801ED91FC91B9
:103AC0000480F581E02DC8011995FC0101900020CA
:103AD000E9F7AF0141505109481B590BD801ED914D
:103AE000FC910480F581E02D3AC0F901808191813B
:103AF000892BC9F6D801ED91FC910680F781E02D64
:103B0000C8011995FC0101900020E9F7AF0141506F
:103B10005109481B590BD801ED91FC910680F781A2
:103B2000E02D1DC0F90180819181892B09F0BBCF67
:103B3000D801ED91FC910084F185E02DC801199523
:103B4000FC0101900020E9F7AF0141505109481BE9
:103B5000590BD801ED91FC910084F185E02DC8014D
:103B6000498F588F1995498D588DBC0134C4F9017E
:103B700080819181892B09F096CFD801ED91FC913C
:103B80000284F385E02DC8011995FC010190002005
:103B9000E9F7AF0141505109481B590BD801ED918C
:103BA000FC910284F385E02DDACFF90180819181C7
:103BB000892B09F078CFD801ED91FC910484F5852B
:103BC000E02DC8011995FC0101900020E9F7AF0133
:103BD00041505109481B590BD801ED91FC910484C7
:103BE000F585E02DBCCFF90180819181892B09F009
:103BF0005ACFD801ED91FC910684F785E02DC801DC
:103C00001995FC0101900020E9F7AF0141505109DD
:103C1000481B590BD801ED91FC910684F785E02DE6
:103C20009ECFF90180819181892B09F03CCF4AE038
:103C300050E06CE874E0CFC3D9018D919C9102975C
:103C400009F031CFF801EB5BF74F20813181A801FA
:103C5000420F531FDA01A259BF4F8C9111966C91FC
:103C60002E5F3F4F318320830E94822EC2C3F90111
:103C700080819181029709F016CFF801EB5BF74F35
:103C800020813181A801420F531FDA01A259BF4F91
:103C90008C9111966C912E5F3F4F318320830E944F
:103CA000BB2EA7C3D9018D919C91019709F0FBCE42
:103CB000F801EB5BF74F20813181D801A20FB31FD0
:103CC000A259BF4F8C912F5F3F4F318320830E94B9
:103CD000F12EF5C2F90180819181029709F0E3CEBE
:103CE000F801EB5BF74F20813181D801A20FB31FA0
:103CF000A259BF4F8C91A9014F5F5F4F5183408301
:103D0000D901A159BF4FA00FB11F6D917C912D5FBB
:103D10003F4F318320830E94682D6BC3C8018459B3
:103D20009F4F26E0DC012C93F70120813181223066
:103D3000310508F462C3ADB6BEB6F801EB5BF74FD0
:103D400040815181D801A40FB51FA259BF4F6C917A
:103D50004F5F5F4F51834083462F50E0ADB7BEB7F2
:103D6000A41BB50B0FB6F894BEBF0FBEADBF119626
:103D70006D012230310511F4613031F04D5F5F4F3C
:103D80002417350709F07BC07C2D3601262D271B13
:103D9000261788F420813181A801420F531F425910
:103DA0005F4FDA014C912F5F3F4F31832083D30166
:103DB0004D933D01EBCFD7012D913C912230310540
:103DC000B1F020813181D901A259BF4FA00FB11F9D
:103DD000ED90FC902E5F3F4F31832083B9EEEB16C0
:103DE000B3E0FB0638F029E0FC01208348C0EE2454
:103DF000E394F12CDC011C92F092560EE092550EE9
:103E0000C80182599F4F90935A0E8093590E80E0BB
:103E1000688F0E941F08688D613029F4F601808147
:103E20000E94AD0912C0D092530EC092520E609300
:103E3000500E10924F0E8EEB99E090934E0E8093A1
:103E40004D0ED6018C910E9493090E942309809106
:103E5000550E9091560E2091570E3091580E2817FE
:103E60003907C9F70E944209EE0CFF1CF801E95B13
:103E7000F74F80819181E80EF91EF182E0820FB642
:103E8000F894BEBE0FBEADBEB8C2F901808191816B
:103E9000039709F008CED801AB5BB74F8D919C9189
:103EA0001197FC01E259FF4FE00FF11F6081718112
:103EB000F801E80FF91FE059FF4F408103968D93F9
:103EC0009C93D801ED91FC910288F389E02DC80103
:103ED00019958FC2F90180819181029709F0E3CD94
:103EE000D801AB5BB74F8D919C911197FC01E259C2
:103EF000FF4FE00FF11F6081718102968D939C93BB
:103F0000D801ED91FC910088F189E02DC801199547
:103F1000D6C1F90180819181029709F0C4CDF801E1
:103F2000EB5BF74F808191819801280F391FD901F0
:103F3000A259BF4F6C911196EC90029691838083A9
:103F4000CE0101960E94EB03CE0101960E94D90397
:103F5000F12CBE01615F7F4FCE0101960E940E04DD
:103F6000F394EF14B0F7980124593F4F7901882357
:103F700009F422C248E050E0BE01615F7F4FC801F2
:103F80000E94461A16C2D9018D919C910B9709F097
:103F90008ACDD801AB5BB74F2D913C911197A80109
:103FA000420F531FFA01E259FF4F60816901EFEFA1
:103FB000CE1ADE0A1196DC92CE923E01FFE06F0E21
:103FC000711C80E090E0B62CA72CC00ED11E7601AB
:103FD000E80EF91E7EE6E70EF11CF701F080F30112
:103FE000F1923F0101968830910589F7FA01E9586D
:103FF000FF4FF0803196E080255F3F4F2D933C933B
:10400000CE0101960E94EB03CE0101960E94B602FA
:104010006B2D7A2DCE0101960E94B10340E06F2DE9
:10402000CE0101960E945303F12CFE1409F4E1C164
:10403000CE0101960E9495038F8B41E050E0BE01B6
:10404000695E7F4FC8010E94461AF394EECFD901F2
:104050008D919C910B9709F026CDD801AB5BB74FA2
:104060002D913C911197A801420F531FFA01E2597B
:10407000FF4F60816901EFEFCE1ADE0A1196DC92E4
:10408000CE923E01FFE06F0E711C80E090E0B62CF6
:10409000A72CC00ED11E7601E80EF91E7EE6E70EB3
:1040A000F11CF701F080F301F1923F010196883095
:1040B000910589F7FA01E958FF4FF0803196408168
:1040C000255F3F4F2D933C93CE010196498F0E946F
:1040D000EB03CE0101960E94B6026B2D7A2DCE0124
:1040E00001960E94B103498D6F2DCE0101960E9469
:1040F00053037FC1D9018D919C91029709F0D3CCD4
:10410000F801EB5BF74F808191819801280F391FEF
:10411000D901A259BF4F6C911196EC9002969183F0
:1041200080834E2D88E79DE00E945405F12C88E79E
:104130009DE00E94A604892B79F088E79DE00E940B
:10414000AE04898341E050E0BE016F5F7F4FC8013C
:104150000E94461AF394EBCFF801E459FF4FFE1486
:1041600009F44AC181E02AC1F90180819181892B3A
:1041700009F499CC6801FBEBCF1AF7EFDF0AD601FF
:104180008D919C911197F801E80FF91FE259FF4FAB
:10419000608101968D939C9388E79DE00E945A056B
:1041A000B12C2B2D30E0F7018081918101972817E8
:1041B000390798F4F60180819181F801E80FF91F21
:1041C000E259FF4F60810196D6018D939C9388E759
:1041D0009DE00E94FE04B394E4CF88E79DE00E9436
:1041E000790507C1F801EB5BF74F80819181D80118
:1041F000A80FB91FA259BF4F2C91019691838083BC
:104200008CB5211102C0806201C08F7D8CBDF1C0D0
:10421000F90180819181019709F045CCF801EB5BB0
:10422000F74F80819181D801A80FB91FA259BF4FC4
:104230002C910196918380839CB5822F83709C7F03
:10424000892B8CBD8DB522FB222720F98E7F822BF6
:104250008DBD18C0D9018D919C91019709F023CC97
:10426000F801EB5BF74F80819181D801A80FB91F4E
:10427000A259BF4F2C910196918380838CB5837F87
:10428000282B2CBDE95DF740B7C0F90180819181F1
:10429000019709F008CCF801EB5BF74F8081918121
:1042A000D801A80FB91FA259BF4F2C910196918335
:1042B00080832EBD00000DB407FEFDCF8EB589832F
:1042C00041E050E0BE016F5F7F4F85C0D9018D9105
:1042D0009C91892B09F0E7CBF801EA59FF4F408107
:1042E0005181B8016E5F7F4F76C0F9018081918165
:1042F000892B09F0D8CB8091470E9091480EA09160
:10430000490EB0914A0E89839A83AB83BC8344E003
:1043100050E0D8CFD9018D919C91049709F0C3CB7F
:10432000D801AB5BB74F2D913C911197F901E25940
:10433000FF4FE00FF11F60817181828193812C5FBB
:104340003F4F2D933C930E94340853C0F901808164
:104350009181892B09F0A7CB0E9406089A83898353
:1043600042E050E0AFCFD9018D919C91029709F0C6
:104370009ACBD801AB5BB74F2D913C911197F901C6
:10438000E259FF4FE00FF11F808191812E5F3F4F77
:104390002D933C939C0122503109F801E459FF4FC1
:1043A0007F012630310540F40E94FD0780E00E9425
:1043B000C608D7011C9221C085E0F70180831DC08B
:1043C000D9018D919C91892B09F06DCB44E050E08F
:1043D000B80168597F4FC8010E94461A0AC0F90106
:1043E00080819181892B09F05ECB61E0C8010E9438
:1043F0006F1BF801E459FF4F10827801FCE6EF0EC5
:10440000F11CD7016C91C8010E94BF1CF70180818B
:104410000FB6F8949EBE0FBE8DBE69960FB6F89487
:10442000DEBF0FBECDBFDF91CF911F910F91FF90E7
:10443000EF90DF90CF90BF90AF909F908F907F9044
:104440006F900895CF93DF931F92CDB7DEB788E7C3
:104450009DE049830E945A054981642F88E79DE0C9
:104460000E94FE0488E79DE00F90DF91CF910C94AD
:104470007905EF92FF920F931F93CF93DF931F92D3
:104480001F92CDB7DEB7122F88E79DE049835A838C
:104490000E945A054981042FE42E5A81F52E8E2D53
:1044A000801B811740F4F70161917F0188E79DE04F
:1044B0000E94FE04F4CF88E79DE00F900F90DF91FB
:1044C000CF911F910F91FF90EF900C947905CF93AE
:1044D000DF93EC0182EA9EE00E941A2F181619065B
:1044E0004CF482EA9EE00E94332F682FCE010E9496
:1044F000991AF0CFDF91CF9108952091570E309106
:10450000580E8091550E9091560E2817390721F4B8
:104510000E94420981E0089580E00895CF93DF93DF
:10452000D82FC62F811116C0613041F028F06230BB
:1045300009F058C060E009C061E007C060E088E0B1
:104540000E94BB2E61E089E02BC088E00E94BB2E58
:1045500060E0F9CF813009F045C0623099F050F445
:10456000662371F06130F1F560E08AE00E94BB2EB5
:1045700061E033C06330F9F06430A1F560E029C038
:1045800061E027C060E08AE00E94BB2E60E08BE023
:104590000E94BB2E61E08CE00E94BB2E60E08DE0AB
:1045A0000E94BB2E8BE1D89FF0011124E35AF14FFA
:1045B000C18380E018C060E08AE00E94BB2E60E00A
:1045C0008BE00E94BB2E60E08CE00E94BB2E61E07D
:1045D000E6CF8AE00E94BB2E60E08BE00E94BB2EFB
:1045E00060E0D9CF85E0DF91CF9108959093960E4A
:1045F0008093950E60935D0E4093780E60E078EBAB
:1046000088E097E40E94340861E088E00E94822EEE
:1046100061E089E00E94822E61E08AE00E94822EA1
:1046200061E08BE00E94822E61E08CE00E94822E8D
:1046300061E08DE00E94822E83E00E94FD07609180
:104640005E0E80E00E948E226091790E81E00E94D1
:104650008E2220E032E03093730E2093720E80E0C1
:1046600090E0A0E0B4E48093740E9093750EA09354
:10467000760EB093770E41E040936D0E30938E0E20
:1046800020938D0E80938F0E9093900EA093910E99
:10469000B093920E4093880E08950F931F93CF937B
:1046A000DF93AB019BE1899FE0011124C35AD14FF5
:1046B0009B01235331092A393340B0F09B8191117A
:1046C00010C09A819F5F9A836981662321F06150AF
:1046D0000E948E2203C081E08093930E83E08B833F
:1046E00037C091509B8334C08091940E882309F188
:1046F0008D899E89DB01A81BB90B9D010E94C937DA
:1047000009891A892B893C89060F171F281F391F11
:10471000098B1A8B2B8B3C8B88859985AA85BB8549
:10472000840F951FA11DB11D88879987AA87BB8714
:104730000FC08C819D818617970718F47D836C8349
:1047400007C08E819F816817790710F47F836E837D
:10475000DF91CF911F910F91089580E00C944D232C
:1047600081E00C944D232F923F924F925F926F9273
:104770007F928F929F92AF92BF92CF92DF92EF92F1
:10478000FF920F931F93CF93DF93CDB7DEB764975C
:104790000FB6F894DEBF0FBECDBF29013A01E986FE
:1047A000FA860B871C871601BA8AA98A0E94DD3611
:1047B00020E030E04AE754E40E944E359B01AC0112
:1047C0000E94D3346B017C0120E030E0A9010E94FB
:1047D000D93620E030E040E05FE387FD05C0C70147
:1047E000B6010E94D33404C0C701B6010E94D2347E
:1047F0000E94B6350E94E93520E030E040E05FE3FA
:104800000E94DD366D837E838F839887A30192019A
:104810006D817E818F8198850E944E3529853A85EC
:104820004B855C850E94DD360E9437350E94BB3582
:104830008B010230110508F42DC3B80180E090E02F
:104840000E94E7352D813E814F8158850E944E356B
:10485000A30192010E94DD3669837A838B839C8356
:10486000D1016D937D938D939C93139729853A8500
:104870004B855C850E94D93618160CF408C3A30139
:10488000920169817A818B819C810E944E356B01F6
:104890007C019B01AC0160E070E080E090E40E944C
:1048A0004E354B015C0120E030E0A9010E94D93671
:1048B00020E030E040E05FE387FD05C0C501B401C2
:1048C0000E94D33404C0C501B4010E94D2340E94B6
:1048D000B6350E94E935A70196010E94DD369B019D
:1048E000AC0160E070E080E090E40E94D23420E00F
:1048F00030E0A9010E94D93620E030E0A901181665
:1049000064F5C501B4010E94D93620E030E040E0F2
:104910005FE387FD05C0C501B4010E94D33404C024
:10492000C501B4010E94D2340E94B6350E94E93517
:10493000A70196010E94DD369B01AC0160E070E0AA
:1049400080E090E40E94D2342DEC3CEC4CEC5DE332
:104950000E944A3587FD9BC22CC0C501B4010E944C
:10496000D93620E030E040E05FE387FD05C0C501B7
:10497000B4010E94D33404C0C501B4010E94D234F2
:104980000E94B6350E94E935A70196010E94DD36E6
:104990009B01AC0160E070E080E090E40E94D234C2
:1049A0002DEC3CEC4CEC5DEB0E94D93618160CF467
:1049B0006EC2A3019201C301B2010E94D3349B01D4
:1049C000AC0169817A818B819C810E944A3587FF85
:1049D00061C129813A814B815C81C301B2010E948E
:1049E0004E356D877E878F87988B1C8A1B8AEB8953
:1049F000FC89BF0180E090E00E94E7354B015C013B
:104A00009B01AC016D857E858F8598890E94D2348B
:104A100020E030E040E05FE30E944A3518163CF4A5
:104A20002B893C892F5F3F4F3C8B2B8BE0CF29811B
:104A30003A814B815C81C501B4010E94DD369B0146
:104A4000AC01C301B2010E94D2344B015C0120E0F1
:104A500030E0A9010E94D936181624F0B7FAB094B4
:104A6000B7F8B094A501940169817A818B819C810A
:104A70000E944E3569837A838B839C839B01AC01B2
:104A800060E070E080E090E40E944E354B015C01F4
:104A900020E030E0A9010E94D93620E030E040E07B
:104AA0005FE387FD05C0C501B4010E94D33404C093
:104AB000C501B4010E94D2340E94B6350E94E93586
:104AC00029813A814B815C810E94DD369B01AC01DA
:104AD00060E070E080E090E40E94D23420E030E0BA
:104AE000A9010E94D93620E030E0A901181674F51A
:104AF000C501B4010E94D93620E030E040E05FE318
:104B000087FD05C0C501B4010E94D33404C0C501AE
:104B1000B4010E94D2340E94B6350E94E935298141
:104B20003A814B815C810E94DD369B01AC0160E0E3
:104B300070E080E090E40E94D2342DEC3CEC4CEC30
:104B40005DE30E944A3587FF2FC0A1C1C501B401B2
:104B50000E94D93620E030E040E05FE387FD05C0E9
:104B6000C501B4010E94D33404C0C501B4010E9440
:104B7000D2340E94B6350E94E93529813A814B81B1
:104B80005C810E94DD369B01AC0160E070E080E05A
:104B900090E40E94D2342DEC3CEC4CEC5DEB0E9496
:104BA000D93618160CF473C120E030E0A901C70112
:104BB000B6010E94D93620E030E040E05FE387FD97
:104BC00005C0C701B6010E94D33404C0C701B601B5
:104BD0000E94D2340E94B6350E94E9359B01AC0197
:104BE000C701B6010E94D23420E030E0A9010E9442
:104BF000D93620E030E0A901181634F5C701B60116
:104C00000E94D93620E030E040E05FE387FD05C038
:104C1000C701B6010E94D33404C0C701B6010E9487
:104C2000D2340E94B6350E94E9359B01AC01C70120
:104C3000B6010E94D23427E137EB41ED58E30E94E0
:104C40004A3587FF27C023C1C701B6010E94D93664
:104C500020E030E040E05FE387FD05C0C701B6011A
:104C60000E94D33404C0C701B6010E94D2340E940E
:104C7000B6350E94E9359B01AC01C701B6010E941F
:104C8000D23427E137EB41ED58EB0E94D9361816A4
:104C90000CF4FDC020E030E040E251E4C701B60171
:104CA0000E944A3587FF76C020E030E0A901C701A5
:104CB000B6010E94D93620E030E040E05FE387FD96
:104CC00005C0C701B6010E94D33404C0C701B601B4
:104CD0000E94D2340E94B6350E94E9359B01AC0196
:104CE000C701B6010E94D23420E030E0A9010E9441
:104CF000D93620E030E0A901181634F5C701B60115
:104D00000E94D93620E030E040E05FE387FD05C037
:104D1000C701B6010E94D33404C0C701B6010E9486
:104D2000D2340E94B6350E94E9359B01AC01C7011F
:104D3000B6010E94D23427E137EB41ED58E30E94DF
:104D40004A3587FF27C0A3C0C701B6010E94D936E4
:104D500020E030E040E05FE387FD05C0C701B60119
:104D60000E94D33404C0C701B6010E94D2340E940D
:104D7000B6350E94E9359B01AC01C701B6010E941E
:104D8000D23427E137EB41ED58EB0E94D9361816A3
:104D90000CF47DC02D813E814F815885C701B6013D
:104DA0000E94DD366B017C0120E030E0A9010E9409
:104DB000D93620E030E040E05FE387FD05C0C70161
:104DC000B6010E94D33404C0C701B6010E94D23498
:104DD0000E94B6350E94E9359B01AC01C701B601BE
:104DE0000E94D23420E030E0A9010E94D93620E0B0
:104DF00030E0A901181634F5C701B6010E94D93672
:104E000020E030E040E05FE387FD05C0C701B60168
:104E10000E94D33404C0C701B6010E94D2340E945C
:104E2000B6350E94E9359B01AC01C701B6010E946D
:104E3000D23427E137EB41ED58E30E944A3587FF32
:104E400026C033C0C701B6010E94D93620E030E049
:104E500040E05FE387FD05C0C701B6010E94D3347F
:104E600004C0C701B6010E94D2340E94B6350E9428
:104E7000E9359B01AC01C701B6010E94D23427E19C
:104E800037EB41ED58EB0E94D936181674F00150FB
:104E90001109CFCC20E030E040E05FE36D817E81FE
:104EA0008F8198850E94D334ADCCA989BA890D939E
:104EB0001C9364960FB6F894DEBF0FBECDBFDF9192
:104EC000CF911F910F91FF90EF90DF90CF90BF9007
:104ED000AF909F908F907F906F905F904F903F909A
:104EE0002F90089510925E0E1092790E08952F92D1
:104EF0003F924F925F926F927F928F929F92AF926A
:104F0000BF92CF92DF92EF92FF920F931F93CF93B6
:104F1000DF93CDB7DEB7C65ED1090FB6F894DEBF1A
:104F20000FBECDBFC052DF4F59834883C05ED04013
:104F3000CE51DF4F088319832A833B83C25ED04062
:104F400026013701CD52DF4FA882C35DD040809249
:104F5000940EAA2031F1A7E9AA2EAEE0BA2EAE0136
:104F600049535F4F6A01E12C10E4F12E0CE916E47D
:104F7000A30192010E94B323C953DF4F6881798155
:104F80008A819B81C75CD0409B01AC010E94D334D5
:104F9000C953DF4F688379838A839B83C75CD04082
:104FA00017C020E030E040E05FE30E94DD36E7E933
:104FB000AE2EEEE0BE2EDE01A953BF4F6D01E12CF7
:104FC00010E4F12E0CE117E4A30192010E94B32337
:104FD0008091970E9091980E880F991F9093980E3C
:104FE0008093970EC953DF4F688179818A819B81B5
:104FF000C75CD0400E943408B0915E0EC252DF4FB1
:10500000B883CE5DD04012E0C353DF4F1883CD5C30
:10501000D04062E080E00E948E22E091790EC15281
:10502000DF4FE883CF5DD04084E0C253DF4F8883F9
:10503000CE5CD04064E081E00E948E2280915D0EC3
:10504000FE01E553FF4F80839091780E918320916C
:10505000970E3091980ECD52DF4F4881C35DD040FE
:10506000442309F13093560E2093550EF093530EBE
:10507000E093520E1093500E10924F0E2EEB39E02B
:1050800030934E0E20934D0E0E94930986ED99E0C9
:1050900090934E0E80934D0E8DE493E290934C0EC0
:1050A00080934B0E06C0369527953093560E20936D
:1050B000550EE090950EF090960EF701E859FF4FCF
:1050C00020E030EC4FE754E460817181828193816C
:1050D0000E944E352B013C018E0105541F4F1E01CD
:1050E00055E1250E311CCE01825A9F4FDC011896E6
:1050F000C153DF4FB983A883CF5CD040F8013C9601
:10510000CC52DF4FF983E883C45DD040C652DF4FF5
:105110008883CA5DD040CA51DF4F9883C65ED040B5
:1051200097012B59374FCF52DF4F39832883C15D09
:10513000D040A701445A574FC852DF4F5983488384
:10514000C85DD04080915D0ECF52DF4FE881F9817C
:10515000C15DD040C652DF4FA881CA5DD040CA5160
:10516000DF4FB881C65ED0409DE501900D929A95C3
:10517000E1F7882369F08130B1F4C153DF4FE88152
:10518000F981CF5CD040208D318D428D538D0EC082
:10519000C153DF4FA881B981CF5CD0402D913D91A3
:1051A0004D915C9103C020E030E0A901CF52DF4F68
:1051B000E881F981C15DD040DE0111969DE5019045
:1051C0000D929A95E1F7882341F0813061F4F10165
:1051D000C0A0D1A0E2A0F3A009C0D101CD90DD9084
:1051E000ED90FC9003C0C12CD12C760160E876E9EB
:1051F00088E19BE40E944E354B015C0120E836E9D2
:1052000048E15BE4C701B6010E94DD369B01AC01B9
:105210000E94D3342BED3FE049E450E40E94DD3698
:10522000C852DF4FA881B981C85DD0402D913D9112
:105230004D915C910E94DD366B017C01A5019401CA
:10524000C501B4010E94DD364B015C01A701960146
:10525000C701B6010E94DD369B01AC01C501B40156
:105260000E94D3340E9444379B01AC01C301B201B8
:105270000E94DD36F80161937193819391938F01C0
:10528000F4E02F0E311CC153DF4F28813981CF5CF0
:10529000D0402C5F3F4FC153DF4F39832883CF5C11
:1052A000D040CC52DF4F48815981C45DD0400417B3
:1052B000150709F047CF1092930ECF52DF4F198296
:1052C0001882C15DD040CF52DF4F88819981C15D86
:1052D000D040C052DF4FA881B981C05ED0408A174C
:1052E0009B0791F4C252DF4F6881CE5DD04080E0D1
:1052F0000E948E22C152DF4F6881CF5DD04081E095
:105300000E948E2280E0C8C28091940E10925F0E9F
:105310001092600E81110BC0EFEFF3E0F093640E7A
:10532000E093630E1092620E1092610E10C0109204
:10533000650E1092660E1092670E1092680E109213
:105340006E0E10926F0E1092700E1092710E1092DF
:105350007A0E10927B0E882389F01092800E1092A4
:10536000810E1092820E1092830E1092890E10926E
:105370008A0E10928B0E10928C0E0AC08FEF93E063
:1053800090937F0E80937E0E10927D0E10927C0E75
:10539000CD52DF4F9881C35DD040992309F440C0BE
:1053A0000E9423090E947D228823E1F30E94B02CF1
:1053B000CC52DF4F688379838A839B83C45DD0405E
:1053C000A091940EC852DF4FA883C85DD0402091B1
:1053D000970E3091980EFE01E353FF4FC153DF4FFC
:1053E000F983E883CF5CD0400DE51EE0AE014F5F4E
:1053F0005F4F2A018091930E81113FC0CE01825AE6
:105400009F4F1C01612C712CC901A0E0B0E0C65275
:10541000DF4F88839983AA83BB83CA5DD040ACC029
:1054200080915D0E0E94AD09A6EDB9E0B0934E0EDD
:10543000A0934D0EEDEAF3E2F0934C0EE0934B0E89
:105440000E9423090E947D228823E1F38091780E37
:105450000E94AD0926ED39E030934E0E20934D0E9B
:1054600040EB53E250934C0E40934B0E0E942309A5
:105470000E947D228823E1F399CF8091950E90912F
:10548000960E0E944D0B20E040E050E0BA01809162
:10549000950E9091960E0E941E0E80E2FDC1C6529E
:1054A000DF4F688179818A819B81CA5DD0400E94EB
:1054B000E7356B017C01D80151966D917D918D91FD
:1054C0009C9154970E94E7359B01AC010E94D33414
:1054D000A70196010E944E350E944437F201608375
:1054E00071838283938320E030E040E852E40E949D
:1054F000DD369B01AC010E94D33423EF34E045EB51
:105500005FE30E94DD360E94BB35D1016D937C9331
:10551000F301E35AF14F82818823B9F1F301E35A91
:10552000F14F8281882309F4B3C08195C153DF4FC5
:10553000A881B981CF5CD0408C93B1E0B08BC153CE
:10554000DF4FE881F981CF5CD0403196C153DF4F06
:10555000F983E883CF5CD040FBE16F0E711C055EE0
:105560001F4F22E0220E311C34E0430E511C46E353
:105570006416710409F496C0C852DF4F5881C85DA3
:10558000D040552309F45AC08ACF80898111C6CFF3
:10559000F80180849184A284B384648575858685AE
:1055A0009785680D791D8A1D9B1D0E94E7352AE0AD
:1055B00037ED43E25CE30E94DD36A70196010E94CD
:1055C0004E356B017C0124EA30E74DE75FE3D801FB
:1055D00057966D917D918D919C915A970E94DD36E1
:1055E0009B01AC01C701B6010E94D3346B017C0161
:1055F000F801678B708F818F928F20E030E0A901D6
:105600000E94D93620E030E040E05FE387FD05C02E
:10561000C701B6010E94D33404C0C701B6010E947D
:10562000D2340E94B635D80156967C936E93559726
:10563000F80184869586A686B78670CFD801149621
:105640006D917C91159716968D919C911797681B7B
:10565000790B96E0660F771F9A95E1F7F101718358
:10566000608380E090E00E94E73523EF34E045EB73
:105670005FE30E944E3520E030E040E05CE30E94B2
:10568000DD36D2016D937D938D939C93139746CF16
:105690008181C153DF4FA881B981CF5CD0408C9309
:1056A000108A4DCF0091950E1091960EF801EC598D
:1056B000F74F8081882309F454C080915F0E8111D7
:1056C00050C03C97C080D180E280F38020E030E081
:1056D000A901C701B6010E94D93618160CF041C0C5
:1056E000C353DF4F8881CD5CD040EBEBF0E0EC0F93
:1056F000FD1F24E08202E00DF11D11242081318183
:105700004281538169817A818B819C810E94DD363F
:105710002B013C01A70196010E94D2344B015C0190
:1057200020E030E0A9010E94D936181624F0B7FA1B
:10573000B094B7F8B09420E030E040E05FE3F801C7
:10574000EF54F74F60817181828193810E94DD3631
:105750009B01AC01C501B4010E94D93618160CF4A6
:1057600076C00EE51EE0CE01825A9F4F6C01E12CFF
:10577000F12CD6018D919C91893C9C4030F4F8012C
:1057800060816F5F8E2D0E948E2242E050E0B60154
:105790008091950E9091960E0E94461A6DEC70E0E5
:1057A0006C0F7D1F6E0D7F1D41E050E08091950EC6
:1057B0009091960E0E94461AFFEFEF1AFF0A22E020
:1057C000C20ED11C055E1F4F32E0E316F10489F6CC
:1057D00082EA9EE00E941A2F181619060CF482CD58
:1057E0000E94B02CCC52DF4F288139814A815B81E5
:1057F000C45DD040621B730B840B950B0E94E73590
:105800006B017C0120E030E04AE754E4CE51DF4FE9
:10581000688179818A819B81C25ED0400E94DD3699
:105820009B01AC01C701B6010E944A3587FDD8CF64
:10583000CF52DF4F48815981C15DD0404F5F5F4FEC
:10584000CF52DF4F59834883C15DD0403CCDF80132
:10585000E05AF74F2081318142815381C301B20167
:105860000E94DD36A70196010E944E356B017C0136
:1058700020E030E040E85FE30E944A3587FF06C041
:10588000C12CD12C80E8E82E8FE3F82EB701A601B9
:10589000C8010E94A20E65CFCA51DF4F0FB6F8941F
:1058A000DEBF0FBECDBFDF91CF911F910F91FF9053
:1058B000EF90DF90CF90BF90AF909F908F907F90B0
:1058C0006F905F904F903F902F9008951F920F928E
:1058D0000FB60F9211242F933F938F939F93AF9303
:1058E000BF9380919A0E90919B0EA0919C0EB091C7
:1058F0009D0E3091990E23E0230F2D3720F4019651
:10590000A11DB11D05C026E8230F0296A11DB11DE2
:105910002093990E80939A0E90939B0EA0939C0EC9
:10592000B0939D0E80919E0E90919F0EA091A00E1F
:10593000B091A10E0196A11DB11D80939E0E909372
:105940009F0EA093A00EB093A10EBF91AF919F9117
:105950008F913F912F910F900FBE0F901F90189530
:105960003FB7F89480919E0E90919F0EA091A00E4B
:10597000B091A10E26B5A89B05C02F3F19F0019646
:10598000A11DB11D3FBF6627782F892F9A2F620F67
:10599000711D811D911D42E0660F771F881F991FA1
:1059A0004A95D1F70895CF92DF92EF92FF92CF936D
:1059B000DF936B017C010E94B02CEB01C114D10478
:1059C000E104F10489F00E94D1340E94B02C6C1BD8
:1059D0007D0B683E734090F381E0C81AD108E1085E
:1059E000F108C851DC4FEACFDF91CF91FF90EF90E3
:1059F000DF90CF9008958230910538F0880F991F7D
:105A0000880F991F05970197F1F70895789484B549
:105A1000826084BD84B5816084BD85B5826085BDAA
:105A200085B5816085BDEEE6F0E080818160808390
:105A3000E1E8F0E010828081826080838081816073
:105A40008083E0E8F0E0808181608083E1EBF0E03A
:105A5000808184608083E0EBF0E0808181608083DE
:105A6000E1E9F0E0808182608083808181608083D1
:105A7000E0E9F0E0808181608083E1EAF0E080810C
:105A800082608083808181608083E0EAF0E08081B1
:105A900081608083E1E2F1E08081826080838081A7
:105AA00081608083E0E2F1E0808181608083EAE7C9
:105AB000F0E0808184608083808182608083808147
:105AC000816080838081806880831092C100089506
:105AD0001F93CF93DF93182FEB0161E00E94822E7A
