:100000000C948C010C94BD010C94BD010C94BD01A9
:100010000C94BD010C94BD010C94BD010C94BD0168
:100020000C94BD010C94BD010C94BD010C94BD0158
:100030000C94BD010C94BD010C94BD010C94BD0148
:100040000C94BD010C94BD010C94BD010C94BD0138
:100050000C945D080C94BD010C94BD010C94B22C61
:100060000C94BD010C94DD300C9413310C94BD0143
:100070000C94BD010C9432080C94BD010C94BD018C
:100080000C94BD010C94BD010C94BD010C945A0A52
:100090000C94BD010C94BD010C94BD010C947E0325
:1000A0000C94BD010C94BD010C94BD010C94BD01D8
:1000B0000C94BD010C94BD010C94BD010C94BD01C8
:1000C0000C94BD010C94BD010C94BD010C94BD01B8
:1000D0000C94BD010C94BD010C94BD010C94BD01A8
:1000E0000C94BD01C81DF01D0D1E2A1E6D1E4F1E55
:1000F0008B1EB41EEA1ECF1E261F021F0220DD1F0C
:100100002120BF205B204C211221E51DA021C2210E
:10011000DD21FE21A91E0D2222223E224B22782221
:100120008722DD2DE22DE72DF12DFB2D742E052EDE
:100130000D2E152E1F2E292E332E422E4C2E742EB0
:10014000562E602E6A2E962E992E882E8C2E922E4A
:10015000D02E9D2EA12EA72EAB2EAF2EB52EB92EB2
:10016000BD2ED02EC32EC72ECB2E08000000BE926F
:100170002449123EABAAAA2ABECDCCCC4C3E0000EC
:100180000080BEABAAAAAA3E00000000BF0000008B
:10019000803F0000000000084178D3BB4387D113A3
:1001A0003D190E3CC3BD4282AD2B3E68EC8276BE4B
:1001B000D98FE1A93E4C80EFFFBE01C4FF7F3F0015
:1001C0000000000007634236B79BD8A71A3968566B
:1001D00018AEBAAB558C1D3CB7CC5763BD6DEDFD69
:1001E000753EF6177231BF000000803F00000A0B19
:1001F00002090C0D0E0807030401000000000000B6
:1002000000000000000000000000000000000000EE
:1002100000000000000000001211100000000000AB
:1002200000000000000000000000000000000000CE
:1002300000000102102020080810204010204080FB
:10024000020102010804020101020408102040809A
:100250008040201008040201800402018040201028
:100260000804020108040201010204081020408071
:10027000010204081020408005050505070508084F
:100280000808020202020A0A080804040404010120
:100290000101010101010303030303030303040735
:1002A00007070C0C0C0C0C0C0C0C020202020606CC
:1002B0000606060606060B0B0B0B0B0B0B0B0000C2
:1002C00020002300260029002C002F00320000010E
:1002D000000003010601090100002200250028009A
:1002E0002B002E003100340002010000050108013E
:1002F0000B0100002100240027002A002D003000FF
:10030000330001010000040107010A01F401850521
:100310006708CA274731F80111241FBECFEFD1E289
:10032000DEBFCDBF00E00CBF14E0A0E0B2E0ECE126
:10033000F8E700E00BBF02C007900D92A03BB107A9
:10034000D9F72FE0A0EBB4E001C01D92AF32B207A5
:10035000E1F713E0C6E1D3E000E006C0229701090F
:10036000FE010BBF0E948D39CC30D10780E0080719
:10037000A9F70E9491020C94FC3B0C940000809120
:10038000060290910702019690930702809306025D
:100390000895089580EB94E00E94E822809106027F
:1003A0009091070269E170E00E943339892BD9F4FA
:1003B0008091020D882389F08091030D81110BC07B
:1003C000E091B004F091B1040688F789E02D80EB4C
:1003D00094E0199502C01092030D81E090E0909393
:1003E000070280930602089580EB94E00C94AD0A16
:1003F00080EB94E00C94BE0A80E18093910010920F
:10040000900085E08093460E86E998E99093480E27
:100410008093470E909397008093960085E1809398
:1004200091008FEB91E09093450E8093440E81E014
:100430008093710080EB94E00E94A70E69E072E067
:100440008EE89EE00E94D6316FEF71E260507240FC
:100450004AE050E08EE89EE00E94A0326EE072E03A
:100460008EE89EE00E94D63160EB74E060507240EE
:100470004AE050E08EE89EE00E94A03265E172E022
:100480008EE89EE00E94D6316FE27FE0605B7440B0
:100490004AE050E08EE89EE00E94A0326BE172E0FC
:1004A0008EE89EE00E94D63160912B0F70912C0F48
:1004B0006115710519F06F527F4002C060E070E075
:1004C0004AE050E08EE89EE00E94A03261E272E0D5
:1004D0008EE89EE00E94D6318DB79EB76FEF71E235
:1004E000681B790B4AE050E08EE89EE00E94A03243
:1004F00068E272E08EE89EE00E94D63180912B0F78
:1005000090912C0F6DB77EB7009719F46F527F4012
:1005100002C0681B790B4AE050E08EE89EE00C9424
:10052000A0320E94522D0E94C9010E94FC01C6E91E
:10053000DFE20E94CA012097E1F30E94962FF9CFD3
:100540001092D10D81E08093CF0D1092CE0D61E01D
:1005500084E10E940A2F61E085E10E940A2FE9EB05
:10056000F0E080818E7F808380818D7F808388E42E
:100570008093B80085E48093BC000895413208F070
:100580003FC09091D10D9111FCCF91E09093D10D8E
:100590002093CF0D2FEF2093640D1092A90D240FFF
:1005A0002093A80D9093D00D9091D00D880F892B9A
:1005B0008093D00D8091CE0D813041F41092CE0DFC
:1005C0008091D00D8093BB0085EC01C085EE8093B7
:1005D000BC008091D10D8130E1F38091A90D841789
:1005E00010F44091A90D2AEA3DE0FB01D9018A2FC0
:1005F000821B841718F48D918193F9CF842F08956D
:1006000080E008950F93413208F046C09091D10DDB
:100610009111FCCF92E09093D10D0093CF0D9FEFFD
:100620009093640D1092A90D4093A80DFB016AEA06
:100630007DE0DB019A2F961B941718F491919D93FE
:10064000F9CF1092D00D9091D00D880F892B809307
:10065000D00D8091CE0D813041F41092CE0D80915D
:10066000D00D8093BB0085EC01C085EE8093BC006B
:10067000222321F08091D10D8230E1F38091640D2D
:100680008F3F61F08091640D803251F08091640D54
:10069000803341F483E007C081E005C080E003C0FF
:1006A00082E001C084E00F910895613298F42091B6
:1006B000D10D243089F46093860DFC0188E89DE01B
:1006C000DC012A2F281B261718F421912D93F9CF2E
:1006D00080E0089581E0089582E0089585ED80939B
:1006E000BC008091BC0084FDFCCF1092D10D089518
:1006F00085EC8093BC001092D10D08951F920F924B
:100700000FB60F9211240BB60F922F933F934F9376
:100710005F936F937F938F939F93AF93BF93EF9369
:10072000FF938091B900887F803609F49CC068F5FA
:10073000883209F45BC090F4803109F454C038F475
:10074000882309F4F5C0883009F44DC0F5C088311C
:1007500009F44CC0803209F45DC0EEC0803409F465
:1007600068C048F4803309F455C0883309F0E4C008
:100770008093640DA8C0803509F44FC0883509F412
:100780005DC0883409F0D8C0D5C0883909F4C6C026
:10079000A8F4883709F467C038F4883609F463C0D0
:1007A000803709F460C0C8C0883809F4B7C0803900
:1007B00009F45FC0803809F0BFC05BC0803B09F41A
:1007C00085C038F4803A09F466C0883A09F47EC0DE
:1007D000B3C0803C09F4A6C0883C09F4A3C0883BA0
:1007E00009F489C0A9C08091D00D10C09091A90DC5
:1007F0008091A80D981770F5E091A90D81E08E0FFA
:100800008093A90DF0E0E655F24F80818093BB0004
:1008100085EC85C08093640D8DC0E091A90D81E0C9
:100820008E0F8093A90D8091BB00F0E0E655F24F4A
:1008300080839091A90D8091A80D6DC0E091A90DC4
:1008400081E08E0F8093A90D8091BB00F0E0E6550A
:10085000F24F80838091CF0D81116CC081E0809335
:10086000CE0D84EA60C083E08093D10D1092650DB7
:10087000CFCF8091650D803208F050C0E091650DBA
:1008800081E08E0F8093650D8091BB00F0E0EA5906
:10089000F24F8083BDCF8091650D803230F4E091BE
:1008A000650DF0E0EA59F24F10820E946E036091EC
:1008B000650D70E0E091CA0DF091CB0D86E69DE0EC
:1008C00019951092650D0E94780336C084E08093DC
:1008D000D10D1092870D1092860DE091CC0DF09104
:1008E000CD0D19958091860D811105C081E0809311
:1008F000860D1092880DE091870D81E08E0F809318
:10090000870DF0E0E857F24F80818093BB00909113
:10091000870D8091860D981708F47ACF85E880932B
:10092000BC000AC085EC8093BC001092D10D04C0BD
:100930001092640D0E946E03FF91EF91BF91AF91F1
:100940009F918F917F916F915F914F913F912F91E7
:100950000F900BBE0F900FBE0F901F9018958091B7
:10096000020E90E02091030E821B910908952091C0
:10097000030E8091020E281750F4E22FF0E0EC5F96
:10098000F14F808190E02F5F2093030E08958FEF49
:100990009FEF0895E091030E8091020EE81730F466
:1009A000F0E0EC5FF14F808190E008958FEF9FEFD2
:1009B00008950895CF92DF92EF92FF920F931F93C5
:1009C000CF93DF937C01CB018A012091DE0D22239E
:1009D00089F0EB016B01C40ED51ECC15DD0569F065
:1009E0006991D701ED91FC910190F081E02DC70153
:1009F0001995F3CF642F0E945503C801DF91CF9161
:100A00001F910F91FF90EF90DF90CF900895CF93BB
:100A1000DF931F92CDB7DEB769832091DE0D2223CD
:100A2000D1F02091DF0D203240F021E030E0FC01D8
:100A30003383228380E090E015C08091E00DE82FA1
:100A4000F0E0EF51F24F998190838F5F8093E00D3A
:100A50008093DF0D05C061E0CE0101960E94550331
:100A600081E090E00F90DF91CF910895FC01138217
:100A7000128248EE53E060E070E044835583668361
:100A8000778389E392E09183808308951092030E27
:100A90001092020E1092E00D1092DF0D0C94A00245
:100AA000862F413208F040E264E07EE00E94BE0200
:100AB0001092030E8093020E089521E00C945005CD
:100AC00021E00C94500581E08093DE0D6093010ECF
:100AD0001092E00D1092DF0D08950C9463050F93B2
:100AE000062F21E04091DF0D61EE7DE08091010E47
:100AF0000E9402031092E00D1092DF0D1092DE0DA5
:100B00000F91089561E00C946F0582ED9DE00C94C7
:100B10003605CF93CFB7F8948091240E811127C06A
:100B2000EDEAF2E08491E7E6F2E09491E82FF0E05C
:100B3000EE0FFF1FEE50FD4FA591B4918C918923CC
:100B400021F461E085E30E940A2F61E085E30E94C1
:100B5000D12E8CB580618CBD8CB580648CBD61E07C
:100B600084E30E94D12E61E083E30E94D12E809124
:100B7000240E8F5F8093240ECFBFCF910895ECE7B2
:100B8000F0E090819F739083208130E4839FC001C7
:100B90001124282B20830895EAE7F0E09081987FC4
:100BA00090839081982B9083089580917A0087702C
:100BB00090E00895E1E8F0E08081887F80830895E7
:100BC0000E94DA051092850010928400E1E8F0E0BE
:100BD00080819091250E892B80830895882321F0B0
:100BE00080917C00806203C080917C008F7D809327
:100BF0007C000895EBE7F0E09081987F90839081EE
:100C0000982B90830895CF92DF92EF92FF92CF932B
:100C10006B017C0180E18093810010928000A7012C
:100C2000960160E074E284E799E40E949D3520E03B
:100C300030E040E051E40E9471370E940A366115AD
:100C4000710521E08207910528F421E02093250E0B
:100C5000CB014CC06115710528E08207910568F44D
:100C600022E02093250EDC01CB0153E0B695A79539
:100C7000979587955A95D1F739C06115710520E48C
:100C80008207910568F423E02093250EDC01CB0157
:100C900046E0B695A795979587954A95D1F726C0D2
:100CA00061157105810521E0920740F424E020934D
:100CB000250EBB27A92F982F872F18C06115710506
:100CC000810524E0920768F425E02093250EDC01DD
:100CD000CB012AE0B695A795979587952A95D1F7E8
:100CE00005C085E08093250E8FEF9FEF90938700DE
:100CF00080938600C1E0C0936F0086E00E94FA05F1
:100D0000C0933B0E80917A00806280937A00C092FB
:100D10002E0ED0922F0EE092300EF092310ECF9127
:100D2000FF90EF90DF90CF90089580933B0E882343
:100D300021F080917A00806203C080917A008F7DDB
:100D400080937A000895EAE7F0E0808180648083F0
:100D50000895CF93DF93D0917800C09179004091AE
:100D60003E0E50913F0E20913C0E30913D0E4217A9
:100D70005307A8F580913B0E811102C00E94A30683
:100D80008D2F90E09C2B20917C0025FF13C0E091DB
:100D9000420EF091430E20913E0E30913F0EA9017C
:100DA0004F5F5F4F50933F0E40933E0EE20FF31F95
:100DB000908315C0E091400EF091410E20913E0EBF
:100DC00030913F0EA9014F5F5F4F50933F0E40930C
:100DD0003E0E220F331FE20FF31F91838083DF91BA
:100DE000CF91089510923F0E10923E0E80913B0ECF
:100DF0000E9495060E94FC2C6093260E7093270E8D
:100E00008093280E9093290E80917A00886C8093AD
:100E10007A0080917B008770863011F40C94E00595
:100E200008958F929F92AF92BF92CF92DF92EF92EE
:100E3000FF920E94FC2C4B015C0180917A00877D1F
:100E400080937A0080917B008770863011F40E9435
:100E5000DA0560913C0E70913D0E80E090E00E94BA
:100E6000363620E034E244E759E40E9471376B01E2
:100E70007C018091260E9091270EA091280EB091B2
:100E8000290EA5019401281B390B4A0B5B0BCA01E3
:100E9000B9010E9436369B01AC01C701B6010E9420
:100EA0009D3560932A0E70932B0E80932C0E909399
:100EB0002D0EFF90EF90DF90CF90BF90AF909F905E
:100EC0008F9008958093380E90917C00907F90933E
:100ED0007C0020917C00982F9770922B90937C003F
:100EE000883020F080917B00886003C080917B0077
:100EF000877F80937B00089591E09093370E109246
:100F00003A0E1092390E1092360E29EA36E03093DE
:100F1000350E2093340E0C9462078091360E8F5F4D
:100F20008093360E9091370E891302C01092360EC0
:100F30008091360EE091390EF0913A0EE80FF11DD6
:100F400080810E9462070C94A9061F93CF93DF93C0
:100F5000C091360E9091370E9230A0F081E08C0F48
:100F6000891719F08093360E02C01092360E8091C8
:100F7000360EE091390EF0913A0EE80FF11D8081A6
:100F80000E94620710917800D091790040913E0E46
:100F900050913F0E20913C0E30913D0E4217530769
:100FA000F0F480913B0E811102C00E94A306612FD4
:100FB00070E07D2B80917C0085FF02C0672F772732
:100FC000E091320EF091330E8C2F199580913E0EE8
:100FD00090913F0E019690933F0E80933E0EDF91CD
:100FE000CF911F910895CF93DF93D0917C00C09152
:100FF0007B0080917C00807E80937C0080917C00CF
:101000008E6180937C0080917B00877F80937B0042
:1010100063E070E080E090E00E941F2D80917A00F4
:10102000806480937A0080917A0086FDFCCF609185
:10103000780080917900D0937C00C0937B0070E0B1
:10104000782B882777FD8095982F0E9438369B0152
:10105000AC0160E070E889E894E40E949D35DF917E
:10106000CF9108951F920F920FB60F9211240BB6D5
:101070000F922F933F934F935F936F937F938F9331
:101080009F93AF93BF93EF93FF93E091340EF09152
:10109000350E1995FF91EF91BF91AF919F918F916F
:1010A0007F916F915F914F913F912F910F900BBE68
:1010B0000F900FBE0F901F9018951F920F920FB6B2
:1010C0000F9211240F900FBE0F901F90189581E082
:1010D0000C94BF05FF920F931F93CF93DF93FC01F6
:1010E0000081C181D281F8948981F02EF0948F2102
:1010F000898378941DE7115029F182E090E00E94E5
:10110000472D88818023B9F3F8948A818F218A83BF
:101110008981802B8983789480EE91E00E94472D0D
:10112000F89489818F21898386E490E00E94472D7D
:101130008881802311E009F010E078948AE991E039
:101140000E94472D812FDF91CF911F910F91FF902A
:1011500008951F93CF93DF93FC011081C181D28149
:10116000912F909560FF12C0F8948A8189238A8319
:101170008981812B89838AE090E00E94472D8A81B2
:10118000812B8A83789487E390E011C0F8948A8158
:1011900089238A838981812B898381E490E00E945D
:1011A000472D8A81812B8A83789485E090E0DF91B6
:1011B000CF911F910C94472D0F931F93CF93DF93E3
:1011C000FC011081C181D281F8948981812B8983AE
:1011D0008A81012F009580238A8383E090E00E941A
:1011E000472D8981802389838AE090E00E94472DE2
:1011F000C881789485E390E00E94472D1C2381E00C
:1012000009F480E0DF91CF911F910F910895CF9263
:10121000DF92EF92FF920F931F93CF93DF931F9272
:10122000CDB7DEB76C01E62E08E010E0FF24F394A2
:1012300061E09F2D9E2109F460E0C60149830E9470
:10124000A908FF0C0150110949810115110581F709
:10125000411115C0F894D6011196ED91FC911297A9
:1012600091818C918095892381831196ED91FC91D8
:10127000129792818C9180958923828378940F9024
:10128000DF91CF911F910F91FF90EF90DF90CF9062
:101290000895EF92FF920F931F93CF93DF938C01EA
:1012A000C8E0D0E0F12CEE24E394C8010E94DC08F1
:1012B0008111FE28EE0C2197C1F78F2DDF91CF9180
:1012C0001F910F91FF90EF900895CF92DF92FF92C0
:1012D0000F931F93CF93DF931F92CDB7DEB78C018F
:1012E000F62E40E065E579830E940709CF2C7981CD
:1012F000D72E88E0F82EF60161916F0140E0C80119
:101300000E940709FA94B9F70F90DF91CF911F91CE
:101310000F91FF90DF90CF900895FC011386158602
:10132000148627E030E0DF01A20FB31F13961C9252
:101330002115310519F021503109F5CF08951F937A
:10134000CF93DF93EC01162F60E0812F0E94D12E06
:10135000612F70E0FB01EE5CFD4FE491E883FB013F
:10136000E858FD4FE491F0E0EE0FFF1FE254FD4F0F
:10137000859194919A838983CE01DF91CF911F91BA
:101380000C948D09AF92BF92CF92DF92EF92FF92B1
:101390000F931F93CF93DF931F92CDB7DEB75C01FE
:1013A000E62ED72EFC01858581115DC0C5010E9406
:1013B0006A08811105C0F5011386158614866EC072
:1013C00040E060EFC5010E94070901E0F12CC12C4B
:1013D00011E0C5010E94DC08682FC50169830E94E5
:1013E000DC086981613019F48130B9F433C02F2DE4
:1013F00030E068131BC0F5018385181730F4E20F45
:10140000F31F8381802349F402C0181731F060E094
:10141000193058F4F501148708C0F501EF0DF11DDE
:101420008381802B838361E009C0C12EF501E20F27
:10143000F31F8381902F909589238383C5010E9498
:10144000A9081F5F000F11F4F39401E0F7E0FF1506
:1014500008F0BFCF113438F0F501C386C11018C0B1
:1014600081E0858715C0F50113861586148680E016
:10147000EE2DFD2D20E030E0D501A20FB31F139615
:101480009C9191932F5F3F4F28303105A9F706C0FB
:10149000F5018381882339F381E0EACF0F90DF9152
:1014A000CF911F910F91FF90EF90DF90CF90BF9061
:1014B000AF9008951F920F920FB60F9211240BB6A2
:1014C0000F922F933F934F935F936F937F938F93DD
:1014D0009F93AF93BF93EF93FF93E091440EF091EE
:1014E000450E1995FF91EF91BF91AF919F918F910B
:1014F0007F916F915F914F913F912F910F900BBE14
:101500000F900FBE0F901F90189586E294E00895FB
:1015100082E294E008958BE094E0089581EF93E0F7
:1015200008958BEE93E0089588EB93E008958C5A2C
:10153000974FFC011082089585E492E00895DC0144
:10154000ED91FC910190F081E02D19948EBD000089
:101550000DB407FEFDCF8EB50895CF93DF93EC0158
:1015600061E00E94681A80EA93E099838883CE5AEA
:10157000D74F18821982DF91CF91089520EA33E086
:10158000FC01318320830C94D81A1F93CF93DF93EF
:101590001F921F92CDB7DEB7162F60E0812F2A83EE
:1015A00049830E940A2F4981842F0E94A60A2A811A
:1015B000822F0E94A60A61E0812F0F900F90DF9189
:1015C000CF911F910C940A2F643040F4242F209562
:1015D000462F65E30E94C50A80E0089585E00895DE
:1015E000AF92BF92CF92DF92EF92FF920F931F9331
:1015F000CF93DF931F921F92CDB7DEB78C01D12C12
:101600007C018BEBE81A87EFF80A5801E4E9AE1A7F
:10161000E7EFBE0A2D2D30E0F801EB5AF74F80813D
:10162000918168E270E00E94333926173707E0F5B0
:1016300088E0C82EC982F7012081318180E090E0E6
:1016400040E0B801620F731FE42FF0E0DB01A80F48
:10165000B91FA259BF4F41E050E0AC91AA2311F04D
:1016600040E050E0082E02C0440F551F0A94E2F7F4
:101670004E0F5F1F01968830910531F74A83285F2E
:101680003F4FF70131832083F50160816D0D22E02A
:10169000AE014F5F5F4FC8010E94BA22C394FDE0C4
:1016A000CF12C8CFD394B6CF0F900F90DF91CF91C8
:1016B0001F910F91FF90EF90DF90CF90BF90AF9070
:1016C00008958F929F92AF92BF92CF92DF92EF9246
:1016D000FF920F931F93CF93DF9300D0CDB7DEB768
:1016E0008C01912C7C018BEAE81A87EFF80A98E2CA
:1016F000C92ED12C5801E4E9AE1AE7EFBE0A8824BE
:101700008A94292D30E0F70180819181B6010E94F1
:10171000333926173707A0F438E039838A82F50178
:101720006081690D22E0AE014F5F5F4FC8013B83CE
:101730000E94BA223B813F5F3D3079F79394E1CF1D
:101740000F900F900F90DF91CF911F910F91FF900D
:10175000EF90DF90CF90BF90AF909F908F900895C3
:10176000EF92FF920F931F93CF93DF938C017C0135
:101770008BE9E81A87EFF80AC4E6D0E0F701419157
:101780007F01BE01C8010E94631A2196C33BD105A7
:10179000A9F760E0C801DF91CF911F910F91FF90F1
:1017A000EF900C94D30B7F928F929F92AF92BF9247
:1017B000CF92DF92EF92FF920F931F93CF93DF931D
:1017C000EC01762E7C012BE9E21A27EFF20A04E6FF
:1017D00010E04701E881F9810088F189E02DB80126
:1017E000CE011995F70181937F010F5F1F4F033BD6
:1017F000110581F7F401808191819E012959374FAC
:101800005901FE01E759F74F6F01285C3F4F7901FD
:10181000892BE1F4F50180819181892BB9F4F601DE
:1018200080819181892B91F4399780819181A28166
:10183000B381F90180839183A283B38381E090E037
:10184000F60191838083CE010E94B00BF401808168
:101850009181892BB9F4F50180819181892B91F4D3
:10186000F60180819181019769F480E2FE01E459DB
:10187000F74F808382E090E0F60191838083CE0170
:101880000E94B00BF40180819181892BE9F4F5016C
:1018900080819181892BC1F4F60180819181029729
:1018A00099F480E090E0A0EAB0E4FE01ED55F74F36
:1018B00080839183A283B38383E090E0F6019183D8
:1018C0008083CE010E94B00BF401808191818E0152
:1018D0000955174F892BA1F4F50180819181892B3E
:1018E00079F4F60180819181039751F4F801108217
:1018F00084E090E0F60191838083CE010E94B00BDA
:10190000F40180819181892B79F5F50180819181A4
:10191000892B51F5F60180819181049729F580E0AA
:1019200090E0A8ECB2E4FE01E855F74F8083918384
:10193000A283B38380E090E4ACE9B6E4349680837C
:101940009183A283B38380E090E0A8E4B3E434966B
:1019500080839183A283B38385E090E0F601918335
:101960008083CE010E94B00BF40180819181892B8C
:1019700069F4F50180819181892B41F4F601808120
:101980009181059719F4772009F4A8C0F401118218
:101990001082F5011182108285E090E0F6019183BA
:1019A00080838FEFFE01E559F74F80838CE73396F4
:1019B000808380E73197808380E09CE7A2E9B8E4E8
:1019C000329680839183A283B38380E092E2A1EA7E
:1019D000B8E4349680839183A283B38380E090E05F
:1019E000AAE7B4E43C9680839183A283B38380E02A
:1019F00090E4ACE1B6E4349680839183A283B38310
:101A000080E090E5A3ECB7E4349680839183A283D1
:101A1000B38380E094E2A4E7B9E4349680839183B1
:101A2000A283B38374971082118212821382349638
:101A300010821182128213824FEF56EE6BE57EE226
:101A400074964083518362837383349640835183B9
:101A500062837383349640835183628373833496A5
:101A60004083518362837383FB9780819181A2813C
:101A7000B381F70180839183A283B38380E2FE0167
:101A8000E459F74F808380E090E0A0EAB0E4F79655
:101A900080839183A283B383F801108280E090E079
:101AA000A8ECB2E4FE01E855F74F80839183A2834E
:101AB000B38380E090E4ACE9B6E43496808391830C
:101AC000A283B38380E090E0A8E4B3E434968083FB
:101AD0009183A283B383CE010E94B00BF701C08033
:101AE000D180E280F38020E030E0A901C701B60197
:101AF0000E949935FE01EC59F74F18161CF081E051
:101B0000808309C0DE01A05AB74FCD92DD92ED92DD
:101B1000FC9213971082F8018081882311F042E033
:101B200001C041E060E0CE01DF91CF911F910F91A4
:101B3000FF90EF90DF90CF90BF90AF909F908F90ED
:101B40007F900C9453238F929F92AF92BF92CF922B
:101B5000DF92EF92FF92CF93DF93EC016A017B015A
:101B6000FC01E05AF74F80809180A280B38020E092
:101B700030E0A901C701B6010E94993587FD45C033
:101B8000FE01E055F74F2081318142815381C70129
:101B9000B6010E9428371816C4F1A5019401C701A7
:101BA000B6010E949D359B01AC010E94223523EFB6
:101BB00034E045EB5FE30E94713720E030E040E81D
:101BC0005EE30E94713720E030E04FE753E40E946B
:101BD00071374B015C0120E030E04FE753E40E9495
:101BE0002837181694F0FE01E85AF74FC082D182C8
:101BF000E282F382C501B4010E940A36462F63E0F7
:101C0000CE010E94E40A80E001C088E0DF91CF911C
:101C1000FF90EF90DF90CF90BF90AF909F908F900C
:101C20000895FC01E05AF74F408351836283738328
:101C30003897408151816281738120E00C94A30D1B
:101C40005F926F927F928F929F92AF92BF92CF924C
:101C5000DF92EF92FF920F931F93CF93DF931F9228
:101C60001F92CDB7DEB76C01CB01542E68E270E055
:101C70000E9433397B014C015C0123E0B694A794A8
:101C80002A95E1F73B01772486010459174FF801A3
:101C90008081B301680F711D82ED9DE00E946D058A
:101CA000B501685F7F4F82ED9DE00E949F0A82ED43
:101CB0009DE00E948205F8018081B301680F711DCB
:101CC00041E050E082ED9DE00E94600582ED9DE0E4
:101CD0000E94AF04892B41F1F82DF7708F2E88E018
:101CE0008A0D898382ED9DE00E94B70441E050E0B7
:101CF00060E070E004C0440F551F661F771F8A9490
:101D0000D2F7511002C0482B02C0409548234A83A5
:101D1000F80160816E0D22E0AE014F5F5F4FC6019A
:101D20000E94BA2280E001C081E00F900F90DF9105
:101D3000CF911F910F91FF90EF90DF90CF90BF90C8
:101D4000AF909F908F907F906F905F9008958F924B
:101D50009F92AF92BF92CF92DF92EF92FF920F933A
:101D60001F93CF93DF93CDB7DEB762970FB6F8948A
:101D7000DEBF0FBECDBF8C010E94D31961E085E3A9
:101D80000E94D12E61E089E00E94D12E60E089E0BE
:101D90000E940A2FF801E05AF74F80E090E0A6E990
:101DA000B3E480839183A283B38360E0C8010E947F
:101DB000D30B480185E9881A87EF980AD4014C9122
:101DC00060E0C8010E94E40A6801B2E9CB1AB7EFEB
:101DD000DB0AF601408161E0C8010E94E40A580173
:101DE000F3E9AF1AF7EFBF0AD5014C9162E0C801E1
:101DF0000E94E40A40E063E0C8010E94E40AD801BE
:101E0000ED91FC910680F781E02DC8011995BC0188
:101E10008EE89EE00E94D6316BE472E08EE89EE090
:101E20000E94D631D801ED91FC910484F585E02D16
:101E3000C8011995BC018EE89EE00E94E3316EE472
:101E400072E08EE89EE00E94D631D801ED91FC91BF
:101E50000284F385E02DC8011995BC018EE89EE04F
:101E60000E94E33161E672E08EE89EE00E94D63186
:101E70007801BBE9EB1AB7EFFB0AF70160817181CA
:101E80004AE050E08EE89EE00E94E3326AE973E0A7
:101E90008EE89EE00E94D631F801E959F74F608143
:101EA00071814AE050E08EE89EE00E94E3326AE9E8
:101EB00073E08EE89EE00E94D631F801E759F74FB3
:101EC000608171814AE050E08EE89EE00E94E93234
:101ED00068E772E08EE89EE00E94D6314AE050E06A
:101EE000D4016C918EE89EE00E94CC326EE772E0E5
:101EF0008EE89EE00E94D6314AE050E0F501608114
:101F00008EE89EE00E94CC326EE872E08EE89EE0A1
:101F10000E94D6314AE050E0D6016C918EE89EE0F6
:101F20000E94CC32B12CA12CF1E0BF1202C084E09F
:101F300001C082E0A81608F0B9C04AE06A2DCE01BF
:101F400001960E949A344AE06B2DCE010D960E94B4
:101F50009A3464E972E0CE0107960E946C34BE01A7
:101F6000635F7F4FCE0107960E94F33466E972E00B
:101F70000E940635BE016F5F7F4F0E94F3346AEA0C
:101F800072E00E940635BC018EE89EE00E94C831D6
:101F9000CE0107960E94FE33CE010D960E94FE33BD
:101FA000CE0101960E94FE33CA2CD12CB1E0F6017D
:101FB000EE0FFF1FEE0FFF1FEE0DFF1DBB1629F0EA
:101FC000428553856485758504C0428D538D648D2B
:101FD000758D22E030E08EE89EE00E94EC334AE00E
:101FE0006A2DCE0101960E949A344AE06B2DCE01F3
:101FF0000D960E949A3464E972E0CE0107960E9421
:102000006C34BE01635F7F4FCE0107960E94F334AC
:102010006DEA72E00E940635BE016F5F7F4F0E943D
:10202000F3346AEA72E00E940635BC018EE89EE055
:102030000E94C831CE0107960E94FE33CE010D9654
:102040000E94FE33CE0101960E94FE33E1E0BE16EF
:1020500061F0F601EE0FFF1FEE0FFF1FEE0DFF1DEB
:1020600062897389848995890BC0F601EE0FFF1F81
:10207000EE0FFF1FEE0DFF1D62A573A584A595A5AC
:1020800025EA34ED48E653E50E947137AB01BC0107
:1020900022E030E08EE89EE00E94EA3362EC72E0DB
:1020A0008EE89EE00E94E331A3943ECFB39482E099
:1020B000B81239CF66EC72E08EE89EE00E94D6310D
:1020C000F801E459F74F4AE050E060818EE89EE065
:1020D0000E94CC326BE173E08EE89EE00E94D63124
:1020E000F801E156F74F408151816281738122E00E
:1020F00030E08EE89EE00E94EC3363EE72E08EE802
:102100009EE00E94D631F801ED55F74F4081518194
:102110006281738122E030E08EE89EE00E94EC3321
:1021200066EF72E08EE89EE00E94D631F801E95534
:10213000F74F608170E04AE050E08EE89EE00E9438
:10214000A0326FE073E08EE89EE00E94D631F80185
:10215000EC59F74F608170E04AE050E08EE89EE075
:102160000E94A0326BE273E08EE89EE00E94D631BE
:10217000F801E855F74F408151816281738122E077
:1021800030E08EE89EE00E94EC3363E473E08EE87A
:102190009EE00E94D631F801E455F74F408151810D
:1021A0006281738122E030E08EE89EE00E94EC3391
:1021B0006BE573E08EE89EE00E94D631F801E055B1
:1021C000F74F408151816281738122E030E08EE8D7
:1021D0009EE00E94EC3362960FB6F894DEBF0FBE0D
:1021E000CDBFDF91CF911F910F91FF90EF90DF90C6
:1021F000CF90BF90AF909F908F9008958F929F92B5
:10220000AF92BF92CF92DF92EF92FF921F93CF9344
:10221000DF93EC016A017B01FC01E855F74F24EAEA
:1022200030E74DE75FE360817181828193810E9495
:1022300071379B01AC01C701B6010E94283787FDA9
:10224000AFC02EEA37E441E85FE3FE01E455F74F03
:1022500060817181828193810E9471379B01AC0101
:10226000C701B6010E94993518160CF499C020E0F8
:1022700030E048E452E4C701B6010E9471374B01D7
:102280005C0120E030E04AE754E40E94993587FD84
:1022900087C020E233EB41E85CE4C501B4010E9451
:1022A000283718160CF47CC020E030EE41E854E4E6
:1022B000C501B4010E949D350E94313726EA3BE9F1
:1022C00044E550E40E9471372EE83DE543E150E4D7
:1022D0000E949D350E940A36162F70E0665F7F4F80
:1022E000882777FD8095982F0E9438369B01AC0196
:1022F00060E070E080E090E40E94D43720E030EEAF
:1023000041E055E40E947137A50194010E949D357A
:102310009B01AC0160E070E080E095E40E94213513
:102320004B015C0120E030E0A9010E94283720E049
:1023300030E040E05FE387FD05C0C501B4010E94C5
:10234000223504C0C501B4010E9421350E94053622
:102350005B01CB0166E0969587956A95E1F712954A
:10236000107F182B67E182ED9DE00E946305612FCD
:1023700082ED9DE00E9407056A2D660F660F626080
:1023800082ED9DE00E94070582ED9DE00E9482059E
:10239000C45AD74FC882D982EA82FB8280E001C04A
:1023A00088E0DF91CF911F91FF90EF90DF90CF9069
:1023B000BF90AF909F908F9008954F925F926F92D1
:1023C0007F928F929F92AF92BF92CF92DF92EF92C5
:1023D000FF920F931F93CF93DF931F921F92CDB75E
:1023E000DEB78C01FC01EC5AF74F81E08083480195
:1023F0008BEA881A87EF980AF40111821082E8E2CA
:10240000AE2EB12CE12CF12CF8E16F2E77247A94CA
:102410006801F4E9CF1AF7EFDF0A4E2C69827A825D
:10242000F60160816E0D22E0AE014F5F5F4FC80183
:102430000E94BA22F60160816E0D21E0AE014F5F6D
:102440005F4FC8010E94771D89818F3F09F04BC003
:1024500078E1572E59821A82F6016081640D22E0DC
:10246000AE014F5F5F4FC8010E94BA22F601608142
:10247000640D21E0AE014F5F5F4FC8010E94771DE0
:102480008981811130C080EF850D89837A82F601C0
:102490006081640D22E0AE014F5F5F4FC8010E9472
:1024A000BA225394FDE15F12D5CF66E873E08EE85F
:1024B0009EE00E94D6314AE050E0B7018EE89EE0EF
:1024C0000E94983260E973E08EE89EE00E94E3315A
:1024D000F40120813181C50188972817390719F443
:1024E000F401B182A082FFEFEF1AFF0A88E2A80E82
:1024F000B11CE8E0EE16F10409F08FCFF401608121
:1025000071814AE050E08EE89EE00E94E33261E78C
:1025100073E08EE89EE00E94E33140E050E46CE11D
:1025200076E4C8010E94FE100F900F90DF91CF91CA
:102530001F910F91FF90EF90DF90CF90BF90AF90E1
:102540009F908F907F906F905F904F9008952F9203
:102550003F924F925F926F927F928F929F92AF9233
:10256000BF92CF92DF92EF92FF920F931F93CF9380
:10257000DF93CDB7DEB7A9970FB6F894DEBF0FBED5
:10258000CDBF2C0169872DB73EB73BA32AA38C0191
:102590000D5A174F81E0D8018C93F201EC5AF74F96
:1025A0008081811103C0C2010E94DD11F201E45952
:1025B000FF4F1F01F985FF3A09F456C278F5F63A44
:1025C00009F499C1A8F4F23A09F4E6C038F4F03AF3
:1025D00009F457C0F13A09F468C0A5C6F201E05CFD
:1025E000F74F2985243A09F452C108F457C078C13D
:1025F0003985393A09F4CAC138F4373A09F497C130
:10260000383A09F4A4C18FC649854D3A09F4ECC1A2
:1026100008F00FC24A3A09F4C9C185C65985563B2C
:1026200009F496C3A8F4523B09F4D9C238F4503BDC
:1026300009F450C2513B09F49CC275C6F201E05C3A
:10264000F74F6985643B09F42DC308F41EC367C3C3
:1026500079857B3B09F411C648F4793B09F441C6FE
:1026600008F0FCC5783B09F426C65DC68985853F20
:1026700009F4D6C5863F09F476C4843F09F053C6F1
:1026800094C3F201E05CF74F80819181892B59F46A
:1026900042E050E0B2016B5A774FF3C080819181E4
:1026A000029709F489C086E037C3F201E05CF74F76
:1026B00080819181892BB9F7D1011C92912C9201D3
:1026C0002B5A374F3B872A87720134E9E31A37EFD9
:1026D000F30A88248394A92CB12CEA85FB85808198
:1026E000918168E270E00E943339A616B70608F0BF
:1026F0001AC608E010E0D7018C91B501680F711D72
:1027000082ED9DE00E946D05B80182ED9DE00E9482
:102710009F0A82ED9DE00E948205F7018081B5014C
:10272000680F711D41E050E082ED9DE00E94600560
:1027300082ED9DE00E94AF04892B51F182ED9DE076
:102740000E94B7046C01612C712CDD24C601062C9B
:1027500002C0959587950A94E2F781709927F1E078
:102760008F27898341E050E0BE016F5F7F4FC20138
:102770000E94DE1A2FEF621A720A38E063167104A3
:1027800029F70F5F1F4F0D30110509F0B4CF02C0BC
:10279000D1018C9293949FCFF201E05CF74F20819E
:1027A00031817596808191812817390709F07BCF97
:1027B000C2010E94F00A7CC5D201AB5BB74F2D91DC
:1027C0003C911197F901E259FF4FE40DF51D80810D
:1027D00091812E5F3F4F2D933C93F201EB5AF74FBF
:1027E000208131818217930708F078C068E270E099
:1027F0000E9433398C016B01DD247201F4E9EF1A78
:10280000F7EFFF0AD7018C91B601680F711D82EDB9
:102810009DE00E946D05B80113E0769567951A95C5
:10282000E1F7685F7F4F82ED9DE00E949F0A82ED95
:102830009DE00E948205F7018081B601680F711D3D
:1028400041E050E082ED9DE00E94600582ED9DE058
:102850000E94AF04892BC9F082ED9DE00E94B7046D
:102860009927077002C0959587950A95E2F78170C0
:102870009927F1E08F27898341E050E0BE016F5F27
:102880007F4FC2010E94DE1A13C581E045C28081DC
:102890009181039709F007CFD201AB5BB74F8D91C0
:1028A0009C911197FC01E259FF4FE40DF51D6081E9
:1028B0007181F201E80FF91FE059FF4F4081039643
:1028C0008D939C93F201EB5AF74F808191816817A9
:1028D000790720F4C2010E94200E23C585E01CC2A6
:1028E00080819181892B09F0DECED1011C9289E093
:1028F0000E94402FECC4F201E05CF74F808191818F
:10290000019709F0D0CE359680819181D201A80F30
:10291000B91FA259BF4F6C91019691838083623099
:1029200020F489E00E940A2FF8C488E0FAC4F2017A
:10293000E05CF74F80819181892B09F0B4CEF101E1
:10294000108244E050E0B201685A774FC6C4F201E9
:10295000E05CF74F80819181049709F0A4CED20109
:10296000AB5BB74F8D919C911197FC01E259FF4FE2
:10297000E40DF51D408151816281738104968D9330
:102980009C9321E0C2010E94A30DCBC4F201E05C44
:10299000F74F80819181892B09F085CEF10110825A
:1029A00044E050E0B201645A774F97C4F201E05C12
:1029B000F74F80819181049709F075CED201AB5B0E
:1029C000B74F8D919C911197FC01E259FF4FE40D97
:1029D000F51D408151816281738104968D939C9392
:1029E000C2010E94FE109DC4F201E05CF74F80819D
:1029F0009181019709F057CED201AB5BB74F8D9112
:102A00009C911197F201E80FF91FE259FF4FE08105
:102A100001968D939C93E23008F035C1BBE1EB9FAA
:102A2000F0011124E75BF14F81818983F10110826C
:102A30004FC4F201E05CF74F80819181029709F069
:102A400032CE359620813181A201420F531FDA0127
:102A5000A259BF4F8C9111966C912E5F3F4F3183DD
:102A600020830E940F2358C1F201E05CF74F808160
:102A70009181019709F017CE359680819181D2011D
:102A8000A80FB91FA259BF4F2C9101969183808343
:102A9000223008F0F8C0D1011C92BBE12B9FF0015D
:102AA0001124E75BF14FE181C2018B59974FF0E0B0
:102AB000EE0FFF1FEE0FFF1FE80FF91F213029F067
:102AC00082859385A485B58547C2828D938DA48D1B
:102AD000B58D42C2F201E05CF74F8081918105978C
:102AE00009F0E1CD359620813181D201A20FB31FCB
:102AF000A259BF4F8C91B9016F5F7F4F7183608383
:102B0000D1011C928823E1F0813009F0BCC04091D2
:102B1000650EDB01A259BF4FA40DB51D8D919D918E
:102B20000D90BC91A02D2B5F3F4F31832083F2018C
:102B300034E0439FE00DF11D1124E158F74F9BC095
:102B400040914A0ED901A159BF4FA40DB51D8D91D9
:102B50009D910D90BC91A02D2B5F3F4F3183208321
:102B6000F20124E0429FE00DF11D1124E159F74FDD
:102B700082C0F201E05CF74F80819181019709F0FA
:102B800092CD359680819181D201A80FB91FA259AB
:102B9000BF4F2C91019691838083223008F073C03F
:102BA000F10110823BE1239FF0011124E75BF14F1B
:102BB000E181C2018B59974FF0E0EE0FFF1FEE0F3E
:102BC000FF1FE80FF91F213029F082899389A4891A
:102BD000B589C2C182A593A5A4A5B5A5BDC1F201C1
:102BE000E05CF74F80819181059709F05CCD3596C7
:102BF00020813181D201A20FB31FA259BF4F4C9146
:102C0000C901019691838083D1011C924423D9F09C
:102C10004130C9F54091650ED901A159BF4FA40DAE
:102C2000B51D8D919D910D90BC91A02D2B5F3F4FB7
:102C300031832083F20134E0439FE00DF11D112424
:102C4000E157F74F18C040914A0ED901A159BF4F23
:102C5000A40DB51D8D919D910D90BC91A02D2B5F64
:102C60003F4F31832083F20124E0429FE00DF11DAC
:102C70001124E958F74F80839183A283B383C20163
:102C80000E94B00B50C385E04CC380819181892B99
:102C900009F009CDF101108244E050E0B201605A20
:102CA000774F1BC380819181049709F0FCCCD2013E
:102CB000AB5BB74F8D919C911197FC01E259FF4F8F
:102CC000E40DF51DC080D180E280F38004968D93E1
:102CD0009C9320E030E0A901C701B6010E9428378B
:102CE0001816CCF4F201EC59F74F8081882331F0AB
:102CF0003497C082D182E282F382DAC2D201A15635
:102D0000B74FCD92DD92ED92FC9213971082C201E3
:102D10000E94B00BCDC288E0F101808304C38081A2
:102D20009181892B09F0BFCCD1011C9211E020E0E8
:102D300030E0A901F201E156F74F60817181828193
:102D400093810E94993518160CF410E01983C0C2C3
:102D5000F201E05CF74F80819181019709F0A3CCEB
:102D6000359680819181D201A80FB91FA259BF4F1A
:102D70002C91019691838083E65AFF4F222329F0FC
:102D800010821182128213820CC0D201A05AB74F56
:102D90008D919D910D90BC91A02D80839183A283F4
:102DA000B383C2010E94B00BB8C2F201E05CF74FDE
:102DB000008111810A30110508F475CC35968081A7
:102DC0009181DC01A259BF4FA40DB51D2D913D91FC
:102DD0004D915C912A873B874C875D879C012C5FD6
:102DE0003F4F31832083DC01AE58BF4FA40DB51D8A
:102DF0006D907C90DC01AC58BF4FA40DB51D4D917A
:102E00005D916D917C914A8B5B8B6C8B7D8BD2013C
:102E1000A80FB91FA858BF4FFC900B9691838083D1
:102E20000B30110549F07096808191810B9608173F
:102E3000190711F086E075C2BBE46B16B1E07B06A2
:102E400008F06EC220E030E04AE754E46A857B85F2
:102E50008C859D850E949D3520E030E44CE157E44F
:102E60000E94713720E030E040E855E40E94993537
:102E700087FF56C2D1011C92F201EB5AF74F8081B5
:102E800091810B960817190719F4C2010E94F00AE4
:102E90000E94FC2C6E877F87888B998B8824839473
:102EA000F1FE812CAA24A394F0FEA12CF201E45A95
:102EB000F74FC080D180E280F3800A891B892C897A
:102EC0003D89A3016A857B858C859D850E94CF27DE
:102ED000F1018083811127C20E94FC2C2E853F8541
:102EE00048895989621B730B840B950B0E943636F7
:102EF0006B017C01B30180E090E00E94363620E057
:102F000030E04AE754E40E9471379B01AC01C701ED
:102F1000B6010E949D356D837E838F83988744E040
:102F200050E0BE016B5F7F4FC2010E94DE1A44E099
:102F300050E060E67EE0C2010E94DE1A44E050E00C
:102F40006BE77EE0C2010E94DE1AF201E05AF74F01
:102F500080819181A281B38189839A83AB83BC8371
:102F600044E050E0B7C1F201EB5AF74F20813181C4
:102F7000C9010B967597408151814817590709F08F
:102F800092CBEDB7FEB7F98FE88FD1011C92F20119
:102F9000EB5BF74F80819181DC01A259BF4FA40DFB
:102FA000B51D4D915D916D917C914A8B5B8B6C8BC6
:102FB0007D8BAC014C5F5F4F51834083DC01AE5889
:102FC000BF4FA40DB51D6D907C90DC01AC58BF4F78
:102FD000A40DB51D4D915D916D917C914E8F5F8FCC
:102FE00068A379A3D201A80FB91FA858BF4F1C919D
:102FF0000B96918380836DB77EB7621B730B0FB600
:10300000F8947EBF0FBE6DBF8DB79EB701969B87AC
:103010008A87DC01280F391F80E090E07F01A2172A
:10302000B307A1F0F70140815181B201640F751F10
:1030300062597F4FFB0160814F5F5F4FF701518302
:1030400040836D93662359F30196E9CF869D9001E5
:10305000879D300D969D300D11242B34314008F0A2
:10306000D2C020E030E04AE754E46A897B898C8949
:103070009D890E949D3520E030E44CE157E40E9498
:10308000713720E030E040E855E40E94993587FF31
:10309000BAC0C2010E94610B0E94FC2C6A8F7B8F18
:1030A0008C8F9D8F212C312C92012B5A374F3DA3B1
:1030B0002CA3A20144595F4F5F874E87812F8270F6
:1030C000682F70E07FA36EA311701E8B1F8AC20150
:1030D000845A974F99A788A7ACA1BDA18D919C91C7
:1030E00028163906F0F5AE85BF858C91811135C063
:1030F000EA85FB85E20DF31D8081882371F141E0B3
:10310000B101C2010E94200E88248394EEA1FFA188
:103110001E161F060CF0812CAA24A3942E893F8929
:10312000121613060CF0A12CA8A5B9A5CD90DD9020
:10313000ED90FC900E8D1F8D28A139A1A3016A8905
:103140007B898C899D890E94CF27EE85FF858083AE
:1031500040E0B101C2010E94200EFFEF2F1A3F0A8A
:10316000BBCFEE85FF858081811152C00E94FC2C6F
:103170002A8D3B8D4C8D5D8D621B730B840B950BE3
:103180000E9436366B017C01B30180E090E00E9422
:10319000363620E030E04AE754E40E9471379B0164
:1031A000AC01C701B6010E949D356D837E838F837C
:1031B000988744E050E0BE016B5F7F4FC2010E94E0
:1031C000DE1A44E050E060E67EE0C2010E94DE1AB2
:1031D00044E050E06BE77EE0C2010E94DE1AF2019B
:1031E000E05AF74F80819181A281B38189839A83CC
:1031F000AB83BC8344E050E0BE016F5F7F4FC201F0
:103200000E94DE1A05C081E0F201E459FF4F80837D
:10321000488D598D0FB6F8945EBF0FBE4DBF83C069
:10322000F201E05CF74F80819181019709F03BCA80
:10323000D1011C92359680819181D201A80FB91FCE
:10324000A259BF4F2C9101969183808361E0211197
:1032500001C060E0C2010E94D30B65C0F201E05CD6
:10326000F74F80819181892B09F01DCAF1011082ED
:10327000F201EE5AF74F80812AC0F201E05CF74F6D
:1032800080819181019709F00ECA359680819181E4
:10329000D201A80FB91FA259BF4F2C91019691835B
:1032A00080833D96222319F081E0808301C0108243
:1032B000D1011C9238C0F201E05CF74F808191810E
:1032C000892B09F0F0C9F1011082D8018C91898312
:1032D00041E050E0BE016F5F7F4FC2010E94DE1AE5
:1032E00022C0F201E05CF74F80819181019709F0E3
:1032F000DAC9359680819181D201A80FB91FA259F0
:10330000BF4F2C91019691838083222321F081E08D
:10331000F801808302C0D8011C92F101108203C021
:1033200081E0D1018C936985C2010E949E1DF2014A
:10333000E459FF4F8081EAA1FBA10FB6F894FEBFCC
:103340000FBEEDBFA9960FB6F894DEBF0FBECDBF7E
:10335000DF91CF911F910F91FF90EF90DF90CF9071
:10336000BF90AF909F908F907F906F905F904F90A5
:103370003F902F9008958627682F62956827062E24
:10338000669566956025062E669560256770082E01
:10339000892F669507946795902D862706946795E3
:1033A000902586270895CF92DF92EF92FF920F9398
:1033B0001F93CF93DF9300D01F92CDB7DEB78C0160
:1033C000CE0101966C019FE0E92EF12CD801ED9120
:1033D000FC910088F189E02DB701C8011995F6012B
:1033E00081936F01FFEFEF1AFF0A23E1E216F10468
:1033F00069F789819A81AB81BC818F3F9F4FAF4F25
:10340000BF4FE1F149815A816B817C8126E08EE8D2
:103410009EE00E947B3082ED9DE00E9446050E9466
:1034200089050E94F30708591F4FD8016D937D93BA
:103430008D939C9313976BE374E08EE89EE00E945B
:10344000D631F801408151816281738122E030E000
:103450008EE89EE00E94EA336DE474E08EE89EE020
:103460000F900F900F900F90DF91CF911F910F91C0
:10347000FF90EF90DF90CF900C94E33180E092ECDE
:10348000A1E0B0E089839A83AB83BC83CE0101962F
:103490006C018FE0E82EF12CD6014D916D01D80121
:1034A000ED91FC910288F389E02DB701C8011995CF
:1034B000BFEFEB1AFB0AE3E1EE16F10469F7A2CFC6
:1034C000CB010C94D63BCB01642F0C94DE3B0895CA
:1034D0008F929F92AF92BF92CF92DF92EF92FF9224
:1034E0000F931F93CF93DF932FE634E0FC013183DA
:1034F0002083E45BF74F6083399711821082369600
:10350000108239971182108235961182108232967C
:10351000118210823A961082E12CF12C00E010E02A
:10352000C8010E94D63BA82EC80107960E94D63B30
:103530008E2CC0E0D0E0B12CA094B094C82ED12C39
:10354000C094D094CE018E0D9F1DC697C4F4B501D2
:103550000C2E02C0759567950A94E2F761709C2E57
:10356000980C892D0E94D12EB6010C2E02C07595A3
:1035700067950A94E2F76170892D0E940A2F2196BF
:10358000C830D105F9F60F5F1F4FE8E0EE0EF11CD1
:103590000730110529F6DF91CF911F910F91FF9010
:1035A000EF90DF90CF90BF90AF909F908F90089555
:1035B0002FE634E0FC013183208308951F93CF93DD
:1035C000DF93FB0120E030E0DC01A95BB74F24175B
:1035D000350781F01191BC01620F731FCD91DC9111
:1035E00011976C0F7D1FEB01C259DF4F18832F5FBE
:1035F0003F4FEDCF8D919C911197820F931F8D932B
:103600009C93DF91CF911F910895CF93DF93FC019D
:10361000E359FF4F6081DC01A459BF4F67FF0EC023
:1036200020E8260F208322E02C93DC01ED91FC9111
:103630000488F589E02DDF91CF911994FC01E05CBD
:10364000F74F2081318121503109820F931FEC0106
:10365000C259DF4F88818C9331832083DF91CF91D2
:1036600008956F927F928F929F92AF92BF92CF9266
:10367000DF92EF92FF920F931F93CF93DF93EC01B2
:103680009C01275B374F59016D3721F481E0F90127
:103690008083AEC0F90180819E012D5B374F790197
:1036A000882309F49EC080E26827F7018081918118
:1036B0009E01245B374F4901FE01EE5BF74F6F011E
:1036C0008E01005C174F009759F4E55DF740608369
:1036D000F90180818823A9F18FEF9FEF33961EC0F7
:1036E0008130910581F467FF08C083E08083862FD5
:1036F0008F77F8011082818324C082E08083862F37
:1037000090E0F8010BC08230910559F420812330FC
:1037100041F4F80180819181860F911D918380830E
:1037200010C0F6012081821B9109F80120813181AE
:103730008217930730F48C0F9D1FFC01E259FF4F55
:103740006083F4018081882369F03E01F1EB6F1AF8
:10375000F7EF7F0AF301808191810E94BB19F30189
:1037600091838083F701208131812F5F3F4F318327
:103770002083F4014081F6015081F801808191811C
:10378000850F911D840F911D840F911D28173907F6
:1037900011F5F70111821082FE01EB5BF74F1182E8
:1037A0001082329611821082442329F0389680814B
:1037B0009181892B19F4CE010E94051BFE01E55B66
:1037C000F74F8081882339F0C359DF4F80589881A3
:1037D000981301C01082F5018081882349F010827E
:1037E00007C06E3709F061CFF70111821082F3CF65
:1037F000DF91CF911F910F91FF90EF90DF90CF90CD
:10380000BF90AF909F908F907F906F900895FF92A0
:103810000F931F93CF93DF931F92CDB7DEB78C0129
:10382000F62E88E0898369816837E8F582ED9DE0AE
:103830000E94630582ED9DE00E948205811130C0E7
:10384000FF2041F041E050E0BE016F5F7F4FC801B3
:103850000E94DE1A60E574E08EE89EE00E94D63198
:103860004AE050E069818EE89EE00E94C53264E63D
:1038700074E08EE89EE00E94D63140E150E069811C
:103880008EE89EE00E94C53269E674E08EE89EE014
:103890000E94E33161E070E080E090E00E941F2D23
:1038A00089818F5FBFCF0F90DF91CF911F910F91D3
:1038B000FF900895CF93C62F83E8860F823090F44F
:1038C0006DE78EE89EE00E941630E0918E0EF0913A
:1038D0008F0E60E26C270190F081E02D8EE89EE073
:1038E000CF9119948EE89EE0CF910C9416308F9270
:1038F0009F92AF92BF92CF92DF92EF92FF920F937F
:103900001F93CF93DF93EC018C017C0120ECE21A32
:1039100027EFF20A845B974F6C015E0193EBA91AC3
:1039200097EFB90AF7018081918198012C1B3D0B1B
:10393000F60128173907C8F48081980122593F4FB2
:103940004901882351F0F9016081F501808191815D
:103950000E94BB19F50191838083F4016081CE013F
:103960000E945A1C0F5F1F4FDDCF8081882369F0B2
:103970008E01035B174FF8016081CE010E945A1C33
:10398000F8016181CE010E945A1CF7011182108258
:10399000C95BD74F19821882DF91CF911F910F9188
:1039A000FF90EF90DF90CF90BF90AF909F908F905F
:1039B0000895BF92CF92DF92EF92FF920F931F93E1
:1039C000CF93DF93EC01B62E8C01005C174FFC0106
:1039D000E95BF74F80819181F801918380836EE7E5
:1039E0008EE89EE00E9416307E01F4EBEF1AF7EFAE
:1039F000FF0AF7018081882381F08FEF9FEF6E012E
:103A0000F3EBCF1AF7EFDF0AF601918380836B2D7A
:103A10000E94BB19F601918380836B2DCE010E9419
:103A20005A1CF80160817181F7018081603871054D
:103A300080F4882371F17E01F3EBEF1AF7EFFF0AB0
:103A4000F701808191810E94BB19F70191838083E6
:103A500020C08823B1F07068672F7E01F3EBEF1A66
:103A6000F7EFFF0AF701808191810E94BB19F701EE
:103A700091838083F80160810E94BB19F7019183D3
:103A80008083F801808191819068692FCE010E9426
:103A90005A1CF8016081CE01DF91CF911F910F91E7
:103AA000FF90EF90DF90CF90BF900C945A1C0F9333
:103AB0001F93CF93DF931F92CDB7DEB78C0169833D
:103AC00041E050E0BE016F5F7F4F0E94DE1AF801B7
:103AD000E359FF4F6081C8010E94D91CC8010E94B0
:103AE000771C0F90DF91CF911F910F910895FF9256
:103AF0000F931F93CF93DF938A01422F82ED9DE0B6
:103B00000E945D05C0E082ED9DE00E94AF04892B1C
:103B100071F0FF24F394FC0EC8018C0F911DEC0191
:103B200082ED9DE00E94B7048883CF2DECCF8C2FCF
:103B3000DF91CF911F910F91FF9008956F927F9227
:103B40008F929F92AF92BF92CF92DF92EF92FF92AD
:103B50000F931F93CF93DF93CDB7DEB769970FB65F
:103B6000F894DEBF0FBECDBF8C018DB69EB6862FFA
:103B700090E0FC01E058F109EF31F10508F0D5C4FF
:103B8000EE58FF4F9801205C374F79010C9469394A
:103B9000D9018D919C91892BF1F4D801ED91FC9183
:103BA0000280F381E02DC8011995FC0101900020ED
:103BB000E9F7AF0141505109481B590BD801ED916C
:103BC000FC910280F381E02D62C0D9018D919C911E
:103BD000019709F49FC386E0F801E459FF4F86C4BA
:103BE000F90180819181892BB1F7D801ED91FC9188
:103BF0000480F581E02DC8011995FC010190002099
:103C0000E9F7AF0141505109481B590BD801ED911B
:103C1000FC910480F581E02D3AC0F9018081918109
:103C2000892BC9F6D801ED91FC910680F781E02D32
:103C3000C8011995FC0101900020E9F7AF0141503E
:103C40005109481B590BD801ED91FC910680F78171
:103C5000E02D1DC0F90180819181892B09F0BBCF36
:103C6000D801ED91FC910084F185E02DC8011995F2
:103C7000FC0101900020E9F7AF0141505109481BB8
:103C8000590BD801ED91FC910084F185E02DC8011C
:103C9000498F588F1995498D588DBC0134C4F9014D
:103CA00080819181892B09F096CFD801ED91FC910B
:103CB0000284F385E02DC8011995FC0101900020D4
:103CC000E9F7AF0141505109481B590BD801ED915B
:103CD000FC910284F385E02DDACFF9018081918196
:103CE000892B09F078CFD801ED91FC910484F585FA
:103CF000E02DC8011995FC0101900020E9F7AF0102
:103D000041505109481B590BD801ED91FC91048495
:103D1000F585E02DBCCFF90180819181892B09F0D7
:103D20005ACFD801ED91FC910684F785E02DC801AA
:103D30001995FC0101900020E9F7AF0141505109AC
:103D4000481B590BD801ED91FC910684F785E02DB5
:103D50009ECFF90180819181892B09F03CCF4AE007
:103D600050E065E874E0CFC3D9018D919C91029732
:103D700009F031CFF801EB5BF74F20813181A801C9
:103D8000420F531FDA01A259BF4F8C9111966C91CB
:103D90002E5F3F4F318320830E94D12EC2C3F90191
:103DA00080819181029709F016CFF801EB5BF74F04
:103DB00020813181A801420F531FDA01A259BF4F60
:103DC0008C9111966C912E5F3F4F318320830E941E
:103DD0000A2FA7C3D9018D919C91019709F0FBCEC1
:103DE000F801EB5BF74F20813181D801A20FB31F9F
:103DF000A259BF4F8C912F5F3F4F318320830E9488
:103E0000402FF5C2F90180819181029709F0E3CE3C
:103E1000F801EB5BF74F20813181D801A20FB31F6E
:103E2000A259BF4F8C91A9014F5F5F4F51834083CF
:103E3000D901A159BF4FA00FB11F6D917C912D5F8A
:103E40003F4F318320830E94B72D6BC3C801845933
:103E50009F4F26E0DC012C93F70120813181223035
:103E6000310508F462C3ADB6BEB6F801EB5BF74F9F
:103E700040815181D801A40FB51FA259BF4F6C9149
:103E80004F5F5F4F51834083462F50E0ADB7BEB7C1
:103E9000A41BB50B0FB6F894BEBF0FBEADBF1196F5
:103EA0006D012230310511F4613031F04D5F5F4F0B
:103EB0002417350709F07BC07C2D3601262D271BE2
:103EC000261788F420813181A801420F531F4259DF
:103ED0005F4FDA014C912F5F3F4F31832083D30135
:103EE0004D933D01EBCFD7012D913C91223031050F
:103EF000B1F020813181D901A259BF4FA00FB11F6C
:103F0000ED90FC902E5F3F4F31832083B9EEEB168E
:103F1000B3E0FB0638F029E0FC01208348C0EE2422
:103F2000E394F12CDC011C92F0923D0EE0923C0EE9
:103F3000C80182599F4F9093410E8093400E80E0BC
:103F4000688F0E94EE05688D613029F4F60180814A
:103F50000E947C0712C0D0923A0EC092390E609334
:103F6000370E1092360E8DE897E09093350E8093C1
:103F7000340ED6018C910E9462070E94F206809155
:103F80003C0E90913D0E20913E0E30913F0E281731
:103F90003907C9F70E941107EE0CFF1CF801E95B15
:103FA000F74F80819181E80EF91EF182E0820FB611
:103FB000F894BEBE0FBEADBEB8C2F901808191813A
:103FC000039709F008CED801AB5BB74F8D919C9158
:103FD0001197FC01E259FF4FE00FF11F60817181E1
:103FE000F801E80FF91FE059FF4F408103968D93C8
:103FF0009C93D801ED91FC910288F389E02DC801D2
:1040000019958FC2F90180819181029709F0E3CD62
:10401000D801AB5BB74F8D919C911197FC01E25990
:10402000FF4FE00FF11F6081718102968D939C9389
:10403000D801ED91FC910088F189E02DC801199516
:10404000D6C1F90180819181029709F0C4CDF801B0
:10405000EB5BF74F808191819801280F391FD901BF
:10406000A259BF4F6C911196EC9002969183808378
:10407000CE0101960E949F09CE0101960E948D09F2
:10408000F12CBE01615F7F4FCE0101960E94C209F3
:10409000F394EF14B0F7980124593F4F7901882326
:1040A00009F422C248E050E0BE01615F7F4FC801C1
:1040B0000E94DE1A16C2D9018D919C910B9709F0CE
:1040C0008ACDD801AB5BB74F2D913C911197A801D8
:1040D000420F531FFA01E259FF4F60816901EFEF70
:1040E000CE1ADE0A1196DC92CE923E01FFE06F0EF0
:1040F000711C80E090E0B62CA72CC00ED11E76017A
:10410000E80EF91E7EE6E70EF11CF701F080F301E0
:10411000F1923F0101968830910589F7FA01E9583B
:10412000FF4FF0803196E080255F3F4F2D933C9309
:10413000CE0101960E949F09CE0101960E946A0855
:104140006B2D7A2DCE0101960E94650940E06F2DFE
:10415000CE0101960E940709F12CFE1409F4E1C179
:10416000CE0101960E9449098F8B41E050E0BE01CB
:10417000695E7F4FC8010E94DE1AF394EECFD90129
:104180008D919C910B9709F026CDD801AB5BB74F71
:104190002D913C911197A801420F531FFA01E2594A
:1041A000FF4F60816901EFEFCE1ADE0A1196DC92B3
:1041B000CE923E01FFE06F0E711C80E090E0B62CC5
:1041C000A72CC00ED11E7601E80EF91E7EE6E70E82
:1041D000F11CF701F080F301F1923F010196883064
:1041E000910589F7FA01E958FF4FF0803196408137
:1041F000255F3F4F2D933C93CE010196498F0E943E
:104200009F09CE0101960E946A086B2D7A2DCE017E
:1042100001960E946509498D6F2DCE0101960E947D
:1042200007097FC1D9018D919C91029709F0D3CCE8
:10423000F801EB5BF74F808191819801280F391FBE
:10424000D901A259BF4F6C911196EC9002969183BF
:1042500080834E2D82ED9DE00E945D05F12C82ED64
:104260009DE00E94AF04892B79F082ED9DE00E94D1
:10427000B704898341E050E0BE016F5F7F4FC80102
:104280000E94DE1AF394EBCFF801E459FF4FFE14BD
:1042900009F44AC181E02AC1F90180819181892B09
:1042A00009F499CC6801FBEBCF1AF7EFDF0AD601CE
:1042B0008D919C911197F801E80FF91FE259FF4F7A
:1042C000608101968D939C9382ED9DE00E94630531
:1042D000B12C2B2D30E0F7018081918101972817B7
:1042E000390798F4F60180819181F801E80FF91FF0
:1042F000E259FF4F60810196D6018D939C9382ED28
:104300009DE00E940705B394E4CF82ED9DE00E94FA
:10431000820507C1F801EB5BF74F80819181D801DD
:10432000A80FB91FA259BF4F2C910196918380838A
:104330008CB5211102C0806201C08F7D8CBDF1C09F
:10434000F90180819181019709F045CCF801EB5B7F
:10435000F74F80819181D801A80FB91FA259BF4F93
:104360002C910196918380839CB5822F83709C7FD2
:10437000892B8CBD8DB522FB222720F98E7F822BC5
:104380008DBD18C0D9018D919C91019709F023CC66
:10439000F801EB5BF74F80819181D801A80FB91F1D
:1043A000A259BF4F2C910196918380838CB5837F56
:1043B000282B2CBDE95DF740B7C0F90180819181C0
:1043C000019709F008CCF801EB5BF74F80819181F0
:1043D000D801A80FB91FA259BF4F2C910196918304
:1043E00080832EBD00000DB407FEFDCF8EB58983FE
:1043F00041E050E0BE016F5F7F4F85C0D9018D91D4
:104400009C91892B09F0E7CBF801EA59FF4F4081D5
:104410005181B8016E5F7F4F76C0F9018081918133
:10442000892B09F0D8CB80912E0E90912F0EA09160
:10443000300EB091310E89839A83AB83BC8344E004
:1044400050E0D8CFD9018D919C91049709F0C3CB4E
:10445000D801AB5BB74F2D913C911197F901E2590F
:10446000FF4FE00FF11F60817181828193812C5F8A
:104470003F4F2D933C930E94030653C0F901808166
:104480009181892B09F0A7CB0E94D5059A83898356
:1044900042E050E0AFCFD9018D919C91029709F095
:1044A0009ACBD801AB5BB74F2D913C911197F90195
:1044B000E259FF4FE00FF11F808191812E5F3F4F46
:1044C0002D933C939C0122503109F801E459FF4F90
:1044D0007F012630310540F40E94CC0580E00E9427
:1044E0009506D7011C9221C085E0F70180831DC08D
:1044F000D9018D919C91892B09F06DCB44E050E05E
:10450000B80168597F4FC8010E94DE1A0AC0F9013C
:1045100080819181892B09F05ECB61E0C8010E9406
:10452000071CF801E459FF4F10827801FCE6EF0EFA
:10453000F11CD7016C91C8010E94571DF7018081C1
:104540000FB6F8949EBE0FBE8DBE69960FB6F89456
:10455000DEBF0FBECDBFDF91CF911F910F91FF90B6
:10456000EF90DF90CF90BF90AF909F908F907F9013
:104570006F900895EF92FF920F931F93CF93DF9365
:104580001F921F92CDB7DEB7122F82ED9DE04983B7
:104590005A830E9463054981042FE42E5A81F52E27
:1045A0008E2D801B811740F4F70161917F0182ED10
:1045B0009DE00E940705F4CF82ED9DE00F900F90E3
:1045C000DF91CF911F910F91FF90EF900C94820596
:1045D000CF93DF93EC018EE89EE00E94692F1816BE
:1045E00019064CF48EE89EE00E94822F682FCE01BF
:1045F0000E94311BF0CFDF91CF91089520913E0EA4
:1046000030913F0E80913C0E90913D0E2817390756
:1046100021F40E94110781E0089580E00895CF936E
:10462000DF93D82FC62F811109C0662321F0613096
:10463000B1F560E001C061E08DE01DC0813079F529
:10464000613049F030F0623061F0633041F560E094
:104650001DC061E01BC060E08CE00E940A2F61E099
:1046600019C060E08CE00E940A2F60E08BE00E949D
:104670000A2F61E08AE00E940A2F8BE1D89FF001A7
:104680001124E75BF14FC18380E00AC08CE00E94F7
:104690000A2F60E08BE00E940A2F60E0EBCF85E0FC
:1046A000DF91CF9108959093820E8093810E609355
:1046B000490E4093640E60E078EB88E097E40E9436
:1046C000030680E00E94B42D61E08DE00E94D12EAF
:1046D00061E08CE00E94D12E61E08BE00E94D12E3F
:1046E00061E08AE00E94D12E83E00E94CC056091B7
:1046F0004A0E80E00E940F236091650E81E00E94C7
:104700000F2320E032E030935F0E20935E0E80E0B6
:1047100090E0A0E0B4E48093600E9093610EA093CB
:10472000620EB093630E41E04093590E30937A0EBF
:104730002093790E80937B0E90937C0EA0937D0E38
:10474000B0937E0E4093740E08950F931F93CF93F2
:10475000DF93AB019BE1899FE0011124C75BD14F3F
:104760009B01235331092A393340B0F09B819111C9
:1047700010C09A819F5F9A836981662321F06150FE
:104780000E940F2303C081E080937F0E83E08B8320
:1047900037C091509B8334C08091800E882309F1EB
:1047A0008D899E89DB01A81BB90B9D010E946F3981
:1047B00009891A892B893C89060F171F281F391F61
:1047C000098B1A8B2B8B3C8B88859985AA85BB8599
:1047D000840F951FA11DB11D88879987AA87BB8764
:1047E0000FC08C819D818617970718F47D836C8399
:1047F00007C08E819F816817790710F47F836E83CD
:10480000DF91CF911F910F91089580E00C94A52323
:1048100081E00C94A5232F923F924F925F926F926A
:104820007F928F929F92AF92BF92CF92DF92EF9240
:10483000FF920F931F93CF93DF93CDB7DEB76497AB
:104840000FB6F894DEBF0FBECDBF29013A01E9864D
:10485000FA860B871C871601BA8AA98A0E947137CB
:1048600020E030E04AE754E40E949D359B01AC0112
:104870000E9422356B017C0120E030E0A9010E94FA
:10488000283720E030E040E05FE387FD05C0C70146
:10489000B6010E94223504C0C701B6010E9421352D
:1048A0000E9405360E94383620E030E040E05FE3A9
:1048B0000E9471376D837E838F839887A301920155
:1048C0006D817E818F8198850E949D3529853A85ED
:1048D0004B855C850E9471370E9486350E940A369E
:1048E0008B010230110508F42DC3B80180E090E07F
:1048F0000E9436362D813E814F8158850E949D351C
:10490000A30192010E94713769837A838B839C8310
:10491000D1016D937D938D939C93139729853A854F
:104920004B855C850E94283718160CF408C3A30138
:10493000920169817A818B819C810E949D356B01F6
:104940007C019B01AC0160E070E080E090E40E949B
:104950009D354B015C0120E030E0A9010E94283721
:1049600020E030E040E05FE387FD05C0C501B40111
:104970000E94223504C0C501B4010E9421350E9465
:1049800005360E943836A70196010E9471379B01B7
:10499000AC0160E070E080E090E40E94213520E00E
:1049A00030E0A9010E94283720E030E0A901181664
:1049B00064F5C501B4010E94283720E030E040E0F2
:1049C0005FE387FD05C0C501B4010E94223504C024
:1049D000C501B4010E9421350E9405360E94383677
:1049E000A70196010E9471379B01AC0160E070E065
:1049F00080E090E40E9421352DEC3CEC4CEC5DE332
:104A00000E94993587FD9BC22CC0C501B4010E944C
:104A1000283720E030E040E05FE387FD05C0C501B6
:104A2000B4010E94223504C0C501B4010E942135A1
:104A30000E9405360E943836A70196010E94713700
:104A40009B01AC0160E070E080E090E40E942135C1
:104A50002DEC3CEC4CEC5DEB0E94283718160CF466
:104A60006EC2A3019201C301B2010E9422359B01D3
:104A7000AC0169817A818B819C810E94993587FF85
:104A800061C129813A814B815C81C301B2010E94DD
:104A90009D356D877E878F87988B1C8A1B8AEB8953
:104AA000FC89BF0180E090E00E9436364B015C013A
:104AB0009B01AC016D857E858F8598890E9421358B
:104AC00020E030E040E05FE30E94993518163CF4A6
:104AD0002B893C892F5F3F4F3C8B2B8BE0CF29816B
:104AE0003A814B815C81C501B4010E9471379B0101
:104AF000AC01C301B2010E9421354B015C0120E0F1
:104B000030E0A9010E942837181624F0B7FAB094B3
:104B1000B7F8B094A501940169817A818B819C8159
:104B20000E949D3569837A838B839C839B01AC01B2
:104B300060E070E080E090E40E949D354B015C01F4
:104B400020E030E0A9010E94283720E030E040E07A
:104B50005FE387FD05C0C501B4010E94223504C092
:104B6000C501B4010E9421350E9405360E943836E5
:104B700029813A814B815C810E9471379B01AC0194
:104B800060E070E080E090E40E94213520E030E0B9
:104B9000A9010E94283720E030E0A901181674F519
:104BA000C501B4010E94283720E030E040E05FE317
:104BB00087FD05C0C501B4010E94223504C0C501AE
:104BC000B4010E9421350E9405360E9438362981A1
:104BD0003A814B815C810E9471379B01AC0160E09E
:104BE00070E080E090E40E9421352DEC3CEC4CEC30
:104BF0005DE30E94993587FF2FC0A1C1C501B401B3
:104C00000E94283720E030E040E05FE387FD05C0E8
:104C1000C501B4010E94223504C0C501B4010E943F
:104C200021350E9405360E94383629813A814B8110
:104C30005C810E9471379B01AC0160E070E080E014
:104C400090E40E9421352DEC3CEC4CEC5DEB0E9495
:104C5000283718160CF473C120E030E0A901C70111
:104C6000B6010E94283720E030E040E05FE387FD96
:104C700005C0C701B6010E94223504C0C701B601B4
:104C80000E9421350E9405360E9438369B01AC01F6
:104C9000C701B6010E94213520E030E0A9010E9441
:104CA000283720E030E0A901181634F5C701B60115
:104CB0000E94283720E030E040E05FE387FD05C038
:104CC000C701B6010E94223504C0C701B6010E9487
:104CD00021350E9405360E9438369B01AC01C70180
:104CE000B6010E94213527E137EB41ED58E30E94E0
:104CF000993587FF27C023C1C701B6010E94283715
:104D000020E030E040E05FE387FD05C0C701B60169
:104D10000E94223504C0C701B6010E9421350E94BD
:104D200005360E9438369B01AC01C701B6010E94CE
:104D3000213527E137EB41ED58EB0E942837181653
:104D40000CF4FDC020E030E040E251E4C701B601C0
:104D50000E94993587FF76C020E030E0A901C701A5
:104D6000B6010E94283720E030E040E05FE387FD95
:104D700005C0C701B6010E94223504C0C701B601B3
:104D80000E9421350E9405360E9438369B01AC01F5
:104D9000C701B6010E94213520E030E0A9010E9440
:104DA000283720E030E0A901181634F5C701B60114
:104DB0000E94283720E030E040E05FE387FD05C037
:104DC000C701B6010E94223504C0C701B6010E9486
:104DD00021350E9405360E9438369B01AC01C7017F
:104DE000B6010E94213527E137EB41ED58E30E94DF
:104DF000993587FF27C0A3C0C701B6010E94283795
:104E000020E030E040E05FE387FD05C0C701B60168
:104E10000E94223504C0C701B6010E9421350E94BC
:104E200005360E9438369B01AC01C701B6010E94CD
:104E3000213527E137EB41ED58EB0E942837181652
:104E40000CF47DC02D813E814F815885C701B6018C
:104E50000E9471376B017C0120E030E0A9010E94C3
:104E6000283720E030E040E05FE387FD05C0C70160
:104E7000B6010E94223504C0C701B6010E94213547
:104E80000E9405360E9438369B01AC01C701B6016D
:104E90000E94213520E030E0A9010E94283720E05F
:104EA00030E0A901181634F5C701B6010E94283771
:104EB00020E030E040E05FE387FD05C0C701B601B8
:104EC0000E94223504C0C701B6010E9421350E940C
:104ED00005360E9438369B01AC01C701B6010E941D
:104EE000213527E137EB41ED58E30E94993587FFE3
:104EF00026C033C0C701B6010E94283720E030E049
:104F000040E05FE387FD05C0C701B6010E9422357E
:104F100004C0C701B6010E9421350E9405360E94D7
:104F200038369B01AC01C701B6010E94213527E14B
:104F300037EB41ED58EB0E942837181674F00150FA
:104F40001109CFCC20E030E040E05FE36D817E814D
:104F50008F8198850E942235ADCCA989BA890D939D
:104F60001C9364960FB6F894DEBF0FBECDBFDF91E1
:104F7000CF911F910F91FF90EF90DF90CF90BF9056
:104F8000AF909F908F907F906F905F904F903F90E9
:104F90002F90089510924A0E1092650E08952F9248
:104FA0003F924F925F926F927F928F929F92AF92B9
:104FB000BF92CF92DF92EF92FF920F931F93CF9306
:104FC000DF93CDB7DEB7C85CD1090FB6F894DEBF6A
:104FD0000FBECDBFC154DF4F59834883CF5BD04054
:104FE000CF53DF4F088319832A833B83C15CD040B2
:104FF00026013701CD54DF4FA882C35BD040809299
:10500000800EAA2031F1A3E8AA2EAEE0BA2EAE019E
:1050100049555F4F6A01E12C10E4F12E0CE916E4CA
:10502000A30192010E940B24C955DF4F6881798149
:105030008A819B81C75AD0409B01AC010E942235D6
:10504000C955DF4F688379838A839B83C75AD040D1
:1050500017C020E030E040E05FE30E947137E3E8F2
:10506000AE2EEEE0BE2EDE01A955BF4F6D01E12C44
:1050700010E4F12E0CE117E4A30192010E940B242D
:105080008091830E9091840E880F991F9093840EC7
:105090008093830EC955DF4F688179818A819B8116
:1050A000C75AD0400E940306B0914A0EC354DF4F46
:1050B000B883CD5BD04081E0C355DF4F8883CD5AA4
:1050C000D04061E080E00E940F23E091650EC25461
:1050D000DF4FE883CE5BD04083E0C255DF4F88834B
:1050E000CE5AD04063E081E00E940F238091490EA8
:1050F000FE01E555FF4F80839091640E91832091CE
:10510000830E3091840ECD54DF4F4881C35BD04075
:10511000442311F130933D0E20933C0EF0933A0E50
:10512000E093390E92E09093370E1092360E2DE8F0
:1051300037E03093350E2093340E0E94620785EAE3
:1051400097E09093350E8093340E85EA93E2909326
:10515000330E8093320E06C03695279530933D0E60
:1051600020933C0EE090810EF090820EF701E859FA
:10517000FF4F20E030EC4FE754E460817181828181
:1051800093810E949D35C754DF4F688379838A835A
:105190009B83C95BD0401E015FE9250E311C3E0197
:1051A00083E1680E711CCE01805B9F4F2C01AAE049
:1051B0004A0E511CF1013896C155DF4FF983E8833F
:1051C000CF5AD040CC54DF4F8883C45BD040C85402
:1051D000DF4F9883C85BD04087010B59174F970169
:1051E000245A374FCF54DF4F39832883C15BD040D7
:1051F0008091490EF801CC54DF4FA881C45BD040A8
:10520000C854DF4FB881C85BD0409FE401900D9235
:105210009A95E1F7882341F0813061F4F201208909
:1052200031894289538909C0D2012D913D914D9117
:105230005C9103C020E030E0A901F801DE01119685
:105240009FE401900D929A95E1F7882341F0813017
:1052500061F4F301C08CD18CE28CF38C09C0D301D2
:10526000CD90DD90ED90FC9003C0C12CD12C760147
:1052700060E876E988E19BE40E949D3520E030E01B
:1052800040E85FE30E9422354B015C0120E836E9EB
:1052900048E15BE4C701B6010E9471379B01AC0194
:1052A0000E9422352BED3FE049E450E40E94713723
:1052B000CF54DF4FA881B981C15BD0402D913D9182
:1052C0004D915C910E9471376B017C01A5019401A5
:1052D000C501B4010E9471374B015C01A701960121
:1052E000C701B6010E9471379B01AC01C501B40131
:1052F0000E9422350E9424389B01AC01C754DF4F25
:10530000688179818A819B81C95BD0400E94713715
:10531000F10161937193819391931F01F4E06F0EFA
:10532000711C24E0420E511CC155DF4F4881598148
:10533000CF5AD0402416350609F05ACF10927F0E6E
:10534000CF54DF4F19821882C15BD040CF54DF4F5A
:1053500088819981C15BD040C154DF4FA881B98158
:10536000CF5BD0408A179B0709F4D1C28091800E91
:1053700010924B0E10924C0E81110BC0EFEFF3E028
:10538000F093500EE0934F0E10924E0E10924D0E71
:1053900010C01092510E1092520E1092530E109295
:1053A000540E10925A0E10925B0E10925C0E1092D8
:1053B0005D0E1092660E1092670E882389F010928F
:1053C0006C0E10926D0E10926E0E10926F0E109267
:1053D000750E1092760E1092770E1092780E0AC00B
:1053E0008FEF93E090936B0E80936A0E1092690E8C
:1053F0001092680ECD54DF4F9881C35BD040992343
:10540000E1F10E94F2060E94FE228823E1F30E944D
:10541000FC2CCC54DF4F688379838A839B83C45BE5
:10542000D040A091800EC854DF4FA883C85BD04005
:105430008091830E9091840EFE01E355FF4FC1557C
:10544000DF4FF983E883CF5AD04009E41EE09E0184
:105450002F5F3F4F2901AE01405B5F4F1A01612C66
:10546000712C9C0140E050E0CB53DF4F28833983FF
:105470004A835B83C55CD0409AC08091490E0E94EC
:105480007C0745EA57E05093350E4093340E85E093
:1054900094E29093330E8093320E0E94F2060E94A3
:1054A000FE228823E1F38091640E0E947C07A5EA26
:1054B000B7E0B093350EA093340EE8E0F4E2F09339
:1054C000330EE093320E0E94F2060E94FE228823E1
:1054D000E1F39DCFCB53DF4F688179818A819B8136
:1054E000C55CD0400E9436366B017C01D8015196D4
:1054F0006D917D918D919C9154970E9436369B01C0
:10550000AC010E942235A70196010E949D350E94A0
:105510002438F201608371838283938320E030E03A
:1055200040E852E40E9471379B01AC010E94223591
:1055300023EF34E045EB5FE30E9471370E940A36A7
:10554000D1016D937C93F301E75BF14F8281882356
:10555000B9F1F301E75BF14F8281882309F4B3C00D
:105560008195C155DF4FA881B981CF5AD0408C9326
:10557000B1E0B08BC155DF4FE881F981CF5AD040FF
:105580003196C155DF4FF983E883CF5AD040FBE114
:105590006F0E711C055E1F4F22E0220E311C34E09D
:1055A000430E511C46E36416710409F496C0C854B6
:1055B000DF4FF881C85BD040FF2309F45AC08ACF7F
:1055C00080898111C6CFF80180849184A284B3843C
:1055D0006485758586859785680D791D8A1D9B1D57
:1055E0000E9436362AE037ED43E25CE30E947137D1
:1055F000A70196010E949D356B017C0124EA30E7EA
:105600004DE75FE3D80157966D917D918D919C9107
:105610005A970E9471379B01AC01C701B6010E94E5
:1056200022356B017C01F801678B708F818F928F1F
:1056300020E030E0A9010E94283720E030E040E07F
:105640005FE387FD05C0C701B6010E94223504C093
:10565000C701B6010E9421350E940536D801569631
:105660007C936E935597F80184869586A686B786B7
:1056700070CFD80114966D917C91159716968D91E7
:105680009C911797681B790B96E0660F771F9A9588
:10569000E1F7F1017183608380E090E00E9436368B
:1056A00023EF34E045EB5FE30E949D3520E030E0DE
:1056B00040E05CE30E947137D2016D937D938D933E
:1056C0009C93139746CF8181C155DF4FA881B98143
:1056D000CF5AD0408C93108A4DCF0091810E1091FB
:1056E000820EF801EC59F74F8081882309F470C0CD
:1056F00080914B0E81116CC03C97C080D180E280BC
:10570000F38020E030E0A901C701B6010E942837EC
:1057100018160CF05DC0C355DF4F8881CD5AD040BC
:10572000EFE9F0E0EC0FFD1F24E08202E00DF11D37
:105730001124208131814281538169817A818B8159
:105740009C810E9471374B015C018091660E811132
:10575000B5C02D813E814F815885C754DF4F688188
:1057600079818A819B81C95BD0400E9471379B01FE
:10577000AC01C701B6010E9422352B013C019B01FF
:10578000AC01C501B4010E9421356B017C0120E010
:1057900030E0A9010E942837181624F0F7FAF09497
:1057A000F7F8F09420E030E040E05FE3F801ED55D9
:1057B000F74F60817181828193810E9471379B01D3
:1057C000AC01C701B6010E94283718160CF47AC044
:1057D0000AE41EE0CE01805B9F4F6C01E12CF12CAE
:1057E000D6018D919C91893C9C4030F4F8016081F8
:1057F0006F5F8E2D0E940F2342E050E0B601809132
:10580000810E9091820E0E94DE1A6DEA70E06C0F9C
:105810007D1F6E0D7F1D41E050E08091810E9091C3
:10582000820E0E94DE1AFFEFEF1AFF0A22E0C20E7C
:10583000D11C055E1F4F32E0E316F10489F68EE8B5
:105840009EE00E94692F181619060CF460C00E9491
:10585000FC2CCC54DF4F288139814A815B81C45BA9
:10586000D040621B730B840B950B0E9436366B0184
:105870007C0120E030E04AE754E4CF53DF4F6881F9
:1058800079818A819B81C15CD0400E9471379B01E4
:10589000AC01C701B6010E94993587FDD8CFCF541E
:1058A000DF4F48815981C15BD0404F5F5F4FCF547C
:1058B000DF4F59834883C15BD04048CD20E030E0C2
:1058C000A90157CFF801E05AF74F20813181428179
:1058D0005381C501B4010E947137A30192010E9456
:1058E0009D356B017C0120E030E040E85FE30E94E1
:1058F000993587FF06C0C12CD12C80E8E82E8FE3B4
:10590000F82EB701A601C8010E94110E61CFC35441
:10591000DF4F6881CD5BD04080E00E940F23C254EE
:10592000DF4F6881CE5BD04081E00E940F2380E092
:10593000C853DF4F0FB6F894DEBF0FBECDBFDF9167
:10594000CF911F910F91FF90EF90DF90CF90BF907C
:10595000AF909F908F907F906F905F904F903F900F
:105960002F9008951F920F920FB60F9211242F932C
:105970003F938F939F93AF93BF938091860E9091A7
:10598000870EA091880EB091890E3091850E23E08C
:10599000230F2D3720F40196A11DB11D05C026E867
:1059A000230F0296A11DB11D2093850E8093860EB4
:1059B0009093870EA093880EB093890E80918A0EE3
:1059C00090918B0EA0918C0EB0918D0E0196A11D21
:1059D000B11D80938A0E90938B0EA0938C0EB09382
:1059E0008D0EBF91AF919F918F913F912F910F900D
:1059F0000FBE0F901F9018953FB7F89480918A0EB4
:105A000090918B0EA0918C0EB0918D0E26B5A89B17
:105A100005C02F3F19F00196A11DB11D3FBF66279C
:105A2000782F892F9A2F620F711D811D911D42E0E1
:105A3000660F771F881F991F4A95D1F70895CF9257
:105A4000DF92EF92FF92CF93DF936B017C010E9474
:105A5000FC2CEB01C114D104E104F10489F00E9493
:105A600020350E94FC2C6C1B7D0B683E734090F32C
:105A700081E0C81AD108E108F108C851DC4FEACF2B
:105A8000DF91CF91FF90EF90DF90CF90089582301B
:105A9000910538F0880F991F880F991F0597019776
:105AA000F1F70895789484B5826084BD84B58160EF
:105AB00084BD85B5826085BD85B5816085BDEEE616
:105AC000F0E0808181608083E1E8F0E010828081F5
:105AD00082608083808181608083E0E8F0E0808163
