:100000000C94E3010C9414020C9414020C9414024A
:100010000C9414020C9414020C9414020C94140208
:100020000C9414020C9414020C9414020C941402F8
:100030000C9414020C9414020C9414020C941402E8
:100040000C9414020C9414020C9414020C941402D8
:100050000C94CF0A0C9414020C9414020C94F82CF7
:100060000C9414020C9420310C9456310C9414020C
:100070000C9414020C94A40A0C9414020C94140210
:100080000C9414020C9414020C9414020C940608A0
:100090000C9414020C9414020C9414020C94D503C6
:1000A0000C9414020C9414020C9414020C94140278
:1000B0000C9414020C9414020C9414020C94140268
:1000C0000C9414020C9414020C9414020C94140258
:1000D0000C9414020C9414020C9414020C94140248
:1000E0000C94140239134713BF13CF1342146E1428
:1000F0007C149814A814C714D714DC19DC19F5144F
:100100001A1535156B15B915EF15451655169316B5
:10011000AE1637197719831943195919A019B2194D
:10012000DC19DC19DC19DC19DC19DC19DC19DC1927
:10013000DC19DC19DC19DC19DC19DC19DC19DC1917
:10014000DC19DC19DC19DC19DC19DC19DC19DC1907
:10015000DC19DC19DC19DC19DC19DC19DC19DC19F7
:10016000DC19DC19DC19DC19DC19DC19DC19DC19E7
:10017000DC19DC19DC19DC19DC19DC19DC19DC19D7
:10018000DC19DC19DC19DC19DC19DC19DB1619198E
:10019000BC17111E391E561E731EB61E981ED41E85
:1001A000FD1E331F181F6F1F4B1F4B2026206A2078
:1001B0000821A42095215B212E1EE9210B22262255
:1001C0004722F21E56226B2287229422C122D0227D
:1001D000202E252E2A2E342E3E2EB72E482E502E7F
:1001E000582E622E6C2E762E852E8F2EB72E992E9F
:1001F000A32EAD2ED92EDC2ECB2ECF2ED52E132F07
:10020000E02EE42EEA2EEE2EF22EF82EFC2E002FFB
:10021000132F062F0A2F0E2F08000000BE9224492C
:10022000123EABAAAA2ABECDCCCC4C3E0000008028
:10023000BEABAAAAAA3E00000000BF000000803F9B
:100240000000000000084178D3BB4387D1133D195B
:100250000E3CC3BD4282AD2B3E68EC8276BED98F88
:10026000E1A93E4C80EFFFBE01C4FF7F3F000000CC
:10027000000007634236B79BD8A71A39685618AEF4
:10028000BAAB558C1D3CB7CC5763BD6DEDFD753ECB
:10029000F6177231BF000000803F00000A0B020910
:1002A0000C0D0E0807030401000000000000000010
:1002B000000000000000000000000000000000003E
:1002C00000000000000012111000000000000000FB
:1002D000000000000000000000000000000000001E
:1002E0000102102020080810204010204080020148
:1002F000020108040201010204081020408080402D
:10030000201008040201800402018040201008042B
:1003100002010804020101020408102040800102C9
:100320000408102040800505050507050808080891
:10033000020202020A0A080804040404010101017D
:100340000101010103030303030303030407070778
:100350000C0C0C0C0C0C0C0C02020202060606061D
:10036000060606060B0B0B0B0B0B0B0B00002000FD
:100370002300260029002C002F003200000100007D
:1003800003010601090100002200250028002B00BE
:100390002E003100340002010000050108010B01AC
:1003A00000002100240027002A002D003000330027
:1003B00001010000040107010A014B02DC05D90A12
:1003C00010288A314F0211241FBECFEFD1E2DEBFC9
:1003D000CDBF00E00CBF14E0A0E0B2E0E2EAF8E735
:1003E00000E00BBF02C007900D92A83AB107D9F701
:1003F0002FE0A8EAB4E001C01D92A632B207E1F7EF
:1004000013E0C4ECD3E000E006C022970109FE012E
:100410000BBF0E94D039CA3BD10780E00807A9F77B
:100420000E94E8020C943F3C0C940000809106026C
:100430009091070201969093070280930602089517
:10044000089588EA94E00E943123809106029091F9
:10045000070269E170E00E947639892BD9F4809116
:10046000FA0C882389F08091FB0C81110BC0E0917C
:10047000A804F091A9040688F789E02D88EA94E0A1
:10048000199502C01092FB0C81E090E09093070256
:1004900080930602089588EA94E00C940C0B88EA95
:1004A00094E00C941D0B80E18093910010929000D9
:1004B00085E080931E0E86E998E99093200E809344
:1004C0001F0E909397008093960085E18093910092
:1004D00086E192E090931D0E80931C0E81E0809344
:1004E000710088EA94E00E94030F68E072E085E8FA
:1004F0009EE00E9419326FEF71E2605072404AE054
:1005000050E085E89EE00E94E3326DE072E085E80D
:100510009EE00E94193268EA74E0605072404AE03E
:1005200050E085E89EE00E94E33264E172E085E8F5
:100530009EE00E94193266E27FE0685A74404AE009
:1005400050E085E89EE00E94E3326AE172E085E8CF
:100550009EE00E9419326091220F7091230F611565
:10056000710519F066527F4002C060E070E04AE019
:1005700050E085E89EE00E94E33260E272E085E8A8
:100580009EE00E9419328DB79EB76FEF71E2681B33
:10059000790B4AE050E085E89EE00E94E33267E292
:1005A00072E085E89EE00E9419328091220F9091BE
:1005B000230F6DB77EB7009719F466527F4002C0D3
:1005C000681B790B4AE050E085E89EE00C94E3322A
:1005D0000E94982D0E9420020E945302C9EDDFE282
:1005E0000E9421022097E1F30E94D92FF9CF1092A7
:1005F000C80D81E08093C60D1092C50D61E084E1C5
:100600000E944D2F61E085E10E944D2FE9EBF0E063
:1006100080818E7F808380818D7F808388E480933A
:10062000B80085E48093BC000895413208F03FC0D3
:100630009091C80D9111FCCF91E09093C80D20933B
:10064000C60D2FEF20935B0D1092A00D240F209369
:100650009F0D9093C70D9091C70D880F892B8093A4
:10066000C70D8091C50D813041F41092C50D809168
:10067000C70D8093BB0085EC01C085EE8093BC0064
:100680008091C80D8130E1F38091A00D841710F4A2
:100690004091A00D21EA3DE0FB01D9018A2F821B88
:1006A000841718F48D918193F9CF842F089580E0F9
:1006B00008950F93413208F046C09091C80D9111F2
:1006C000FCCF92E09093C80D0093C60D9FEF9093DE
:1006D0005B0D1092A00D40939F0DFB0161EA7DE040
:1006E000DB019A2F961B941718F491919D93F9CFE3
:1006F0001092C70D9091C70D880F892B8093C70D5D
:100700008091C50D813041F41092C50D8091C70DC7
:100710008093BB0085EC01C085EE8093BC00222352
:1007200021F08091C80D8230E1F380915B0D8F3F05
:1007300061F080915B0D803251F080915B0D8033D0
:1007400041F483E007C081E005C080E003C082E09F
:1007500001C084E00F910895613298F42091C80D92
:10076000243089F460937D0DFC018FE79DE0DC016E
:100770002A2F281B261718F421912D93F9CF80E0FA
:10078000089581E0089582E0089585ED8093BC008E
:100790008091BC0084FDFCCF1092C80D089585ECBB
:1007A0008093BC001092C80D08951F920F920FB64F
:1007B0000F9211240BB60F922F933F934F935F9399
:1007C0006F937F938F939F93AF93BF93EF93FF9319
:1007D0008091B900887F803609F49CC068F5883222
:1007E00009F45BC090F4803109F454C038F48823D4
:1007F00009F4F5C0883009F44DC0F5C0883109F41A
:100800004CC0803209F45DC0EEC0803409F468C089
:1008100048F4803309F455C0883309F0E4C080936C
:100820005B0DA8C0803509F44FC0883509F45DC060
:10083000883409F0D8C0D5C0883909F4C6C0A8F4F6
:10084000883709F467C038F4883609F463C0803704
:1008500009F460C0C8C0883809F4B7C0803909F409
:100860005FC0803809F0BFC05BC0803B09F485C021
:1008700038F4803A09F466C0883A09F47EC0B3C0FF
:10088000803C09F4A6C0883C09F4A3C0883B09F465
:1008900089C0A9C08091C70D10C09091A00D809112
:1008A0009F0D981770F5E091A00D81E08E0F809359
:1008B000A00DF0E0EF55F24F80818093BB0085ECF6
:1008C00085C080935B0D8DC0E091A00D81E08E0FFF
:1008D0008093A00D8091BB00F0E0EF55F24F808334
:1008E0009091A00D80919F0D6DC0E091A00D81E0D1
:1008F0008E0F8093A00D8091BB00F0E0EF55F24F7A
:1009000080838091C60D81116CC081E08093C50DFC
:1009100084EA60C083E08093C80D10925C0DCFCF55
:1009200080915C0D803208F050C0E0915C0D81E058
:100930008E0F80935C0D8091BB00F0E0E35AF24F84
:100940008083BDCF80915C0D803230F4E0915C0DEE
:10095000F0E0E35AF24F10820E94C50360915C0DF3
:1009600070E0E091C10DF091C20D8DE59DE019950B
:1009700010925C0D0E94CF0336C084E08093C80DB6
:1009800010927E0D10927D0DE091C30DF091C40D7B
:10099000199580917D0D811105C081E080937D0DB9
:1009A00010927F0DE0917E0D81E08E0F80937E0D81
:1009B000F0E0E158F24F80818093BB0090917E0D72
:1009C00080917D0D981708F47ACF85E88093BC005C
:1009D0000AC085EC8093BC001092C80D04C0109230
:1009E0005B0D0E94C503FF91EF91BF91AF919F9165
:1009F0008F917F916F915F914F913F912F910F90C8
:100A00000BBE0F900FBE0F901F9018958091F90D9F
:100A100090E02091FA0D821B910908952091FA0D22
:100A20008091F90D281750F4E22FF0E0E550F24FD5
:100A3000808190E02F5F2093FA0D08958FEF9FEF54
:100A40000895E091FA0D8091F90DE81730F4F0E087
:100A5000E550F24F808190E008958FEF9FEF089569
:100A60000895CF92DF92EF92FF920F931F93CF934F
:100A7000DF937C01CB018A012091D50D222389F0DF
:100A8000EB016B01C40ED51ECC15DD0569F0699133
:100A9000D701ED91FC910190F081E02DC7011995EE
:100AA000F3CF642F0E94AC03C801DF91CF911F9157
:100AB0000F91FF90EF90DF90CF900895CF93DF9349
:100AC0001F92CDB7DEB769832091D50D2223D1F0D7
:100AD0002091D60D203240F021E030E0FC0133833C
:100AE000228380E090E015C08091D70DE82FF0E0E0
:100AF000E852F24F998190838F5F8093D70D809356
:100B0000D60D05C061E0CE0101960E94AC0381E0E4
:100B100090E00F90DF91CF910895FC011382128233
:100B200048EE53E060E070E044835583668377834A
:100B300088E392E09183808308951092FA0D1092D9
:100B4000F90D1092D70D1092D60D0C94F702862F46
:100B5000413208F040E26BEF7DE00E9415031092F5
:100B6000FA0D8093F90D089521E00C94A70521E07A
:100B70000C94A70581E08093D50D6093F80D109239
:100B8000D70D1092D60D08950C94BA050F93062F29
:100B900021E04091D60D68ED7DE08091F80D0E9436
:100BA00059031092D70D1092D60D1092D50D0F91BA
:100BB000089561E00C94C60589EC9DE00C948D05C8
:100BC000CF93CFB7F89480911B0E811127C0EBE52E
:100BD000F3E08491E5E1F3E09491E82FF0E0EE0F8B
:100BE000FF1FE056FC4FA591B4918C91892321F40D
:100BF00061E085E30E944D2F61E085E30E94142FA0
:100C00008CB580618CBD8CB580648CBD61E084E363
:100C10000E94142F61E083E30E94142F80911B0E29
:100C20008F5F80931B0ECFBFCF910895FF920F93DC
:100C30001F93CF93DF93FC010081C181D281F8948F
:100C40008981F02EF0948F21898378941DE71150CB
:100C500029F182E090E00E948D2D88818023B9F3F4
:100C6000F8948A818F218A838981802B8983789463
:100C700080EE91E00E948D2DF89489818F218983E7
:100C800086E490E00E948D2D8881802311E009F098
:100C900010E078948AE991E00E948D2D812FDF91F8
:100CA000CF911F910F91FF9008951F93CF93DF93E2
:100CB000FC011081C181D281912F909560FF12C0FB
:100CC000F8948A8189238A838981812B89838AE0A8
:100CD00090E00E948D2D8A81812B8A83789487E30E
:100CE00090E011C0F8948A8189238A838981812BBD
:100CF000898381E490E00E948D2D8A81812B8A83F3
:100D0000789485E090E0DF91CF911F910C948D2D28
:100D10000F931F93CF93DF93FC011081C181D28188
:100D2000F8948981812B89838A81012F0095802302
:100D30008A8383E090E00E948D2D898180238983BE
:100D40008AE090E00E948D2DC881789485E390E040
:100D50000E948D2D1C2381E009F480E0DF91CF916A
:100D60001F910F910895CF92DF92EF92FF920F9310
:100D70001F93CF93DF931F92CDB7DEB76C01E62EA2
:100D800008E010E0FF24F39461E09F2D9E2109F418
:100D900060E0C60149830E945506FF0C015011090D
:100DA00049810115110581F7411115C0F894D6014B
:100DB0001196ED91FC91129791818C9180958923E8
:100DC00081831196ED91FC91129792818C9180957F
:100DD0008923828378940F90DF91CF911F910F9197
:100DE000FF90EF90DF90CF900895EF92FF920F93D6
:100DF0001F93CF93DF938C01C8E0D0E0F12CEE2459
:100E0000E394C8010E9488068111FE28EE0C219708
:100E1000C1F78F2DDF91CF911F910F91FF90EF9030
:100E20000895CF92DF92FF920F931F93CF93DF939A
:100E30001F92CDB7DEB78C01F62E40E065E57983D1
:100E40000E94B306CF2C7981D72E88E0F82EF601C8
:100E500061916F0140E0C8010E94B306FA94B9F7AE
:100E60000F90DF91CF911F910F91FF90DF90CF9066
:100E70000895FC0113861586148627E030E0DF0113
:100E8000A20FB31F13961C922115310519F02150A2
:100E90003109F5CF08951F93CF93DF93EC01162FFF
:100EA00060E0812F0E94142F612F70E0FB01E0525F
:100EB000FD4FE491E883FB01EA5DFC4FE491F0E033
:100EC000EE0FFF1FE459FC4F859194919A8389831B
:100ED000CE01DF91CF911F910C943907AF92BF9251
:100EE000CF92DF92EF92FF920F931F93CF93DF93F6
:100EF0001F92CDB7DEB75C01E62ED72EFC018585AB
:100F000081115DC0C5010E941606811105C0F50161
:100F10001386158614866EC040E060EFC5010E94FE
:100F2000B30601E0F12CC12C11E0C5010E94880636
:100F3000682FC50169830E9488066981613019F4B0
:100F40008130B9F433C02F2D30E068131BC0F50198
:100F50008385181730F4E20FF31F8381802349F44F
:100F600002C0181731F060E0193058F4F501148709
:100F700008C0F501EF0DF11D8381802B838361E0B3
:100F800009C0C12EF501E20FF31F8381902F9095C8
:100F900089238383C5010E9455061F5F000F11F44A
:100FA000F39401E0F7E0FF1508F0BFCF113438F0FB
:100FB000F501C386C11018C081E0858715C0F50111
:100FC00013861586148680E0EE2DFD2D20E030E09E
:100FD000D501A20FB31F13969C9191932F5F3F4FA2
:100FE00028303105A9F706C0F5018381882339F33C
:100FF00081E0EACF0F90DF91CF911F910F91FF9089
:10100000EF90DF90CF90BF90AF9008951F920F9216
:101010000FB60F9211240BB60F922F933F934F935D
:101020005F936F937F938F939F93AF93BF93EF9350
:10103000FF93E0911C0EF0911D0E1995FF91EF9119
:10104000BF91AF919F918F917F916F915F914F91E0
:101050003F912F910F900BBE0F900FBE0F901F90DE
:101060001895ECE7F0E090819F739083208130E445
:10107000839FC0011124282B20830895EAE7F0E024
:101080009081987F90839081982B90830895809190
:101090007A00877090E00895E1E8F0E08081887F31
:1010A000808308950E944C0810928500109284005D
:1010B000E1E8F0E080819091210E892B80830895F2
:1010C000882321F080917C00806203C080917C00A5
:1010D0008F7D80937C000895EBE7F0E09081987F0E
:1010E00090839081982B90830895CF92DF92EF9216
:1010F000FF92CF936B017C0180E18093810010927D
:101100008000A701960160E074E284E799E40E9400
:10111000E03520E030E040E051E40E94B4370E9426
:101120004D366115710521E08207910528F421E013
:101130002093210ECB014CC06115710528E0820778
:10114000910568F422E02093210EDC01CB0153E0ED
:10115000B695A795979587955A95D1F739C061159A
:10116000710520E48207910568F423E02093210EA5
:10117000DC01CB0146E0B695A795979587954A95F2
:10118000D1F726C061157105810521E0920740F471
:1011900024E02093210EBB27A92F982F872F18C05A
:1011A00061157105810524E0920768F425E020931C
:1011B000210EDC01CB012AE0B695A795979587957E
:1011C0002A95D1F705C085E08093210E8FEF9FEF20
:1011D0009093870080938600C1E0C0936F0086E003
:1011E0000E946C08C093370E80917A0080628093D1
:1011F0007A00C0922A0ED0922B0EE0922C0EF09222
:101200002D0ECF91FF90EF90DF90CF9008958093B7
:10121000370E882321F080917A00806203C080918C
:101220007A008F7D80937A000895EAE7F0E080816C
:10123000806480830895CF93DF93D0917800C0912C
:10124000790040913A0E50913B0E2091380E30912A
:10125000390E42175307A8F58091370E811102C04D
:101260000E9415098D2F90E09C2B20917C0025FF7A
:1012700013C0E0913E0EF0913F0E20913A0E309156
:101280003B0EA9014F5F5F4F50933B0E40933A0EC8
:10129000E20FF31F908315C0E0913C0EF0913D0EDC
:1012A00020913A0E30913B0EA9014F5F5F4F509352
:1012B0003B0E40933A0E220F331FE20FF31F918330
:1012C0008083DF91CF91089510923B0E10923A0ED9
:1012D0008091370E0E9407090E94422D6093220ED2
:1012E0007093230E8093240E9093250E80917A00A4
:1012F000886C80937A0080917B008770863011F42F
:101300000C94520808958F929F92AF92BF92CF9201
:10131000DF92EF92FF920E94422D4B015C0180917F
:101320007A00877D80937A0080917B008770863079
:1013300011F40E944C086091380E7091390E80E0D3
:1013400090E00E94793620E034E244E759E40E94BC
:10135000B4376B017C018091220E9091230EA091F5
:10136000240EB091250EA5019401281B390B4A0BC0
:101370005B0BCA01B9010E9479369B01AC01C70120
:10138000B6010E94E0356093260E7093270E80937D
:10139000280E9093290EFF90EF90DF90CF90BF9092
:1013A000AF909F908F9008958093340E90917C0021
:1013B000907F90937C0020917C00982F9770922BC7
:1013C00090937C00883020F080917B00886003C07F
:1013D00080917B00877F80937B00089591E09093BC
:1013E000330E1092360E1092350E1092320E2BE103
:1013F00039E03093310E2093300E0C94D409809153
:10140000320E8F5F8093320E9091330E891302C09B
:101410001092320E8091320EE091350EF091360E20
:10142000E80FF11D80810E94D4090C941B091F93C1
:10143000CF93DF93C091320E9091330E9230A0F093
:1014400081E08C0F891719F08093320E02C0109240
:10145000320E8091320EE091350EF091360EE80F8B
:10146000F11D80810E94D40910917800D0917900FB
:1014700040913A0E50913B0E2091380E3091390E2A
:1014800042175307F0F48091370E811102C00E9479
:101490001509612F70E07D2B80917C0085FF02C0D3
:1014A000672F7727E0912E0EF0912F0E8C2F199534
:1014B00080913A0E90913B0E019690933B0E809353
:1014C0003A0EDF91CF911F910895CF93DF93D09182
:1014D0007C00C0917B0080917C00807E80937C00AA
:1014E00080917C008E6180937C0080917B00877F5F
:1014F00080937B0063E070E080E090E00E94652DC7
:1015000080917A00806480937A0080917A0086FDD1
:10151000FCCF6091780080917900D0937C00C093DB
:101520007B0070E0782B882777FD8095982F0E94AC
:101530007B369B01AC0160E070E889E894E40E948E
:10154000E035DF91CF9108951F920F920FB60F9261
:1015500011240BB60F922F933F934F935F936F938A
:101560007F938F939F93AF93BF93EF93FF93E091FC
:10157000300EF091310E1995FF91EF91BF91AF911F
:101580009F918F917F916F915F914F913F912F919B
:101590000F900BBE0F900FBE0F901F9018951F92CB
:1015A0000F920FB60F9211240F900FBE0F901F9045
:1015B000189581E00C9431088FE194E008958BE157
:1015C00094E0089584E094E008958AEE93E008950D
:1015D00084EE93E0089581EB93E0089584E492E033
:1015E0000895CF93DF93EC0161E088E00E944D2FD6
:1015F000CC5AD74F1882DF91CF910895DC01ED913D
:10160000FC910190F081E02D19948EBD00000DB485
:1016100007FEFDCF8EB50895CF93DF93EC0161E017
:101620000E94B11A89E993E099838883CE5AD74FF3
:1016300018821982DF91CF91089529E933E0FC01E6
:10164000318320830C94211B1F93CF93DF931F9230
:101650001F92CDB7DEB7162F60E0812F2A83498312
:101660000E944D2F4981842F0E94050B2A81822FD1
:101670000E94050B61E0812F0F900F90DF91CF91B9
:101680001F910C944D2F643040F4242F2095462F49
:1016900065E30E94240B80E0089585E00895AF92F1
:1016A000BF92CF92DF92EF92FF920F931F93CF934F
:1016B000DF931F921F92CDB7DEB78C01D12C7C0136
:1016C0008BEBE81A87EFF80A5801E5E9AE1AE7EF65
:1016D000BE0A2D2D30E0F801EB5AF74F8081918141
:1016E00068E270E00E94763926173707E0F588E057
:1016F000C82EC982F7012081318180E090E040E06E
:10170000B801620F731FE42FF0E0DB01A80FB91FCF
:10171000A259BF4F41E050E0AC91AA2311F040E044
:1017200050E0082E02C0440F551F0A94E2F74E0FF6
:101730005F1F01968830910531F74A83285F3F4F3C
:10174000F70131832083F50160816D0D22E0AE0148
:101750004F5F5F4FC8010E940323C394FDE0CF1287
:10176000C8CFD394B6CF0F900F90DF91CF911F9138
:101770000F91FF90EF90DF90CF90BF90AF900895C2
:101780008F929F92AF92BF92CF92DF92EF92FF9291
:101790000F931F93CF93DF9300D0CDB7DEB78C01AB
:1017A000912C7C018BEAE81A87EFF80A98E2C92E9F
:1017B000D12C5801E5E9AE1AE7EFBE0A88248A94D5
:1017C000292D30E0F70180819181B6010E947639A0
:1017D00026173707A0F438E039838A82F501608143
:1017E000690D22E0AE014F5F5F4FC8013B830E944D
:1017F00003233B813F5F3D3079F79394E1CF0F9016
:101800000F900F90DF91CF911F910F91FF90EF906C
:10181000DF90CF90BF90AF909F908F900895EF9200
:10182000FF920F931F93CF93DF938C017C018BE981
:10183000E81A87EFF80AC4E6D0E0F70141917F018A
:10184000BE01C8010E94AC1A2196C23BD105A9F77E
:1018500060E0C801DF91CF911F910F91FF90EF9051
:101860000C94320C7F928F929F92AF92BF92CF9244
:10187000DF92EF92FF920F931F93CF93DF93EC01D0
:10188000762E7C012BE9E21A27EFF20A04E610E03B
:101890004701E881F9810088F189E02DB801CE0186
:1018A0001995F70181937F010F5F1F4F023B1105CF
:1018B00081F7F401808191819E012959374F5901A7
:1018C000FE01E759F74F6F01295C3F4F7901892BE2
:1018D000E1F4F50180819181892BB9F4F6018081D1
:1018E0009181892B91F4399780819181A281B38173
:1018F000F90180839183A283B38381E090E0F601B4
:1019000091838083CE010E940F0CF401808191812C
:10191000892BB9F4F50180819181892B91F4F6012D
:1019200080819181019769F480E2FE01E559F74FCA
:10193000808382E090E0F60191838083CE010E9453
:101940000F0CF40180819181892BE9F4F5018081EC
:101950009181892BC1F4F60180819181029799F4DC
:1019600080E090E0A0EAB0E4FE01EE55F74F8083FE
:101970009183A283B38383E090E0F6019183808317
:10198000CE010E940F0CF401808191818E010A55D5
:10199000174F892BA1F4F50180819181892B79F46E
:1019A000F60180819181039751F4F801108284E05F
:1019B00090E0F60191838083CE010E940F0CF40128
:1019C00080819181892B79F5F50180819181892B25
:1019D00051F5F60180819181049729F580E090E02E
:1019E000A8ECB2E4FE01E955F74F80839183A2830E
:1019F000B38380E090E4ACE9B6E4349680839183CD
:101A0000A283B38380E090E0A8E4B3E434968083BB
:101A10009183A283B38385E090E0F6019183808374
:101A2000CE010E940F0CF40180819181892B69F411
:101A3000F50180819181892B41F4F60180819181AA
:101A4000059719F4772009F4A5C0F40111821082DA
:101A5000F5011182108285E090E0F6019183808388
:101A60008CE7FE01E359F74F808380E7319780834D
:101A700080E09CE7A2E9B8E4329680839183A28358
:101A8000B38380E092E2A1EAB8E434968083918344
:101A9000A283B38380E090E0AAE7B4E43C9680831D
:101AA0009183A283B38380E090E4ACE1B6E4349602
:101AB00080839183A283B38380E090E5A3ECB7E4B5
:101AC000349680839183A283B38380E094E2A4E779
:101AD000B9E4349680839183A283B3837497108290
:101AE0001182128213823496108211821282138222
:101AF0004FEF56EE6BE57EE274964083518362832E
:101B00007383349640835183628373833496408316
:101B100051836283738334964083518362837383DA
:101B2000FA9780819181A281B381F70180839183AB
:101B3000A283B38380E2FE01E559F74F808380E002
:101B400090E0A0EAB0E4F79680839183A283B38308
:101B5000F801108280E090E0A8ECB2E4FE01E955C3
:101B6000F74F80839183A283B38380E090E4ACE954
:101B7000B6E4349680839183A283B38380E090E0BF
:101B8000A8E4B3E4349680839183A283B383CE0127
:101B90000E940F0CF701C080D180E280F38020E02A
:101BA00030E0A901C701B6010E94DC35FE01EC5905
:101BB000F74F18161CF081E0808309C0DE01A05A9F
:101BC000B74FCD92DD92ED92FC9213971082F801FF
:101BD0008081882311F042E001C041E060E0CE0145
:101BE000DF91CF911F910F91FF90EF90DF90CF90F9
:101BF000BF90AF909F908F907F900C949C238F927A
:101C00009F92AF92BF92CF92DF92EF92FF92CF93CB
:101C1000DF93EC016A017B01FC01E05AF74F808001
:101C20009180A280B38020E030E0A901C701B60115
:101C30000E94DC3587FD45C0FE01E155F74F20814C
:101C4000318142815381C701B6010E946B3718165A
:101C5000C4F1A5019401C701B6010E94E0359B01C2
:101C6000AC010E94653523EF34E045EB5FE30E9451
:101C7000B43720E030E040E85EE30E94B43720E073
:101C800030E04FE753E40E94B4374B015C0120E0A1
:101C900030E04FE753E40E946B37181694F0FE01D2
:101CA000E85AF74FC082D182E282F382C501B401C3
:101CB0000E944D36462F63E0CE010E94430B80E028
:101CC00001C088E0DF91CF91FF90EF90DF90CF903F
:101CD000BF90AF909F908F900895FC01E05AF74F0E
:101CE000408351836283738338974081518162813D
:101CF000738120E00C94FF0D5F926F927F928F9220
:101D00009F92AF92BF92CF92DF92EF92FF920F938A
:101D10001F93CF93DF931F921F92CDB7DEB76C0155
:101D2000CB01542E68E270E00E9476397B014C01B1
:101D30005C0123E0B694A7942A95E1F73B01772450
:101D400086010559174FF8018081B301680F711D95
:101D500089EC9DE00E94C405B501685F7F4F89EC66
:101D60009DE00E94FE0A89EC9DE00E94D905F801E1
:101D70008081B301680F711D41E050E089EC9DE066
:101D80000E94B70589EC9DE00E940605892B41F170
:101D9000F82DF7708F2E88E08A0D898389EC9DE0FD
:101DA0000E940E0541E050E060E070E004C0440F86
:101DB000551F661F771F8A94D2F7511002C0482B17
:101DC00002C0409548234A83F80160816E0D22E0ED
:101DD000AE014F5F5F4FC6010E94032380E001C048
:101DE00081E00F900F90DF91CF911F910F91FF90A5
:101DF000EF90DF90CF90BF90AF909F908F907F90AB
:101E00006F905F900895AF92BF92CF92DF92EF9262
:101E1000FF920F931F93CF93DF93CDB7DEB76297F7
:101E20000FB6F894DEBF0FBECDBF8C010E941C1A06
:101E300061E088E00E944D2F61E088E00E94142F4D
:101E400061E085E30E94142F61E089E00E94142F75
:101E500060E089E00E944D2FF801E05AF74F80E0E2
:101E600090E0A6E9B3E480839183A283B38360E02A
:101E7000C8010E94320C680183E9C81A87EFD80AAA
:101E8000D6014C9161E0C8010E94430B5801B4E9AE
:101E9000AB1AB7EFBB0AF501408162E0C8010E94AE
:101EA000430B40E063E0C8010E94430BD801ED9171
:101EB000FC910680F781E02DC8011995BC0185E8E9
:101EC0009EE00E9419326AE472E085E89EE00E947A
:101ED0001932D801ED91FC910484F585E02DC801FB
:101EE0001995BC0185E89EE00E9426326DE472E0FF
:101EF00085E89EE00E941932D801ED91FC910284A0
:101F0000F385E02DC8011995BC0185E89EE00E948B
:101F1000263260E672E085E89EE00E941932780180
:101F2000BBE9EB1AB7EFFB0AF701608171814AE068
:101F300050E085E89EE00E94263363E973E085E87F
:101F40009EE00E941932F801E959F74F60817181D2
:101F50004AE050E085E89EE00E94263363E973E0A2
:101F600085E89EE00E941932F801E759F74F608139
:101F700071814AE050E085E89EE00E942C3367E7DB
:101F800072E085E89EE00E9419324AE050E0D501F7
:101F90006C9185E89EE00E940F3367E872E085E867
:101FA0009EE00E9419324AE050E0F601608185E827
:101FB0009EE00E940F33B12CA12CA1E0BA1202C006
:101FC00084E001C082E0A81608F0B9C04AE06A2D9A
:101FD000CE0101960E94DD344AE06B2DCE010D96B4
:101FE0000E94DD346DE872E0CE0107960E94AF34A6
:101FF000BE01635F7F4FCE0107960E9436356FE8C2
:1020000072E00E944935BE016F5F7F4F0E943635F6
:1020100063EA72E00E944935BC0185E89EE00E94B7
:102020000B32CE0107960E944134CE010D960E94DC
:102030004134CE0101960E944134CA2CD12CF1E0EA
:10204000BF1661F0F601EE0FFF1FEE0FFF1FEE0D42
:10205000FF1D41855285638574850BC0F601EE0F27
:10206000FF1FEE0FFF1FEE0DFF1D418D528D638D83
:10207000748D22E030E085E89EE00E942F344AE033
:102080006A2DCE0101960E94DD344AE06B2DCE010F
:102090000D960E94DD346DE872E0CE0107960E9435
:1020A000AF34BE01635F7F4FCE0107960E94363585
:1020B00066EA72E00E944935BE016F5F7F4F0E9461
:1020C000363563EA72E00E944935BC0185E89EE03E
:1020D0000E940B32CE0107960E944134CE010D962C
:1020E0000E944134CE0101960E94413481E0F60104
:1020F000EE0FFF1FEE0FFF1FEE0DFF1DB81629F0AC
:10210000618972898389948904C061A572A583A5B8
:1021100094A525EA34ED48E653E50E94B437AB01B7
:10212000BC0122E030E085E89EE00E942D346BEB9C
:1021300072E085E89EE00E942632A3943ECFB394DD
:10214000B2E0BB1239CF6FEB72E085E89EE00E94EF
:102150001932F801E559F74F4AE050E0608185E80F
:102160009EE00E940F3364E173E085E89EE00E94E8
:102170001932F801E256F74F408151816281738133
:1021800022E030E085E89EE00E942F346CED72E0A2
:1021900085E89EE00E941932F801EE55F74F408124
:1021A00051816281738122E030E085E89EE00E94E7
:1021B0002F346FEE72E085E89EE00E941932F8013C
:1021C000EA55F74F608170E04AE050E085E89EE014
:1021D0000E94E33268E073E085E89EE00E941932D5
:1021E000F801EC59F74F608170E04AE050E085E873
:1021F0009EE00E94E33264E273E085E89EE00E9484
:102200001932F801E955F74F40815181628173819C
:1022100022E030E085E89EE00E942F346CE373E01A
:1022200085E89EE00E941932F801E555F74F40819C
:1022300051816281738122E030E085E89EE00E9456
:102240002F3464E573E085E89EE00E941932F801BE
:10225000E155F74F408151816281738122E030E086
:1022600085E89EE00E942F3462960FB6F894DEBF98
:102270000FBECDBFDF91CF911F910F91FF90EF90D7
:10228000DF90CF90BF90AF9008958F929F92AF92C2
:10229000BF92CF92DF92EF92FF921F93CF93DF9383
:1022A000EC016A017B01FC01E955F74F24EA30E7B4
:1022B0004DE75FE360817181828193810E94B43731
:1022C0009B01AC01C701B6010E946B3787FDAFC00F
:1022D0002EEA37E441E85FE3FE01E555F74F608100
:1022E0007181828193810E94B4379B01AC01C70147
:1022F000B6010E94DC3518160CF499C020E030E0DD
:1023000048E452E4C701B6010E94B4374B015C01B6
:1023100020E030E04AE754E40E94DC3587FD87C0C6
:1023200020E233EB41E85CE4C501B4010E946B3765
:1023300018160CF47CC020E030EE41E854E4C501EE
:10234000B4010E94E0350E94743726EA3BE944E577
:1023500050E40E94B4372EE83DE543E150E40E948A
:10236000E0350E944D36162F70E0665F7F4F88275C
:1023700077FD8095982F0E947B369B01AC0160E031
:1023800070E080E090E40E94173820E030EE41E0F9
:1023900055E40E94B437A50194010E94E0359B01E9
:1023A000AC0160E070E080E095E40E9464354B0190
:1023B0005C0120E030E0A9010E946B3720E030E0B2
:1023C00040E05FE387FD05C0C501B4010E946535AB
:1023D00004C0C501B4010E9464350E9448365B0107
:1023E000CB0166E0969587956A95E1F71295107F87
:1023F000182B67E189EC9DE00E94BA05612F89ECFA
:102400009DE00E945E056A2D660F660F626089EC92
:102410009DE00E945E0589EC9DE00E94D905C45AAA
:10242000D74FC882D982EA82FB8280E001C088E06F
:10243000DF91CF911F91FF90EF90DF90CF90BF90F1
:10244000AF909F908F9008954F925F926F927F927E
:102450008F929F92AF92BF92CF92DF92EF92FF92B4
:102460000F931F93CF93DF931F921F92CDB7DEB7C9
:102470008C01FC01EC5AF74F81E0808360E088E03A
:102480000E944D2F64EF71E080E090E00E94652D86
:1024900048018BEA881A87EF980AF40111821082AA
:1024A000E8E2AE2EB12CE12CF12CF8E16F2E77246E
:1024B0007A946801F5E9CF1AF7EFDF0A4E2C6982AA
:1024C0007A82F60160816E0D22E0AE014F5F5F4FB0
:1024D000C8010E940323F60160816E0D21E0AE0168
:1024E0004F5F5F4FC8010E94C01D89818F3F09F077
:1024F0004BC078E1572E59821A82F6016081640D33
:1025000022E0AE014F5F5F4FC8010E940323F60136
:102510006081640D21E0AE014F5F5F4FC8010E94F2
:10252000C01D8981811130C080EF850D89837A8239
:10253000F6016081640D22E0AE014F5F5F4FC8017C
:102540000E9403235394FDE15F12D5CF6FE773E040
:1025500085E89EE00E9419324AE050E0B70185E824
:102560009EE00E94DB3269E873E085E89EE00E940D
:102570002632F40120813181C50188972817390757
:1025800019F4F401B182A082FFEFEF1AFF0A88E28A
:10259000A80EB11CE8E0EE16F10409F08FCFF401AB
:1025A000608171814AE050E085E89EE00E94263318
:1025B0006AE673E085E89EE00E94263240E050E43F
:1025C0006CE176E4C8010E9445110F900F90DF91F5
:1025D000CF911F910F91FF90EF90DF90CF90BF9020
:1025E000AF909F908F907F906F905F904F900895E5
:1025F0002F923F924F925F926F927F928F929F9213
:10260000AF92BF92CF92DF92EF92FF920F931F9300
:10261000CF93DF93CDB7DEB7A9970FB6F894DEBF9F
:102620000FBECDBF2C016D8B2DB73EB73BA32AA3A8
:102630008C010D5A174F81E0D8018C93F201EC5AAE
:10264000F74F8081811103C0C2010E942412ED89DD
:102650008E2F90E0FC01E05AF109E735F10508F012
:10266000ABC6EE58FF4F920124593F4F19010C940D
:10267000AC39F201E05CF74F80819181892B09F040
:1026800098C642E050E0B2016B5A774FF5C0F201B4
:10269000E05CF74F80819181892B09F08AC6D901CE
:1026A0001C92912C92012B5A374F3A87298772013D
:1026B00035E9E31A37EFF30A88248394A92CB12C67
:1026C000E985FA858081918168E270E00E9476391F
:1026D000A616B70608F070C608E010E0D7018C9186
:1026E000B501680F711D89EC9DE00E94C405B80119
:1026F00089EC9DE00E94FE0A89EC9DE00E94D905CC
:10270000F7018081B501680F711D41E050E089EC4F
:102710009DE00E94B70589EC9DE00E940605892B8B
:1027200051F189EC9DE00E940E056C01612C712C29
:10273000DD24C601062C02C0959587950A94E2F720
:1027400081709927F1E08F27898341E050E0BE0135
:102750006F5F7F4FC2010E94271B2FEF621A720A20
:1027600038E06316710429F70F5F1F4F0D30110514
:1027700009F0B4CF02C0D1018C9293949FCFF201A3
:10278000E05CF74F20813181759680819181281717
:10279000390709F00EC6C2010E944F0B07C6F201AD
:1027A000E05CF74F80819181029709F002C6D20167
:1027B000AB5BB74F2D913C911197F901E259FF4F57
:1027C000E40DF51D808191812E5F3F4F2D933C9349
:1027D000F201EB5AF74F208131818217930708F0FD
:1027E0007BC068E270E00E9476398C016B01DD24C9
:1027F0007201F5E9EF1AF7EFFF0AD7018C91B601E4
:10280000680F711D89EC9DE00E94C405B80113E0BA
:10281000769567951A95E1F7685F7F4F89EC9DE0A3
:102820000E94FE0A89EC9DE00E94D905F701808193
:10283000B601680F711D41E050E089EC9DE00E94F7
:10284000B70589EC9DE00E940605892BC9F089EC4B
:102850009DE00E940E059927077002C09595879507
:102860000A95E2F781709927F1E08F27898341E08B
:1028700050E0BE016F5F7F4FC2010E94271B96C5CB
:1028800081E098C5F201E05CF74F80819181039768
:1028900009F08FC5D201AB5BB74F8D919C91119719
:1028A000FC01E259FF4FE40DF51D60817181F201D9
:1028B000E80FF91FE059FF4F408103968D939C93D9
:1028C000F201EB5AF74F808191816817790720F464
:1028D000C2010E947C0E4DC385E06CC5F201E05C34
:1028E000F74F80819181892B09F063C5D9011C9232
:1028F00089E00E94832FD3C4F201E05CF74F80810E
:102900009181019709F055C5359680819181D20159
:10291000A80FB91FA259BF4F6C9101969183808374
:10292000623020F489E00E944D2FDEC488E021C38C
:10293000F201E05CF74F80819181892B09F039C564
:10294000F901108244E050E0B201685A774FADC4FB
:10295000F201E05CF74F80819181049709F029C56D
:10296000D201AB5BB74F8D919C911197FC01E2595D
:10297000FF4FE40DF51D4081518162817381049602
:102980008D939C9321E0C2010E94FF0DF2C2F201DF
:10299000E05CF74F80819181892B09F00AC5F9012C
:1029A000108244E050E0B201645A774F7EC4F201D5
:1029B000E05CF74F80819181049709F0FAC4D2015D
:1029C000AB5BB74F8D919C911197FC01E259FF4F82
:1029D000E40DF51D408151816281738104968D93D0
:1029E0009C93C2010E944511C4C2F201E05CF74F02
:1029F00080819181019709F0DCC4D201AB5BB74FB4
:102A00008D919C911197F201E80FF91FE259FF4F48
:102A1000E08101968D939C93E23008F034C1BBE1D4
:102A2000EB9FF0011124E05CF14F81818983F90172
:102A3000108236C4F201E05CF74F808191810297E9
:102A400009F0B7C4359620813181A201420F531F8E
:102A5000DA01A259BF4F8C9111966C912E5F3F4FB6
:102A6000318320830E945823A5C4F201E05CF74F14
:102A700080819181019709F09CC435968081918174
:102A8000D201A80FB91FA259BF4F2C910196918373
:102A90008083223008F0F7C0D1011C92BBE12B9F4C
:102AA000F0011124E05CF14FE181C2018B59974F95
:102AB000F0E0EE0FFF1FEE0FFF1FE80FF91F2130B0
:102AC00029F081859285A385B4854BC2818D928D35
:102AD000A38DB48D46C2F201E05CF74F80819181F5
:102AE000059709F066C4359620813181D201A20F85
:102AF000B31FA259BF4F4C91C901019691838083A6
:102B0000D1011C924423E1F0413009F0BCC0409156
:102B10005C0ED901A159BF4FA40DB51D8D919D919A
:102B20000D90BC91A02D2B5F3F4F31832083F2018C
:102B300034E0439FE00DF11D1124E258F74F9BC094
:102B40004091410ED901A159BF4FA40DB51D8D91E2
:102B50009D910D90BC91A02D2B5F3F4F3183208321
:102B6000F20124E0429FE00DF11D1124E259F74FDC
:102B700082C0F201E05CF74F80819181019709F0FA
:102B800018C4359680819181D201A80FB91FA2592E
:102B9000BF4F2C91019691838083223008F073C03F
:102BA000F10110823BE1239FF0011124E05CF14F21
:102BB000E181C2018B59974FF0E0EE0FFF1FEE0F3E
:102BC000FF1FE80FF91F213029F081899289A3891D
:102BD000B489C7C181A592A5A3A5B4A5C2C1F201BC
:102BE000E05CF74F80819181059709F0E2C335964B
:102BF00020813181D201A20FB31FA259BF4F4C9146
:102C0000C901019691838083D1011C924423D9F09C
:102C10004130C9F540915C0ED901A159BF4FA40DB7
:102C2000B51D8D919D910D90BC91A02D2B5F3F4FB7
:102C300031832083F20134E0439FE00DF11D112424
:102C4000E257F74F18C04091410ED901A159BF4F2B
:102C5000A40DB51D8D919D910D90BC91A02D2B5F64
:102C60003F4F31832083F20124E0429FE00DF11DAC
:102C70001124EA58F74F80839183A283B383C20162
:102C80000E940F0C99C385E074C1F201E05CF74F1C
:102C900080819181892B09F08CC3F901108244E075
:102CA00050E0B201605A774F00C3F201E05CF74F89
:102CB00080819181049709F07CC3D201AB5BB74F4F
:102CC0008D919C911197FC01E259FF4FE40DF51D88
:102CD000C080D180E280F38004968D939C9320E0A5
:102CE00030E0A901C701B6010E946B371816CCF479
:102CF000F201EC59F74F8081882331F03497C0827C
:102D0000D182E282F38252C3D201A256B74FCD9252
:102D1000DD92ED92FC9213971082C2010E940F0C7B
:102D200045C388E047C3F201E05CF74F80819181A1
:102D3000892B09F03EC3D9011C9211E020E030E05C
:102D4000A901E25AFF4F60817181828193810E94C3
:102D5000DC3518160CF410E01983A2C2F201E05C15
:102D6000F74F80819181019709F023C335968081C7
:102D70009181D201A80FB91FA259BF4F2C91019682
:102D800091838083E75AFF4F222329F0108211821A
:102D9000128213820CC0D201A05AB74F8D919D911F
:102DA0000D90BC91A02D80839183A283B383C20137
:102DB0000E940F0C99C2F201E05CF74F0081118173
:102DC0000A30110508F4F5C2359680819181DC0145
:102DD000A259BF4FA40DB51D2D913D914D915C9110
:102DE00029873A874B875C879C012C5F3F4F318353
:102DF0002083DC01AE58BF4FA40DB51D6D907C90B3
:102E0000DC01AC58BF4FA40DB51D4D915D916D9186
:102E10007C91498B5A8B6B8B7C8BD201A80FB91F8D
:102E2000A858BF4FFC900B96918380830B301105FF
:102E300041F07096808191810B960817190709F06F
:102E4000B8C2FBE46F16F1E07F0608F091C020E005
:102E500030E04AE754E469857A858B859C850E9439
:102E6000E03520E030E44CE157E40E94B43720E044
:102E700030E040E855E40E94DC3587FF79C0D1019D
:102E80001C92F201EB5AF74F808191810B96081743
:102E9000190719F4C2010E944F0B0E94422D6D8741
:102EA0007E878F87988B88248394F1FE812CAA24B7
:102EB000A394F0FEA12CF201E45AF74FC080D18018
:102EC000E280F38009891A892B893C89A3016985ED
:102ED0007A858B859C850E941528F101808381115C
:102EE0006BC20E94422D2D853E854F855889621BFD
:102EF000730B840B950B0E9479366B017C01B30137
:102F000080E090E00E94793620E030E04AE754E427
:102F10000E94B4379B01AC01C701B6010E94E035A5
:102F20006D837E838F83988744E050E0BE016B5FA2
:102F30007F4FC2010E94271B44E050E067E57EE01E
:102F4000C2010E94271B44E050E062E77EE0C2011C
:102F50000E94271BF201E05AF74F80819181A281E4
:102F6000B38189839A83AB83BC8344E050E09AC1E8
:102F700081E0D1018C9320C2F201EB5AF74F2081FE
:102F80003181C9010B9675974081518148175907C6
:102F900009F00FC2EDB7FEB7F98FE88FD1011C928F
:102FA000F201EB5BF74F80819181DC01A259BF4FA9
:102FB000A40DB51D4D915D916D917C91498B5A8BFE
:102FC0006B8B7C8BAC014C5F5F4F51834083DC018A
:102FD000AE58BF4FA40DB51D6D907C90DC01AC5870
:102FE000BF4FA40DB51D4D915D916D917C914E8F9C
:102FF0005F8F68A379A3D201A80FB91FA858BF4F4C
:103000001C910B96918380836DB77EB7621B730B07
:103010000FB6F8947EBF0FBE6DBF8DB79EB70196F9
:103020009A878987DC01280F391F80E090E07F01B3
:10303000A217B307A1F0F70140815181B201640FDB
:10304000751F62597F4FFB0160814F5F5F4FF70132
:10305000518340836D93662359F30196E9CF869D92
:103060009001879D300D969D300D11242B343140F9
:1030700008F0D2C020E030E04AE754E469897A8958
:103080008B899C890E94E03520E030E44CE157E4D4
:103090000E94B43720E030E040E855E40E94DC357F
:1030A00087FFBAC0C2010E94C00B0E94422D6A8FE6
:1030B0007B8F8C8F9D8F212C312C92012B5A374F77
:1030C0003DA32CA3A20144595F4F5E874D87812FFA
:1030D0008270682F70E07FA36EA311701E8B1F8A11
:1030E000C201845A974F99A788A7ACA1BDA18D9121
:1030F0009C9128163906F0F5AD85BE858C9181111D
:1031000035C0E985FA85E20DF31D8081882371F1D0
:1031100041E0B101C2010E947C0E88248394EEA19B
:10312000FFA11E161F060CF0812CAA24A3942E8941
:103130003F89121613060CF0A12CA8A5B9A5CD90B5
:10314000DD90ED90FC900E8D1F8D28A139A1A3017B
:1031500069897A898B899C890E941528ED85FE856D
:10316000808340E0B101C2010E947C0EFFEF2F1A64
:103170003F0ABBCFED85FE858081811152C00E9440
:10318000422D2A8D3B8D4C8D5D8D621B730B840B04
:10319000950B0E9479366B017C01B30180E090E0D1
:1031A0000E94793620E030E04AE754E40E94B437C8
:1031B0009B01AC01C701B6010E94E0356D837E839F
:1031C0008F83988744E050E0BE016B5F7F4FC20160
:1031D0000E94271B44E050E067E57EE0C2010E94A8
:1031E000271B44E050E062E77EE0C2010E94271BFB
:1031F000F201E05AF74F80819181A281B3818983E6
:103200009A83AB83BC8344E050E0BE016F5F7F4F85
:10321000C2010E94271B05C081E0F201E459FF4F63
:103220008083488D598D0FB6F8945EBF0FBE4DBF99
:10323000C3C0F201E05CF74F80819181019709F0F2
:10324000B8C0D9011C92359680819181D201A80F16
:10325000B91FA259BF4F2C9101969183808361E0E1
:10326000211101C060E0C2010E94320CA5C0F20130
:10327000E05CF74F80819181892B09F09AC0F901B8
:10328000108288E00CC0F201E05CF74F80819181F0
:10329000892B09F08EC0D9011C9272968081898396
:1032A00041E050E0BE016F5F7F4FC2010E94271BCB
:1032B00083C0F201E05CF74F80819181019709F0B2
:1032C00078C0359680819181D201A80FB91FA2598B
:1032D000BF4F2C910196918380833D96222319F054
:1032E00081E0808301C01082F101108265C0F2018B
:1032F000E05CF74F80819181892B09F05AC0D90198
:103300001C92F801CBCFF201E05CF74F80819181F4
:10331000019709F04EC0359680819181D201A80FA6
:10332000B91FA259BF4F2C9101969183808322230C
:1033300021F081E0D8018C9339C0F801108236C0A9
:10334000F201E05CF74F80819181892B91F5F901C1
:10335000108288E00E94832F21E0892B09F020E071
:1033600029839ECFF201E05CF74F80819181019724
:1033700001F5359680819181D201A80FB91FA2591C
:10338000BF4F2C91019691838083222359F060E0F6
:1033900088E00E944D2F64EF71E080E090E00E9491
:1033A000652D04C061E088E00E944D2FD1011C9280
:1033B00003C086E0F10180836D89C2010E94E71D90
:1033C000F201E459FF4F80812AA13BA10FB6F89486
:1033D0003EBF0FBE2DBFA9960FB6F894DEBF0FBE3D
:1033E000CDBFDF91CF911F910F91FF90EF90DF90B4
:1033F000CF90BF90AF909F908F907F906F905F9095
:103400004F903F902F9008958627682F62956827E8
:10341000062E669566956025062E66956025677072
:10342000082E892F669507946795902D8627069418
:103430006795902586270895CF92DF92EF92FF92AD
:103440000F931F93CF93DF9300D01F92CDB7DEB7BA
:103450008C01CE0101966C019FE0E92EF12CD80180
:10346000ED91FC910088F189E02DB701C801199513
:10347000F60181936F01FFEFEF1AFF0A23E1E216D5
:10348000F10469F789819A81AB81BC818F3F9F4F9D
:10349000AF4FBF4FE1F149815A816B817C8126E0BA
:1034A00085E89EE00E94BE3089EC9DE00E949D056B
:1034B0000E94E0050E94650A08591F4FD8016D93CC
:1034C0007D938D939C93139764E374E085E89EE06D
:1034D0000E941932F801408151816281738122E09A
:1034E00030E085E89EE00E942D3466E474E085E8D3
:1034F0009EE00F900F900F900F90DF91CF911F9152
:103500000F91FF90EF90DF90CF900C94263280E0E7
:1035100092ECA1E0B0E089839A83AB83BC83CE01B7
:1035200001966C018FE0E82EF12CD6014D916D01D2
:10353000D801ED91FC910288F389E02DB701C80113
:103540001995BFEFEB1AFB0AE3E1EE16F10469F7F8
:10355000A2CFCB010C94193CCB01642F0C94213CDD
:1035600008958F929F92AF92BF92CF92DF92EF9287
:10357000FF920F931F93CF93DF9328E634E0FC0173
:1035800031832083E45BF74F608339971182108287
:1035900036961082399711821082359611821082E8
:1035A0003296118210823A961082E12CF12C00E0C2
:1035B00010E0C8010E94193CA82EC80107960E947D
:1035C000193C8E2CC0E0D0E0B12CA094B094C82E51
:1035D000D12CC094D094CE018E0D9F1DC697C4F4FB
:1035E000B5010C2E02C0759567950A94E2F76170DB
:1035F0009C2E980C892D0E94142FB6010C2E02C00F
:10360000759567950A94E2F76170892D0E944D2F98
:103610002196C830D105F9F60F5F1F4FE8E0EE0E96
:10362000F11C0730110529F6DF91CF911F910F9101
:10363000FF90EF90DF90CF90BF90AF909F908F90D2
:10364000089528E634E0FC013183208308951F9318
:10365000CF93DF93FB0120E030E0DC01A95BB74FA3
:103660002417350781F01191BC01620F731FCD91B2
:10367000DC9111976C0F7D1FEB01C259DF4F18834E
:103680002F5F3F4FEDCF8D919C911197820F931F2C
:103690008D939C93DF91CF911F910895CF93DF93EA
:1036A000FC01E359FF4F6081DC01A459BF4F67FF64
:1036B0000EC020E8260F208322E02C93DC01ED9140
:1036C000FC910488F589E02DDF91CF911994FC01DC
:1036D000E05CF74F2081318121503109820F931F27
:1036E000EC01C259DF4F88818C9331832083DF91B5
:1036F000CF9108956F927F928F929F92AF92BF92D7
:10370000CF92DF92EF92FF920F931F93CF93DF93AD
:10371000EC019C01275B374F59016D3721F481E0A3
:10372000F9018083AEC0F90180819E012D5B374F86
:103730007901882309F49EC080E26827F70180811F
:1037400091819E01245B374F4901FE01EE5BF74FEB
:103750006F018E01005C174F009759F4E55DF7404B
:103760006083F90180818823A9F18FEF9FEF339661
:103770001EC08130910581F467FF08C083E080831B
:10378000862F8F77F8011082818324C082E08083A6
:10379000862F90E0F8010BC08230910559F420810A
:1037A000233041F4F80180819181860F911D91832E
:1037B000808310C0F6012081821B9109F8012081CD
:1037C00031818217930730F48C0F9D1FFC01E25961
:1037D000FF4F6083F4018081882369F03E01F1EBA3
:1037E0006F1AF7EF7F0AF301808191810E94041A1A
:1037F000F30191838083F701208131812F5F3F4F57
:1038000031832083F4014081F6015081F8018081E9
:103810009181850F911D840F911D840F911D281793
:10382000390711F5F70111821082FE01EB5BF74FAA
:1038300011821082329611821082442329F0389628
:1038400080819181892B19F4CE010E944E1BFE01CB
:10385000E55BF74F8081882339F0C359DF4F8058EB
:103860009881981301C01082F5018081882349F066
:10387000108207C06E3709F061CFF7011182108204
:10388000F3CFDF91CF911F910F91FF90EF90DF90D9
:10389000CF90BF90AF909F908F907F906F90089542
:1038A000FF920F931F93CF93DF931F92CDB7DEB795
:1038B0008C01F62E88E0898369816837E8F589EC08
:1038C0009DE00E94BA0589EC9DE00E94D905811116
:1038D00030C0FF2041F041E050E0BE016F5F7F4FFC
:1038E000C8010E94271B69E474E085E89EE00E94FD
:1038F00019324AE050E0698185E89EE00E94083371
:103900006DE574E085E89EE00E94193240E150E0E8
:10391000698185E89EE00E94083362E674E085E8EC
:103920009EE00E94263261E070E080E090E00E941C
:10393000652D89818F5FBFCF0F90DF91CF911F9150
:103940000F91FF900895CF93C62F83E8860F8230A2
:1039500090F46DE785E89EE00E945930E091850E75
:10396000F091860E60E26C270190F081E02D85E8F1
:103970009EE0CF91199485E89EE0CF910C94593048
:103980008F929F92AF92BF92CF92DF92EF92FF926F
:103990000F931F93CF93DF93EC018C017C0120ECFC
:1039A000E21A27EFF20A845B974F6C015E0193EBFA
:1039B000A91A97EFB90AF7018081918198012C1B10
:1039C0003D0BF60128173907C8F480819801225968
:1039D0003F4F4901882351F0F9016081F501808151
:1039E00091810E94041AF50191838083F401608122
:1039F000CE010E94A31C0F5F1F4FDDCF8081882363
:103A000069F08E01035B174FF8016081CE010E94BF
:103A1000A31CF8016181CE010E94A31CF701118251
:103A20001082C95BD74F19821882DF91CF911F9105
:103A30000F91FF90EF90DF90CF90BF90AF909F904D
:103A40008F900895BF92CF92DF92EF92FF920F93E3
:103A50001F93CF93DF93EC01B62E8C01005C174FC0
:103A6000FC01E95BF74F80819181F80191838083AC
:103A70006EE785E89EE00E9459307E01F4EBEF1A74
:103A8000F7EFFF0AF7018081882381F08FEF9FEF26
:103A90006E01F3EBCF1AF7EFDF0AF6019183808313
:103AA0006B2D0E94041AF601918380836B2DCE0149
:103AB0000E94A31CF80160817181F7018081603848
:103AC000710580F4882371F17E01F3EBEF1AF7EFB3
:103AD000FF0AF701808191810E94041AF701918306
:103AE000808320C08823B1F07068672F7E01F3EBDC
:103AF000EF1AF7EFFF0AF701808191810E94041A03
:103B0000F70191838083F80160810E94041AF70114
:103B100091838083F801808191819068692FCE0123
:103B20000E94A31CF8016081CE01DF91CF911F910B
:103B30000F91FF90EF90DF90CF90BF900C94A31C5B
:103B40000F931F93CF93DF931F92CDB7DEB78C01F6
:103B5000698341E050E0BE016F5F7F4F0E94271BE9
:103B6000F801E359FF4F6081C8010E94221DC8017E
:103B70000E94C01C0F90DF91CF911F910F9108956B
:103B8000FF920F931F93CF93DF938A01422F89EC0B
:103B90009DE00E94B405C0E089EC9DE00E9406050E
:103BA000892B71F0FF24F394FC0EC8018C0F911D3A
:103BB000EC0189EC9DE00E940E058883CF2DECCFAF
:103BC0008C2FDF91CF911F910F91FF9008956F92ED
:103BD0007F928F929F92AF92BF92CF92DF92EF929D
:103BE000FF920F931F93CF93DF93CDB7DEB7699703
:103BF0000FB6F894DEBF0FBECDBF8C018DB69EB65A
:103C0000862F90E0FC01E058F109EF31F10508F052
:103C1000D5C4E753FF4F9801205C374F79010C94CE
:103C2000AC39D9018D919C91892BF1F4D801ED919A
:103C3000FC910280F381E02DC8011995FC010190EF
:103C40000020E9F7AF0141505109481B590BD80139
:103C5000ED91FC910280F381E02D62C0D9018D913C
:103C60009C91019709F49FC386E0F801E459FF4F46
:103C700086C4F90180819181892BB1F7D801ED913A
:103C8000FC910480F581E02DC8011995FC0101909B
:103C90000020E9F7AF0141505109481B590BD801E9
:103CA000ED91FC910480F581E02D3AC0F90180810D
:103CB0009181892BC9F6D801ED91FC910680F7819D
:103CC000E02DC8011995FC0101900020E9F7AF0132
:103CD00041505109481B590BD801ED91FC910680C8
:103CE000F781E02D1DC0F90180819181892B09F0B8
:103CF000BBCFD801ED91FC910084F185E02DC80186
:103D00001995FC0101900020E9F7AF0141505109DC
:103D1000481B590BD801ED91FC910084F185E02DF1
:103D2000C801498F588F1995498D588DBC0134C4ED
:103D3000F90180819181892B09F096CFD801ED910D
:103D4000FC910284F385E02DC8011995FC010190D6
:103D50000020E9F7AF0141505109481B590BD80128
:103D6000ED91FC910284F385E02DDACFF901808199
:103D70009181892B09F078CFD801ED91FC910484D1
:103D8000F585E02DC8011995FC0101900020E9F7A7
:103D9000AF0141505109481B590BD801ED91FC91DD
:103DA0000484F585E02DBCCFF90180819181892BB8
:103DB00009F05ACFD801ED91FC910684F785E02DEA
:103DC000C8011995FC0101900020E9F7AF014150AD
:103DD0005109481B590BD801ED91FC910684F785D8
:103DE000E02D9ECFF90180819181892B09F03CCF94
:103DF0004AE050E06EE774E0CFC3D9018D919C9109
:103E0000029709F031CFF801EB5BF74F2081318148
:103E1000A801420F531FDA01A259BF4F8C9111968E
:103E20006C912E5F3F4F318320830E94142FC2C3B9
:103E3000F90180819181029709F016CFF801EB5BBF
:103E4000F74F20813181A801420F531FDA01A25997
:103E5000BF4F8C9111966C912E5F3F4F3183208321
:103E60000E944D2FA7C3D9018D919C91019709F014
:103E7000FBCEF801EB5BF74F20813181D801A20F17
:103E8000B31FA259BF4F8C912F5F3F4F31832083C7
:103E90000E94832FF5C2F90180819181029709F078
:103EA000E3CEF801EB5BF74F20813181D801A20FFF
:103EB000B31FA259BF4F8C91A9014F5F5F4F518330
:103EC0004083D901A159BF4FA00FB11F6D917C91C3
:103ED0002D5F3F4F318320830E94FA2D6BC3C801B1
:103EE00084599F4F26E0DC012C93F701208131811A
:103EF0002230310508F462C3ADB6BEB6F801EB5B03
:103F0000F74F40815181D801A40FB51FA259BF4F6F
:103F10006C914F5F5F4F51834083462F50E0ADB7A8
:103F2000BEB7A41BB50B0FB6F894BEBF0FBEADBF96
:103F300011966D012230310511F4613031F04D5F81
:103F40005F4F2417350709F07BC07C2D3601262DE5
:103F5000271B261788F420813181A801420F531FA7
:103F600042595F4FDA014C912F5F3F4F31832083DD
:103F7000D3014D933D01EBCFD7012D913C912230E0
:103F80003105B1F020813181D901A259BF4FA00F75
:103F9000B11FED90FC902E5F3F4F31832083B9EE2F
:103FA000EB16B3E0FB0638F029E0FC01208348C0A3
:103FB000EE24E394F12CDC011C92F092390EE09295
:103FC000380EC80182599F4F90933D0E80933C0E4E
:103FD00080E0688F0E946008688D613029F4F601E6
:103FE00080810E94EE0912C0D092360EC092350E2A
:103FF0006093330E1092320E8FEF99E09093310E52
:104000008093300ED6018C910E94D4090E946409DD
:104010008091380E9091390E20913A0E30913B0EDE
:1040200028173907C9F70E948309EE0CFF1CF80115
:10403000E95BF74F80819181E80EF91EF182E08201
:104040000FB6F894BEBE0FBEADBEB8C2F9018081F6
:104050009181039709F008CED801AB5BB74F8D91E2
:104060009C911197FC01E259FF4FE00FF11F608115
:104070007181F801E80FF91FE059FF4F4081039665
:104080008D939C93D801ED91FC910288F389E02DEA
:10409000C80119958FC2F90180819181029709F0B9
:1040A000E3CDD801AB5BB74F8D919C911197FC018B
:1040B000E259FF4FE00FF11F6081718102968D93ED
:1040C0009C93D801ED91FC910088F189E02DC80105
:1040D0001995D6C1F90180819181029709F0C4CD6B
:1040E000F801EB5BF74F808191819801280F391F10
:1040F000D901A259BF4F6C911196EC900296918311
:104100008083CE0101960E944B07CE0101960E944A
:104110003907F12CBE01615F7F4FCE0101960E94ED
:104120006E07F394EF14B0F7980124593F4F7901CB
:10413000882309F422C248E050E0BE01615F7F4F4E
:10414000C8010E94271B16C2D9018D919C910B9723
:1041500009F08ACDD801AB5BB74F2D913C911197F7
:10416000A801420F531FFA01E259FF4F6081690114
:10417000EFEFCE1ADE0A1196DC92CE923E01FFE0FE
:104180006F0E711C80E090E0B62CA72CC00ED11EE3
:104190007601E80EF91E7EE6E70EF11CF701F080CD
:1041A000F301F1923F0101968830910589F7FA01F8
:1041B000E958FF4FF0803196E080255F3F4F2D9307
:1041C0003C93CE0101960E944B07CE0101960E94BE
:1041D00016066B2D7A2DCE0101960E94110740E044
:1041E0006F2DCE0101960E94B306F12CFE1409F446
:1041F000E1C1CE0101960E94F5068F8B41E050E0AF
:10420000BE01695E7F4FC8010E94271BF394EECF69
:10421000D9018D919C910B9709F026CDD801AB5B0C
:10422000B74F2D913C911197A801420F531FFA01EE
:10423000E259FF4F60816901EFEFCE1ADE0A119655
:10424000DC92CE923E01FFE06F0E711C80E090E0A8
:10425000B62CA72CC00ED11E7601E80EF91E7EE604
:10426000E70EF11CF701F080F301F1923F01019696
:104270008830910589F7FA01E958FF4FF0803196AF
:104280004081255F3F4F2D933C93CE010196498F8E
:104290000E944B07CE0101960E9416066B2D7A2DC7
:1042A000CE0101960E941107498D6F2DCE01019616
:1042B0000E94B3067FC1D9018D919C91029709F0AC
:1042C000D3CCF801EB5BF74F808191819801280FE7
:1042D000391FD901A259BF4F6C911196EC900296EB
:1042E000918380834E2D89EC9DE00E94B405F12CD2
:1042F00089EC9DE00E940605892B79F089EC9DE010
:104300000E940E05898341E050E0BE016F5F7F4F40
:10431000C8010E94271BF394EBCFF801E459FF4F2B
:10432000FE1409F44AC181E02AC1F901808191811A
:10433000892B09F499CC6801FBEBCF1AF7EFDF0A60
:10434000D6018D919C911197F801E80FF91FE25960
:10435000FF4F608101968D939C9389EC9DE00E94B4
:10436000BA05B12C2B2D30E0F701808191810197A6
:104370002817390798F4F60180819181F801E80F38
:10438000F91FE259FF4F60810196D6018D939C93EE
:1043900089EC9DE00E945E05B394E4CF89EC9DE03A
:1043A0000E94D90507C1F801EB5BF74F808191812D
:1043B000D801A80FB91FA259BF4F2C910196918324
:1043C00080838CB5211102C0806201C08F7D8CBDBD
:1043D000F1C0F90180819181019709F045CCF80184
:1043E000EB5BF74F80819181D801A80FB91FA259CB
:1043F000BF4F2C910196918380839CB5822F83704F
:104400009C7F892B8CBD8DB522FB222720F98E7FC6
:10441000822B8DBD18C0D9018D919C91019709F017
:1044200023CCF801EB5BF74F80819181D801A80F75
:10443000B91FA259BF4F2C910196918380838CB5EF
:10444000837F282B2CBDE95DF740B7C0F90180813F
:104450009181019709F008CCF801EB5BF74F80815F
:104460009181D801A80FB91FA259BF4F2C91019675
:10447000918380832EBD00000DB407FEFDCF8EB565
:10448000898341E050E0BE016F5F7F4F85C0D90155
:104490008D919C91892B09F0E7CBF801EA59FF4FE8
:1044A00040815181B8016E5F7F4F76C0F9018081F4
:1044B0009181892B09F0D8CB80912A0E90912B0EF7
:1044C000A0912C0EB0912D0E89839A83AB83BC836F
:1044D00044E050E0D8CFD9018D919C91049709F028
:1044E000C3CBD801AB5BB74F2D913C911197F9012C
:1044F000E259FF4FE00FF11F60817181828193814A
:104500002C5F3F4F2D933C930E94750853C0F901D7
:1045100080819181892B09F0A7CB0E9447089A835B
:10452000898342E050E0AFCFD9018D919C910297F1
:1045300009F09ACBD801AB5BB74F2D913C91119705
:10454000F901E259FF4FE00FF11F808191812E5F49
:104550003F4F2D933C939C0122503109F801E459BF
:10456000FF4F7F012630310540F40E943E0880E075
:104570000E940709D7011C9221C085E0F7018083C2
:104580001DC0D9018D919C91892B09F06DCB44E020
:1045900050E0B80168597F4FC8010E94271B0AC02C
:1045A000F90180819181892B09F05ECB61E0C8011E
:1045B0000E94501CF801E459FF4F10827801FCE67C
:1045C000EF0EF11CD7016C91C8010E94A01DF701EC
:1045D00080810FB6F8949EBE0FBE8DBE69960FB651
:1045E000F894DEBF0FBECDBFDF91CF911F910F9129
:1045F000FF90EF90DF90CF90BF90AF909F908F9003
:104600007F906F900895EF92FF920F931F93CF9337
:10461000DF931F921F92CDB7DEB7122F89EC9DE07A
:1046200049835A830E94BA054981042FE42E5A8196
:10463000F52E8E2D801B811740F4F70161917F01CB
:1046400089EC9DE00E945E05F4CF89EC9DE00F901F
:104650000F90DF91CF911F910F91FF90EF900C94ED
:10466000D905CF93DF93EC0185E89EE00E94AC2F43
:10467000181619064CF485E89EE00E94C52F682F95
:10468000CE010E947A1BF0CFDF91CF910895209147
:104690003A0E30913B0E8091380E9091390E2817CA
:1046A000390721F40E94830981E0089580E008958C
:1046B000CF93DF93D82FC62F811109C0662321F035
:1046C0006130B1F560E001C061E08DE01DC0813076
:1046D00079F5613049F030F0623061F0633041F5D6
:1046E00060E01DC061E01BC060E08CE00E944D2FC7
:1046F00061E019C060E08CE00E944D2F60E08BE02B
:104700000E944D2F61E08AE00E944D2F8BE1D89FDF
:10471000F0011124E05CF14FC18380E00AC08CE01D
:104720000E944D2F60E08BE00E944D2F60E0EBCFA8
:1047300085E0DF91CF9108959093790E8093780E64
:104740006093400E40935B0E60E078EB88E097E466
:104750000E94750861E08DE00E94142F61E08CE0FA
:104760000E94142F61E08BE00E94142F61E08AE028
:104770000E94142F83E00E943E086091410E80E069
:104780000E94582360915C0E81E00E94582320E033
:1047900032E03093560E2093550E80E090E0A0E07A
:1047A000B4E48093570E9093580EA093590EB09393
:1047B0005A0E41E04093500E3093710E2093700ECC
:1047C0008093720E9093730EA093740EB093750E37
:1047D00040936B0E08950F931F93CF93DF93AB011C
:1047E0009BE1899FE0011124C05CD14F9B012353C1
:1047F00031092A393340B0F09B81911110C09A8160
:104800009F5F9A836981662321F061500E9458233B
:1048100003C081E08093760E83E08B8337C0915094
:104820009B8334C08091770E882309F18D899E89FE
:10483000DB01A81BB90B9D010E94B23909891A89B5
:104840002B893C89060F171F281F391F098B1A8BCC
:104850002B8B3C8B88859985AA85BB85840F951FFA
:10486000A11DB11D88879987AA87BB870FC08C813E
:104870009D818617970718F47D836C8307C08E810E
:104880009F816817790710F47F836E83DF91CF9142
:104890001F910F91089580E00C94EB2381E00C941C
:1048A000EB232F923F924F925F926F927F928F9263
:1048B0009F92AF92BF92CF92DF92EF92FF920F93AF
:1048C0001F93CF93DF93CDB7DEB764970FB6F894FD
:1048D000DEBF0FBECDBF29013A01E986FA860B87FC
:1048E0001C871601BA8AA98A0E94B43720E030E0FA
:1048F0004AE754E40E94E0359B01AC010E94653513
:104900006B017C0120E030E0A9010E946B3720E0C0
:1049100030E040E05FE387FD05C0C701B6010E94BB
:10492000653504C0C701B6010E9464350E9448364F
:104930000E947B3620E030E040E05FE30E94B43725
:104940006D837E838F839887A30192016D817E8121
:104950008F8198850E94E03529853A854B855C8555
:104960000E94B4370E94C9350E944D368B01023037
:10497000110508F42DC3B80180E090E00E9479365B
:104980002D813E814F8158850E94E035A30192011F
:104990000E94B43769837A838B839C83D1016D93A2
:1049A0007D938D939C93139729853A854B855C85E0
:1049B0000E946B3718160CF408C3A3019201698199
:1049C0007A818B819C810E94E0356B017C019B0187
:1049D000AC0160E070E080E090E40E94E0354B01C3
:1049E0005C0120E030E0A9010E946B3720E030E05C
:1049F00040E05FE387FD05C0C501B4010E94653555
:104A000004C0C501B4010E9464350E9448360E946A
:104A10007B36A70196010E94B4379B01AC0160E090
:104A200070E080E090E40E94643520E030E0A9016D
:104A30000E946B3720E030E0A901181664F5C5012B
:104A4000B4010E946B3720E030E040E05FE387FD77
:104A500005C0C501B4010E94653504C0C501B4019B
:104A60000E9464350E9448360E947B36A701960159
:104A70000E94B4379B01AC0160E070E080E090E4FC
:104A80000E9464352DEC3CEC4CEC5DE30E94DC357F
:104A900087FD9BC22CC0C501B4010E946B3720E08A
:104AA00030E040E05FE387FD05C0C501B4010E942E
:104AB000653504C0C501B4010E9464350E944836C2
:104AC0000E947B36A70196010E94B4379B01AC017E
:104AD00060E070E080E090E40E9464352DEC3CECF6
:104AE0004CEC5DEB0E946B3718160CF46EC2A30100
:104AF0009201C301B2010E9465359B01AC0169813D
:104B00007A818B819C810E94DC3587FF61C129817C
:104B10003A814B815C81C301B2010E94E0356D870F
:104B20007E878F87988B1C8A1B8AEB89FC89BF0143
:104B300080E090E00E9479364B015C019B01AC0162
:104B40006D857E858F8598890E94643520E030E0F0
:104B500040E05FE30E94DC3518163CF42B893C8969
:104B60002F5F3F4F3C8B2B8BE0CF29813A814B81CC
:104B70005C81C501B4010E94B4379B01AC01C30143
:104B8000B2010E9464354B015C0120E030E0A901D4
:104B90000E946B37181624F0B7FAB094B7F8B094A7
:104BA000A501940169817A818B819C810E94E03505
:104BB00069837A838B839C839B01AC0160E070E006
:104BC00080E090E40E94E0354B015C0120E030E0A1
:104BD000A9010E946B3720E030E040E05FE387FDF1
:104BE00005C0C501B4010E94653504C0C501B4010A
:104BF0000E9464350E9448360E947B3629813A81A2
:104C00004B815C810E94B4379B01AC0160E070E095
:104C100080E090E40E94643520E030E0A9010E9429
:104C20006B3720E030E0A901181674F5C501B40116
:104C30000E946B3720E030E040E05FE387FD05C075
:104C4000C501B4010E94653504C0C501B4010E94CC
:104C500064350E9448360E947B3629813A814B8117
:104C60005C810E94B4379B01AC0160E070E080E0A1
:104C700090E40E9464352DEC3CEC4CEC5DE30E942A
:104C8000DC3587FF2FC0A1C1C501B4010E946B377D
:104C900020E030E040E05FE387FD05C0C501B401DE
:104CA0000E94653504C0C501B4010E9464350E94AC
:104CB00048360E947B3629813A814B815C810E9473
:104CC000B4379B01AC0160E070E080E090E40E94AA
:104CD00064352DEC3CEC4CEC5DEB0E946B37181608
:104CE0000CF473C120E030E0A901C701B6010E94B5
:104CF0006B3720E030E040E05FE387FD05C0C7018F
:104D0000B6010E94653504C0C701B6010E94643532
:104D10000E9448360E947B369B01AC01C701B60158
:104D20000E94643520E030E0A9010E946B3720E04A
:104D300030E0A901181634F5C701B6010E946B379F
:104D400020E030E040E05FE387FD05C0C701B60129
:104D50000E94653504C0C701B6010E9464350E94F7
:104D600048360E947B369B01AC01C701B6010E9408
:104D7000643527E137EB41ED58E30E94DC3587FFCE
:104D800027C023C1C701B6010E946B3720E030E085
:104D900040E05FE387FD05C0C701B6010E946535AD
:104DA00004C0C701B6010E9464350E9448360E94C3
:104DB0007B369B01AC01C701B6010E94643527E137
:104DC00037EB41ED58EB0E946B3718160CF4FDC021
:104DD00020E030E040E251E4C701B6010E94DC353A
:104DE00087FF76C020E030E0A901C701B6010E942C
:104DF0006B3720E030E040E05FE387FD05C0C7018E
:104E0000B6010E94653504C0C701B6010E94643531
:104E10000E9448360E947B369B01AC01C701B60157
:104E20000E94643520E030E0A9010E946B3720E049
:104E300030E0A901181634F5C701B6010E946B379E
:104E400020E030E040E05FE387FD05C0C701B60128
:104E50000E94653504C0C701B6010E9464350E94F6
:104E600048360E947B369B01AC01C701B6010E9407
:104E7000643527E137EB41ED58E30E94DC3587FFCD
:104E800027C0A3C0C701B6010E946B3720E030E005
:104E900040E05FE387FD05C0C701B6010E946535AC
:104EA00004C0C701B6010E9464350E9448360E94C2
:104EB0007B369B01AC01C701B6010E94643527E136
:104EC00037EB41ED58EB0E946B3718160CF47DC0A0
:104ED0002D813E814F815885C701B6010E94B437AC
:104EE0006B017C0120E030E0A9010E946B3720E0DB
:104EF00030E040E05FE387FD05C0C701B6010E94D6
:104F0000653504C0C701B6010E9464350E94483669
:104F10000E947B369B01AC01C701B6010E9464353B
:104F200020E030E0A9010E946B3720E030E0A901C9
:104F3000181634F5C701B6010E946B3720E030E047
:104F400040E05FE387FD05C0C701B6010E946535FB
:104F500004C0C701B6010E9464350E9448360E9411
:104F60007B369B01AC01C701B6010E94643527E185
:104F700037EB41ED58E30E94DC3587FF26C033C094
:104F8000C701B6010E946B3720E030E040E05FE3EC
:104F900087FD05C0C701B6010E94653504C0C70181
:104FA000B6010E9464350E9448360E947B369B0100
:104FB000AC01C701B6010E94643527E137EB41ED32
:104FC00058EB0E946B37181674F001501109CFCCC2
:104FD00020E030E040E05FE36D817E818F81988545
:104FE0000E946535ADCCA989BA890D931C9364964E
:104FF0000FB6F894DEBF0FBECDBFDF91CF911F91EA
:105000000F91FF90EF90DF90CF90BF90AF909F9067
:105010008F907F906F905F904F903F902F9008956A
:105020001092410E10925C0E08952F923F924F9273
:105030005F926F927F928F929F92AF92BF92CF9228
:10504000DF92EF92FF920F931F93CF93DF93CDB731
:10505000DEB7C65CD1090FB6F894DEBF0FBECDBF78
:10506000C354DF4F59834883CD5BD040C154DF4FD9
:10507000088319832A833B83CF5BD0402601370105
:10508000CF54DF4FA882C15BD0408092770EAA2018
:1050900031F1AAE7AA2EAEE0BA2EAE014B555F4F12
:1050A0006A01E12C10E4F12E0CE916E4A30192014F
:1050B0000E945124CB55DF4F688179818A819B8181
:1050C000C55AD0409B01AC010E946535CB55DF4FDE
:1050D000688379838A839B83C55AD04017C020E0B8
:1050E00030E040E05FE30E94B437EAE7AE2EEEE046
:1050F000BE2EDE01AB55BF4F6D01E12C10E4F12E49
:105100000CE117E4A30192010E94512480917A0ED0
:1051100090917B0E880F991F90937B0E80937A0E4F
:10512000CB55DF4F688179818A819B81C55AD040F8
:105130000E947508B091410EC554DF4FB883CB5B18
:10514000D04081E0C555DF4F8883CB5AD04061E025
:1051500080E00E945823E0915C0EC454DF4FE88346
:10516000CC5BD04083E0C455DF4F8883CC5AD0401D
:1051700063E081E00E9458238091400EFE01E755D4
:10518000FF4F808390915B0E918320917A0E309136
:105190007B0ECF54DF4F4881C15BD040442311F1D7
:1051A0003093390E2093380EF093360EE093350E7F
:1051B00092E09093330E1092320E2FEF39E030933D
:1051C000310E2093300E0E94D40987E19AE090932B
:1051D000310E8093300E8BEE93E290932F0E8093DE
:1051E0002E0E06C0369527953093390E2093380E33
:1051F000E090780EF090790EF701E859FF4F20E02B
:1052000030EC4FE754E460817181828193810E9488
:10521000E035C954DF4F688379838A839B83C75BFA
:10522000D0401E015DE9250E311C3E0182E1680E71
:10523000711CCE01815B9F4F2C01A9E04A0E511CCD
:10524000F1013896C355DF4FF983E883CD5AD0403A
:10525000CE54DF4F8883C25BD040CA54DF4F98835F
:10526000C65BD04087010B59174F9701245A374F1F
:10527000C155DF4F39832883CF5AD0408091400EEB
:10528000F801CE54DF4FA881C25BD040CA54DF4F33
:10529000B881C65BD0409EE401900D929A95E1F7EB
:1052A000882341F0813061F4F201208931894289FB
:1052B000538909C0D2012D913D914D915C9103C05C
:1052C00020E030E0A901F801DE0111969EE4019092
:1052D0000D929A95E1F7882341F0813061F4F30152
:1052E000C08CD18CE28CF38C09C0D301CD90DD90C1
:1052F000ED90FC9003C0C12CD12C760160E876E9DA
:1053000088E19BE40E94E03520E030E040E85FE384
:105310000E9465354B015C0120E836E948E15BE419
:10532000C701B6010E94B4379B01AC010E946535EC
:105330002BED3FE049E450E40E94B437C155DF4F04
:10534000A881B981CF5AD0402D913D914D915C916A
:105350000E94B4376B017C01A5019401C501B40121
:105360000E94B4374B015C01A7019601C701B60149
:105370000E94B4379B01AC01C501B4010E946535A0
:105380000E9467389B01AC01C954DF4F6881798165
:105390008A819B81C75BD0400E94B437F101619341
:1053A0007193819391931F01F4E06F0E711C24E0BF
:1053B000420E511CC355DF4F48815981CD5AD04010
:1053C0002416350609F05ACF1092760EC155DF4FDC
:1053D00019821882CF5AD040C155DF4F88819981F8
:1053E000CF5AD040C354DF4FA881B981CD5BD040A4
:1053F0008A179B0709F4D1C28091770E1092420E52
:105400001092430E81110BC0EFEFF3E0F093470EC3
:10541000E093460E1092450E1092440E10C010926A
:10542000480E1092490E10924A0E10924B0E109296
:10543000510E1092520E1092530E1092540E109262
:105440005D0E10925E0E882389F01092630E10920A
:10545000640E1092650E1092660E10926C0E1092F1
:105460006D0E10926E0E10926F0E0AC08FEF93E0C9
:105470009093620E8093610E1092600E10925F0EF8
:10548000CF54DF4F9881C15BD0409923E1F10E9456
:1054900064090E9447238823E1F30E94422DCE54E1
:1054A000DF4F688379838A839B83C25BD040A0915E
:1054B000770ECA54DF4FA883C65BD04080917A0E26
:1054C00090917B0EFE01E555FF4FC355DF4FF983E9
:1054D000E883CD5AD04000E41EE09E012F5F3F4F8D
:1054E0002901AE01415B5F4F1A01612C712C9C01B7
:1054F00040E050E0CD53DF4F288339834A835B83FC
:10550000C35CD0409AC08091400E0E94EE0947E1F2
:105510005AE05093310E4093300E8BE494E2909316
:105520002F0E80932E0E0E9464090E944723882329
:10553000E1F380915B0E0E94EE09A7E1BAE0B0931F
:10554000310EA093300EEEE4F4E2F0932F0EE093D0
:105550002E0E0E9464090E9447238823E1F39DCF09
:10556000CD53DF4F688179818A819B81C35CD040B4
:105570000E9479366B017C01D80151966D917D9125
:105580008D919C9154970E9479369B01AC010E94A9
:105590006535A70196010E94E0350E946738F20147
:1055A000608371838283938320E030E040E852E49B
:1055B0000E94B4379B01AC010E94653523EF34E0B3
:1055C00045EB5FE30E94B4370E944D36D1016D93E5
:1055D0007C93F301E05CF14F82818823B9F1F30100
:1055E000E05CF14F8281882309F4B3C08195C355F3
:1055F000DF4FA881B981CD5AD0408C93B1E0B08BF8
:10560000C355DF4FE881F981CD5AD0403196C3555B
:10561000DF4FF983E883CD5AD040FBE16F0E711C58
:10562000055E1F4F22E0220E311C34E0430E511C58
:1056300046E36416710409F496C0CA54DF4FF8813A
:10564000C65BD040FF2309F45AC08ACF80898111FC
:10565000C6CFF80180849184A284B3846485758563
:1056600086859785680D791D8A1D9B1D0E94793658
:105670002AE037ED43E25CE30E94B437A7019601CC
:105680000E94E0356B017C0124EA30E74DE75FE3DF
:10569000D80157966D917D918D919C915A970E945A
:1056A000B4379B01AC01C701B6010E9465356B019F
:1056B0007C01F801678B708F818F928F20E030E042
:1056C000A9010E946B3720E030E040E05FE387FDF6
:1056D00005C0C701B6010E94653504C0C701B60107
:1056E0000E9464350E944836D80156967C936E938A
:1056F0005597F80184869586A686B78670CFD8011F
:1057000014966D917C91159716968D919C91179793
:10571000681B790B96E0660F771F9A95E1F7F10108
:105720007183608380E090E00E94793623EF34E05B
:1057300045EB5FE30E94E03520E030E040E05CE3D1
:105740000E94B437D2016D937D938D939C931397F0
:1057500046CF8181C355DF4FA881B981CD5AD04052
:105760008C93108A4DCF0091780E1091790EF8012C
:10577000EC59F74F8081882309F470C08091420E64
:1057800081116CC03C97C080D180E280F38020E022
:1057900030E0A901C701B6010E946B3718160CF062
:1057A0005DC0C555DF4F8881CB5AD040EDE9F0E0B0
:1057B000EC0FFD1F24E08202E00DF11D1124208179
:1057C00031814281538169817A818B819C810E94E0
:1057D000B4374B015C0180915D0E8111B5C02D8104
:1057E0003E814F815885C954DF4F688179818A8114
:1057F0009B81C75BD0400E94B4379B01AC01C701BD
:10580000B6010E9465352B013C019B01AC01C5012D
:10581000B4010E9464356B017C0120E030E0A901F5
:105820000E946B37181624F0F7FAF094F7F8F0940A
:1058300020E030E040E05FE3F801EE55F74F608193
:105840007181828193810E94B4379B01AC01C701B1
:10585000B6010E946B3718160CF47AC001E41EE002
:10586000CE01815B9F4F6C01E12CF12CD6018D9113
:105870009C91893C9C4030F4F80160816F5F8E2DD3
:105880000E94582342E050E0B6018091780E90913A
:10589000790E0E94271B6BEA70E06C0F7D1F6E0D66
:1058A0007F1D41E050E08091780E9091790E0E942A
:1058B000271BFFEFEF1AFF0A22E0C20ED11C055E84
:1058C0001F4F32E0E316F10489F685E89EE00E945E
:1058D000AC2F181619060CF460C00E94422DCE544D
:1058E000DF4F288139814A815B81C25BD040621BD6
:1058F000730B840B950B0E9479366B017C0120E0C1
:1059000030E04AE754E4C154DF4F688179818A81ED
:105910009B81CF5BD0400E94B4379B01AC01C70193
:10592000B6010E94DC3587FDD8CFC155DF4F4881D5
:105930005981CF5AD0404F5F5F4FC155DF4F5983D8
:105940004883CF5AD04048CD20E030E0A90157CF5E
:10595000F801E05AF74F2081318142815381C5011E
:10596000B4010E94B437A30192010E94E0356B019B
:105970007C0120E030E040E85FE30E94DC3587FFF7
:1059800006C0C12CD12C80E8E82E8FE3F82EB70199
:10599000A601C8010E946D0E61CFC554DF4F68811A
:1059A000CB5BD04080E00E945823C454DF4F688115
:1059B000CC5BD04081E00E94582380E0CA53DF4F87
:1059C0000FB6F894DEBF0FBECDBFDF91CF911F9110
:1059D0000F91FF90EF90DF90CF90BF90AF909F908E
:1059E0008F907F906F905F904F903F902F90089591
:1059F0001F920F920FB60F9211242F933F938F9304
:105A00009F93AF93BF9380917D0E90917E0EA09156
:105A10007F0EB091800E30917C0E23E0230F2D3746
:105A200020F40196A11DB11D05C026E8230F0296A2
:105A3000A11DB11D20937C0E80937D0E90937E0E50
:105A4000A0937F0EB093800E8091810E9091820E74
:105A5000A091830EB091840E0196A11DB11D80937B
:105A6000810E9093820EA093830EB093840EBF910B
:105A7000AF919F918F913F912F910F900FBE0F90FB
:105A80001F9018953FB7F8948091810E9091820EE7
:105A9000A091830EB091840E26B5A89B05C02F3F20
:105AA00019F00196A11DB11D3FBF6627782F892FE0
:105AB0009A2F620F711D811D911D42E0660F771FA5
:105AC000881F991F4A95D1F70895CF92DF92EF92E0
:105AD000FF92CF93DF936B017C010E94422DEB017B
