:020000021000EC
:10E000000C9490F00C94AFF00C94AFF00C94AFF033
:10E010000C94AFF00C94AFF00C94AFF00C94AFF004
:10E020000C94AFF00C94AFF00C94AFF00C94AFF0F4
:10E030000C94AFF00C94AFF00C94AFF00C94AFF0E4
:10E040000C94AFF00C94AFF00C94AFF00C94AFF0D4
:10E050000C94AFF00C94AFF00C94AFF00C94AFF0C4
:10E060000C94AFF00C94AFF00C94AFF00C94AFF0B4
:10E070000C94AFF00C94AFF00C94AFF00C94AFF0A4
:10E080000C94AFF00C94AFF00C94AFF00C94AFF094
:10E090000C94AFF00C94AFF00C94AFF00C94AFF084
:10E0A0000C94AFF00C94AFF00C94AFF00C94AFF074
:10E0B0000C94AFF00C94AFF00C94AFF00C94AFF064
:10E0C0000C94AFF00C94AFF00C94AFF00C94AFF054
:10E0D0000C94AFF00C94AFF00C94AFF00C94AFF044
:10E0E0000C94AFF00C94AFF00C94AFF00C94AFF034
:10E0F0000C94AFF00C94AFF00C94AFF00C94AFF024
:10E100000C94AFF00C94AFF00C94AFF00C94AFF013
:10E110000C94AFF00C94AFF00C94AFF00C94AFF003
:10E1200011241FBECFEFD1E4DEBFCDBF12E0A0E0CF
:10E13000B2E0EEE6F9EE01E00BBF02C007900D92EF
:10E14000AC33B107D9F713E0ACE3B2E001C01D92E4
:10E15000A734B107E1F70E94BEF10C94B5F40C941A
:10E1600000F090913F02913019F0923041F0089503
:10E170009091C00095FFFCCF8093C60008959091C8
:10E18000C80095FFFCCF8093CE000895CF93982FC1
:10E190009595959595959595905D8F70C82F8A303A
:10E1A00044F4C05D892F0E94B1F08C2FCF910C9464
:10E1B000B1F0C95A892F0E94B1F08C2FCF910C94E5
:10E1C000B1F0CF92DF92EF92FF9280913F028130C7
:10E1D00061F1823031F080E0FF90EF90DF90CF90DE
:10E1E0000895C12CD12C76018091C80087FD16C0FE
:10E1F0008FEFC81AD80AE80AF80A81E8C81684E836
:10E20000D8068EE1E806F10478F3E0913C02F09143
:10E210003D0209958091C80087FFEACF8091CE002A
:10E22000FF90EF90DF90CF900895C12CD12C760114
:10E230008091C00087FD16C08FEFC81AD80AE80A7F
:10E24000F80A81E8C81684E8D8068EE1E806F104E9
:10E2500078F3E0913C02F0913D0209958091C00075
:10E2600087FFEACF8091C600FF90EF90DF90CF90BC
:10E270000895CF930E94E1F0C82F0E94B1F0C136FB
:10E2800034F4C0330CF0C0538C2FCF910895C75590
:10E290008C2FCF910895CF930E9439F1C82F0E94FF
:10E2A00039F190E1C99F800D1124CF9108952091FB
:10E2B0003F02815060F0213059F02230D1F7909127
:10E2C000C80097FFFCCF9091CE008150A0F7089531
:10E2D0009091C00097FFFCCF9091C600EACFCF93FA
:10E2E000C82F0E94E1F0803279F080913E028F5F6A
:10E2F00080933E02853011F0CF910895E0913C0269
:10E30000F0913D02CF91099484E10E94B1F08C2FED
:10E310000E94B1F080E1CF910C94B1F00E94E1F045
:10E32000803269F080913E028F5F80933E0285309B
:10E3300009F00895E0913C02F0913D02099484E1D6
:10E340000E94B1F080E10C94B1F015C0739A2FEFE8
:10E3500030E792E0215030409040E1F700C00000EB
:10E3600073982FEF30E792E0215030409040E1F772
:10E3700000C0000081508111E9CF0895F89480E831
:10E380008093610081E08093610084B7877F84BFC0
:10E3900080916000886180936000109260000000AE
:10E3A00022E020933F0280E190E09093CD008093A3
:10E3B000CC002093C80086E08093CA0088E1809357
:10E3C000C9006B9A86E0739A2FEF30E792E02150F4
:10E3D00030409040E1F700C000007398EFEFF0E7A5
:10E3E00022E0E150F0402040E1F700C00000982F0B
:10E3F00081509111E8CF0E94E1F08033C9F181335F
:10E40000D1F1803409F457C0813409F45DC08234FD
:10E4100009F46CC0853409F46FC0803549F1823548
:10E4200039F1813529F1853509F46CC0863509F457
:10E4300074C0843609F47AC0843709F4E0C08537A3
:10E4400009F431C1863709F44DC0813209F455C150
:10E4500080913E028F5F80933E02853061F6E091AD
:10E460003C02F0913D0209950E94E1F0803339F6BB
:10E470000E948EF1C0CF0E94E1F0803249F784E122
:10E480000E94B1F081E40E94B1F086E50E94B1F0F3
:10E4900082E50E94B1F080E20E94B1F089E40E941E
:10E4A000B1F083E50E94B1F080E50E94B1F080E117
:10E4B0000E94B1F0A0CF0E94E1F08638C8F20E941D
:10E4C000E1F00E948EF197CF0E94E1F0803809F4CC
:10E4D00055C1813809F40DC1823809F453C1883916
:10E4E00009F4F6C080E00E946FF185CF84E10E94BC
:10E4F00057F10E948EF17FCF85E00E9457F10E9474
:10E500008EF179CF0E94E1F0809340020E94E1F009
:10E51000809341020E948EF16ECF0E94E1F0803321
:10E5200009F4DAC083E00E9457F1DCCF0E94E1F0E9
:10E53000809343030E94E1F080934203809146035D
:10E540008E7F809346030E94E1F0853409F422C156
:10E550008091420390914303892BA1F062E4E62E5F
:10E5600062E0F62E00E010E00E94E1F0F7018193F6
:10E570007F010F5F1F4F8091420390914303081763
:10E58000190790F30E94E1F0803209F061CF809189
:10E59000460380FF18C18091400290914102880F8C
:10E5A000991F909341028093400220914203309141
:10E5B0004303232BE9F042E4E42E42E0F42E00E092
:10E5C00010E0F70161917F010E94A7F48091400261
:10E5D00090914102019690934102809340020F5F17
:10E5E0001F4F20914203309143030217130748F352
:10E5F00084E10E94B1F080E10E94B1F0FCCE0E9463
:10E60000E1F0809343030E94E1F080934203809104
:10E61000400290914102880F991F9093410280938C
:10E6200040020E94E1F0853409F4C7C0809146039E
:10E630008E7F809346030E94E1F0803209F0DBCEAA
:10E6400084E10E94B1F020914203309143032115EF
:10E650003105D1F100E010E080914002909141023B
:10E660000CC041FF9DC001969093410280934002EF
:10E670000F5F1F4F0217130738F54091460340FF05
:10E68000F0CF0E949FF40E94B1F0809140029091DF
:10E6900041020196909341028093400220914203EF
:10E6A00030914303E5CF0E94E1F0803209F0D0CEF3
:10E6B00084E10E94B1F08EE10E94B1F087EA0E94ED
:10E6C000B1F081E00E94B1F080E10E94B1F093CE00
:10E6D00083E00E946FF18FCE0E94E1F00E94E1F092
:10E6E000182F0E94E1F0112309F4DFC0113009F462
:10E6F0004DC081E00E946FF17ECE0E94E1F0813238
:10E7000009F079CE0E94E1F0813209F074CE6B9A63
:10E7100073981092440381E40E94B1F0E0914403A5
:10E72000EF5FE0934403F0E0EF5FFD4F80818111E4
:10E73000F3CF8AE00E94B1F08DE00E94B1F08AE34D
:10E740000E94B1F080E20E94B1F00E94E1F0182F27
:10E750000E94B1F0143709F4B9C0123709F4D9C0D6
:10E76000173709F4BFC0153709F4A7C01A3609F7DF
:10E77000E0913C02F0913D020995DBCF82E00E94DE
:10E780006FF139CE80E10E946FF135CE87EA0E94A9
:10E790006FF131CE80914603816080934603D8CEDD
:10E7A000FC0184910E94B1F0209142033091430317
:10E7B000809140029091410256CF80914603816042
:10E7C0008093460338CF8091410287FD72C010923A
:10E7D000450380E08BBF8091400290914102880FF9
:10E7E000991F90934102809340028091420380FFE1
:10E7F00009C0809142039091430301969093430393
:10E8000080934203F894F999FECF1127E0914002DA
:10E81000F0914102C2E4D2E080914203909143031F
:10E82000103091F40091570001700130D9F303E0EA
:10E8300000935700E8950091570001700130D9F31B
:10E8400001E100935700E895099019900091570055
:10E8500001700130D9F301E000935700E89513955A
:10E86000103898F011270091570001700130D9F34A
:10E8700005E000935700E8950091570001700130C2
:10E88000D9F301E100935700E8953296029709F019
:10E89000C7CF103011F00296E5CF112484E10E9419
:10E8A000B1F080E10E94B1F0A6CD8EE10E946FF13F
:10E8B000A2CD81E0809345038DCF0E94E1F00E94BC
:10E8C000B1F00E94E1F00E94B1F0F7CF639B05C068
:10E8D000739881E30E94B1F02CCF739A80E30E9479
:10E8E000B1F027CF0E94E1F00E94B1F00E944BF1FD
:10E8F000082F0E944BF1182F0E94E1F00E94B1F006
:10E900000E944BF1B02EA12CF501E10FF11D808387
:10E9100010CF0E94E1F00E94B1F00E944BF1082F4D
:10E920000E944BF1182F8DE30E94B1F0D02EC12C24
:10E93000F601E10FF11D80810E94C6F0FACEF9992F
:10E94000FECF92BD81BDF89A992780B50895262FF4
:10E95000F999FECF1FBA92BD81BD20BD0FB6F894C4
:0EE96000FA9AF99A0FBE01960895F894FFCF27
:10E96E008041546D656761424F4F54202F20444FB4
:10E97E0046204D65676131323852464131202D2097
:10E98E00284329204261726F626F2C20496E632EDC
:0CE99E00202D203132313132390A0D00B9
:040000031000E00009
:00000001FF
