:100000000C94E3010C9414020C9414020C9414024A
:100010000C9414020C9414020C9414020C94140208
:100020000C9414020C9414020C9414020C941402F8
:100030000C9414020C9414020C9414020C941402E8
:100040000C9414020C9414020C9414020C941402D8
:100050000C94CF0A0C9414020C9414020C941B2DD3
:100060000C9414020C9446310C947C310C941402C0
:100070000C9414020C94A40A0C9414020C94140210
:100080000C9414020C9414020C9414020C94F702B5
:100090000C9414020C9414020C9414020C9400049A
:1000A0000C9414020C9414020C9414020C94140278
:1000B0000C9414020C9414020C9414020C94140268
:1000C0000C9414020C9414020C9414020C94140258
:1000D0000C9414020C9414020C9414020C94140248
:1000E0000C94140259136713DF13EF1362148E1468
:1000F0009C14B814C814E714F714FC19FC1915154E
:100100003A1555158B15D9150F1665167516B316B4
:10011000CE1657199719A31963197919C019D2194D
:10012000FC19FC19FC19FC19FC19FC19FC19FC1927
:10013000FC19FC19FC19FC19FC19FC19FC19FC1917
:10014000FC19FC19FC19FC19FC19FC19FC19FC1907
:10015000FC19FC19FC19FC19FC19FC19FC19FC19F7
:10016000FC19FC19FC19FC19FC19FC19FC19FC19E7
:10017000FC19FC19FC19FC19FC19FC19FC19FC19D7
:10018000FC19FC19FC19FC19FC19FC19FB1639198E
:10019000DC17311E591E761E931ED61EB81EF41E85
:1001A0001D1F531F381F8F1F6B1F6B2046208A2077
:1001B0002821C420B5217B214E1E09222B22462254
:1001C0006722121F76228B22A722B422E122F0227C
:1001D000462E4B2E502E5A2E642EDD2E6E2E762E4F
:1001E0007E2E882E922E9C2EAB2EB52EDD2EBF2E6F
:1001F000C92ED32EFF2E022FF12EF52EFB2E392FD6
:10020000062F0A2F102F142F182F1E2F222F262FC4
:10021000392F2C2F302F342F08000000BE92244994
:10022000123EABAAAA2ABECDCCCC4C3E0000008028
:10023000BEABAAAAAA3E00000000BF000000803F9B
:100240000000000000084178D3BB4387D1133D195B
:100250000E3CC3BD4282AD2B3E68EC8276BED98F88
:10026000E1A93E4C80EFFFBE01C4FF7F3F000000CC
:10027000000007634236B79BD8A71A39685618AEF4
:10028000BAAB558C1D3CB7CC5763BD6DEDFD753ECB
:10029000F6177231BF000000803F00000A0B020910
:1002A0000C0D0E0807030401000000000000000010
:1002B000000000000000000000000000000000003E
:1002C00000000000000012111000000000000000FB
:1002D000000000000000000000000000000000001E
:1002E0000102102020080810204010204080020148
:1002F000020108040201010204081020408080402D
:10030000201008040201800402018040201008042B
:1003100002010804020101020408102040800102C9
:100320000408102040800505050507050808080891
:10033000020202020A0A080804040404010101017D
:100340000101010103030303030303030407070778
:100350000C0C0C0C0C0C0C0C02020202060606061D
:10036000060606060B0B0B0B0B0B0B0B00002000FD
:100370002300260029002C002F003200000100007D
:1003800003010601090100002200250028002B00BE
:100390002E003100340002010000050108010B01AC
:1003A00000002100240027002A002D003000330027
:1003B00001010000040107010A014B022D08D90ABE
:1003C0003328B0314F0211241FBECFEFD1E2DEBF80
:1003D000CDBF00E00CBF14E0A0E0B2E0EEEEF8E725
:1003E00000E00BBF02C007900D92A03BB107D9F708
:1003F0002FE0A0EBB4E001C01D92AF32B207E1F7ED
:1004000013E0C4ECD3E000E006C022970109FE012E
:100410000BBF0E94F639CA3BD10780E00807A9F755
:100420000E94E8020C94653C0C9400008091060246
:100430009091070201969093070280930602089517
:10044000089580EB94E00E945123809106029091E0
:10045000070269E170E00E949C39892BD9F48091F0
:10046000020D882389F08091030D81110BC0E0916A
:10047000B004F091B1040688F789E02D80EB94E098
:10048000199502C01092030D81E090E0909307024D
:1004900080930602089580EB94E00C940C0B80EBA3
:1004A00094E00C941D0B80E18093910010929000D9
:1004B00085E08093660D86E998E99093680D8093B6
:1004C000670D909397008093960085E1809391004B
:1004D00086E192E09093650D8093640D81E08093B6
:1004E000710080EB94E00E94060F69E072E08EE8F4
:1004F0009EE00E943F326FEF71E2605072404AE02E
:1005000050E08EE89EE00E9409336EE072E08EE8D3
:100510009EE00E943F3260EB74E0605072404AE01F
:1005200050E08EE89EE00E94093365E172E08EE8BB
:100530009EE00E943F326FE27FE0605B74404AE0E1
:1005400050E08EE89EE00E9409336BE172E08EE895
:100550009EE00E943F3260912B0F70912C0F61152D
:10056000710519F06F527F4002C060E070E04AE010
:1005700050E08EE89EE00E94093361E272E08EE86E
:100580009EE00E943F328DB79EB76FEF71E2681B0D
:10059000790B4AE050E08EE89EE00E94093368E261
:1005A00072E08EE89EE00E943F3280912B0F909186
:1005B0002C0F6DB77EB7009719F46F527F4002C0C1
:1005C000681B790B4AE050E08EE89EE00C940933FA
:1005D0000E94BB2D0E9420020E945302CFEFDFE257
:1005E0000E9421022097E1F30E94FF2FF9CF1F9272
:1005F0000F920FB60F9211240BB60F922F933F93C9
:100600004F935F936F937F938F939F93AF93BF931A
:10061000EF93FF93E091640DF091650D1995FF91B3
:10062000EF91BF91AF919F918F917F916F915F916A
:100630004F913F912F910F900BBE0F900FBE0F90D7
:100640001F9018951092D60D81E08093D40D1092D2
:10065000D30D61E084E10E94732F61E085E10E9487
:10066000732FE9EBF0E080818E7F808380818D7F26
:10067000808388E48093B80085E48093BC0008956B
:10068000413208F03FC09091D60D9111FCCF91E01E
:100690009093D60D2093D40D2FEF2093690D1092D7
:1006A000AE0D240F2093AD0D9093D50D9091D50DE7
:1006B000880F892B8093D50D8091D30D813041F423
:1006C0001092D30D8091D50D8093BB0085EC01C0B5
:1006D00085EE8093BC008091D60D8130E1F380914E
:1006E000AE0D841710F44091AE0D2FEA3DE0FB01F2
:1006F000D9018A2F821B841718F48D918193F9CF29
:10070000842F089580E008950F93413208F046C089
:100710009091D60D9111FCCF92E09093D60D00935D
:10072000D40D9FEF9093690D1092AE0D4093AD0DD7
:10073000FB016FEA7DE0DB019A2F961B941718F4FA
:1007400091919D93F9CF1092D50D9091D50D880F71
:10075000892B8093D50D8091D30D813041F4109277
:10076000D30D8091D50D8093BB0085EC01C085EE43
:100770008093BC00222321F08091D60D8230E1F3DA
:100780008091690D8F3F61F08091690D803251F049
:100790008091690D803341F483E007C081E005C09A
:1007A00080E003C082E001C084E00F9108956132CF
:1007B00098F42091D60D243089F460938B0DFC01C0
:1007C0008DE89DE0DC012A2F281B261718F42191C3
:1007D0002D93F9CF80E0089581E0089582E0089597
:1007E00085ED8093BC008091BC0084FDFCCF10920D
:1007F000D60D089585EC8093BC001092D60D089517
:100800001F920F920FB60F9211240BB60F922F93D7
:100810003F934F935F936F937F938F939F93AF9388
:10082000BF93EF93FF938091B900887F803609F4DE
:100830009CC068F5883209F45BC090F4803109F4FB
:1008400054C038F4882309F4F5C0883009F44DC049
:10085000F5C0883109F44CC0803209F45DC0EEC0A7
:10086000803409F468C048F4803309F455C08833F3
:1008700009F0E4C08093690DA8C0803509F44FC029
:10088000883509F45DC0883409F0D8C0D5C08839EE
:1008900009F4C6C0A8F4883709F467C038F488366C
:1008A00009F463C0803709F460C0C8C0883809F40F
:1008B000B7C0803909F45FC0803809F0BFC05BC0A1
:1008C000803B09F485C038F4803A09F466C0883A60
:1008D00009F47EC0B3C0803C09F4A6C0883C09F48A
:1008E000A3C0883B09F489C0A9C08091D50D10C070
:1008F0009091AE0D8091AD0D981770F5E091AE0D11
:1009000081E08E0F8093AE0DF0E0E155F24F8081D3
:100910008093BB0085EC85C08093690D8DC0E0910C
:10092000AE0D81E08E0F8093AE0D8091BB00F0E0A4
:10093000E155F24F80839091AE0D8091AD0D6DC069
:10094000E091AE0D81E08E0F8093AE0D8091BB00E3
:10095000F0E0E155F24F80838091D40D81116CC09D
:1009600081E08093D30D84EA60C083E08093D60D4C
:1009700010926A0DCFCF80916A0D803208F050C07E
:10098000E0916A0D81E08E0F80936A0D8091BB002B
:10099000F0E0E559F24F8083BDCF80916A0D80323F
:1009A00030F4E0916A0DF0E0E559F24F10820E94B8
:1009B000F00360916A0D70E0E091CF0DF091D00DE1
:1009C0008BE69DE0199510926A0D0E94FA0336C0DD
:1009D00084E08093D60D10928C0D10928B0DE091D7
:1009E000D10DF091D20D199580918B0D811105C01B
:1009F00081E080938B0D10928D0DE0918C0D81E044
:100A00008E0F80938C0DF0E0E357F24F808180933E
:100A1000BB0090918C0D80918B0D981708F47ACFC4
:100A200085E88093BC000AC085EC8093BC001092DE
:100A3000D60D04C01092690D0E94F003FF91EF9152
:100A4000BF91AF919F918F917F916F915F914F91E6
:100A50003F912F910F900BBE0F900FBE0F901F90E4
:100A60001895FF920F931F93CF93DF93FC010081A2
:100A7000C181D281F8948981F02EF0948F218983ED
:100A800078941DE7115029F182E090E00E94B02D8A
:100A900088818023B9F3F8948A818F218A838981A0
:100AA000802B8983789480EE91E00E94B02DF89499
:100AB00089818F21898386E490E00E94B02D88810E
:100AC000802311E009F010E078948AE991E00E9417
:100AD000B02D812FDF91CF911F910F91FF9008953D
:100AE0001F93CF93DF93FC011081C181D281912F9D
:100AF000909560FF12C0F8948A8189238A83898146
:100B0000812B89838AE090E00E94B02D8A81812B1D
:100B10008A83789487E390E011C0F8948A818923CE
:100B20008A838981812B898381E490E00E94B02DA2
:100B30008A81812B8A83789485E090E0DF91CF9140
:100B40001F910C94B02D0F931F93CF93DF93FC0153
:100B50001081C181D281F8948981812B89838A8116
:100B6000012F009580238A8383E090E00E94B02DBE
:100B70008981802389838AE090E00E94B02DC8811A
:100B8000789485E390E00E94B02D1C2381E009F465
:100B900080E0DF91CF911F910F910895CF92DF9266
:100BA000EF92FF920F931F93CF93DF931F92CDB7D6
:100BB000DEB76C01E62E08E010E0FF24F39461E05C
:100BC0009F2D9E2109F460E0C60149830E947005B3
:100BD000FF0C0150110949810115110581F74111DF
:100BE00015C0F894D6011196ED91FC911297918160
:100BF0008C918095892381831196ED91FC911297B8
:100C000092818C9180958923828378940F90DF91D3
:100C1000CF911F910F91FF90EF90DF90CF900895AB
:100C2000EF92FF920F931F93CF93DF938C01C8E055
:100C3000D0E0F12CEE24E394C8010E94A3058111B9
:100C4000FE28EE0C2197C1F78F2DDF91CF911F91D8
:100C50000F91FF90EF900895CF92DF92FF920F9344
:100C60001F93CF93DF931F92CDB7DEB78C01F62E83
:100C700040E065E579830E94CE05CF2C7981D72E9F
:100C800088E0F82EF60161916F0140E0C8010E94F2
:100C9000CE05FA94B9F70F90DF91CF911F910F9184
:100CA000FF90DF90CF900895FC011386158614867F
:100CB00027E030E0DF01A20FB31F13961C9221152D
:100CC000310519F021503109F5CF08951F93CF93C5
:100CD000DF93EC01162F60E0812F0E943A2F612FE5
:100CE00070E0FB01E052FD4FE491E883FB01EA5D17
:100CF000FC4FE491F0E0EE0FFF1FE459FC4F8591AB
:100D000094919A838983CE01DF91CF911F910C94A6
:100D10005406AF92BF92CF92DF92EF92FF920F9361
:100D20001F93CF93DF931F92CDB7DEB75C01E62E02
:100D3000D72EFC01858581115DC0C5010E9431055A
:100D4000811105C0F5011386158614866EC040E03A
:100D500060EFC5010E94CE0501E0F12CC12C11E02D
:100D6000C5010E94A305682FC50169830E94A305E0
:100D70006981613019F48130B9F433C02F2D30E02E
:100D800068131BC0F5018385181730F4E20FF31FB9
:100D90008381802349F402C0181731F060E01930D4
:100DA00058F4F501148708C0F501EF0DF11D83819A
:100DB000802B838361E009C0C12EF501E20FF31F90
:100DC0008381902F909589238383C5010E947005AC
:100DD0001F5F000F11F4F39401E0F7E0FF1508F036
:100DE000BFCF113438F0F501C386C11018C081E0BF
:100DF000858715C0F50113861586148680E0EE2DD3
:100E0000FD2D20E030E0D501A20FB31F13969C9179
:100E100091932F5F3F4F28303105A9F706C0F501A8
:100E20008381882339F381E0EACF0F90DF91CF915E
:100E30001F910F91FF90EF90DF90CF90BF90AF90F8
:100E40000895CF93CFB7F8948091D70D811127C023
:100E5000EBE5F3E08491E5E1F3E09491E82FF0E035
:100E6000EE0FFF1FE056FC4FA591B4918C918923A2
:100E700021F461E085E30E94732F61E085E30E9425
:100E80003A2F8CB580618CBD8CB580648CBD61E0DF
:100E900084E30E943A2F61E083E30E943A2F80911D
:100EA000D70D8F5F8093D70DCFBFCF9108958091DD
:100EB000080E90E02091090E821B9109089520915F
:100EC000090E8091080E281750F4E22FF0E0E65F3B
:100ED000F14F808190E02F5F2093090E08958FEFEE
:100EE0009FEF0895E091090E8091080EE81730F405
:100EF000F0E0E65FF14F808190E008958FEF9FEF83
:100F000008950895CF92DF92EF92FF920F931F936F
:100F1000CF93DF937C01CB018A012091E40D222342
:100F200089F0EB016B01C40ED51ECC15DD0569F00F
:100F30006991D701ED91FC910190F081E02DC701FD
:100F40001995F3CF642F0E94D703C801DF91CF9189
:100F50001F910F91FF90EF90DF90CF900895CF9366
:100F6000DF931F92CDB7DEB769832091E40D222372
:100F7000D1F02091E50D203240F021E030E0FC017D
:100F80003383228380E090E015C08091E60DE82F46
:100F9000F0E0E951F24F998190838F5F8093E60DE5
:100FA0008093E50D05C061E0CE0101960E94D70354
:100FB00081E090E00F90DF91CF910895FC011382C2
:100FC000128248EE53E060E070E04483558366830C
:100FD000778389E392E09183808308951092090ECC
:100FE0001092080E1092E60D1092E50D0C9422035B
:100FF000862F413208F040E26AE07EE00E94400322
:101000001092090E8093080E089521E00C94F807C1
:1010100021E00C94F80781E08093E40D6093070EC3
:101020001092E60D1092E50D08950C940B080F93A5
:10103000062F21E04091E50D67EE7DE08091070EDF
:101040000E9484031092E60D1092E50D1092E40DBB
:101050000F91089561E00C94170888ED9DE00C94C1
:10106000DE07ECE7F0E090819F739083208130E40D
:10107000839FC0011124282B20830895EAE7F0E024
:101080009081987F90839081982B90830895809190
:101090007A00877090E00895E1E8F0E08081887F31
:1010A000808308950E944C0810928500109284005D
:1010B000E1E8F0E0808190912A0E892B80830895E9
:1010C000882321F080917C00806203C080917C00A5
:1010D0008F7D80937C000895EBE7F0E09081987F0E
:1010E00090839081982B90830895CF92DF92EF9216
:1010F000FF92CF936B017C0180E18093810010927D
:101100008000A701960160E074E284E799E40E9400
:10111000063620E030E040E051E40E94DA370E94D9
:1011200073366115710521E08207910528F421E0ED
:1011300020932A0ECB014CC06115710528E082076F
:10114000910568F422E020932A0EDC01CB0153E0E4
:10115000B695A795979587955A95D1F739C061159A
:10116000710520E48207910568F423E020932A0E9C
:10117000DC01CB0146E0B695A795979587954A95F2
:10118000D1F726C061157105810521E0920740F471
:1011900024E020932A0EBB27A92F982F872F18C051
:1011A00061157105810524E0920768F425E020931C
:1011B0002A0EDC01CB012AE0B695A7959795879575
:1011C0002A95D1F705C085E080932A0E8FEF9FEF17
:1011D0009093870080938600C1E0C0936F0086E003
:1011E0000E946C08C093400E80917A0080628093C8
:1011F0007A00C092330ED092340EE092350EF09207
:10120000360ECF91FF90EF90DF90CF9008958093AE
:10121000400E882321F080917A00806203C0809183
:101220007A008F7D80937A000895EAE7F0E080816C
:10123000806480830895CF93DF93D0917800C0912C
:1012400079004091430E5091440E2091410E30910F
:10125000420E42175307A8F58091400E811102C03B
:101260000E9415098D2F90E09C2B20917C0025FF7A
:1012700013C0E091470EF091480E2091430E30913B
:10128000440EA9014F5F5F4F5093440E4093430EAD
:10129000E20FF31F908315C0E091450EF091460ECA
:1012A0002091430E3091440EA9014F5F5F4F509340
:1012B000440E4093430E220F331FE20FF31F91831E
:1012C0008083DF91CF9108951092440E1092430EC7
:1012D0008091400E0E9407090E94652D60932B0E9D
:1012E00070932C0E80932D0E90932E0E80917A0089
:1012F000886C80937A0080917B008770863011F42F
:101300000C94520808958F929F92AF92BF92CF9201
:10131000DF92EF92FF920E94652D4B015C0180915C
:101320007A00877D80937A0080917B008770863079
:1013300011F40E944C086091410E7091420E80E0C1
:1013400090E00E949F3620E034E244E759E40E9496
:10135000DA376B017C0180912B0E90912C0EA091BD
:101360002D0EB0912E0EA5019401281B390B4A0BAE
:101370005B0BCA01B9010E949F369B01AC01C701FA
:10138000B6010E94063660932F0E7093300E809344
:10139000310E9093320EFF90EF90DF90CF90BF9080
:1013A000AF909F908F90089580933D0E90917C0018
:1013B000907F90937C0020917C00982F9770922BC7
:1013C00090937C00883020F080917B00886003C07F
:1013D00080917B00877F80937B00089591E09093BC
:1013E0003C0E10923F0E10923E0E10923B0E2BE1DF
:1013F00039E030933A0E2093390E0C94D409809141
:101400003B0E8F5F80933B0E90913C0E891302C080
:1014100010923B0E80913B0EE0913E0EF0913F0EFC
:10142000E80FF11D80810E94D4090C941B091F93C1
:10143000CF93DF93C0913B0E90913C0E9230A0F081
:1014400081E08C0F891719F080933B0E02C0109237
:101450003B0E80913B0EE0913E0EF0913F0EE80F67
:10146000F11D80810E94D40910917800D0917900FB
:101470004091430E5091440E2091410E3091420E06
:1014800042175307F0F48091400E811102C00E9470
:101490001509612F70E07D2B80917C0085FF02C0D3
:1014A000672F7727E091370EF091380E8C2F199522
:1014B0008091430E9091440E01969093440E809338
:1014C000430EDF91CF911F910895CF93DF93D09179
:1014D0007C00C0917B0080917C00807E80937C00AA
:1014E00080917C008E6180937C0080917B00877F5F
:1014F00080937B0063E070E080E090E00E94882DA4
:1015000080917A00806480937A0080917A0086FDD1
:10151000FCCF6091780080917900D0937C00C093DB
:101520007B0070E0782B882777FD8095982F0E94AC
:10153000A1369B01AC0160E070E889E894E40E9468
:101540000636DF91CF9108951F920F920FB60F923A
:1015500011240BB60F922F933F934F935F936F938A
:101560007F938F939F93AF93BF93EF93FF93E091FC
:10157000390EF0913A0E1995FF91EF91BF91AF910D
:101580009F918F917F916F915F914F913F912F919B
:101590000F900BBE0F900FBE0F901F9018951F92CB
:1015A0000F920FB60F9211240F900FBE0F901F9045
:1015B000189581E00C94310886E294E0089582E267
:1015C00094E008958BE094E0089581EF93E008950E
:1015D0008BEE93E0089588EB93E0089585E492E024
:1015E0000895CF93DF93EC0161E088E00E94732FB0
:1015F000CC5AD74F1882DF91CF910895DC01ED913D
:10160000FC910190F081E02D19948EBD00000DB485
:1016100007FEFDCF8EB50895CF93DF93EC0161E017
:101620000E94D11A80EA93E099838883CE5AD74FDB
:1016300018821982DF91CF91089520EA33E0FC01EE
:10164000318320830C94411B1F93CF93DF931F9210
:101650001F92CDB7DEB7162F60E0812F2A83498312
:101660000E94732F4981842F0E94050B2A81822FAB
:101670000E94050B61E0812F0F900F90DF91CF91B9
:101680001F910C94732F643040F4242F2095462F23
:1016900065E30E94240B80E0089585E00895AF92F1
:1016A000BF92CF92DF92EF92FF920F931F93CF934F
:1016B000DF931F921F92CDB7DEB78C01D12C7C0136
:1016C0008BEBE81A87EFF80A5801E4E9AE1AE7EF66
:1016D000BE0A2D2D30E0F801EB5AF74F8081918141
:1016E00068E270E00E949C3926173707E0F588E031
:1016F000C82EC982F7012081318180E090E040E06E
:10170000B801620F731FE42FF0E0DB01A80FB91FCF
:10171000A259BF4F41E050E0AC91AA2311F040E044
:1017200050E0082E02C0440F551F0A94E2F74E0FF6
:101730005F1F01968830910531F74A83285F3F4F3C
:10174000F70131832083F50160816D0D22E0AE0148
:101750004F5F5F4FC8010E942323C394FDE0CF1267
:10176000C8CFD394B6CF0F900F90DF91CF911F9138
:101770000F91FF90EF90DF90CF90BF90AF900895C2
:101780008F929F92AF92BF92CF92DF92EF92FF9291
:101790000F931F93CF93DF9300D0CDB7DEB78C01AB
:1017A000912C7C018BEAE81A87EFF80A98E2C92E9F
:1017B000D12C5801E4E9AE1AE7EFBE0A88248A94D6
:1017C000292D30E0F70180819181B6010E949C397A
:1017D00026173707A0F438E039838A82F501608143
:1017E000690D22E0AE014F5F5F4FC8013B830E944D
:1017F00023233B813F5F3D3079F79394E1CF0F90F6
:101800000F900F90DF91CF911F910F91FF90EF906C
:10181000DF90CF90BF90AF909F908F900895EF9200
:10182000FF920F931F93CF93DF938C017C018BE981
:10183000E81A87EFF80AC4E6D0E0F70141917F018A
:10184000BE01C8010E94CC1A2196C33BD105A9F75D
:1018500060E0C801DF91CF911F910F91FF90EF9051
:101860000C94320C7F928F929F92AF92BF92CF9244
:10187000DF92EF92FF920F931F93CF93DF93EC01D0
:10188000762E7C012BE9E21A27EFF20A04E610E03B
:101890004701E881F9810088F189E02DB801CE0186
:1018A0001995F70181937F010F5F1F4F033B1105CE
:1018B00081F7F401808191819E012959374F5901A7
:1018C000FE01E759F74F6F01285C3F4F7901892BE3
:1018D000E1F4F50180819181892BB9F4F6018081D1
:1018E0009181892B91F4399780819181A281B38173
:1018F000F90180839183A283B38381E090E0F601B4
:1019000091838083CE010E940F0CF401808191812C
:10191000892BB9F4F50180819181892B91F4F6012D
:1019200080819181019769F480E2FE01E459F74FCB
:10193000808382E090E0F60191838083CE010E9453
:101940000F0CF40180819181892BE9F4F5018081EC
:101950009181892BC1F4F60180819181029799F4DC
:1019600080E090E0A0EAB0E4FE01ED55F74F8083FF
:101970009183A283B38383E090E0F6019183808317
:10198000CE010E940F0CF401808191818E010955D6
:10199000174F892BA1F4F50180819181892B79F46E
:1019A000F60180819181039751F4F801108284E05F
:1019B00090E0F60191838083CE010E940F0CF40128
:1019C00080819181892B79F5F50180819181892B25
:1019D00051F5F60180819181049729F580E090E02E
:1019E000A8ECB2E4FE01E855F74F80839183A2830F
:1019F000B38380E090E4ACE9B6E4349680839183CD
:101A0000A283B38380E090E0A8E4B3E434968083BB
:101A10009183A283B38385E090E0F6019183808374
:101A2000CE010E940F0CF40180819181892B69F411
:101A3000F50180819181892B41F4F60180819181AA
:101A4000059719F4772009F4A8C0F40111821082D7
:101A5000F5011182108285E090E0F6019183808388
:101A60008FEFFE01E559F74F80838CE73396808333
:101A700080E73197808380E09CE7A2E9B8E4329662
:101A800080839183A283B38380E092E2A1EAB8E4E9
:101A9000349680839183A283B38380E090E0AAE7A9
:101AA000B4E43C9680839183A283B38380E090E486
:101AB000ACE1B6E4349680839183A283B38380E063
:101AC00090E5A3ECB7E4349680839183A283B3833B
:101AD00080E094E2A4E7B9E4349680839183A28302
:101AE000B38374971082118212821382349610820B
:101AF0001182128213824FEF56EE6BE57EE27496EE
:101B0000408351836283738334964083518362831D
:101B10007383349640835183628373833496408306
:101B2000518362837383FB9780819181A281B3810A
:101B3000F70180839183A283B38380E2FE01E4599D
:101B4000F74F808380E090E0A0EAB0E4F7968083CE
:101B50009183A283B383F801108280E090E0A8EC27
:101B6000B2E4FE01E855F74F80839183A283B383EB
:101B700080E090E4ACE9B6E4349680839183A2835C
:101B8000B38380E090E0A8E4B3E43496808391834B
:101B9000A283B383CE010E940F0CF701C080D180D5
:101BA000E280F38020E030E0A901C701B6010E9485
:101BB0000236FE01EC59F74F18161CF081E08083C5
:101BC00009C0DE01A05AB74FCD92DD92ED92FC9292
:101BD00013971082F8018081882311F042E001C040
:101BE00041E060E0CE01DF91CF911F910F91FF9016
:101BF000EF90DF90CF90BF90AF909F908F907F90AD
:101C00000C94BC238F929F92AF92BF92CF92DF929F
:101C1000EF92FF92CF93DF93EC016A017B01FC010D
:101C2000E05AF74F80809180A280B38020E030E0BE
:101C3000A901C701B6010E94023687FD45C0FE0119
:101C4000E055F74F2081318142815381C701B601B0
:101C50000E9491371816C4F1A5019401C701B6017D
:101C60000E9406369B01AC010E948B3523EF34E0C5
:101C700045EB5FE30E94DA3720E030E040E85EE3C6
:101C80000E94DA3720E030E04FE753E40E94DA3771
:101C90004B015C0120E030E04FE753E40E949137B4
:101CA000181694F0FE01E85AF74FC082D182E28202
:101CB000F382C501B4010E947336462F63E0CE0162
:101CC0000E94430B80E001C088E0DF91CF91FF903C
:101CD000EF90DF90CF90BF90AF909F908F9008953E
:101CE000FC01E05AF74F4083518362837383389736
:101CF000408151816281738120E00C94020E5F92D9
:101D00006F927F928F929F92AF92BF92CF92DF920B
:101D1000EF92FF920F931F93CF93DF931F921F9227
:101D2000CDB7DEB76C01CB01542E68E270E00E94A3
:101D30009C397B014C015C0123E0B694A7942A9561
:101D4000E1F73B01772486010459174FF8018081A0
:101D5000B301680F711D88ED9DE00E941508B50163
:101D6000685F7F4F88ED9DE00E94FE0A88ED9DE050
:101D70000E942A08F8018081B301680F711D41E0BB
:101D800050E088ED9DE00E94080888ED9DE00E94EB
:101D90005707892B41F1F82DF7708F2E88E08A0DB7
:101DA000898388ED9DE00E945F0741E050E060E09C
:101DB00070E004C0440F551F661F771F8A94D2F746
:101DC000511002C0482B02C0409548234A83F801B5
:101DD00060816E0D22E0AE014F5F5F4FC6010E9431
:101DE000232380E001C081E00F900F90DF91CF911D
:101DF0001F910F91FF90EF90DF90CF90BF90AF9029
:101E00009F908F907F906F905F9008958F929F9298
:101E1000AF92BF92CF92DF92EF92FF920F931F93F8
:101E2000CF93DF93CDB7DEB762970FB6F894DEBFDE
:101E30000FBECDBF8C010E943C1A61E088E00E9479
:101E4000732F61E088E00E943A2F61E085E30E94F1
:101E50003A2F61E089E00E943A2F60E089E00E9419
:101E6000732FF801E05AF74F80E090E0A6E9B3E461
:101E700080839183A283B38360E0C8010E94320C07
:101E8000480185E9881A87EF980AD4014C9160E0EF
:101E9000C8010E94430B6801B2E9CB1AB7EFDB0A15
:101EA000F601408161E0C8010E94430B5801F3E94B
:101EB000AF1AF7EFBF0AD5014C9162E0C8010E944A
:101EC000430B40E063E0C8010E94430BD801ED9151
:101ED000FC910680F781E02DC8011995BC018EE8C0
:101EE0009EE00E943F326BE472E08EE89EE00E942A
:101EF0003F32D801ED91FC910484F585E02DC801B5
:101F00001995BC018EE89EE00E944C326EE472E0AE
:101F10008EE89EE00E943F32D801ED91FC91028450
:101F2000F385E02DC8011995BC018EE89EE00E9462
:101F30004C3261E672E08EE89EE00E943F3278010A
:101F4000BBE9EB1AB7EFFB0AF701608171814AE048
:101F500050E08EE89EE00E944C336AE973E08EE820
:101F60009EE00E943F32F801E959F74F608171818C
:101F70004AE050E08EE89EE00E944C336AE973E04C
:101F80008EE89EE00E943F32F801E759F74F6081EA
:101F900071814AE050E08EE89EE00E94523368E78B
:101FA00072E08EE89EE00E943F324AE050E0D401A9
:101FB0006C918EE89EE00E9435336EE772E08EE809
:101FC0009EE00E943F324AE050E0F50160818EE8D9
:101FD0009EE00E9435336EE872E08EE89EE00E943B
:101FE0003F324AE050E0D6016C918EE89EE00E94BC
:101FF0003533B12CA12CF1E0BF1202C084E001C046
:1020000082E0A81608F0B9C04AE06A2DCE01019618
:102010000E9403354AE06B2DCE010D960E940335D8
:1020200064E972E0CE0107960E94D534BE01635F79
:102030007F4FCE0107960E945C3566E972E00E94F0
:102040006F35BE016F5F7F4F0E945C356AEA72E0B8
:102050000E946F35BC018EE89EE00E943132CE01B5
:1020600007960E946734CE010D960E946734CE0118
:1020700001960E946734CA2CD12CB1E0F601EE0F14
:10208000FF1FEE0FFF1FEE0DFF1DBB1629F042854F
:1020900053856485758504C0428D538D648D758D1F
:1020A00022E030E08EE89EE00E9455344AE06A2D3E
:1020B000CE0101960E9403354AE06B2DCE010D96AC
:1020C0000E94033564E972E0CE0107960E94D53480
:1020D000BE01635F7F4FCE0107960E945C356DEABB
:1020E00072E00E946F35BE016F5F7F4F0E945C35CA
:1020F0006AEA72E00E946F35BC018EE89EE00E94A1
:102100003132CE0107960E946734CE010D960E94AF
:102110006734CE0101960E946734E1E0BE1661F09B
:10212000F601EE0FFF1FEE0FFF1FEE0DFF1D628980
:102130007389848995890BC0F601EE0FFF1FEE0F9E
:10214000FF1FEE0DFF1D62A573A584A595A525EAC9
:1021500034ED48E653E50E94DA37AB01BC0122E0DA
:1021600030E08EE89EE00E94533462EC72E08EE82C
:102170009EE00E944C32A3943ECFB39482E0B8120A
:1021800039CF66EC72E08EE89EE00E943F32F801A3
:10219000E459F74F4AE050E060818EE89EE00E94EB
:1021A00035336BE173E08EE89EE00E943F32F80128
:1021B000E156F74F408151816281738122E030E026
:1021C0008EE89EE00E94553463EE72E08EE89EE059
:1021D0000E943F32F801ED55F74F408151816281F5
:1021E000738122E030E08EE89EE00E94553466EF75
:1021F00072E08EE89EE00E943F32F801E955F74F09
:10220000608170E04AE050E08EE89EE00E94093371
:102210006FE073E08EE89EE00E943F32F801EC59D7
:10222000F74F608170E04AE050E08EE89EE00E9447
:1022300009336BE273E08EE89EE00E943F32F801C2
:10224000E855F74F408151816281738122E030E08F
:102250008EE89EE00E94553463E473E08EE89EE0D1
:102260000E943F32F801E455F74F4081518162816D
:10227000738122E030E08EE89EE00E9455346BE5E9
:1022800073E08EE89EE00E943F32F801E055F74F80
:10229000408151816281738122E030E08EE89EE0CE
:1022A0000E94553462960FB6F894DEBF0FBECDBFC4
:1022B000DF91CF911F910F91FF90EF90DF90CF9022
:1022C000BF90AF909F908F9008958F929F92AF9202
:1022D000BF92CF92DF92EF92FF921F93CF93DF9343
:1022E000EC016A017B01FC01E855F74F24EA30E775
:1022F0004DE75FE360817181828193810E94DA37CB
:102300009B01AC01C701B6010E94913787FDAFC0A8
:102310002EEA37E441E85FE3FE01E455F74F6081C0
:102320007181828193810E94DA379B01AC01C701E0
:10233000B6010E94023618160CF499C020E030E075
:1023400048E452E4C701B6010E94DA374B015C0150
:1023500020E030E04AE754E40E94023687FD87C05F
:1023600020E233EB41E85CE4C501B4010E949137FF
:1023700018160CF47CC020E030EE41E854E4C501AE
:10238000B4010E9406360E949A3726EA3BE944E5EA
:1023900050E40E94DA372EE83DE543E150E40E9424
:1023A00006360E947336162F70E0665F7F4F8827CF
:1023B00077FD8095982F0E94A1369B01AC0160E0CB
:1023C00070E080E090E40E943D3820E030EE41E093
:1023D00055E40E94DA37A50194010E9406369B015C
:1023E000AC0160E070E080E095E40E948A354B012A
:1023F0005C0120E030E0A9010E94913720E030E04C
:1024000040E05FE387FD05C0C501B4010E948B3544
:1024100004C0C501B4010E948A350E946E365B017A
:10242000CB0166E0969587956A95E1F71295107F46
:10243000182B67E188ED9DE00E940B08612F88ED65
:102440009DE00E94AF076A2D660F660F626088EDFF
:102450009DE00E94AF0788ED9DE00E942A08C45AC3
:10246000D74FC882D982EA82FB8280E001C088E02F
:10247000DF91CF911F91FF90EF90DF90CF90BF90B1
:10248000AF909F908F9008954F925F926F927F923E
:102490008F929F92AF92BF92CF92DF92EF92FF9274
:1024A0000F931F93CF93DF931F921F92CDB7DEB789
:1024B0008C01FC01EC5AF74F81E0808360E088E0FA
:1024C0000E94732F64EF71E080E090E00E94882DFD
:1024D00048018BEA881A87EF980AF401118210826A
:1024E000E8E2AE2EB12CE12CF12CF8E16F2E77242E
:1024F0007A946801F4E9CF1AF7EFDF0A4E2C69826B
:102500007A82F60160816E0D22E0AE014F5F5F4F6F
:10251000C8010E942323F60160816E0D21E0AE0107
:102520004F5F5F4FC8010E94E01D89818F3F09F016
:102530004BC078E1572E59821A82F6016081640DF2
:1025400022E0AE014F5F5F4FC8010E942323F601D6
:102550006081640D21E0AE014F5F5F4FC8010E94B2
:10256000E01D8981811130C080EF850D89837A82D9
:10257000F6016081640D22E0AE014F5F5F4FC8013C
:102580000E9423235394FDE15F12D5CF66E873E0E8
:102590008EE89EE00E943F324AE050E0B7018EE8AC
:1025A0009EE00E94013360E973E08EE89EE00E94A5
:1025B0004C32F40120813181C501889728173907F1
:1025C00019F4F401B182A082FFEFEF1AFF0A88E24A
:1025D000A80EB11CE8E0EE16F10409F08FCFF4016B
:1025E000608171814AE050E08EE89EE00E944C33A9
:1025F00061E773E08EE89EE00E944C3240E050E4D8
:102600006CE176E4C8010E9465110F900F90DF9194
:10261000CF911F910F91FF90EF90DF90CF90BF90DF
:10262000AF909F908F907F906F905F904F900895A4
:102630002F923F924F925F926F927F928F929F92D2
:10264000AF92BF92CF92DF92EF92FF920F931F93C0
:10265000CF93DF93CDB7DEB7A9970FB6F894DEBF5F
:102660000FBECDBF2C016D8B2DB73EB73BA32AA368
:102670008C010D5A174F81E0D8018C93F201EC5A6E
:10268000F74F8081811103C0C2010E944412ED897D
:102690008E2F90E0FC01E05AF109E735F10508F0D2
:1026A000ABC6EE58FF4F920124593F4F19010C94CD
:1026B000D239F201E05CF74F80819181892B09F0DA
:1026C00098C642E050E0B2016B5A774FF5C0F20174
:1026D000E05CF74F80819181892B09F08AC6D9018E
:1026E0001C92912C92012B5A374F3A8729877201FD
:1026F00034E9E31A37EFF30A88248394A92CB12C28
:10270000E985FA858081918168E270E00E949C39B8
:10271000A616B70608F070C608E010E0D7018C9145
:10272000B501680F711D88ED9DE00E941508B80184
:1027300088ED9DE00E94FE0A88ED9DE00E942A0837
:10274000F7018081B501680F711D41E050E088ED0F
:102750009DE00E94080888ED9DE00E945707892BA4
:1027600051F188ED9DE00E945F076C01612C712C96
:10277000DD24C601062C02C0959587950A94E2F7E0
:1027800081709927F1E08F27898341E050E0BE01F5
:102790006F5F7F4FC2010E94471B2FEF621A720AC0
:1027A00038E06316710429F70F5F1F4F0D301105D4
:1027B00009F0B4CF02C0D1018C9293949FCFF20163
:1027C000E05CF74F208131817596808191812817D7
:1027D000390709F00EC6C2010E944F0B07C6F2016D
:1027E000E05CF74F80819181029709F002C6D20127
:1027F000AB5BB74F2D913C911197F901E259FF4F17
:10280000E40DF51D808191812E5F3F4F2D933C9308
:10281000F201EB5AF74F208131818217930708F0BC
:102820007BC068E270E00E949C398C016B01DD2462
:102830007201F4E9EF1AF7EFFF0AD7018C91B601A4
:10284000680F711D88ED9DE00E941508B80113E026
:10285000769567951A95E1F7685F7F4F88ED9DE063
:102860000E94FE0A88ED9DE00E942A08F7018081FF
:10287000B601680F711D41E050E088ED9DE00E94B7
:10288000080888ED9DE00E945707892BC9F088ED64
:102890009DE00E945F079927077002C09595879574
:1028A0000A95E2F781709927F1E08F27898341E04B
:1028B00050E0BE016F5F7F4FC2010E94471B96C56B
:1028C00081E098C5F201E05CF74F80819181039728
:1028D00009F08FC5D201AB5BB74F8D919C911197D9
:1028E000FC01E259FF4FE40DF51D60817181F20199
:1028F000E80FF91FE059FF4F408103968D939C9399
:10290000F201EB5AF74F808191816817790720F423
:10291000C2010E947F0E4DC385E06CC5F201E05CF0
:10292000F74F80819181892B09F063C5D9011C92F1
:1029300089E00E94A92FD3C4F201E05CF74F8081A7
:102940009181019709F055C5359680819181D20119
:10295000A80FB91FA259BF4F6C9101969183808334
:10296000623020F489E00E94732FDEC488E021C326
:10297000F201E05CF74F80819181892B09F039C524
:10298000F901108244E050E0B201685A774FADC4BB
:10299000F201E05CF74F80819181049709F029C52D
:1029A000D201AB5BB74F8D919C911197FC01E2591D
:1029B000FF4FE40DF51D40815181628173810496C2
:1029C0008D939C9321E0C2010E94020EF2C2F2019B
:1029D000E05CF74F80819181892B09F00AC5F901EC
:1029E000108244E050E0B201645A774F7EC4F20195
:1029F000E05CF74F80819181049709F0FAC4D2011D
:102A0000AB5BB74F8D919C911197FC01E259FF4F41
:102A1000E40DF51D408151816281738104968D938F
:102A20009C93C2010E946511C4C2F201E05CF74FA1
:102A300080819181019709F0DCC4D201AB5BB74F73
:102A40008D919C911197F201E80FF91FE259FF4F08
:102A5000E08101968D939C93E23008F034C1BBE194
:102A6000EB9FF0011124E75BF14F81818983F9012C
:102A7000108236C4F201E05CF74F808191810297A9
:102A800009F0B7C4359620813181A201420F531F4E
:102A9000DA01A259BF4F8C9111966C912E5F3F4F76
:102AA000318320830E947823A5C4F201E05CF74FB4
:102AB00080819181019709F09CC435968081918134
:102AC000D201A80FB91FA259BF4F2C910196918333
:102AD0008083223008F0F7C0D1011C92BBE12B9F0C
:102AE000F0011124E75BF14FE181C2018B59974F4F
:102AF000F0E0EE0FFF1FEE0FFF1FE80FF91F213070
:102B000029F082859385A485B5854BC2828D938DEE
:102B1000A48DB58D46C2F201E05CF74F80819181B2
:102B2000059709F066C4359620813181D201A20F44
:102B3000B31FA259BF4F4C91C90101969183808365
:102B4000D1011C924423E1F0413009F0BCC0409116
:102B5000650ED901A159BF4FA40DB51D8D919D9151
:102B60000D90BC91A02D2B5F3F4F31832083F2014C
:102B700034E0439FE00DF11D1124E158F74F9BC055
:102B800040914A0ED901A159BF4FA40DB51D8D9199
:102B90009D910D90BC91A02D2B5F3F4F31832083E1
:102BA000F20124E0429FE00DF11D1124E159F74F9D
:102BB00082C0F201E05CF74F80819181019709F0BA
:102BC00018C4359680819181D201A80FB91FA259EE
:102BD000BF4F2C91019691838083223008F073C0FF
:102BE000F10110823BE1239FF0011124E75BF14FDB
:102BF000E181C2018B59974FF0E0EE0FFF1FEE0FFE
:102C0000FF1FE80FF91F213029F082899389A489D9
:102C1000B589C7C182A593A5A4A5B5A5C2C1F20176
:102C2000E05CF74F80819181059709F0E2C335960A
:102C300020813181D201A20FB31FA259BF4F4C9105
:102C4000C901019691838083D1011C924423D9F05C
:102C50004130C9F54091650ED901A159BF4FA40D6E
:102C6000B51D8D919D910D90BC91A02D2B5F3F4F77
:102C700031832083F20134E0439FE00DF11D1124E4
:102C8000E157F74F18C040914A0ED901A159BF4FE3
:102C9000A40DB51D8D919D910D90BC91A02D2B5F24
:102CA0003F4F31832083F20124E0429FE00DF11D6C
:102CB0001124E958F74F80839183A283B383C20123
:102CC0000E940F0C99C385E074C1F201E05CF74FDC
:102CD00080819181892B09F08CC3F901108244E035
:102CE00050E0B201605A774F00C3F201E05CF74F49
:102CF00080819181049709F07CC3D201AB5BB74F0F
:102D00008D919C911197FC01E259FF4FE40DF51D47
:102D1000C080D180E280F38004968D939C9320E064
:102D200030E0A901C701B6010E9491371816CCF412
:102D3000F201EC59F74F8081882331F03497C0823B
:102D4000D182E282F38252C3D201A156B74FCD9213
:102D5000DD92ED92FC9213971082C2010E940F0C3B
:102D600045C388E047C3F201E05CF74F8081918161
:102D7000892B09F03EC3D9011C9211E020E030E01C
:102D8000A901E15AFF4F60817181828193810E9484
:102D9000023618160CF410E01983A2C2F201E05CAE
:102DA000F74F80819181019709F023C33596808187
:102DB0009181D201A80FB91FA259BF4F2C91019642
:102DC00091838083E65AFF4F222329F010821182DB
:102DD000128213820CC0D201A05AB74F8D919D91DF
:102DE0000D90BC91A02D80839183A283B383C201F7
:102DF0000E940F0C99C2F201E05CF74F0081118133
:102E00000A30110508F4F5C2359680819181DC0104
:102E1000A259BF4FA40DB51D2D913D914D915C91CF
:102E200029873A874B875C879C012C5F3F4F318312
:102E30002083DC01AE58BF4FA40DB51D6D907C9072
:102E4000DC01AC58BF4FA40DB51D4D915D916D9146
:102E50007C91498B5A8B6B8B7C8BD201A80FB91F4D
:102E6000A858BF4FFC900B96918380830B301105BF
:102E700041F07096808191810B960817190709F02F
:102E8000B8C2FBE46F16F1E07F0608F091C020E0C5
:102E900030E04AE754E469857A858B859C850E94F9
:102EA000063620E030E44CE157E40E94DA3720E0B7
:102EB00030E040E855E40E94023687FF79C0D10136
:102EC0001C92F201EB5AF74F808191810B96081703
:102ED000190719F4C2010E944F0B0E94652D6D87DE
:102EE0007E878F87988B88248394F1FE812CAA2477
:102EF000A394F0FEA12CF201E45AF74FC080D180D8
:102F0000E280F38009891A892B893C89A3016985AC
:102F10007A858B859C850E943828F10180838111F8
:102F20006BC20E94652D2D853E854F855889621B99
:102F3000730B840B950B0E949F366B017C01B301D0
:102F400080E090E00E949F3620E030E04AE754E4C1
:102F50000E94DA379B01AC01C701B6010E94063618
:102F60006D837E838F83988744E050E0BE016B5F62
:102F70007F4FC2010E94471B44E050E060E67EE0C4
:102F8000C2010E94471B44E050E06BE77EE0C201B3
:102F90000E94471BF201E05AF74F80819181A28184
:102FA000B38189839A83AB83BC8344E050E09AC1A8
:102FB00081E0D1018C9320C2F201EB5AF74F2081BE
:102FC0003181C9010B967597408151814817590786
:102FD00009F00FC2EDB7FEB7F98FE88FD1011C924F
:102FE000F201EB5BF74F80819181DC01A259BF4F69
:102FF000A40DB51D4D915D916D917C91498B5A8BBE
:103000006B8B7C8BAC014C5F5F4F51834083DC0149
:10301000AE58BF4FA40DB51D6D907C90DC01AC582F
:10302000BF4FA40DB51D4D915D916D917C914E8F5B
:103030005F8F68A379A3D201A80FB91FA858BF4F0B
:103040001C910B96918380836DB77EB7621B730BC7
:103050000FB6F8947EBF0FBE6DBF8DB79EB70196B9
:103060009A878987DC01280F391F80E090E07F0173
:10307000A217B307A1F0F70140815181B201640F9B
:10308000751F62597F4FFB0160814F5F5F4FF701F2
:10309000518340836D93662359F30196E9CF869D52
:1030A0009001879D300D969D300D11242B343140B9
:1030B00008F0D2C020E030E04AE754E469897A8918
:1030C0008B899C890E94063620E030E44CE157E46D
:1030D0000E94DA3720E030E040E855E40E940236F2
:1030E00087FFBAC0C2010E94C00B0E94652D6A8F83
:1030F0007B8F8C8F9D8F212C312C92012B5A374F37
:103100003DA32CA3A20144595F4F5E874D87812FB9
:103110008270682F70E07FA36EA311701E8B1F8AD0
:10312000C201845A974F99A788A7ACA1BDA18D91E0
:103130009C9128163906F0F5AD85BE858C918111DC
:1031400035C0E985FA85E20DF31D8081882371F190
:1031500041E0B101C2010E947F0E88248394EEA158
:10316000FFA11E161F060CF0812CAA24A3942E8901
:103170003F89121613060CF0A12CA8A5B9A5CD9075
:10318000DD90ED90FC900E8D1F8D28A139A1A3013B
:1031900069897A898B899C890E943828ED85FE850A
:1031A000808340E0B101C2010E947F0EFFEF2F1A21
:1031B0003F0ABBCFED85FE858081811152C00E9400
:1031C000652D2A8D3B8D4C8D5D8D621B730B840BA1
:1031D000950B0E949F366B017C01B30180E090E06B
:1031E0000E949F3620E030E04AE754E40E94DA373C
:1031F0009B01AC01C701B6010E9406366D837E8338
:103200008F83988744E050E0BE016B5F7F4FC2011F
:103210000E94471B44E050E060E67EE0C2010E944D
:10322000471B44E050E06BE77EE0C2010E94471B71
:10323000F201E05AF74F80819181A281B3818983A5
:103240009A83AB83BC8344E050E0BE016F5F7F4F45
:10325000C2010E94471B05C081E0F201E459FF4F03
:103260008083488D598D0FB6F8945EBF0FBE4DBF59
:10327000C3C0F201E05CF74F80819181019709F0B2
:10328000B8C0D9011C92359680819181D201A80FD6
:10329000B91FA259BF4F2C9101969183808361E0A1
:1032A000211101C060E0C2010E94320CA5C0F201F0
:1032B000E05CF74F80819181892B09F09AC0F90178
:1032C000108288E00CC0F201E05CF74F80819181B0
:1032D000892B09F08EC0D9011C9272968081898356
:1032E00041E050E0BE016F5F7F4FC2010E94471B6B
:1032F00083C0F201E05CF74F80819181019709F072
:1033000078C0359680819181D201A80FB91FA2594A
:10331000BF4F2C910196918380833D96222319F013
:1033200081E0808301C01082F101108265C0F2014A
:10333000E05CF74F80819181892B09F05AC0D90157
:103340001C92F801CBCFF201E05CF74F80819181B4
:10335000019709F04EC0359680819181D201A80F66
:10336000B91FA259BF4F2C910196918380832223CC
:1033700021F081E0D8018C9339C0F801108236C069
:10338000F201E05CF74F80819181892B91F5F90181
:10339000108288E00E94A92F21E0892B09F020E00B
:1033A00029839ECFF201E05CF74F808191810197E4
:1033B00001F5359680819181D201A80FB91FA259DC
:1033C000BF4F2C91019691838083222359F060E0B6
:1033D00088E00E94732F64EF71E080E090E00E942B
:1033E000882D04C061E088E00E94732FD1011C92F7
:1033F00003C086E0F10180836D89C2010E94071E2F
:10340000F201E459FF4F80812AA13BA10FB6F89445
:103410003EBF0FBE2DBFA9960FB6F894DEBF0FBEFC
:10342000CDBFDF91CF911F910F91FF90EF90DF9073
:10343000CF90BF90AF909F908F907F906F905F9054
:103440004F903F902F9008958627682F62956827A8
:10345000062E669566956025062E66956025677032
:10346000082E892F669507946795902D86270694D8
:103470006795902586270895CF92DF92EF92FF926D
:103480000F931F93CF93DF9300D01F92CDB7DEB77A
:103490008C01CE0101966C019FE0E92EF12CD80140
:1034A000ED91FC910088F189E02DB701C8011995D3
:1034B000F60181936F01FFEFEF1AFF0A23E1E21695
:1034C000F10469F789819A81AB81BC818F3F9F4F5D
:1034D000AF4FBF4FE1F149815A816B817C8126E07A
:1034E0008EE89EE00E94E43088ED9DE00E94EE07A9
:1034F0000E9421070E94650A08591F4FD8016D9349
:103500007D938D939C9313976BE374E08EE89EE01C
:103510000E943F32F801408151816281738122E033
:1035200030E08EE89EE00E9453346DE474E08EE853
:103530009EE00F900F900F900F90DF91CF911F9111
:103540000F91FF90EF90DF90CF900C944C3280E081
:1035500092ECA1E0B0E089839A83AB83BC83CE0177
:1035600001966C018FE0E82EF12CD6014D916D0192
:10357000D801ED91FC910288F389E02DB701C801D3
:103580001995BFEFEB1AFB0AE3E1EE16F10469F7B8
:10359000A2CFCB010C943F3CCB01642F0C94473C51
:1035A00008958F929F92AF92BF92CF92DF92EF9247
:1035B000FF920F931F93CF93DF932FE634E0FC012C
:1035C00031832083E45BF74F608339971182108247
:1035D00036961082399711821082359611821082A8
:1035E0003296118210823A961082E12CF12C00E082
:1035F00010E0C8010E943F3CA82EC80107960E9417
:103600003F3C8E2CC0E0D0E0B12CA094B094C82EEA
:10361000D12CC094D094CE018E0D9F1DC697C4F4BA
:10362000B5010C2E02C0759567950A94E2F761709A
:103630009C2E980C892D0E943A2FB6010C2E02C0A8
:10364000759567950A94E2F76170892D0E94732F32
:103650002196C830D105F9F60F5F1F4FE8E0EE0E56
:10366000F11C0730110529F6DF91CF911F910F91C1
:10367000FF90EF90DF90CF90BF90AF909F908F9092
:1036800008952FE634E0FC013183208308951F93D1
:10369000CF93DF93FB0120E030E0DC01A95BB74F63
:1036A0002417350781F01191BC01620F731FCD9172
:1036B000DC9111976C0F7D1FEB01C259DF4F18830E
:1036C0002F5F3F4FEDCF8D919C911197820F931FEC
:1036D0008D939C93DF91CF911F910895CF93DF93AA
:1036E000FC01E359FF4F6081DC01A459BF4F67FF24
:1036F0000EC020E8260F208322E02C93DC01ED9100
:10370000FC910488F589E02DDF91CF911994FC019B
:10371000E05CF74F2081318121503109820F931FE6
:10372000EC01C259DF4F88818C9331832083DF9174
:10373000CF9108956F927F928F929F92AF92BF9296
:10374000CF92DF92EF92FF920F931F93CF93DF936D
:10375000EC019C01275B374F59016D3721F481E063
:10376000F9018083AEC0F90180819E012D5B374F46
:103770007901882309F49EC080E26827F7018081DF
:1037800091819E01245B374F4901FE01EE5BF74FAB
:103790006F018E01005C174F009759F4E55DF7400B
:1037A0006083F90180818823A9F18FEF9FEF339621
:1037B0001EC08130910581F467FF08C083E08083DB
:1037C000862F8F77F8011082818324C082E0808366
:1037D000862F90E0F8010BC08230910559F42081CA
:1037E000233041F4F80180819181860F911D9183EE
:1037F000808310C0F6012081821B9109F80120818D
:1038000031818217930730F48C0F9D1FFC01E25920
:10381000FF4F6083F4018081882369F03E01F1EB62
:103820006F1AF7EF7F0AF301808191810E94241AB9
:10383000F30191838083F701208131812F5F3F4F16
:1038400031832083F4014081F6015081F8018081A9
:103850009181850F911D840F911D840F911D281753
:10386000390711F5F70111821082FE01EB5BF74F6A
:1038700011821082329611821082442329F03896E8
:1038800080819181892B19F4CE010E946E1BFE016B
:10389000E55BF74F8081882339F0C359DF4F8058AB
:1038A0009881981301C01082F5018081882349F026
:1038B000108207C06E3709F061CFF70111821082C4
:1038C000F3CFDF91CF911F910F91FF90EF90DF9099
:1038D000CF90BF90AF909F908F907F906F90089502
:1038E000FF920F931F93CF93DF931F92CDB7DEB755
:1038F0008C01F62E88E0898369816837E8F588EDC8
:103900009DE00E940B0888ED9DE00E942A0881112D
:1039100030C0FF2041F041E050E0BE016F5F7F4FBB
:10392000C8010E94471B60E574E08EE89EE00E949B
:103930003F324AE050E069818EE89EE00E942E33DB
:1039400064E674E08EE89EE00E943F3240E150E081
:1039500069818EE89EE00E942E3369E674E08EE86D
:103960009EE00E944C3261E070E080E090E00E94B6
:10397000882D89818F5FBFCF0F90DF91CF911F91ED
:103980000F91FF900895CF93C62F83E8860F823062
:1039900090F46DE78EE89EE00E947F30E0918E0EFD
:1039A000F0918F0E60E26C270190F081E02D8EE89F
:1039B0009EE0CF9119948EE89EE0CF910C947F30D9
:1039C0008F929F92AF92BF92CF92DF92EF92FF922F
:1039D0000F931F93CF93DF93EC018C017C0120ECBC
:1039E000E21A27EFF20A845B974F6C015E0193EBBA
:1039F000A91A97EFB90AF7018081918198012C1BD0
:103A00003D0BF60128173907C8F480819801225927
:103A10003F4F4901882351F0F9016081F501808110
:103A200091810E94241AF50191838083F4016081C1
:103A3000CE010E94C31C0F5F1F4FDDCF8081882302
:103A400069F08E01035B174FF8016081CE010E947F
:103A5000C31CF8016181CE010E94C31CF7011182D1
:103A60001082C95BD74F19821882DF91CF911F91C5
:103A70000F91FF90EF90DF90CF90BF90AF909F900D
:103A80008F900895BF92CF92DF92EF92FF920F93A3
:103A90001F93CF93DF93EC01B62E8C01005C174F80
:103AA000FC01E95BF74F80819181F801918380836C
:103AB0006EE78EE89EE00E947F307E01F4EBEF1A05
:103AC000F7EFFF0AF7018081882381F08FEF9FEFE6
:103AD0006E01F3EBCF1AF7EFDF0AF60191838083D3
:103AE0006B2D0E94241AF601918380836B2DCE01E9
:103AF0000E94C31CF80160817181F70180816038E8
:103B0000710580F4882371F17E01F3EBEF1AF7EF72
:103B1000FF0AF701808191810E94241AF7019183A5
:103B2000808320C08823B1F07068672F7E01F3EB9B
:103B3000EF1AF7EFFF0AF701808191810E94241AA2
:103B4000F70191838083F80160810E94241AF701B4
:103B500091838083F801808191819068692FCE01E3
:103B60000E94C31CF8016081CE01DF91CF911F91AB
:103B70000F91FF90EF90DF90CF90BF900C94C31CFB
:103B80000F931F93CF93DF931F92CDB7DEB78C01B6
:103B9000698341E050E0BE016F5F7F4F0E94471B89
:103BA000F801E359FF4F6081C8010E94421DC8011E
:103BB0000E94E01C0F90DF91CF911F910F9108950B
:103BC000FF920F931F93CF93DF938A01422F88EDCB
:103BD0009DE00E940508C0E088ED9DE00E94570727
:103BE000892B71F0FF24F394FC0EC8018C0F911DFA
:103BF000EC0188ED9DE00E945F078883CF2DECCF1C
:103C00008C2FDF91CF911F910F91FF9008956F92AC
:103C10007F928F929F92AF92BF92CF92DF92EF925C
:103C2000FF920F931F93CF93DF93CDB7DEB76997C2
:103C30000FB6F894DEBF0FBECDBF8C018DB69EB619
:103C4000862F90E0FC01E058F109EF31F10508F012
:103C5000D5C4E753FF4F9801205C374F79010C948E
:103C6000D239D9018D919C91892BF1F4D801ED9134
:103C7000FC910280F381E02DC8011995FC010190AF
:103C80000020E9F7AF0141505109481B590BD801F9
:103C9000ED91FC910280F381E02D62C0D9018D91FC
:103CA0009C91019709F49FC386E0F801E459FF4F06
:103CB00086C4F90180819181892BB1F7D801ED91FA
:103CC000FC910480F581E02DC8011995FC0101905B
:103CD0000020E9F7AF0141505109481B590BD801A9
:103CE000ED91FC910480F581E02D3AC0F9018081CD
:103CF0009181892BC9F6D801ED91FC910680F7815D
:103D0000E02DC8011995FC0101900020E9F7AF01F1
:103D100041505109481B590BD801ED91FC91068087
:103D2000F781E02D1DC0F90180819181892B09F077
:103D3000BBCFD801ED91FC910084F185E02DC80145
:103D40001995FC0101900020E9F7AF01415051099C
:103D5000481B590BD801ED91FC910084F185E02DB1
:103D6000C801498F588F1995498D588DBC0134C4AD
:103D7000F90180819181892B09F096CFD801ED91CD
:103D8000FC910284F385E02DC8011995FC01019096
:103D90000020E9F7AF0141505109481B590BD801E8
:103DA000ED91FC910284F385E02DDACFF901808159
:103DB0009181892B09F078CFD801ED91FC91048491
:103DC000F585E02DC8011995FC0101900020E9F767
:103DD000AF0141505109481B590BD801ED91FC919D
:103DE0000484F585E02DBCCFF90180819181892B78
:103DF00009F05ACFD801ED91FC910684F785E02DAA
:103E0000C8011995FC0101900020E9F7AF0141506C
:103E10005109481B590BD801ED91FC910684F78597
:103E2000E02D9ECFF90180819181892B09F03CCF53
:103E30004AE050E065E874E0CFC3D9018D919C91D0
:103E4000029709F031CFF801EB5BF74F2081318108
:103E5000A801420F531FDA01A259BF4F8C9111964E
:103E60006C912E5F3F4F318320830E943A2FC2C353
:103E7000F90180819181029709F016CFF801EB5B7F
:103E8000F74F20813181A801420F531FDA01A25957
:103E9000BF4F8C9111966C912E5F3F4F31832083E1
:103EA0000E94732FA7C3D9018D919C91019709F0AE
:103EB000FBCEF801EB5BF74F20813181D801A20FD7
:103EC000B31FA259BF4F8C912F5F3F4F3183208387
:103ED0000E94A92FF5C2F90180819181029709F012
:103EE000E3CEF801EB5BF74F20813181D801A20FBF
:103EF000B31FA259BF4F8C91A9014F5F5F4F5183F0
:103F00004083D901A159BF4FA00FB11F6D917C9182
:103F10002D5F3F4F318320830E94202E6BC3C80149
:103F200084599F4F26E0DC012C93F70120813181D9
:103F30002230310508F462C3ADB6BEB6F801EB5BC2
:103F4000F74F40815181D801A40FB51FA259BF4F2F
:103F50006C914F5F5F4F51834083462F50E0ADB768
:103F6000BEB7A41BB50B0FB6F894BEBF0FBEADBF56
:103F700011966D012230310511F4613031F04D5F41
:103F80005F4F2417350709F07BC07C2D3601262DA5
:103F9000271B261788F420813181A801420F531F67
:103FA00042595F4FDA014C912F5F3F4F318320839D
:103FB000D3014D933D01EBCFD7012D913C912230A0
:103FC0003105B1F020813181D901A259BF4FA00F35
:103FD000B11FED90FC902E5F3F4F31832083B9EEEF
:103FE000EB16B3E0FB0638F029E0FC01208348C063
:103FF000EE24E394F12CDC011C92F092420EE0924C
:10400000410EC80182599F4F9093460E8093450EF2
:1040100080E0688F0E946008688D613029F4F601A5
:1040200080810E94EE0912C0D0923F0EC0923E0ED7
:1040300060933C0E10923B0E8FEF99E090933A0EF6
:104040008093390ED6018C910E94D4090E94640994
:104050008091410E9091420E2091430E3091440E7A
:1040600028173907C9F70E948309EE0CFF1CF801D5
:10407000E95BF74F80819181E80EF91EF182E082C1
:104080000FB6F894BEBE0FBEADBEB8C2F9018081B6
:104090009181039709F008CED801AB5BB74F8D91A2
:1040A0009C911197FC01E259FF4FE00FF11F6081D5
:1040B0007181F801E80FF91FE059FF4F4081039625
:1040C0008D939C93D801ED91FC910288F389E02DAA
:1040D000C80119958FC2F90180819181029709F079
:1040E000E3CDD801AB5BB74F8D919C911197FC014B
:1040F000E259FF4FE00FF11F6081718102968D93AD
:104100009C93D801ED91FC910088F189E02DC801C4
:104110001995D6C1F90180819181029709F0C4CD2A
:10412000F801EB5BF74F808191819801280F391FCF
:10413000D901A259BF4F6C911196EC9002969183D0
:104140008083CE0101960E946606CE0101960E94F0
:104150005406F12CBE01615F7F4FCE0101960E9493
:104160008906F394EF14B0F7980124593F4F790171
:10417000882309F422C248E050E0BE01615F7F4F0E
:10418000C8010E94471B16C2D9018D919C910B97C3
:1041900009F08ACDD801AB5BB74F2D913C911197B7
:1041A000A801420F531FFA01E259FF4F60816901D4
:1041B000EFEFCE1ADE0A1196DC92CE923E01FFE0BE
:1041C0006F0E711C80E090E0B62CA72CC00ED11EA3
:1041D0007601E80EF91E7EE6E70EF11CF701F0808D
:1041E000F301F1923F0101968830910589F7FA01B8
:1041F000E958FF4FF0803196E080255F3F4F2D93C7
:104200003C93CE0101960E946606CE0101960E9463
:1042100031056B2D7A2DCE0101960E942C0640E0CF
:104220006F2DCE0101960E94CE05F12CFE1409F4EB
:10423000E1C1CE0101960E9410068F8B41E050E053
:10424000BE01695E7F4FC8010E94471BF394EECF09
:10425000D9018D919C910B9709F026CDD801AB5BCC
:10426000B74F2D913C911197A801420F531FFA01AE
:10427000E259FF4F60816901EFEFCE1ADE0A119615
:10428000DC92CE923E01FFE06F0E711C80E090E068
:10429000B62CA72CC00ED11E7601E80EF91E7EE6C4
:1042A000E70EF11CF701F080F301F1923F01019656
:1042B0008830910589F7FA01E958FF4FF08031966F
:1042C0004081255F3F4F2D933C93CE010196498F4E
:1042D0000E946606CE0101960E9431056B2D7A2D53
:1042E000CE0101960E942C06498D6F2DCE010196BC
:1042F0000E94CE057FC1D9018D919C91029709F052
:10430000D3CCF801EB5BF74F808191819801280FA6
:10431000391FD901A259BF4F6C911196EC900296AA
:10432000918380834E2D88ED9DE00E940508F12C3D
:1043300088ED9DE00E945707892B79F088ED9DE07C
:104340000E945F07898341E050E0BE016F5F7F4FAD
:10435000C8010E94471BF394EBCFF801E459FF4FCB
:10436000FE1409F44AC181E02AC1F90180819181DA
:10437000892B09F499CC6801FBEBCF1AF7EFDF0A20
:10438000D6018D919C911197F801E80FF91FE25920
:10439000FF4F608101968D939C9388ED9DE00E9474
:1043A0000B08B12C2B2D30E0F70180819181019712
:1043B0002817390798F4F60180819181F801E80FF8
:1043C000F91FE259FF4F60810196D6018D939C93AE
:1043D00088ED9DE00E94AF07B394E4CF88ED9DE0A7
:1043E0000E942A0807C1F801EB5BF74F8081918199
:1043F000D801A80FB91FA259BF4F2C9101969183E4
:1044000080838CB5211102C0806201C08F7D8CBD7C
:10441000F1C0F90180819181019709F045CCF80143
:10442000EB5BF74F80819181D801A80FB91FA2598A
:10443000BF4F2C910196918380839CB5822F83700E
:104440009C7F892B8CBD8DB522FB222720F98E7F86
:10445000822B8DBD18C0D9018D919C91019709F0D7
:1044600023CCF801EB5BF74F80819181D801A80F35
:10447000B91FA259BF4F2C910196918380838CB5AF
:10448000837F282B2CBDE95DF740B7C0F9018081FF
:104490009181019709F008CCF801EB5BF74F80811F
:1044A0009181D801A80FB91FA259BF4F2C91019635
:1044B000918380832EBD00000DB407FEFDCF8EB525
:1044C000898341E050E0BE016F5F7F4F85C0D90115
:1044D0008D919C91892B09F0E7CBF801EA59FF4FA8
:1044E00040815181B8016E5F7F4F76C0F9018081B4
:1044F0009181892B09F0D8CB8091330E9091340EA5
:10450000A091350EB091360E89839A83AB83BC831C
:1045100044E050E0D8CFD9018D919C91049709F0E7
:10452000C3CBD801AB5BB74F2D913C911197F901EB
:10453000E259FF4FE00FF11F608171818281938109
:104540002C5F3F4F2D933C930E94750853C0F90197
:1045500080819181892B09F0A7CB0E9447089A831B
:10456000898342E050E0AFCFD9018D919C910297B1
:1045700009F09ACBD801AB5BB74F2D913C911197C5
:10458000F901E259FF4FE00FF11F808191812E5F09
:104590003F4F2D933C939C0122503109F801E4597F
:1045A000FF4F7F012630310540F40E943E0880E035
:1045B0000E940709D7011C9221C085E0F701808382
:1045C0001DC0D9018D919C91892B09F06DCB44E0E0
:1045D00050E0B80168597F4FC8010E94471B0AC0CC
:1045E000F90180819181892B09F05ECB61E0C801DE
:1045F0000E94701CF801E459FF4F10827801FCE61C
:10460000EF0EF11CD7016C91C8010E94C01DF7018B
:1046100080810FB6F8949EBE0FBE8DBE69960FB610
:10462000F894DEBF0FBECDBFDF91CF911F910F91E8
:10463000FF90EF90DF90CF90BF90AF909F908F90C2
:104640007F906F900895EF92FF920F931F93CF93F7
:10465000DF931F921F92CDB7DEB7122F88ED9DE03A
:1046600049835A830E940B084981042FE42E5A8102
:10467000F52E8E2D801B811740F4F70161917F018B
:1046800088ED9DE00E94AF07F4CF88ED9DE00F908C
:104690000F90DF91CF911F910F91FF90EF900C94AD
:1046A0002A08CF93DF93EC018EE89EE00E94D22F80
:1046B000181619064CF48EE89EE00E94EB2F682F26
:1046C000CE010E949A1BF0CFDF91CF9108952091E7
:1046D000430E3091440E8091410E9091420E281766
:1046E000390721F40E94830981E0089580E008954C
:1046F000CF93DF93D82FC62F811109C0662321F0F5
:104700006130B1F560E001C061E08DE01DC0813035
:1047100079F5613049F030F0623061F0633041F595
:1047200060E01DC061E01BC060E08CE00E94732F60
:1047300061E019C060E08CE00E94732F60E08BE0C4
:104740000E94732F61E08AE00E94732F8BE1D89F53
:10475000F0011124E75BF14FC18380E00AC08CE0D7
:104760000E94732F60E08BE00E94732F60E0EBCF1C
:1047700085E0DF91CF9108959093820E8093810E12
:104780006093490E4093640E60E078EB88E097E414
:104790000E94750880E00E941D2E61E08DE00E945D
:1047A0003A2F61E08CE00E943A2F61E08BE00E949A
:1047B0003A2F61E08AE00E943A2F83E00E943E088F
:1047C00060914A0E80E00E9478236091650E81E03E
:1047D0000E94782320E032E030935F0E20935E0E3B
:1047E00080E090E0A0E0B4E48093600E9093610ECE
:1047F000A093620EB093630E41E04093590E309344
:104800007A0E2093790E80937B0E90937C0EA0936A
:104810007D0EB0937E0E4093740E08950F931F93F8
:10482000CF93DF93AB019BE1899FE0011124C75B2C
:10483000D14F9B01235331092A393340B0F09B817A
:10484000911110C09A819F5F9A836981662321F03C
:1048500061500E94782303C081E080937F0E83E043
:104860008B8337C091509B8334C08091800E882306
:1048700009F18D899E89DB01A81BB90B9D010E945E
:10488000D83909891A892B893C89060F171F281FD7
:10489000391F098B1A8B2B8B3C8B88859985AA85B0
:1048A000BB85840F951FA11DB11D88879987AA8795
:1048B000BB870FC08C819D818617970718F47D8375
:1048C0006C8307C08E819F816817790710F47F83FE
:1048D0006E83DF91CF911F910F91089580E00C942A
:1048E0000E2481E00C940E242F923F924F925F92FF
:1048F0006F927F928F929F92AF92BF92CF92DF92F0
:10490000EF92FF920F931F93CF93DF93CDB7DEB754
:1049100064970FB6F894DEBF0FBECDBF29013A01F0
:10492000E986FA860B871C871601BA8AA98A0E9433
:10493000DA3720E030E04AE754E40E9406369B0173
:10494000AC010E948B356B017C0120E030E0A901B5
:104950000E94913720E030E040E05FE387FD05C032
:10496000C701B6010E948B3504C0C701B6010E9481
:104970008A350E946E360E94A13620E030E040E089
:104980005FE30E94DA376D837E838F839887A3016C
:1049900092016D817E818F8198850E9406362985DE
:1049A0003A854B855C850E94DA370E94EF350E947C
:1049B00073368B010230110508F42DC3B80180E075
:1049C00090E00E949F362D813E814F8158850E9444
:1049D0000636A30192010E94DA3769837A838B83BA
:1049E0009C83D1016D937D938D939C93139729851F
:1049F0003A854B855C850E94913718160CF408C3E4
:104A0000A301920169817A818B819C810E94063683
:104A10006B017C019B01AC0160E070E080E090E400
:104A20000E9406364B015C0120E030E0A9010E94A3
:104A3000913720E030E040E05FE387FD05C0C5012D
:104A4000B4010E948B3504C0C501B4010E948A35AF
:104A50000E946E360E94A136A70196010E94DA37A5
:104A60009B01AC0160E070E080E090E40E948A3538
:104A700020E030E0A9010E94913720E030E0A90158
:104A8000181664F5C501B4010E94913720E030E0AA
:104A900040E05FE387FD05C0C501B4010E948B358E
:104AA00004C0C501B4010E948A350E946E360E947E
:104AB000A136A70196010E94DA379B01AC0160E0A4
:104AC00070E080E090E40E948A352DEC3CEC4CECE8
:104AD0005DE30E94023687FD9BC22CC0C501B40174
:104AE0000E94913720E030E040E05FE387FD05C0A1
:104AF000C501B4010E948B3504C0C501B4010E94F8
:104B00008A350E946E360E94A136A70196010E9446
:104B1000DA379B01AC0160E070E080E090E40E9435
:104B20008A352DEC3CEC4CEC5DEB0E94913718166D
:104B30000CF46EC2A3019201C301B2010E948B3535
:104B40009B01AC0169817A818B819C810E94023634
:104B500087FF61C129813A814B815C81C301B20128
:104B60000E9406366D877E878F87988B1C8A1B8AEA
:104B7000EB89FC89BF0180E090E00E949F364B01E9
:104B80005C019B01AC016D857E858F8598890E94B3
:104B90008A3520E030E040E05FE30E9402361816DC
:104BA0003CF42B893C892F5F3F4F3C8B2B8BE0CF14
:104BB00029813A814B815C81C501B4010E94DA37B9
:104BC0009B01AC01C301B2010E948A354B015C011B
:104BD00020E030E0A9010E949137181624F0B7FABE
:104BE000B094B7F8B094A501940169817A818B8162
:104BF0009C810E94063669837A838B839C839B0108
:104C0000AC0160E070E080E090E40E9406364B0169
:104C10005C0120E030E0A9010E94913720E030E003
:104C200040E05FE387FD05C0C501B4010E948B35FC
:104C300004C0C501B4010E948A350E946E360E94EC
:104C4000A13629813A814B815C810E94DA379B0130
:104C5000AC0160E070E080E090E40E948A3520E0E2
:104C600030E0A9010E94913720E030E0A901181638
:104C700074F5C501B4010E94913720E030E040E0B6
:104C80005FE387FD05C0C501B4010E948B3504C0F8
:104C9000C501B4010E948A350E946E360E94A13679
:104CA00029813A814B815C810E94DA379B01AC01FA
:104CB00060E070E080E090E40E948A352DEC3CECEE
:104CC0004CEC5DE30E94023687FF2FC0A1C1C501F5
:104CD000B4010E94913720E030E040E05FE387FDBF
:104CE00005C0C501B4010E948B3504C0C501B401E3
:104CF0000E948A350E946E360E94A13629813A812F
:104D00004B815C810E94DA379B01AC0160E070E06E
:104D100080E090E40E948A352DEC3CEC4CEC5DEB9D
:104D20000E94913718160CF473C120E030E0A901FD
:104D3000C701B6010E94913720E030E040E05FE318
:104D400087FD05C0C701B6010E948B3504C0C701AD
:104D5000B6010E948A350E946E360E94A1369B01E0
:104D6000AC01C701B6010E948A3520E030E0A901FC
:104D70000E94913720E030E0A901181634F5C701F0
:104D8000B6010E94913720E030E040E05FE387FD0C
:104D900005C0C701B6010E948B3504C0C701B6012A
:104DA0000E948A350E946E360E94A1369B01AC019A
:104DB000C701B6010E948A3527E137EB41ED58E380
:104DC0000E94023687FF27C023C1C701B6010E9497
:104DD000913720E030E040E05FE387FD05C0C70188
:104DE000B6010E948B3504C0C701B6010E948A3506
:104DF0000E946E360E94A1369B01AC01C701B6012C
:104E00000E948A3527E137EB41ED58EB0E9491373C
:104E100018160CF4FDC020E030E040E251E4C70178
:104E2000B6010E94023687FF76C020E030E0A9017B
:104E3000C701B6010E94913720E030E040E05FE317
:104E400087FD05C0C701B6010E948B3504C0C701AC
:104E5000B6010E948A350E946E360E94A1369B01DF
:104E6000AC01C701B6010E948A3520E030E0A901FB
:104E70000E94913720E030E0A901181634F5C701EF
:104E8000B6010E94913720E030E040E05FE387FD0B
:104E900005C0C701B6010E948B3504C0C701B60129
:104EA0000E948A350E946E360E94A1369B01AC0199
:104EB000C701B6010E948A3527E137EB41ED58E37F
:104EC0000E94023687FF27C0A3C0C701B6010E9417
:104ED000913720E030E040E05FE387FD05C0C70187
:104EE000B6010E948B3504C0C701B6010E948A3505
:104EF0000E946E360E94A1369B01AC01C701B6012B
:104F00000E948A3527E137EB41ED58EB0E9491373B
:104F100018160CF47DC02D813E814F815885C70144
:104F2000B6010E94DA376B017C0120E030E0A90174
:104F30000E94913720E030E040E05FE387FD05C04C
:104F4000C701B6010E948B3504C0C701B6010E949B
:104F50008A350E946E360E94A1369B01AC01C701C2
:104F6000B6010E948A3520E030E0A9010E94913705
:104F700020E030E0A901181634F5C701B6010E94FF
:104F8000913720E030E040E05FE387FD05C0C701D6
:104F9000B6010E948B3504C0C701B6010E948A3554
:104FA0000E946E360E94A1369B01AC01C701B6017A
:104FB0000E948A3527E137EB41ED58E30E94023623
:104FC00087FF26C033C0C701B6010E94913720E099
:104FD00030E040E05FE387FD05C0C701B6010E94F5
:104FE0008B3504C0C701B6010E948A350E946E3617
:104FF0000E94A1369B01AC01C701B6010E948A350F
:1050000027E137EB41ED58EB0E949137181674F009
:1050100001501109CFCC20E030E040E05FE36D812A
:105020007E818F8198850E948B35ADCCA989BA8904
:105030000D931C9364960FB6F894DEBF0FBECDBFE0
:10504000DF91CF911F910F91FF90EF90DF90CF9064
:10505000BF90AF909F908F907F906F905F904F9098
:105060003F902F90089510924A0E1092650E089569
:105070002F923F924F925F926F927F928F929F9268
:10508000AF92BF92CF92DF92EF92FF920F931F9356
:10509000CF93DF93CDB7DEB7C85CD1090FB6F894D4
:1050A000DEBF0FBECDBFC154DF4F59834883CF5BF6
:1050B000D040CF53DF4F088319832A833B83C15CE1
:1050C000D04026013701CD54DF4FA882C35BD040CA
:1050D0008092800EAA2031F1A3E8AA2EAEE0BA2E6B
:1050E000AE0149555F4F6A01E12C10E4F12E0CE945
:1050F00016E4A30192010E947424C955DF4F688110
:1051000079818A819B81C75AD0409B01AC010E9462
:105110008B35C955DF4F688379838A839B83C75A50
:10512000D04017C020E030E040E05FE30E94DA3773
:10513000E3E8AE2EEEE0BE2EDE01A955BF4F6D01B5
:10514000E12C10E4F12E0CE117E4A30192010E947E
:1051500074248091830E9091840E880F991F9093F0
:10516000840E8093830EC955DF4F688179818A81CF
:105170009B81C75AD0400E947508B0914A0EC35413
:10518000DF4FB883CD5BD04081E0C355DF4F8883CC
:10519000CD5AD04061E080E00E947823E091650E16
:1051A000C254DF4FE883CE5BD04083E0C255DF4F6F
:1051B0008883CE5AD04063E081E00E9478238091BA
:1051C000490EFE01E555FF4F80839091640E918357
:1051D0002091830E3091840ECD54DF4F4881C35B04
:1051E000D040442311F13093420E2093410EF093AE
:1051F0003F0EE0933E0E92E090933C0E10923B0ED9
:105200002FEF39E030933A0E2093390E0E94D409E3
:1052100087E19AE090933A0E8093390E8EE094E203
:105220009093380E8093370E06C0369527953093AD
:10523000420E2093410EE090810EF090820EF70115
:10524000E859FF4F20E030EC4FE754E46081718172
:10525000828193810E940636C754DF4F6883798329
:105260008A839B83C95BD0401E015FE9250E311CF8
:105270003E0183E1680E711CCE01805B9F4F2C01C3
:10528000AAE04A0E511CF1013896C155DF4FF9834F
:10529000E883CF5AD040CC54DF4F8883C45BD040E2
:1052A000C854DF4F9883C85BD04087010B59174F14
:1052B0009701245A374FCF54DF4F39832883C15B7E
:1052C000D0408091490EF801CC54DF4FA881C45BD7
:1052D000D040C854DF4FB881C85BD0409FE40190F4
:1052E0000D929A95E1F7882341F0813061F4F20143
:1052F000208931894289538909C0D2012D913D917C
:105300004D915C9103C020E030E0A901F801DE017D
:1053100011969FE401900D929A95E1F7882341F050
:10532000813061F4F301C08CD18CE28CF38C09C024
:10533000D301CD90DD90ED90FC9003C0C12CD12C19
:10534000760160E876E988E19BE40E94063620E079
:1053500030E040E85FE30E948B354B015C0120E8C0
:1053600036E948E15BE4C701B6010E94DA379B01E8
:10537000AC010E948B352BED3FE049E450E40E94E4
:10538000DA37CF54DF4FA881B981C15BD0402D916E
:105390003D914D915C910E94DA376B017C01A50132
:1053A0009401C501B4010E94DA374B015C01A701E9
:1053B0009601C701B6010E94DA379B01AC01C50115
:1053C000B4010E948B350E948D389B01AC01C754FB
:1053D000DF4F688179818A819B81C95BD0400E94BF
:1053E000DA37F10161937193819391931F01F4E096
:1053F0006F0E711C24E0420E511CC155DF4F4881D5
:105400005981CF5AD0402416350609F05ACF109250
:105410007F0ECF54DF4F19821882C15BD040CF542A
:10542000DF4F88819981C15BD040C154DF4FA88193
:10543000B981CF5BD0408A179B0709F4D1C2809114
:10544000800E10924B0E10924C0E81110BC0EFEF9C
:10545000F3E0F093500EE0934F0E10924E0E109228
:105460004D0E10C01092510E1092520E1092530E0B
:105470001092540E10925A0E10925B0E10925C0E07
:1054800010925D0E1092660E1092670E882389F0BE
:1054900010926C0E10926D0E10926E0E10926F0E96
:1054A0001092750E1092760E1092770E1092780E62
:1054B0000AC08FEF93E090936B0E80936A0E109268
:1054C000690E1092680ECD54DF4F9881C35BD040B7
:1054D0009923E1F10E9464090E9467238823E1F384
:1054E0000E94652DCC54DF4F688379838A839B8328
:1054F000C45BD040A091800EC854DF4FA883C85B26
:10550000D0408091830E9091840EFE01E355FF4FB1
:10551000C155DF4FF983E883CF5AD04009E41EE03C
:105520009E012F5F3F4F2901AE01405B5F4F1A0183
:10553000612C712C9C0140E050E0CB53DF4F28835D
:1055400039834A835B83C55CD0409AC08091490E01
:105550000E94EE0947E15AE050933A0E4093390E0B
:105560008EE694E29093380E8093370E0E94640981
:105570000E9467238823E1F38091640E0E94EE0964
:10558000A7E1BAE0B0933A0EA093390EE1E7F4E256
:10559000F093380EE093370E0E9464090E9467234F
:1055A0008823E1F39DCFCB53DF4F688179818A81D6
:1055B0009B81C55CD0400E949F366B017C01D80165
:1055C00051966D917D918D919C9154970E949F363B
:1055D0009B01AC010E948B35A70196010E94063603
:1055E0000E948D38F201608371838283938320E06F
:1055F00030E040E852E40E94DA379B01AC010E949F
:105600008B3523EF34E045EB5FE30E94DA370E94ED
:105610007336D1016D937C93F301E75BF14F828187
:105620008823B9F1F301E75BF14F8281882309F404
:10563000B3C08195C155DF4FA881B981CF5AD04001
:105640008C93B1E0B08BC155DF4FE881F981CF5A1F
:10565000D0403196C155DF4FF983E883CF5AD0400F
:10566000FBE16F0E711C055E1F4F22E0220E311C04
:1056700034E0430E511C46E36416710409F496C0ED
:10568000C854DF4FF881C85BD040FF2309F45AC0EB
:105690008ACF80898111C6CFF80180849184A28449
:1056A000B3846485758586859785680D791D8A1D07
:1056B0009B1D0E949F362AE037ED43E25CE30E9487
:1056C000DA37A70196010E9406366B017C0124EAB5
:1056D00030E74DE75FE3D80157966D917D918D914D
:1056E0009C915A970E94DA379B01AC01C701B60121
:1056F0000E948B356B017C01F801678B708F818F65
:10570000928F20E030E0A9010E94913720E030E044
:1057100040E05FE387FD05C0C701B6010E948B35FD
:1057200004C0C701B6010E948A350E946E36D801B6
:1057300056967C936E935597F80184869586A68637
:10574000B78670CFD80114966D917C9115971696F7
:105750008D919C911797681B790B96E0660F771FC8
:105760009A95E1F7F1017183608380E090E00E94F7
:105770009F3623EF34E045EB5FE30E94063620E0DE
:1057800030E040E05CE30E94DA37D2016D937D9314
:105790008D939C93139746CF8181C155DF4FA8818C
:1057A000B981CF5AD0408C93108A4DCF0091810E91
:1057B0001091820EF801EC59F74F8081882309F48B
:1057C00070C080914B0E81116CC03C97C080D1801D
:1057D000E280F38020E030E0A901C701B6010E9419
:1057E000913718160CF05DC0C355DF4F8881CD5A34
:1057F000D040EFE9F0E0EC0FFD1F24E08202E00D65
:10580000F11D1124208131814281538169817A8186
:105810008B819C810E94DA374B015C018091660E7E
:105820008111B5C02D813E814F815885C754DF4F0E
:10583000688179818A819B81C95BD0400E94DA3777
:105840009B01AC01C701B6010E948B352B013C01C5
:105850009B01AC01C501B4010E948A356B017C013A
:1058600020E030E0A9010E949137181624F0F7FAE1
:10587000F094F7F8F09420E030E040E05FE3F801C6
:10588000ED55F74F60817181828193810E94DA37F3
:105890009B01AC01C701B6010E94913718160CF4A8
:1058A0007AC00AE41EE0CE01805B9F4F6C01E12CC0
:1058B000F12CD6018D919C91893C9C4030F4F801EB
:1058C00060816F5F8E2D0E94782342E050E0B60128
:1058D0008091810E9091820E0E94471B6DEA70E0CC
:1058E0006C0F7D1F6E0D7F1D41E050E08091810E99
:1058F0009091820E0E94471BFFEFEF1AFF0A22E0F1
:10590000C20ED11C055E1F4F32E0E316F10489F68A
:105910008EE89EE00E94D22F181619060CF460C083
:105920000E94652DCC54DF4F288139814A815B81EB
:10593000C45BD040621B730B840B950B0E949F3697
:105940006B017C0120E030E04AE754E4CF53DF4FA5
:10595000688179818A819B81C15CD0400E94DA375D
:105960009B01AC01C701B6010E94023687FDD8CF6A
:10597000CF54DF4F48815981C15BD0404F5F5F4FAB
:10598000CF54DF4F59834883C15BD04048CD20E0DE
:1059900030E0A90157CFF801E05AF74F208131815B
:1059A00042815381C501B4010E94DA37A3019201FB
:1059B0000E9406366B017C0120E030E040E85FE3A6
:1059C0000E94023687FF06C0C12CD12C80E8E82E49
:1059D0008FE3F82EB701A601C8010E94700E61CFB7
:1059E000C354DF4F6881CD5BD04080E00E947823B4
:1059F000C254DF4F6881CE5BD04081E00E947823A3
:105A000080E0C853DF4F0FB6F894DEBF0FBECDBFA6
:105A1000DF91CF911F910F91FF90EF90DF90CF908A
:105A2000BF90AF909F908F907F906F905F904F90BE
:105A30003F902F9008951F920F920FB60F9211244E
:105A40002F933F938F939F93AF93BF938091860E35
:105A50009091870EA091880EB091890E3091850E9D
:105A600023E0230F2D3720F40196A11DB11D05C0A1
:105A700026E8230F0296A11DB11D2093850E809369
:105A8000860E9093870EA093880EB093890E809116
:105A90008A0E90918B0EA0918C0EB0918D0E019676
:105AA000A11DB11D80938A0E90938B0EA0938C0E36
:105AB000B0938D0EBF91AF919F918F913F912F9198
:105AC0000F900FBE0F901F9018953FB7F8948091DC
:105AD0008A0E90918B0EA0918C0EB0918D0E26B5F2
